:100000006DC1000088C100000C94E51084C100009F
:1000100082C100000C94DF107EC100007CC1000092
:100020007AC1000078C1000076C1000074C10000F0
:1000300072C1000070C100000C94A6106CC10000D9
:100040006AC1000068C1000066C1000064C1000010
:1000500062C1000060C100005EC100005CC1000020
:100060005AC1000058C1000056C1000054C1000030
:100070003230323330353137303237330001050416
:1000800014101115FF3FFF3F7430CC1FC62C6C3984
:10009000212B9332E3351F372C377A364935C0335D
:1000A000F7316A340832013361308C304630B12F79
:1000B000E02EE22DC32C8B2B962B292AD4295029F4
:1000C000BD270E274826712537253E243F23C5220C
:1000D000BA2126211820751FC91EBF1D101D5D1CC9
:1000E000611BB01A001A161934188F17BB16EF15BA
:1000F0002B1546146D13C312DB1122115310730F0D
:10010000A10EDD0D0C0D490C7C0BA90AD1090809C3
:100110003D086F07A106D30506052E046703960266
:10012000CB01FF00FF00FF00FF00FF00FF00FF000A
:10013000FF00FF00FF00FF00FF00FF00FF00FF00C7
:10014000FF00FF00FF00FF00FF00FF00FF00FF00B7
:10015000FF00FF00FF00FF00FF00FF00FF00FF00A7
:10016000FF00FF00FF00FF00FF00FF00FF00FF0097
:10017000FF00FF00FF00FF00FF00FF00FF00FF0087
:10018000FF00FF00FF00FF00FF00FF00FF00FF0077
:10019000FF00FF00FF00FF00FF00FF00FF00FF0067
:1001A000FF00FF00FF00FF00FF00FF00FF00FF0057
:1001B0000000010001000100020003000300040030
:1001C000050006000700080009000A000B000D00EA
:1001D0000E001000110013001500170019001B007D
:1001E0001D001F002200240027002A002C002F00E1
:1001F0003200350039003C003F00430046004A0011
:100200004D005100550058005C006000630067001D
:100210006B006E007100750078007B007E0080002E
:100220008200850086008800890089008900890095
:1002300088008700850082007E007A0075006F00CC
:100240006800600057004C00410034002600160092
:10025000170019001A001B001C001D001E002000C2
:100260002100220024002500270028002A002B005E
:100270002D002F00310033003500370039003B00DE
:100280003D003F0042004400460049004C004E0043
:100290005100540057005A005D0060006300670081
:1002A0006A006E007100750079007D008100850094
:1002B00089008E00920097009B00A000A500AA0074
:1002C000AF00B500BA00C000C500CB00D100D70018
:1002D000DE00E400EA00F100F800FF0011241FBE78
:1002E000CFEFD4E0DEBFCDBF11E0A0E0B1E0E0E7AA
:1002F000F7E202C005900D92AE37B107D9F722E0C0
:10030000AEE7B1E001C01D92AE30B207E1F70E9446
:10031000EB100C94B61374CEF89498ED9FBD83BF88
:1003200078940895482F362F272FEBEDF1E090E0D9
:1003300080E0508151110BC063E070E00E945813BF
:10034000FC01E552FE4F40833183228305C00196B4
:1003500033968031910569F70895BC0180910D02B3
:10036000E1CF10920D0210920C0210920B0281E06C
:100370008093A90108950F931F93CF93C82F08EA84
:1003800017E0C15020F4CF911F910F91089582E0A2
:10039000C3DFC8010197F1F780E0BEDFF2CF83B180
:1003A000886483B90895E0910601F09107013196C0
:1003B000FB70F460F0930701E09306018091AC01BB
:1003C0008B5A8093AC01E4918091AC018E0F08951B
:1003D0008091AF01843010F482E09ECF8C3010F415
:1003E00081E0FBCF80E0F9CF81110BC010926D004E
:1003F00010926C0010926F0010926E0068984898EE
:10040000E7CF689A489A815090E0880F991FFC01C5
:10041000E055FE4F2591349130936D0020936C0090
:10042000FC01EC57FF4F859194916091AF019C01C5
:1004300020523109662339F040916E0050916F00CF
:1004400024173507B8F39093690080936800809172
:10045000AF018111D5CF10926F0010926E00D0CFF6
:10046000882321F0813031F0829A05C082989298D9
:100470008A9808958298929A8A9A0895CF93DF93E2
:1004800000D00F92CDB7DEB720917A0130917B0179
:1004900040917C0129833A834B83FE01319650E0E1
:1004A00040E0682F70E0A1E0B0E09B01042E02C0A4
:1004B000359527950A94E2F7922F937081919D01CB
:1004C00001C0220F8A95EAF7992329F09130C1F0F3
:1004D00080B3822B19C080B32095822380BB82B366
:1004E000822382BB81B3282321BB4E5F5F4F4630FE
:1004F0005105D9F60F900F900F90DF91CF9108958D
:1005000090B3822F8095892380BB82B3822B82BBDC
:1005100081B3282BE9CFCF93C82F8091AF018111F0
:1005200009C0CC2339F080912F01C81718F4F3DFEC
:1005300082E021DF8091B00181110BC09FDF91E04B
:10054000C11101C090E081E0C73408F480E0890F58
:1005500087DFE0911C01F0E0EE0FFF1FE659FE4F30
:100560000190F081E02D8C2F09958091AF018C13C3
:100570008093AE01C093AF01C093AD01CF9128CF5E
:10058000CF93DF93C82FD091AF0180E0C4DFC09339
:100590001C018D2FDF91CF91BECF811182E06ECFF4
:1005A00081118AE06BCF811188E068CF811188E2E8
:1005B00065CF811180E262CF811182E25FCF81112C
:1005C0008AE25CCF81E00895E82FF0E0EE0FFF1F94
:1005D000E055FE4F2591349180916C0090916D0013
:1005E0008217930798F480916C0090916D000196AA
:1005F00090936D0080936C0040916C0050916D0061
:1006000081E04217530709F080E0089580916C0063
:1006100090916D002817390778F780916C009091C0
:100620006D000197E5CFCF93DF9300D000D000D0CD
:10063000CDB7DEB720910C014091C9015091CA019C
:10064000455E574009F422E0843059F46093180164
:1006500026960FB6F894DEBF0FBECDBFDF91CF91C7
:1006600008956623A9F3823019F497E9961B692F40
:1006700096E0E1E3F1E0DE01119601900D929A958A
:10068000E1F78150990B880F991FA1E0B0E0AC0F02
:10069000BD1F8A0F9B1FDC01ED91FC91E20FF11D44
:1006A0006083D6CF813011F460932F010895CF92EB
:1006B000DF92EF92FF920F931F93CF93DF939C01F2
:1006C00050910C0190911701E2E0911101C0E52FCA
:1006D000F0E0E45FFE4F4281409309018581809301
:1006E0000801E92FF0E0E45FFE4FC185642F70E060
:1006F000552381F0C13071F4860F972F911D959588
:100700008795DF91CF911F910F91FF90EF90DF9030
:10071000CF900895261737079CF1821713068CF3A4
:10072000511102C0822FEDCF841B6C2F6150770BCB
:100730008B01E82EF12CC7010E9489136093A6015A
:100740006695E62FF0E0842FD12CC12CD0E0DC1789
:10075000C1F2C601B8010E947513842F860FA82F1D
:10076000B0E0B9016A1B7B0B77FF03C0BD01621BC0
:10077000730BCE0CDF1CE617F7071CF6DF5FE7CF25
:10078000842FBFCF8093A701C6CEECE0F1E0868531
:1007900080930A018289808B08958091A301882328
:1007A00051F09091AF019093A5018093A201109216
:1007B000A1011092A00108950F931F93CF93E82FEA
:1007C000CB014091CD012FEF240F2C3138F480E084
:1007D00055DE80E0CF911F910F9142CECE2FC29572
:1007E000CF70EF702091B001222319F120912A01DE
:1007F00030E053E0220F331F5A95E1F76217730779
:10080000C8F45091A80152171306A4F43091300196
:100810002091AE01C2E0231708F4C1E02091B0019D
:10082000222309F465C080E04D3108F057C0E0E0B4
:100830001EC0C2E0E73010F4F0E016C0E73089F5E2
:100840000091830110E00F5F1F4FADDD65E00E9456
:1008500069139801290F311DC90166E070E00E94FB
:10086000891380938301FC01E358FF4FE491C33067
:1008700071F48091820190E0019663E170E00E9442
:10088000751380938201895C9E4FDC01CC91CC234F
:10089000C9F1C13011F0EE0FC2E08E2FEFDD8C2FC9
:1008A00099CFE83009F0BACF2091B001222399F016
:1008B0002FE030E082239323892B51F48091830130
:1008C00090E0019666E070E00E94891380938301B6
:1008D000E0918301B1CF23E0ECCF8E5FE82FF0E011
:1008E000E65BFE4F90814917C0F73197E081A4CFB6
:1008F0009695879563E070E00E947513FC01EE0FFA
:10090000FF1FB2CFE0E0C9CFCF93C091AF0182E328
:100910008C0F873908F080E0FEDD83E02CDD8C2F22
:10092000CF91F9CDCF93C091AF0180E0F4DD83E0AA
:1009300022DD8C2FCF91EFCD81E00895662369F001
:10094000813099F4809127019091CB01891B680F28
:100950006093270182E080930B0180912601873408
:1009600018F086E4809326010895635E6093260163
:10097000F4CF60932B010895E82FF0E0E45FFE4F81
:10098000678F089520911D013FEF380F81E090E0BF
:1009900001C0880F3A95EAF7662321F0822B8093F5
:1009A0001D01089580958223FACFCF93DF938CE0C9
:1009B00091E09093AB018093AA0182E0DCDCF89493
:1009C000D0E0C0E0E091AA01F091AB01EC0FFD1F77
:1009D0006081CE018F579F4F0E94A4132196C5328C
:1009E000D10581F765EA80E890E00E94A41378942D
:1009F000DF91CF9108951092D90130B181B120914A
:100A0000AC01329536953695337090E0880F991F7A
:100A1000880F991F830F911D820F8093AC018091E5
:100A2000CE01882309F447C01092CE018091D701EE
:100A30009091B001992329F01F981092DA01109239
:100A4000D701811146C080910B018823A9F18091C3
:100A5000D3019091D4019093D0018093CF0140961F
:100A6000807E61EC72E00E947513809125018750B1
:100A7000990B680F791F769567956093CD018091EA
:100A80009C018823F1F0815080939C018091B001FA
:100A9000811108C08EE884B981E08093D70110925B
:100AA000D8017DDC80910B01882329F080910B0116
:100AB000815080930B0108958091CF019091D001D6
:100AC000CECF6D3118F770E060E084E02BDC85E07C
:100AD000DBCF813039F780910B0181115CC08091AF
:100AE000D1019091D2014096DC0145E0B695A795E1
:100AF0004A95E1F74091270156E0969587955A95DA
:100B0000E1F750E09A012E503140820F931F9093ED
:100B1000CC018093CB0180918B01E82FF0E0EE0FA8
:100B2000FF1FE457FE4F20813181BD01621B730B13
:100B30009B01B183A0838F5F877080938B01660FC9
:100B4000771F660F771F6A0F7B1F8091260190E049
:100B5000841B950B825F9E4F880F991F681B790B32
:100B600083E0161617060CF045C0615071098150DC
:100B7000C1F7161617060CF057C037FD74C08091E8
:100B80008A011816F4F5861B80938A0186E884B9D9
:100B90001092D70184CF8091D5019091D601909386
:100BA000D2018093D101409635E0969587953A958C
:100BB000E1F790938D0180938C0190938F01809346
:100BC0008E01909391018093900190939301809373
:100BD0009201909395018093940190939701809353
:100BE0009601909399018093980190939B01809333
:100BF0009A0175CF6115710509F4B9CF6F5F7F4F09
:100C0000B6CF660F771F653071055CF063507109D0
:100C10007595679588E1861B80938A0185E082DB64
:100C2000B5CF61E070E0F6CF6C3F8FEF7807DCF472
:100C300037FF19C080918A0187FF02C08450A3CF7B
:100C400084EE861B80938A018091CD018F3108F458
:100C50009DCF8CEF9FEF9C01261B370BB90175953B
:100C6000679586E0DCCF8091CD018E3108F48ECF80
:100C700070E060E087E0D3CF813019F410921A0160
:100C80000895823019F460931B010895833019F49C
:100C9000609319010895843011F460930D01089553
:100CA000823019F460932A010895833031F4662369
:100CB00039F061506093300108956111609325010E
:100CC000089560911C0140911D0150E0862F98E02D
:100CD000282F30E02F5F3F4F27703327822FFA01F4
:100CE00002C0F595E7952A95E2F7E0FD02C0915024
:100CF00079F7681721F044DC58DE80E0089581E040
:100D00000895FF920F931F93CF93DF938C01D62FFB
:100D1000C72FF42E8091C9019091CA01892B31F01F
:100D2000E091C901F091CA0189E009951093CA01C7
:100D30000093C901012B41F0E091C901F091CA0172
:100D40006D2F7C2F8F2D099581E08093A901DF9174
:100D5000CF911F910F91FF9008952091B8012830F5
:100D600080F4E22FF0E0EE0FFF1FE754FE4F808388
:100D700091832F5F2093B80148E0C3DF8091B801D1
:100D800008958FEF0895CF93833C11F4CF9199CFBD
:100D9000C0911701C1110AC0893B41F470E060E0C5
:100DA00081E098E0DADF8C2FCF910895C1E0FBCF8E
:100DB000282FCB01283039F41092A3011092A10101
:100DC0001092A0010895213B59F48091A301815014
:100DD0008330B8F583E08093A3018093A201EECF26
:100DE000253BA1F46EE370E00E947513892B49F551
:100DF0008091A3018A3F28F58B5F8093A3018093A4
:100E0000A2011092A1011092A0017ECD2130C9F45F
:100E10008091A0019091A101019688382EE092075F
:100E200028F49093A1018093A00108951092A1014C
:100E30001092A0018091A301882319F08150809322
:100E4000A3010895EF92FF921F93CF93DF93109128
:100E5000DB01111106C0DF91CF911F91FF90EF9040
:100E60000895E090DC01F090DD01C091B801C1501F
:100E70000C2E000CDD0BC7FD0EC0FE01EE0FFF1F98
:100E8000E754FE4F0190F081E02DB701812F0995C5
:100E900021978111F0CFEBEDF1E083818083848194
:100EA000958192838183339682E0E830F807A9F731
:100EB0001092080210920A0210920902C8CF809183
:100EC000B801882319F081508093B801E091B801EE
:100ED00090E080E0EE2341F0E150FF0BEE0FFF1FAA
:100EE000E754FE4F808191814AE070E060E009CFD5
:100EF0001F93CF93DF93162FD72FC42FF90188307C
:100F0000B9F480911C01809386011092850180E0E4
:100F100002DB8091B10181112FC0809185018F5F2B
:100F20008093850170E060E08BE098E016DF24C0DC
:100F3000982F907F903B49F580918501481718F1D3
:100F40008150883040F49091A401992321F0909130
:100F50001C01891315DB812F9D2F6DE570E00E9428
:100F60007513069771F4809185018F5F80938501D9
:100F7000C81710F088E3CFDA80E0DF91CF911F919E
:100F8000089582E1F8CF80E0F6CF903E51F4809151
:100F90008501882371F0481760F080918601F0DAAE
:100FA000C1CF8A3041F460919D01809185010995FE
:100FB000FCDC85DFE1CF8930F9F680918601E0DA4B
:100FC000DBCF23E133E043E093CF23E133E044E0A0
:100FD0008FCF2CE336E044E08BCF22E533E041E0D5
:100FE00087CF20E536E043E083CF2EE934E042E0CE
:100FF0007FCF29EB34E041E07BCF2CEB34E043E0C2
:1010000077CF91E09093A40122EC34E048E070DFC8
:101010001092A4010895883039F410929D01109225
:10102000840180E078DA0CC0813001F59091840170
:10103000911108C06032710518F08093840191D934
:1010400080E00895913081F46B3B710520F082E0DF
:1010500080938401E6CF6115710591F3862F880F87
:10106000880F88708E5EDECF2ADFEACF813811F0DC
:10107000813E31F791E090938401813E41F480916B
:101080009D01865F80939D016CD98BE4CBCF8091CD
:101090009D018F5FF7CF0F931F93CF93DF93D82FCF
:1010A000C92F8B010CDFB8018D2F9C2FDF91CF91C1
:1010B0001F910F9152CE813C39F470E060E08DEACF
:1010C00098E0E9DF80E00895823C29F470E060E078
:1010D0008CE09CE0F6CF873B31F470E060E085EF78
:1010E00097E03BDEEFCF81E00895813C39F470E07A
:1010F00060E08DEA98E0CFDF80E00895823C29F43B
:1011000070E060E080EE9BE0F6CF81E008958430EF
:1011100011F58091C9019091CA012EE0893592079D
:1011200031F469E170E085ED99E0B5DF0DC0855DD2
:10113000994061F49091AF01923040F0892F8695EB
:1011400096959695890F1EDB80E0089570E060E02B
:101150008DEA98E0EACF81E008950F931F93CF9333
:101160008B018830B9F480E0D6D91092A80170E0E4
:1011700060E08091280120DB1092A301012B31F067
:10118000C0E08C2FCF911F910F91089581E0809343
:10119000B001F6CF813051F46931710588F3809345
:1011A000B001B8018091280107DBEACF833061F5F7
:1011B0008091A8018F3F19F08F5F8093A8018091E3
:1011C0001A01882359F080911B0190E062EC71E0D4
:1011D0000E9458130817190708F0D7DAB801809150
:1011E0002801EADA80912B01882351F290E062EC29
:1011F00071E00E9458138017910708F0C1CF70E08A
:1012000060E083E39CE016C0813BB1F481E090E0B4
:101210004EDA81D9809119018111B2CF80910C01F0
:10122000811104C00831110508F4AACF61E070E013
:1012300085ED99E030DFA4CF813EC1F3813831F4F0
:1012400080910A0190E033DA66D99ACF813C21F48B
:101250006091AF0170E0ECCF823B81F41092A80165
:1012600080910D01909117019111809118018111C8
:1012700003C086E990E0E7CF86E9E6CF823E11F42D
:1012800080E0E2CF66E970E0823C91F28339C1F3FD
:10129000833C29F470E060E080EE9BE0CBCF843C9F
:1012A00011F432DBACCF8D3B41F4F89488ED8FBD67
:1012B00088E880BF7894A895FFCF8F3C29F470E030
:1012C00060E08CE994E0B6CF8A3B99F401151105F2
:1012D00009F043C0C0911701CC2329F015DB10920F
:1012E000170163DB4DCF70E060E085EE97E035DD00
:1012F00048CF833B29F470E060E089E59EE09ACF17
:10130000873C99F490912801892F82958F708F5F87
:1013100083708295807F9F70892B8093280170E075
:1013200060E04ADA42DBF0DA2BCF873B99F4C80160
:101330008F739927892B09F034CF20912801822FB0
:101340008F708F5F207F6BE00E946913922B9093C8
:10135000280127CF873E09F4C4CFC0911701C111DE
:1013600022C08A3C31F4D0DA81E0809317011DDB82
:1013700008CF853C39F4C8DA70E060E085EE9FE084
:101380008ADEFFCE863C31F4BFDA70E060E08FE2A7
:1013900090E1F6CF893B39F4012B29F470E060E04D
:1013A0008DEE97E0A4CFC1E0ECCEBF92CF92DF925A
:1013B000EF92FF920F931F93CF93DF93C82F8B0170
:1013C000D0900901D091080180910C01B090A60144
:1013D000811102C0BB24B394E0900D0180911701EC
:1013E0008111E0901801EE2009F43FC041E0E416BD
:1013F00021F080910A018D17C0F1F6E9FF2EC0900F
:10140000A301B8018C2FD4DC8091A301882309F4B7
:10141000CEC1C11004C09091AF019093A5019C2F43
:101420009D7F983021F510929F01CA3019F40091E8
:101430000A0110E0D016110630F4D017110619F089
:1014400010F000930A01C80132D99CD981E0809341
:101450000501D0E08D2FDF91CF911F910F91FF906B
:10146000EF90DF90CF90BF900895FD2EC8CFC13C84
:1014700009F4A0C1C23C49F48091AF018F1508F076
:101480003CC08F2D7FD989D9E4CFC43C39F480E0AA
:1014900042D870E060E083E39CE090C19FE49C0F41
:1014A000923008F056C080910C01882349F1C801A0
:1014B00068E170E00E947513892B59F62091AF0105
:1014C0000115110541F5C23B01F58FEF8093050130
:1014D000C091AF01809105016B2D70E0082E000CCA
:1014E000990B0E9458138C0F911DE1D880930A012B
:1014F000C81719F08D1301C015DA80910A01C2CF07
:101500006091140170E0C801D5CF2D17F0F6D21606
:10151000F8F281E0DBCFE0911401F0E0CF0166E367
:1015200071E00E9458138017910710F42D1768F688
:10153000CF016CE672E00E9458138017910740F6C5
:10154000D21630F2E1D970E060E083E39CE0A3DDE5
:10155000BFCF9FE19C0F923020F4809105018195CF
:1015600076CFC13009F085C00932110511F4C0935E
:101570000501882381F1C091A501D0E090E0BE0172
:101580000E9458139C01E091A201F0E0BF010E946B
:101590008913462FC9018C1B9D0BBF010E94891323
:1015A000242F261B8091A0019091A1016EE370E091
:1015B0000E947513822F90E00E9458136CE370E034
:1015C0000E947513842F861B461301C081E080930F
:1015D000AD018093A701C091AD012091AF014C2FC7
:1015E000421B550BCA0160918701709188016F5FA2
:1015F0007F4F7093880160938701009709F429CF8A
:1016000040E052E097FF06C040E450E0233810F479
:1016100040E051E05695479597FD01969595879541
:101620000097C1F74617570708F013CFC217E8F421
:10163000CFEFC20FE0911C01F0E0EE0FFF1FE65A62
:10164000FE4F0190F081E02D8FEF8C0F09958823DC
:1016500039F0D091AD018C2F0E948B02D093AD0157
:101660001092880110928701F4CE2C1718F7C1E070
:10167000E0CFC530A9F48091AF01813508F4E9CEFF
:1016800090E0801B910B8739910514F086E990E07A
:101690008035910514F480E590E08093AD01D9CEBA
:1016A000C63079F49091AF018091A701981708F0A6
:1016B000D0CE090F111D90E08017910774F3C80177
:1016C000E7CFC73069F49091AD018091AF018917E0
:1016D00010F48F5FE2CF981708F0BBCE8150DDCFBA
:1016E000C33C99F0C63C41F581E090910C01911109
:1016F00080E080930C0159D915D98091AF0190E019
:101700000E94570380930A01BDCE60911D0170E0D5
:1017100090E080E020E0AB01082E02C0559547958F
:101720000A94E2F74170240F01968830910599F7E9
:101730002230D0F2D1E08ECED0911701D111FACF64
:10174000C33B51F4012B09F084CEEE2011F086E961
:10175000F82E8F2D17D87ECEC33E19F480910A0142
:10176000F9CFC53C49F480E00E948B0270E060E054
:1017700085EE9FE090DC6ECE70E060E081EE97E059
:10178000C73B99F0CA3C59F48091AF0180931A018C
:1017900080911C0180931E0108D9B6D85BCECA3B4C
:1017A00049F670E060E089EE97E0D7DA53CECC20BE
:1017B00009F435CE70E060E08DEA98E06CDC49CE4B
:1017C000CF93C0911701C11125C0813C41F470E055
:1017D00060E08DEA98E05FDC8C2FCF910895823C29
:1017E00029F470E060E08BE598E0F5CF833C51F49C
:1017F00080911F0190E001968770992780931F01C7
:10180000D4D8EACF873B31F470E060E081EF97E015
:10181000A4DAE2CFC1E0E0CF282FCB01213C39F49C
:1018200070E060E08DEA98E036DC80E00895223CCC
:1018300029F470E060E085E798E0F6CF213B39F4C9
:101840006EE370E052D7892B81F75ED8EECF213E50
:1018500041F46EE370E049D76F5F60932401A5D82F
:10186000E4CF81E008950F931F93CF93DF93C82FA8
:101870008B01873B79F480E00E948B02C8018F7353
:101880009927892B09F4A1C0B801809129010E94F0
:10189000DC0322C08079803909F590910E012091F6
:1018A0000F018C2F8F70813029F4822F921748F40A
:1018B000892F07C080911A01811103C0822F291737
:1018C000B8F30E948B02C33C09F044C01DD870E0FD
:1018D00060E08DEA98E0DFDBD0E01BC0803811F4D7
:1018E00080E0EFCFC83009F084C01092A80170E00A
:1018F00060E0809129010E94DC03D0911701D11191
:1019000076C0CA3B09F073C070E060E089EF97E0F1
:1019100024DA8D2FDF91CF911F910F910895C3305D
:1019200091F68091A8018F3F19F08F5F8093A801F5
:1019300080911A01882309F4A7CF80911B0190E0C0
:1019400062EC71E0B5D60817190708F49DCF0E9424
:10195000C5039ACF60910A0170E0C43C41F0C43BDA
:1019600049F40E94920410920D0261E070E085ED4E
:1019700099E0B1CFC53C19F466E970E0F8CFC33BFC
:1019800061F4C8016EE370E0B0D6892B09F0B5CFE1
:10199000DF91CF911F910F9194C9C73C11F59091A0
:1019A0002901892F82958F708F5F83708295807F48
:1019B0009F70892B8093290170E060E00E94DC0316
:1019C0000E94D5040E94840487CF20912901822F90
:1019D0008F708F5F207F6BE07CD6922B90932901D4
:1019E00053CFC73E09F089CF0E94D50475CFD1E00F
:1019F00090CFC13009F093CF0931110508F46CCFB5
:101A0000C093B00141CF86E884B91092D7011092FB
:101A1000D8010E94CF01E1E6F0E0808182608083FE
:101A2000139A87EE83B908950F931F93CF93109263
:101A3000B30180910B0290910C029C012F5F3F4FEC
:101A400088279078822B932B90930C0280930B0223
:101A50009091B1012FB1822F8095881F8827881F10
:101A60008093B1019817B9F01092B0018093B10141
:101A700090910D02892F27FD38C080699F709F309B
:101A800091F580930D0290E080E00E94AD011092EC
:101A90000C0210920B0200910B0210910C0280912B
:101AA000B001882379F1B80183E00E949201CAD97C
:101AB00007701127012B99F41092890181E080931E
:101AC000DA01A1DFC0918901C11105C00E94CF01D7
:101AD00081E08093CE01CF5FCF71C0938901CF9118
:101AE0001F910F9108958F5FCCCF8F7E95FD08C019
:101AF000806880930D0280910B0290910C02C5CFFB
:101B0000806CF7CFC0910D028C2F807F803B49F411
:101B100070E060E081E00E949201C8010E94AD0186
:101B2000D1CFB80181E00E949201C4FF0FC0C5FD72
:101B3000F4CF0831110530F210920C0210920B0212
:101B4000C062C0930D0290E080E0E8CFCC2309F49E
:101B5000B9CFC5FF03C00E94B101B4CF0231110556
:101B600008F4B0CFC064C0930D0290E080E00E9402
:101B7000AD01F1CF8091D90181110E94FB048091C8
:101B8000B301811151CF0895EF92FF920F931F93EC
:101B9000CF93DF93EC0108E017E082ECE82EFF24FE
:101BA000F394209739F4DF91CF911F910F91FF901B
:101BB000EF9008958091A9018111F5CF8091AF0137
:101BC000843068F482E00E948C01C7010197F1F72C
:101BD00080E00E948C01CEDF35D92197E2CF80E0F2
:101BE0000E948C01C801F2CF0F931F93CF93DF9314
:101BF000C82F06EA811102C008E0C1E0D0911C01A3
:101C000010E080911F010E94C00282E30E948B02BB
:101C1000D0931C01C801B8DF80911F010E94C0024F
:101C200080E00E948B02D0931C018AEF90E0ACDF31
:101C3000C15039F78D2F0E94C0028AE992E0DF91EE
:101C4000CF911F910F91A0CFCF93DF93282F64E600
:101C500040D5382FC92F892F6AE03BD5D92F24369C
:101C600050F0832FC1DF8C2F6AE033D5BDDF8D2F7D
:101C7000DF91CF91B9CFCA30B0F7F9CFCF93DF93CF
:101C8000D82FC3E080910A010E948B0288EC90E07B
:101C90007BDFDD2319F080E991E076DF80E00E94B0
:101CA0008B0288EC90E070DFC15061F7DF91CF913B
:101CB0000895FF920F931F93CF93DF93D82F8B013B
:101CC000C091200181E080939F01C43079F4F090AD
:101CD000A3018D2F6DD8FF20A1F08091A301811168
:101CE00010C070E060E08DEA98E0D5D9D83071F08E
:101CF000D13C09F00AC170E060E08DEA98E0CBD9F0
:101D000008C0D83041F481E08093030181E08093E2
:101D1000040180E04EC1D23C69F41092A3018C2FE3
:101D200090E0019666E070E0F4D4809320010E9478
:101D3000D504EFCFD13BC1F480910201012B41F4D6
:101D40009FEF863618F4823018F491E090930301E7
:101D500090910301890F21F481E080930201D9CF92
:101D60008736D8F386E6F9CFD13E59F48091030146
:101D700081958093030180910401819580930401F2
:101D8000D6CFD23BE1F481E0809303018091020140
:101D9000823018F081508093020181E08093040129
:101DA000C23008F0F9C000FDB4CFEC2FF0E0E45FE2
:101DB000FE4F85898F3F09F4ACCF8F5FC3C0D13010
:101DC00009F0FDC00932110511F4D093030190917F
:101DD0008101892F880F97FD809590E069E070E080
:101DE00067D4292F80918001682F660F87FD609549
:101DF0008091010170E090E05BD4290F80917F0118
:101E0000682F660F87FD60958091000170E090E07B
:101E10004FD4622F690F80910201680F7727771FD7
:101E20008091A301813091F48091A0019091A10152
:101E300025E0969587952A95E1F724E730E0A901FA
:101E4000481B590BCA0134D4B9014FD4862F0E94C4
:101E50008B0200FD09C00E94D301982F91708091E0
:101E60008101890F809381018091800190917E0191
:101E7000890F809380010E94D30165E22AD480916A
:101E80007F01890F80937F010E94D3018F7331F40A
:101E90000E94D3016DE01DD490937E01C091010199
:101EA000CC2339F00E94D3018F7319F4C150C09331
:101EB00001010E94D301811108C00E94D3016EE08C
:101EC00008D49093010110928001C0910001C330A9
:101ED00038F00E94D3018F7119F4C150C0930001F2
:101EE0000E94D3018F7729F40E94D30187708093D9
:101EF00000010932110519F481E0809304018091F9
:101F0000AC01080F0093AC0104CFD23C09F407CF19
:101F1000D43C21F48C2F90E0059604CFD13B51F5B1
:101F2000C23090F400FDF5CEEC2FF0E0E45FFE4F00
:101F3000858990910401891B8F3F08F08EEF8830CE
:101F400008F488E0858BE5CEC53009F0E2CE8091BB
:101F5000230190910401890F823040F482E0809344
:101F60002301809123010E948B02D3CE8937B8F3DD
:101F700088E7F5CFD13E09F4FECED23B09F40DCF70
:101F8000D23E09F4D4CED53C81F470E060E085EE19
:101F90009FE081D880E0E7CFC53009F0BACE8091CC
:101FA00023018330F0F28150DACF81E0D13009F49F
:101FB000A0CFDF91CF911F910F91FF900895D13C59
:101FC00009F499CED43CE1F6A5CF0F931F93CF939C
:101FD000DF93D82F8B01883031F480919F018823C3
:101FE00011F088E066DE8D2F8079803999F481E0E8
:101FF00080939E01C0919F01CC2311F0C0E004C0EA
:1020000080910A010E948B028C2FDF91CF911F914A
:102010000F910895803831F410929E0180E00E9463
:102020008B02ECCFC1E0D13079F7C0919E01CC2377
:1020300059F080919F01882309F3B80181E0DF9175
:10204000CF911F910F9135CE07331140B8F2D09345
:10205000B00170E060E080E00E94DC03D5CFFF9229
:102060000F931F93CF93DF93C82F8B01F0900A013A
:1020700080798039C9F5DC2FDC70C1F010929E01A7
:10208000D0E080919E01882319F0B8018C2F9DDF4C
:10209000F0920A01C83089F5B80188E0E4DB8D2FA1
:1020A000DF91CF911F910F91FF90089591E0909350
:1020B0009E01EC2FEF70F0E0E45FFE4F878D2FEF75
:1020C000280F263928F480930A0110929F01D9CF56
:1020D00090939F018739A0F28759990B66E070E0D1
:1020E00018D380932001CDCF803829F410929E011F
:1020F00080E00E948B02D1E0C4CFC13061F48091B6
:102100009E01811117C0B80181E0DF91CF911F912D
:102110000F91FF90A8CBC33019F4B80183E0F5CF3D
:10212000C63C51F40E94840470E060E08DEA98E0BF
:102130000E944B08D0E0B3CFC73B09F0B0CF70E0AE
:1021400060E08DEF97E00E94AD06F4CF2F932FB79C
:102150002F933F938F939F93AF93BF93EF93FF93EF
:102160008091D8018823E9F0E091D70120B131B105
:10217000F0E0EE0FFF1FDF01AD52BE4F2D933C93F9
:10218000E153FE4F808191818217930708F40196F5
:102190002817390708F401979183808381E08093A1
:1021A000D90181E08093D801FF91EF91BF91AF9168
:1021B0009F918F913F912F912FBF2F9118958F93C2
:1021C00081E08093B3018F9118958F9381E0809384
:1021D000B2018F911895F89485B7877F85BF90E0FD
:1021E00088ED0FB6F894A8958FBD90B7977F90BFF4
:1021F0000FBE81E088B989E08CB98CE380BB82E8AE
:102200008093720081E1809371008FEF90E0909352
:1022100069008093680080E882BB87BD8CB78860C6
:102220008CBFA89580E480BFEEDB789481E00E94AB
:10223000BB0170E060E087E898E00E94AD06109274
:10224000A9010E9484049FB1892F8095881F882747
:10225000881F8093B10197FFA2C08CE091E090931A
:10226000AB018093AA0182E00E94BB01F89480E850
:1022700090E062D2853A79F40091AA011091AB0105
:10228000C1E8D0E0CE0158D2F80181938F012196A8
:10229000C63AD105B9F7789480911A0181110E944C
:1022A000C50370E060E083EC96E00E94AD0661E05B
:1022B00070E08DEA98E00E94AD0640E4242E55249B
:1022C0005394CC24C394D12C312C412C6DEA862E0E
:1022D00068E0962E7CE7672E70E0772E0E9422073A
:1022E0008091B6019091B701009751F06091B401CF
:1022F0007091B5010E944B081092B7011092B6017F
:102300008091B001882349F180E00E948B02A8955A
:10231000F3E4F0BF1F989FB1892F8095881F88270D
:10232000881F8093B10197FFF6CF0E94B1018CB74F
:1023300088608CBF1092D9011092B3011092B20143
:102340008091B001811160C022E020930B018CB715
:10235000877F8CBF58DBA89520BE0CDC1092A901AA
:102360008091C9019091CA01E4E08C399E0709F07F
:1023700074C0C0E7D0E0FE018491805335DC8CE26C
:1023800091E002DC21966C167D06A9F79092B701C8
:102390008092B6011092B5011092B4019FCFC0E0B7
:1023A0008C2F0E948B0283E190E0EEDB8C2F8695D0
:1023B0000E948B0283E190E0E7DB9FB1892F80953B
:1023C000881F8827881F8093B10197FD1AC0CF5FAF
:1023D000C03431F765E181E00E949E040E94D5047B
:1023E000C6E98C2F0E948B0284E090E0CDDBC150C7
:1023F000C1F733CF8C2F0E948B028DE090E0C4DBBD
:10240000C150C111F7CF29CF8091DA01882309F19A
:1024100086B78F79806286BF86B7806186BF8895D0
:1024200086B78F7E86BF8091B20181111092B00174
:102430008091D901882331F050920B015092CE0146
:102440000E94FB048091B301882309F479CFECDA70
:1024500077CF86B78F798064DECFFEE089359F071E
:1024600099F02FE0853E920729F0E0E18F329E0738
:1024700009F0D6C020919F01213009F0D1C02091F0
:102480009E01222309F4CCC0C0912001C33009F47D
:102490005AC0C8F4C230B9F1EC2FF0E0E45FFE4F4F
:1024A000D58986E90E948B0283E090E0CC2319F065
:1024B0008D2F869590E068DB80E00E948B028D2F47
:1024C00090E062DB0BCFC53009F008CFC09123014B
:1024D000CC0FC73908F0C6E9D4E08C2F0E948B02DC
:1024E00085E090E051DB809123010E948B0281E422
:1024F00090E04ADBD15089F780ED92E045DB80E047
:102500000E948B02EBCE10910A01D0911C01C0E019
:1025100081E0CC2319F0C53019F485E00E94C00297
:10252000812F0E948B0281E290E02EDB80E00E94EE
:102530008B0282E490E028DBCF5FCA3049F78D2F11
:102540000E94C002CBCE0E94D3018F73082F10E0EF
:102550000E94D30167E0BDD0760102C0EE0CFF1CE3
:102560009A95E2F70E94D30165E0B3D0E60102C07C
:10257000CC0FDD1F9A95E2F7CE0DDF1D0E94D3012F
:1025800090E0BE01C6D0C80FD91FC739D10524F0CD
:10259000F6E9CF2F20E0D22F8C2F0E948B02C801AA
:1025A000F3DA7E0133E0F594E7943A95E1F7E11030
:1025B00002C0EE24E394F12CC801E6DA5E01AE1805
:1025C000BF08E501B7FE02C0C32DD42D8C2F0E9499
:1025D0008B020E94D301837039F4C801D5DACE0191
:1025E000959587950E948B02F2E0AF16B10424F70F
:1025F0000E94D3016DE06DD0860102C0000F111F53
:102600009A95E2F70E94D301E801219790E0C82350
:10261000D923C00FD11F80E00E948B02CE0151CF81
:102620002BE0803E920751F48091CD010DDB80912B
:1026300017018111ABCE88EE93E043CFE8E08B35F4
:102640009E0721F48091CB01FFDAF5CFFCE08C30BE
:102650009F07B9F48091B101811140CE80910A01A8
:102660000E948B0284E690E08FDA80E00E948B0269
:102670008091240190E068EE73E01AD084569109AD
:1026800020CF8557984049F480E0F8DA81E0F6DA07
:1026900080E0F4DA80ED97E014CF86B78F7986BFBB
:1026A00086B7806186BF889586B78F7E86BF16CE37
:1026B0000024552704C0080E591F880F991F009742
:1026C00029F076956795B8F37105B9F7802D952FA8
:1026D0000895991B79E004C0991F961708F0961B7E
:1026E000881F7A95C9F780950895AA1BBB1B51E1F5
:1026F00007C0AA1FBB1FA617B70710F0A61BB70B72
:10270000881F991F5A95A9F780959095BC01CD0116
:10271000089597FB072E16F4009406D077FD08D095
:10272000E4DF07FC05D03EF4909581959F4F089516
:10273000709561957F4F0895E199FECF1FBA8EBBCA
:10274000E09A99278DB30895262FE199FECF1FBAFD
:102750008EBBE09A81500DB2021639F01CBA2DBB27
:102760000FB6F894E29AE19A0FBE0895F894FFCF5D
:10277000080E180101010004820A460200010A0A3B
:102780000A828282010705010000000000FF0004A8
:102790000429439602072D0018390400781E980179
:1027A0000F0E0111011401020100000000000000E1
:1027B00001000000000000000001000021012302D0
:1027C0002503270429052C06FF06E402E202E202A3
:1027D000E202E202E202E202E202F401CD02D002EF
:0E27E000D302D602D902DC02DF020504030098
:00000001FF
