:100000006DC1000088C100000C94191084C100006B
:1000100082C100000C9413107EC100007CC100005E
:100020007AC1000078C1000076C1000074C10000F0
:1000300072C1000070C100000C94DA0F6CC10000A6
:100040006AC1000068C1000066C1000064C1000010
:1000500062C1000060C100005EC100005CC1000020
:100060005AC1000058C1000056C1000054C1000030
:100070003230323330363136303237330001050416
:1000800014101115FF3FFF3F7430CC1FC62C6C3984
:10009000212B9332E3351F372C377A364935C0335D
:1000A000F7316A340832013361308C304630B12F79
:1000B000E02EE22DC32C8B2B962B292AD4295029F4
:1000C000BD270E274826712537253E243F23C5220C
:1000D000BA2126211820751FC91EBF1D101D5D1CC9
:1000E000611BB01A001A161934188F17BB16EF15BA
:1000F0002B1546146D13C312DB1122115310730F0D
:10010000A10EDD0D0C0D490C7C0BA90AD1090809C3
:100110003D086F07A106D30506052E046703960266
:10012000CB01FF00FF00FF00FF00FF00FF00FF000A
:10013000FF00FF00FF00FF00FF00FF00FF00FF00C7
:10014000FF00FF00FF00FF00FF00FF00FF00FF00B7
:10015000FF00FF00FF00FF00FF00FF00FF00FF00A7
:10016000FF00FF00FF00FF00FF00FF00FF00FF0097
:10017000FF00FF00FF00FF00FF00FF00FF00FF0087
:10018000FF00FF00FF00FF00FF00FF00FF00FF0077
:10019000FF00FF00FF00FF00FF00FF00FF00FF0067
:1001A000FF00FF00FF00FF00FF00FF00FF00FF0057
:1001B0000000010001000100020003000300040030
:1001C000050006000700080009000A000B000D00EA
:1001D0000E001000110013001500170019001B007D
:1001E0001D001F002200240027002A002C002F00E1
:1001F0003200350039003C003F00430046004A0011
:100200004D005100550058005C006000630067001D
:100210006B006E007100750078007B007E0080002E
:100220008200850086008800890089008900890095
:1002300088008700850082007E007A0075006F00CC
:100240006800600057004C00410034002600160092
:10025000170019001A001B001C001D001E002000C2
:100260002100220024002500270028002A002B005E
:100270002D002F00310033003500370039003B00DE
:100280003D003F0042004400460049004C004E0043
:100290005100540057005A005D0060006300670081
:1002A0006A006E007100750079007D008100850094
:1002B00089008E00920097009B00A000A500AA0074
:1002C000AF00B500BA00C000C500CB00D100D70018
:1002D000DE00E400EA00F100F800FF0011241FBE78
:1002E000CFEFD4E0DEBFCDBF11E0A0E0B1E0E0E7AA
:1002F000F6E202C005900D92A235B107D9F722E0CF
:10030000A2E5B1E001C01D92A330B207E1F70E945F
:100310001F100C94361374CEF89498ED9FBD83BFD4
:1003200078940895482F362F272FE0EDF1E090E0E4
:1003300080E0508151110BC063E070E00E94D81240
:10034000FC01E053FE4F40833183228305C00196B8
:1003500033968031910569F70895BC0180910202BE
:10036000E1CF10920202109201021092000281E08D
:100370008093820108950F931F93CF93C82F08EAAB
:1003800017E0C15020F4CF911F910F91089582E0A2
:10039000C3DFC8010197F1F780E0BEDFF2CF83B180
:1003A000886483B90895E0910601F09107013196C0
:1003B000FB70F460F0930701E09306018091A201C5
:1003C0008B5A8093A201E4918091A2018E0F08952F
:1003D000882321F0813031F0829A05C0829892986A
:1003E0008A9808958298929A8A9A0895CF93C82FEE
:1003F0008091A401811109C0CC2339F080912001A2
:10040000C81718F4F3DF82E0B6DFC093A401C093ED
:10041000A3018091A50181110AC091E0C11101C021
:1004200090E081E0C73408F480E0890FD1DFC1118A
:1004300013C010926D0010926C0010926F00109219
:100440006E0068984898C0935D018091A401843043
:1004500098F582E0CF9160CF689A489A2FEF2C0FE1
:1004600030E0220F331FF901E055FE4F8591949142
:1004700090936D0080936C00F901EC57FF4F8591CC
:10048000949160915D019C0120523109662339F0FD
:1004900040916E0050916F0024173507B8F3909388
:1004A00069008093680080915D018111CCCF10922A
:1004B0006F0010926E00C7CF8C3010F481E0CACF6D
:1004C00080E0C8CFCF93DF9300D00F92CDB7DEB7D7
:1004D00020914D0130914E0140914F0129833A8383
:1004E0004B83FE01319650E040E0682F70E0A1E0C0
:1004F000B0E09B01042E02C0359527950A94E2F7DF
:10050000922F937081919D0101C0220F8A95EAF785
:10051000992329F09130C1F080B3822B19C080B3A8
:100520002095822380BB82B3822382BB81B32823A0
:1005300021BB4E5F5F4F46305105D9F60F900F90AB
:100540000F90DF91CF91089590B3822F80958923EA
:1005500080BB82B3822B82BB81B3282BE9CFCF93A0
:10056000DF9300D000D000D0CDB7DEB720917D0161
:100570004091BE015091BF014B56574009F422E013
:10058000843059F460937E0126960FB6F894DEBF4E
:100590000FBECDBFDF91CF9108956623A9F38230BE
:1005A00019F497E9961B692F96E0E4E2F1E0DE0189
:1005B000119601900D929A95E1F78150990B880F51
:1005C000991FA1E0B0E0AC0FBD1F8A0F9B1FDC019B
:1005D000ED91FC91E20FF11D6083D6CF813011F4D3
:1005E000609320010895CF92DF92EF92FF920F93D4
:1005F0001F93CF93DF939C0150917D01E0911E01E9
:1006000082E0E11101C0852F90E0DC01A85EBE4FC1
:100610004C9140931C018B5E9E4FDC018C9180932A
:100620001B01F0E0EE5EFE4FC181642F70E05523A8
:1006300081F0C13071F4860F972F911D95958795A4
:10064000DF91CF911F910F91FF90EF90DF90CF90AE
:100650000895261737079CF1821713068CF3511162
:1006600002C0822FEDCF841B6C2F6150770B8B0162
:10067000E82EF12CC7010E94091360937B01669557
:10068000E62FF0E0842FD12CC12CD0E0DC17C1F292
:10069000C601B8010E94F512842F860FA82FB0E082
:1006A000B9016A1B7B0B77FF03C0BD01621B730B93
:1006B000CE0CDF1CE617F7071CF6DF5FE7CF842FB1
:1006C000BFCF8093810192CE9091C30180E09D3194
:1006D00080F0E82FF0E0E35CFE4F2081921738F4C1
:1006E0003197E081F0E0E358FF4F849108958E5FE9
:1006F000F0CF08950F931F93CF93DF93D82F862FBA
:100700009091C30191509C3140F480E0DBDE80E0A9
:10071000DF91CF911F910F915BCECD2FC295CF70FE
:10072000DF709091A501911103C0C33008F0C2E0C1
:10073000D730B0F40091570110E00F5F1F4F33DE48
:1007400065E00E94E9129801290F311DC90166E098
:1007500070E00E94091380935701ED2FF0E016C05E
:10076000D730C1F40091570110E00F5F1F4F1BDE1F
:1007700065E00E94E912D801A90FB11DCD0166E024
:1007800070E00E94091380935701FC01E358FF4F6A
:10079000E4911BC09091A501D83099F46FE09111BC
:1007A00001C063E0862351F48091570190E00196E7
:1007B00066E070E00E94091380935701E0915701B1
:1007C000CDCF9923E1F080DFE82FC33071F4809121
:1007D000560190E0019663E170E00E94F51280936B
:1007E0005601865D9E4FDC01CC91CC2389F0C1304F
:1007F00011F0EE0FC2E08E2F65DE8C2F89CF86952B
:1008000063E00E94E912E92FF0E0EE0FFF1FBECF78
:10081000E0E0F1CFCF93C091A40182E38C0F873940
:1008200008F080E0E3DD83E0A6DD8C2FCF91DECD04
:10083000CF93C091A40180E0D9DD83E09CDD8C2FB3
:10084000CF91D4CD81E00895611160932201089584
:10085000662369F0813099F48091C0019091C101C3
:10086000891B680F6093C00182E08093230180910F
:100870002101873418F086E4809321010895635E96
:1008800060932101F4CF609375010895E82FF0E0A3
:10089000E55FFE4F608308950F931F93CF93DF931F
:1008A00080917D0180938301809118018093840160
:1008B00080911501809385018091120180938601BA
:1008C000809119018093870180911601809388019E
:1008D000809113018093890180911A0180938A018C
:1008E0008091170180938B018091140180938C017A
:1008F00080911E0180938D0180917E0180938E01F5
:1009000080917C0180938F0180911D0180939001E3
:10091000809180018093910180917F018093920169
:10092000809120018093930180910B018093940129
:10093000809109018093950180910A01809396012D
:10094000809108018093970180910F018093980115
:1009500080912101809399018091C00180939A0137
:100960008091220180939B018091110180939C01D1
:100970008091100180939D018091750180939E016B
:1009800080910C0180939F0180910D018093A001C3
:1009900080910E018093A10182E0EDDCF89403E8E0
:1009A00011E0C1E8D0E0F80161918F01CE010E9411
:1009B00024132196C03AD105B1F765EA80E890E0AA
:1009C0000E9424137894DF91CF911F910F91089585
:1009D0001092CF0130B181B12091A20132953695AC
:1009E0003695337090E0880F991F880F991F830FF9
:1009F000911D820F8093A2018091C401882309F484
:100A000045C01092C4018091CD019091A501992318
:100A100019F01F981092CD01811146C080912301D9
:100A20008823A9F18091C9019091CA019093C601D0
:100A30008093C5014096807E61EC72E00E94F512C1
:100A4000809122018750990B680F791F76956795E1
:100A50006093C301809171018823F1F081508093EC
:100A600071018091A501811108C08EE884B981E0EF
:100A70008093CD011092CE0192DC809123018823D6
:100A800029F0809123018150809323010895809162
:100A9000C5019091C601CECF6D3118F770E060E0CE
:100AA00084E040DC85E0DBCF813039F780912301A1
:100AB00081115EC08091C7019091C8014096DC0110
:100AC00045E0B695A7954A95E1F74091C00156E0FB
:100AD000969587955A95E1F7042E000C550B9A01CF
:100AE0002E503140820F931F9093C2018093C10119
:100AF00080916001E82FF0E0EE0FFF1FEF59FE4FED
:100B000020813181BD01621B730B9B01B183A083E6
:100B10008F5F877080936001660F771F660F771F66
:100B20006A0F7B1F8091210190E0841B950B825FEF
:100B30009E4F880F991F681B790B83E016161706C6
:100B40000CF045C0615071098150C1F716161706A7
:100B50000CF057C037FD74C080915F011816F4F592
:100B6000861B80935F0186E884B91092CD0182CF05
:100B70008091CB019091CC019093C8018093C701E3
:100B8000409635E0969587953A95E1F79093620106
:100B90008093610190936401809363019093660157
:100BA00080936501909368018093670190936A0137
:100BB0008093690190936C0180936B0190936E0117
:100BC00080936D019093700180936F0173CF6115D5
:100BD000710509F4B9CF6F5F7F4FB6CF660F771FEE
:100BE000653071055CF0635071097595679588E112
:100BF000861B80935F0185E095DBB5CF61E070E0F7
:100C0000F6CF6C3F8FEF7807DCF437FF19C0809187
:100C10005F0187FF02C08450A3CF84EE861B8093C0
:100C20005F018091C3018F3108F49DCF8CEF9FEF5E
:100C30009C01261B370BB9017595679586E0DCCFC3
:100C40008091C3018E3108F48ECF70E060E087E0C0
:100C5000D3CF813019F4109280010895823019F4B5
:100C600060937F010895833019F460937C010895A7
:100C7000843011F460931D010895FF920F931F9328
:100C8000CF93DF938C01D62FC72FF42E8091BE0116
:100C90009091BF01892B31F0E091BE01F091BF012D
:100CA00089E009951093BF010093BE01012B41F02B
:100CB000E091BE01F091BF016D2F7C2F8F2D099522
:100CC00081E080938201DF91CF911F910F91FF907E
:100CD00008952091AD01283080F4E22FF0E0EE0F6E
:100CE000FF1FE255FE4F808391832F5F2093AD015C
:100CF00048E0C3DF8091AD0108958FEF0895282F5C
:100D0000CB0130911E01311147C0283039F41092C7
:100D1000790110927701109276010895213B59F4E0
:100D20008091790181508330B8F583E08093790117
:100D3000809378010895253BA1F46EE370E00E9452
:100D4000F512892B49F5809179018A3F28F58B5F4F
:100D50008093790180937801109277011092760147
:100D600059CD2130C9F48091760190917701019697
:100D700088382EE0920728F49093770180937601CB
:100D8000089510927701109276018091790188235D
:100D900019F08150809379010895EF92FF921F938B
:100DA000CF93DF931091D001111106C0DF91CF9145
:100DB0001F91FF90EF900895E090D101F090D20143
:100DC000C091AD01C1500C2E000CDD0BC7FD0EC053
:100DD000FE01EE0FFF1FE255FE4F0190F081E02D66
:100DE000B701812F099521978111F0CFE0EDF1E056
:100DF000838180838481958192838183339681E08E
:100E0000ED3FF807A9F71092FD011092FF01109233
:100E1000FE01C8CF8091AD01882319F081508093E5
:100E2000AD01E091AD0190E080E0EE2341F0E150B2
:100E3000FF0BEE0FFF1FE255FE4F808191814AE0CC
:100E400070E060E01ACF582FCB01F901583089F4D7
:100E50001092590180E0CADA8091A60181111DC06B
:100E600081E08093590170E060E087E897E031DF2E
:100E700014C0252F207F203BB9F42091590142173F
:100E800088F06DE570E00E94F512029741F42F5F43
:100E90002093590188E3421718F480E0089582E115
:100EA000A5DAFBCF80E0FCCF203E41F480915901D0
:100EB000882311F04817B8F6ADDFEFCF5A3069F745
:100EC00060917201809159010995E6DCF5CF2FEA16
:100ED00032E043E0B8CF2FEA32E044E0B4CF29E279
:100EE00036E044E0B0CF2EEE32E041E0ACCF24E279
:100EF00034E041E0A8CF28E234E042E0A4CF23E48C
:100F000034E041E0A0CF26E434E043E09CCF8830D9
:100F100039F4109272011092580180E067DA0CC027
:100F20008130F9F490915801911108C06032710537
:100F300018F08093580115DA80E00895913079F423
:100F40006B3B710520F082E080935801E6CF61157C
:100F5000710591F3862F880F84708E5EDFCF5ADF84
:100F6000EBCF813811F0813E39F791E09093580131
:100F7000813E41F480917201865F80937201F1D9C4
:100F80008BE4CCCF809172018F5FF7CF0F931F93CB
:100F9000CF93DF93D82FC92F8B013CDFB8018D2F62
:100FA0009C2FDF91CF911F910F9193CECF93C09142
:100FB0001E01C11119C0813C41F470E060E088E479
:100FC00098E0E4DF8C2FCF910895823C29F470E003
:100FD00060E086EF97E0F5CF873B31F470E060E0AA
:100FE00087E797E076DEEECFC1E0ECCF813C39F4C5
:100FF00070E060E088E498E0C9DF80E00895823C1A
:1010000029F470E060E08DE69BE0F6CF873B31F499
:1010100070E060E08BE797E05CDEEFCF81E0089561
:10102000813C39F470E060E088E498E0AFDF80E074
:101030000895823C29F470E060E086ED97E0F6CFF9
:1010400081E00895843011F58091BE019091BF0137
:101050002DE08B38920731F469E170E086E699E083
:1010600095DF0DC08656994061F49091A4019230AD
:1010700040F0892F869596959695890F22DB80E022
:10108000089570E060E088E498E0EACF81E0089598
:101090000F931F93CF938B018830A1F480E0A6D9E2
:1010A00060E08091110126DB10927901012B31F073
:1010B000C0E08C2FCF911F910F91089581E0809314
:1010C000A501F6CF813049F46931710588F3809329
:1010D000A501809111010EDBEBCF833029F5209122
:1010E0008001222361F080917F0190E062EC71E049
:1010F0000E94D8120817190710F020931F01602FC3
:1011000080911101F7DA80917501882389F290E0CE
:1011100062EC71E00E94D8128017910748F670E0E7
:1011200060E084E99BE016C0813BB1F481E090E08F
:101130005ADA5CD980917C018111BACF80917D010E
:10114000811104C00831110508F4B2CF61E070E0EC
:1011500086E699E01BDFACCF813EC1F3813831F4E4
:1011600080911F0190E03FDA41D9A2CF6091A401A4
:1011700070E0813C69F3823B71F480911D01909194
:101180001E01911180917E01811103C086E990E0DA
:10119000EACF86E9E9CF823E11F480E0E5CF66E947
:1011A00070E0823CA9F28339C1F3833C29F470E0FA
:1011B00060E086ED97E0CECF843C11F42BDBAFCF1F
:1011C0008D3B41F4F89488ED8FBD88E880BF78941A
:1011D000A895FFCF8F3C29F470E060E082E294E0B4
:1011E000B9CFC0911E018A3B81F4012B09F06CC07C
:1011F000CC2329F00FDB10921E014EDB59CF70E09B
:1012000060E08BE697E065DD54CFC1115DC08A3C9C
:1012100031F400DB81E080931E013EDB4ACF833B4B
:1012200031F470E060E08BE89DE0B0DE42CF853CB9
:1012300031F4F0DA70E060E082E19FE0F6CF863CC6
:1012400031F4E8DA70E060E08BE59FE0EECF873CB8
:1012500091F490911101892F82958F708F5F837027
:101260008295807F9F70892B8093110160E042DA24
:1012700013DBD0DA1ECF873BC9F481E080937A017B
:10128000C8018F739927892B61F420911101822F56
:101290008F708F5F207F6BE00E94E912922B9093FA
:1012A0001101602F8091110125DA03CF873E19F4D7
:1012B00010927A01B2CF893B39F4012B29F470E006
:1012C00060E083E797E09FCFC1E0F3CE9F92AF92BB
:1012D000BF92CF92DF92EF92FF920F931F93CF9323
:1012E000DF93C82F8B01A0901C01E0901B01B090F0
:1012F0007D01D0907B01B11002C0DD24D394C09059
:101300001D01D0911E01D111C0907E01CC2009F4A5
:1013100041C041E0C41621F080911F018E15D0F12B
:10132000A6E9FA2E90907901B8018C2FE8DC609143
:101330007901662309F4C8C1911004C08091A40109
:1013400080935C018C2F8D7F883031F51092740171
:10135000CA3019F400911F0110E0A016110630F4F4
:10136000E016110619F010F000931F01C8013BD9D7
:10137000A8D981E080930501D0E08D2FDF91CF9136
:101380001F910F91FF90EF90DF90CF90BF90AF90A3
:101390009F900895FE2CC6CFC13C09F498C1C23C71
:1013A00071F48091A4018F1538F48F2D8AD9809122
:1013B000A40180935C01E0CF80911F01F7CFC43C72
:1013C00039F480E013D870E060E084E99BE083C1E9
:1013D0008FE48C0F823008F052C06091120170E0EF
:1013E000C801BB2011F068E170E00E94F512892B62
:1013F00019F62091A4010115110519F5C23BD9F484
:101400008FEF80930501D091A401809105016D2D8E
:1014100070E0082E000C990B0E94D8128D0F911DC0
:10142000E2D8C82F80931F01D81719F08E1101C080
:10143000FFD98C2FBBCF2E1518F7A21620F381E011
:10144000E0CFE0911201F0E0CF0166E371E00E948D
:10145000D8128017910710F42E1590F6CF016CE684
:1014600072E00E94D8128017910768F6A21658F20F
:10147000D1D970E060E084E99BE088DDC4CF8FE1E2
:101480008C0F823020F480910501819573CFC1309B
:1014900009F08FC00932110511F4C09305016623CC
:1014A00099F080915C016150770B90E00E94D81216
:1014B0006091780170E00E940913611101C061E040
:1014C0006093A301609381018091A3019091A40195
:1014D000482F491B550B9A0160915A0170915B018D
:1014E0006F5F7F4F70935B0160935A01452B09F446
:1014F00043CF40E052E037FF06C040E450E093386D
:1015000010F440E051E05695479537FF02C02F5F39
:101510003F4F3595279521153105A9F746175707F0
:1015200008F02ACF891798F58FEF890FEFEFE80FB2
:10153000F0E0EE0FFF1F9F0120553E4FF90145914E
:10154000549160916C0070916D006417750718F5E7
:1015500040916C0050916D004F5F5F4F50936D0054
:1015600040936C0040916C0050916D00F901259101
:1015700034914217530731F4C091A3010E94F60140
:10158000C093A30110925B0110925A01F5CE9817F7
:1015900068F681E0CACF60916C0070916D004617CB
:1015A000570700F740916C0050916D004150510970
:1015B000D5CFC530A9F48091A401813508F4DCCEE3
:1015C00090E0801B910B282F803591053CF08739E6
:1015D000910508F026E92093A301CECE20E5FBCFAC
:1015E000C630B1F49091A40180918101981708F060
:1015F000C3CE090F111D90E08017910734F0C80188
:101600000035110514F480E590E08093A301B4CE79
:10161000C73069F49091A3018091A401891710F457
:101620008F5FF3CF981708F0A7CE8150EECFD1117E
:1016300049C0C33CA1F481E0B11080E080937D01FA
:101640002BD9F6D88091A40190E00E94F3028093F8
:101650001F0137D88091A40180935C018ECEC33BDB
:1016600051F4012B09F088CECC2011F086E9F82E38
:101670008F2D27D882CEC33E19F480911F01F9CF58
:10168000C53C49F480E00E94F60170E060E082E130
:101690009FE07CDC72CE70E060E087E697E0C73BBD
:1016A00079F0CA3C39F48091A40180938001F4D888
:1016B000B1D863CECA3B31F470E060E08FE697E0CA
:1016C00008DB5BCED1E059CE992009F43BCE70E027
:1016D00060E088E498E05ADC4FCE282FCB01213C13
:1016E00039F470E060E088E498E050DC80E0089530
:1016F000223C29F470E060E080E198E0F6CF213BE5
:1017000039F46EE370E071D7892B81F783D8EECF7F
:10171000213E41F46EE370E068D76F5F60930F0184
:10172000BBD8E4CF81E008950F931F93CF93DF934D
:10173000C82F8B01873B81F480E00E94F601D09195
:101740001E01D1119FC0CA3B09F065C070E060E086
:101750008FE797E0BEDA49C080798039F9F42091AB
:101760001801909119018C2F8F70823049F480916B
:101770008001811108C0822F291728F4892F03C006
:10178000822F9217D8F30E94F601C33C01F542D88C
:1017900070E060E088E498E0F9DB17C0803811F46D
:1017A00080E0F1CFC83009F06FC060E08091100197
:1017B0000E947A03C4CF0931110538F0C093A50106
:1017C000602F809110010E947A03D0E00EC0C43CCB
:1017D00091F4D09180016D2F70E0D11113C0609110
:1017E0001F0170E086E699E0D1DB8D2FDF91CF916C
:1017F0001F910F910895C43B41F41AD81092020230
:1018000061E070E086E699E0C7CFC53C09F097CF6C
:1018100066E970E0F7CFC73CA1F490911001892FE1
:1018200082958F708F5F83708295807F9F70892BE8
:101830008093100160E00E947A032ED80E940A046F
:10184000D4CFC73BC9F481E080937A01C8018F737C
:101850009927892B59F420911001822F8F708F5F67
:10186000207F6BE0B6D6922B90931001602F809171
:1018700010010E947A03B9CFC73E21F410927A0179
:101880000BD8B3CFD1E0B1CFC13009F494CFC3307E
:1018900009F496CF7ACF86E884B91092CD011092E0
:1018A000CE010E94CF01E1E6F0E08081826080837A
:1018B000139A87EE83B908950F931F93CF931092D5
:1018C000A80180910002909101029C012F5F3F4F7F
:1018D00088279078822B932B9093010280930002AB
:1018E0009091A6012FB1822F8095881F8827881F8D
:1018F0008093A6019817B9F01092A5018093A601D4
:1019000090910202892F27FD35C080699F709F301A
:1019100079F58093020290E080E00E94AD01109280
:1019200001021092000200910002109101028091C8
:10193000A501882361F1B80183E00E9492012DDAAC
:101940000F731127012B81F410925E01A4DFC09167
:101950005E01C11105C00E94CF0181E08093C401E6
:10196000CF5FCF71C0935E01CF911F910F9108950A
:101970008F5FCFCF8F7E95FD08C080688093020275
:101980008091000290910102C8CF806CF7CFC09186
:1019900002028C2F807F803B49F470E060E081E0A0
:1019A0000E949201C8010E94AD01D1CFB80181E02F
:1019B0000E949201C4FF0FC0C5FDF4CF083111058C
:1019C00030F21092010210920002C062C093020233
:1019D00090E080E0E8CFCC2309F4B9CFC5FF03C085
:1019E0000E94B101B4CF0231110508F4B0CFC06438
:1019F000C093020290E080E00E94AD01F1CF80919F
:101A0000CF0181110E94E8048091A801811154CF77
:101A10000895EF92FF920F931F93CF93DF93EC0102
:101A200008E017E082ECE82EFF24F394209739F4C5
:101A3000DF91CF911F910F91FF90EF9008958091CA
:101A400082018111F5CF8091A401843068F482E095
:101A50000E948C01C7010197F1F780E00E948C0180
:101A6000CEDF9BD92197E2CF80E00E948C01C80194
:101A7000F2CF0F931F93CF93C82F06EA811102C0B4
:101A800008E0C1E010E082E30E94F601C801C1DF76
:101A900080E00E94F6018AEF90E0BBDFC15099F729
:101AA0008AE992E0CF911F910F91B3CFCF93DF934B
:101AB000282F64E68ED5382FC92F892F6AE089D563
:101AC000D92F243650F0832FD4DF8C2F6AE081D5B4
:101AD000D0DF8D2FDF91CF91CCCFCA30B0F7F9CFC7
:101AE000CF93DF93D82FC3E080911F010E94F601AE
:101AF00088EC90E08EDFDD2319F080E991E089DF4A
:101B000080E00E94F60188EC90E083DFC15061F72D
:101B1000DF91CF910895DF92EF92FF920F931F9381
:101B2000CF93DF93D82F8B01C0910B0181E080937D
:101B30007401C33079F4F09079018D2FE0D8FF2043
:101B4000A1F080917901811110C070E060E088E41B
:101B500098E01CDAD83071F0D13C09F001C170E096
:101B600060E088E498E012DA08C0D83041F481E0FF
:101B70008093030181E08093040180E045C1D23C61
:101B800069F4109279018C2F90E0019665E070E085
:101B900040D580930B010E944C04EFCFD13BC1F4A0
:101BA00080910201012B41F49FEF863618F48230B8
:101BB00018F491E09093030190910301890F21F4AF
:101BC00081E080930201D9CF8736D8F386E6F9CF3A
:101BD000D13E59F480910301819580930301809156
:101BE0000401819580930401D6CFD23BE1F481E0DA
:101BF0008093030180910201823018F0815080931C
:101C0000020181E080930401C23008F0F0C000FDC1
:101C1000B4CFEC2FF0E0E75FFE4F80818F3F09F4F7
:101C2000ACCF8F5FBAC0D13009F0F6C009321105D0
:101C300011F4D0930301D09055018D2D880FD7FC5E
:101C4000809590E069E070E0B3D4292FE0905401D2
:101C50008E2D880FE7FC8095D09101016D2F70E0EB
:101C600090E0A6D4290FF09053018F2D880FF7FC38
:101C70008095C09100016C2F70E090E099D4622FA4
:101C8000690F80910201680F7727771F8091790192
:101C9000813091F4809176019091770125E09695BD
:101CA00087952A95E1F724E730E0A901481B590BF5
:101CB000CA017ED4B90199D4862F0E94F60100FD95
:101CC00006C00E94D30181708D0D809355018091D3
:101CD00052018E0D809354010E94D30165E279D4A4
:101CE0009F0D909353010E94D3018F7331F40E9492
:101CF000D3016DE06ED490935201DD2339F00E9440
:101D0000D3018F7319F4D150D09301010E94D301F4
:101D1000811108C00E94D3016EE05BD49093010151
:101D200010925401C33038F00E94D3018F7119F41E
:101D3000C150C09300010E94D3018F7729F40E9403
:101D4000D3018770809300010932110519F481E0F5
:101D5000809304018091A201080F0093A2010DCF8E
:101D6000D23C09F410CFD43C21F48C2F90E004969F
:101D70000DCFD13B51F5C23090F400FDFECEEC2FDB
:101D8000F0E0E75FFE4F808190910401891B8F3F57
:101D900008F08EEF883008F488E08083EECEC430FF
:101DA00009F0EBCE8091080190910401890F8230F7
:101DB00040F482E080930801809108010E94F601BE
:101DC000DCCE8937B8F388E7F5CFD13E09F407CFE9
:101DD000D23B09F416CFD23E09F4DDCED53C81F4D6
:101DE00070E060E082E19FE0D1D880E0E7CFC430CE
:101DF00009F0C3CE809108018330F0F28150DACF30
:101E000081E0D13009F4A0CFDF91CF911F910F91E4
:101E1000FF90EF90DF900895D13C09F4A0CED43C20
:101E2000D1F6A3CF0F931F93CF93DF93D82F8B01BE
:101E3000883031F480917401882311F088E06BDEE2
:101E40008D2F8079803999F481E080937301C0915E
:101E50007401CC2311F0C0E004C080911F010E94E6
:101E6000F6018C2FDF91CF911F910F91089580384B
:101E700031F41092730180E00E94F601ECCFC1E0D2
:101E8000D13079F7C0917301CC2359F0809174015E
:101E9000882309F3B80181E0DF91CF911F910F9161
:101EA0003ACE07331140B8F2D093A50160E080E04C
:101EB0000E947A03D6CFFF920F931F93CF93DF93A5
:101EC000C82F162F072FF0901F018079803909F055
:101ED0003BC0DC2FDC70D1F010927301D0E0809118
:101EE0007301882321F0612F702F8C2F9BDFF092DC
:101EF0001F01C83091F5612F702F88E015DC8D2F00
:101F0000DF91CF911F910F91FF90089591E09093F1
:101F10007301EC2FEF70F0E0E55FFE4F80812FEF53
:101F2000280F263928F480931F0110927401D7CF0F
:101F300090937401873990F28759990B65E070E0AE
:101F400054D380930B01CBCF803829F410927301C6
:101F500080E00E94F601D1E0C2CFC13069F48091E7
:101F60007301811110C0612F702F81E0DF91CF913B
:101F70001F910F91FF90D8CBC33039F4612F80911E
:101F800010010E947A03D0E0BACFC63C49F40E9407
:101F90000A0470E060E088E498E00E94C607F3CF8E
:101FA000C73B09F0ACCF70E060E083E897E00E94A7
:101FB0006906E9CF2F932FB72F933F938F939F936A
:101FC000AF93BF93EF93FF938091CE018823E9F005
:101FD000E091CD0120B131B1F0E0EE0FFF1FDF0144
:101FE000A753BE4F2D933C93EB53FE4F80819181BD
:101FF0008217930708F401962817390708F4019708
:102000009183808381E08093CF0181E08093CE0132
:10201000FF91EF91BF91AF919F918F913F912F9140
:102020002FBF2F9118958F9381E08093A8018F91F6
:1020300018958F9381E08093A7018F911895F8945C
:1020400085B7877F85BF90E088ED0FB6F894A89597
:102050008FBD90B7977F90BF0FBE81E088B989E0B0
:102060008CB98CE380BB82E88093720081E180931D
:1020700071008FEF90E0909369008093680080E892
:1020800082BB87BD8CB788608CBFA89580E480BF79
:1020900002DC789481E00E94BB0170E060E082E2A3
:1020A00098E00E946906109282010E940A049FB182
:1020B000892F8095881F8827881F8093A60197FF06
:1020C00095C082E00E94BB01F89480E890E0B4D211
:1020D000853A09F0C0C003E811E0C1E8D0E0CE01C4
:1020E000ABD2F80181938F012196C03AD105B9F79F
:1020F00078948091830180937D0180918401809305
:10210000180180918501809315018091860180934B
:102110001201809187018093190180918801809339
:102120001601809189018093130180918A01809327
:102130001A0180918B018093170180918C0180930B
:10214000140180918D0180931E0180918E018093F6
:102150007E0180918F0180937C018091900180931A
:102160001D01809191018093800180919201809363
:102170007F0180919301809320018091940180934D
:102180000B018091950180930901809196018093C4
:102190000A018091970180930801809198018093B2
:1021A0000F01809199018093210180919A01809380
:1021B000C00180919B018093220180919C018093BA
:1021C000110180919D018093100180919E01809367
:1021D000750180919F0180930C018091A0018093F3
:1021E0000D018091A10180930E0136C0C0E08C2FBB
:1021F0000E94F60183E190E00CDC8C2F86950E9412
:10220000F60183E190E005DC9FB1892F8095881F5E
:102210008827881F8093A60197FD1AC0CF5FC0341E
:1022200031F765E181E00E9428040E944C04C6E970
:102230008C2F0E94F60184E090E0EBDBC150C1F7E7
:1022400040CF8C2F0E94F6018DE090E0E2DBC15080
:10225000C111F7CF36CF789480918001811180939E
:102260001F0161E070E088E498E00E94690643E4A1
:10227000242E52E0352E60E4462E77247394CC242D
:10228000C394D12C612C512CE8E48E2EE8E09E2ED4
:102290000E94CD068091AB019091AC01009751F066
:1022A0006091A9017091AA010E94C6071092AC0129
:1022B0001092AB018091A501882339F180E00E9442
:1022C000F601A89520BE1F989FB1892F8095881F81
:1022D0008827881F8093A60197FFF6CF0E94B1013F
:1022E0008CB788608CBF1092CF011092A801109219
:1022F000A7018091A501811133C0309223018CB7D1
:10230000877F8CBFC8DAA89540BE79DB1092820126
:10231000C091BE01D091BF0180917A01811104C0AA
:102320000E9464030E946202F4E0C232DF0709F0F7
:1023300038C0C0E7D0E0FE01849180539ADB8CE284
:1023400091E067DB2196F0E0CC37DF07A1F79092B0
:10235000AC018092AB011092AA011092A90198CF12
:1023600086B78F79806486BF86B7806186BF88957F
:1023700086B78F7E86BF8091A70181111092A5013B
:102380008091CF01882331F0709223017092C401B3
:102390000E94E8048091A801882309F4AACF8CDA6E
:1023A000A8CF8DE0CB38D80799F0EFE0C231DE0737
:1023B00029F0FFE0CB35DF0709F0B2C0809174014E
:1023C000813009F0ADC080917301882309F4A8C061
:1023D000C0910B01C230B9F1F8F0C43009F058CF08
:1023E000D0910801DD0FD73908F0D6E98D2F0E9472
:1023F000F60185E090E00DDB809108010E94F60176
:1024000081E490E006DBC15089F780ED92E001DBCA
:1024100080E00E94F6013CCFEC2FF0E0E75FFE4F3A
:10242000D08186E90E94F60183E090E0CC2319F088
:102430008D2F869590E0EDDA80E00E94F6018D2FD9
:1024400090E0E7DA25CF0E94D3018F73082F10E0C8
:102450000E94D30167E0BDD0760102C0EE0CFF1CE4
:102460009A95E2F70E94D30165E0B3D0E60102C07D
:10247000CC0FDD1F9A95E2F7CE0DDF1D0E94D30130
:1024800090E0BE01C6D0C80FD91FC739D10524F0CE
:1024900086E9C82FE0E0DE2F8C2F0E94F601C801EC
:1024A000B8DA7E0133E0F594E7943A95E1F7E1106C
:1024B00002C0EE24E394F12CC801ABDA5E01AE1841
:1024C000BF08E501B7FE02C0C62DD52D8C2F0E9496
:1024D000F6010E94D301837039F4C8019ADACE0163
:1024E000959587950E94F601E2E0AE16B10424F7B7
:1024F0000E94D3016DE06DD0860102C0000F111F54
:102500009A95E2F70E94D301E801219790E0C82351
:10251000D923C00FD11F80E00E94F601CE0191CFD8
:10252000F7E0C63DDF0751F48091C301BFDA809127
:102530001E0181110CCF88EE93E083CF87E0C63F68
:10254000D80721F48091C101B1DAF5CFEBE0CD36A7
:10255000DE07B9F48091A60181119ACE80911F0106
:102560000E94F60184E690E054DA80E00E94F601D1
:1025700080910F0190E068EE73E01AD084569109C3
:1025800060CFC051D84049F480E0AADA81E0A8DAEF
:1025900080E0A6DA80ED97E054CF86B78F7986BFCA
:1025A00086B7806186BF889586B78F7E86BF70CEDE
:1025B0000024552704C0080E591F880F991F009743
:1025C00029F076956795B8F37105B9F7802D952FA9
:1025D0000895991B79E004C0991F961708F0961B7F
:1025E000881F7A95C9F780950895AA1BBB1B51E1F6
:1025F00007C0AA1FBB1FA617B70710F0A61BB70B73
:10260000881F991F5A95A9F780959095BC01CD0117
:10261000089597FB072E16F4009406D077FD08D096
:10262000E4DF07FC05D03EF4909581959F4F089517
:10263000709561957F4F0895E199FECF1FBA8EBBCB
:10264000E09A99278DB30895262FE199FECF1FBAFE
:102650008EBBE09A81500DB2021639F01CBA2DBB28
:102660000FB6F894E29AE19A0FBE0895F894FFCF5E
:10267000080E18010101000496294303781E9802F0
:1026800037180107058282820A0A0A820A01014676
:10269000012D0702180115011201020100000000BE
:1026A0000000000100000000000000000100002107
:1026B0000123022503270429052C06FF0605040330
:0226C000000018
:00000001FF
