:100000006FC100008AC1000088C100000C94791102
:1000100084C100000C94731180C100007EC10000F7
:100020007CC100007AC1000078C1000076C10000E8
:1000300074C1000072C100000C943A116EC100003E
:100040006CC100006AC1000068C1000066C1000008
:1000500064C1000062C1000060C100005EC1000018
:100060005CC100005AC1000058C1000056C1000028
:10007000303132342E323032332D30372D3038009B
:1000800001050414101115FF3FFF3FE62D6239DF13
:100090002397302F3583363536F8342533F130EB5E
:1000A00033E130D431E131752EE32D352FCD2D41A3
:1000B0002C342C632AD92916292A2820270126D452
:1000C0002452240B235A220B2141206B1F231E494B
:1000D0001D6B1C8C1B611A8A1974186A17A6167D71
:1000E0001597148E139612AD11AC10BE0FBF0EB43F
:1000F0000DBF0CC20BC00AD509D008CE07E306E835
:1001000005E104E203ED02F101FF00FF00FF00FF43
:1001100000FF00FF00FF00FF00FF00FF00FF00FFE7
:1001200000FF00FF00FF00FF00FF00FF00FF00FFD7
:1001300000FF00FF00FF00FF00FF00FF00FF00FFC7
:1001400000FF00FF00FF00FF00FF00FF00FF00FFB7
:1001500000FF00FF00FF00FF00FF00FF00FF00FFA7
:1001600000FF00FF00FF00FF00FF00FF00FF00FF97
:1001700000FF00FF00FF00FF00FF00FF00FF00FF87
:1001800000FF00FF00FF00FF00FF00FF00FF00FF77
:1001900000FF00FF00FF00FF00FF00FF00FF00FF67
:1001A00000FF00FF00FF00FF00FF00FF00FF00FF57
:1001B00000FF000000000000000000000000000040
:1001C000000000000000000000000000000000002F
:1001D000000000000000000000000000000000001F
:1001E000000000000000000000000000000000000F
:1001F00000000000000000000000000000000000FF
:1002000000000000000000000000000000000000EE
:1002100000000000000000000000000000000000DE
:1002200000000000000000000000000000000000CE
:10023000000000000009141E29343F4B5763707DF5
:100240008A97A5B3C2D0E0EFFF00010102020304C8
:1002500005060708090B0C0E10111316181A1D1F9E
:100260002225282B2E3135383C3F43474A4E5256E3
:10027000595D606367696C6E7072737474737270C9
:100280006D6A655F5951473C3022131415161718D3
:100290001A1B1C1E1F2022242527292B2D2F31330A
:1002A00035383A3D3F4245484B4E5154585B5F63A9
:1002B000676B6F73777C81858A8F959A9FA5ABB1A9
:1002C000B7BDC4CBD2D9E0E7EFF7FFFFFFFFFFFFD9
:1002D000FFFFFFFFFFFFFFFFFFFFFFFFFFFF00002C
:1002E00011241FBECFEFD4E0DEBFCDBF11E0A0E0F0
:1002F000B1E0EAEEF8E202C005900D92A238B10733
:10030000D9F722E0A2E8B1E001C01D92A331B20703
:10031000E1F70E947F110C94731472CEF89498ED5B
:100320009FBD83BF78940895482F362F272FE0EE86
:10033000F1E090E080E0508151110BC063E070E08B
:100340000E941514FC01E052FE4F4083318322834A
:1003500005C0019633968031910569F70895BC0177
:1003600080911202E1CF10921202109211021092AB
:10037000100281E08093AE0108950F931F93CF93F5
:10038000C82F08EA17E0C15020F4CF911F910F91B8
:10039000089582E0C3DFC8010197F1F780E0BEDF76
:1003A000F2CF83B1886483B908958BB182FB88272B
:1003B00080F991E089278093B6010895E0910601C4
:1003C000F09107013196FB70F460F0930701E09320
:1003D00006018091B1018B5A8093B101E491809123
:1003E000B1018E0F0895882321F0813031F0829A77
:1003F00005C0829892988A9808958298929A8A9ACB
:100400000895CF93DF9300D00F92CDB7DEB7209140
:100410007D0130917E0140917F0129833A834B8396
:10042000FE01319650E040E0682F70E0A1E0B0E0BE
:100430009B01042E02C0359527950A94E2F7922F6E
:10044000937081919D0101C0220F8A95EAF799234B
:1004500029F09130C1F080B3822B19C080B3209570
:10046000822380BB82B3822382BB81B3282321BB3A
:100470004E5F5F4F46305105D9F60F900F900F90A9
:10048000DF91CF91089590B3822F8095892380BB0F
:1004900082B3822B82BB81B3282BE9CFCF93C82FA5
:1004A0008091B401811109C0CC2339F080913001D1
:1004B000C81718F4F3DF82E060DF8091B501811185
:1004C0000BC09FDF91E0C11101C090E081E0C33318
:1004D00008F480E0890F87DFE0911C01F0E0EE0F67
:1004E000FF1FE359FE4F0190F081E02D8C2F0995FD
:1004F0008091B4018C138093B301C093B401C09375
:10050000B20182E0C43020F081E0CC3008F080E01D
:10051000CF9104CFCF93DF93C82FD091B40180E067
:10052000BDDFC0931C018D2FDF91CF91B7CF81111B
:1005300082E067CF81118AE064CF811188E061CFCA
:10054000811188E25ECF811180E25BCF811182E26E
:1005500058CF81118AE255CF81E0089590E0FC01E7
:10056000E75BFD4FE4912E2F30E0FC01ED54FE4F90
:10057000E491F0E080916C0090916D00892B19F46A
:100580002F3F310551F080916C0090916D008F3FAD
:10059000910541F52115310529F530936D00209322
:1005A0006C0080916A0090916B008E179F07C0F5D8
:1005B00080916A0090916B00019690936B008093FC
:1005C0006A0080916C0090916D008217930741F44E
:1005D00020916A0030916B0081E02E173F0709F0EF
:1005E00080E0089580916C0090916D0082179307D0
:1005F00050F480916C0090916D00019690936D0085
:1006000080936C00CECF80916C0090916D00281784
:10061000390738F680916C0090916D000197EECF0C
:1006200080916A0090916B00E817F90750F680916D
:100630006A0090916B000197C0CFCF93DF9300D0F9
:1006400000D000D0CDB7DEB720910C014091CE0193
:100650005091CF014855584009F422E0843059F4B4
:100660006093180126960FB6F894DEBF0FBECDBF7B
:10067000DF91CF9108956623A9F3823019F497E9A9
:10068000961B692F96E0E4E3F1E0DE0111960190FC
:100690000D929A95E1F78150990B880F991FA1E06F
:1006A000B0E0AC0FBD1F8A0F9B1FDC01ED91FC91E8
:1006B000E20FF11D6083D6CFCF92DF92EF92FF92CF
:1006C0000F931F93CF93DF939C0150910C01909156
:1006D0001701E2E0911101C0E52FF0E0E45FFE4F69
:1006E000428140930901858180930801E92FF0E060
:1006F000E45FFE4FC185642F70E0552381F0C13067
:1007000071F4860F972F911D95958795DF91CF9165
:100710001F910F91FF90EF90DF90CF9008952617D3
:1007200037079CF1821713068CF3511102C0822FF8
:10073000EDCF841B6C2F6150770B8B01E82EF12CD1
:10074000C7010E9446146093AB016695E62FF0E066
:10075000842FD12CC12CD0E0DC17C1F2C601B80126
:100760000E943214842F860FA82FB0E0B9016A1BB3
:100770007B0B77FF03C0BD01621B730BCE0CDF1C2C
:10078000E617F7071CF6DF5FE7CF842FBFCF809314
:10079000AC0184CEECE0F1E0868580930A01838988
:1007A000808B08958091A701882351F09091B40126
:1007B0009093AA018093A6011092A5011092A40122
:1007C00008959091D20180E09D3180F0E82FF0E013
:1007D000E35BFE4F2081921738F43197E081F0E01F
:1007E000E058FF4F849108958E5FF0CF08950F93E6
:1007F0001F93CF93E82FCB012091D20121502C31B0
:1008000038F480E0FEDD80E0CF911F910F91EBCDB9
:10081000CE2FC295CF70EF702091A80121113AC060
:1008200020912B0130E043E0220F331F4A95E1F77E
:100830006217730780F54091AD01421713065CF50E
:10084000442349F12091B301C2E02F3008F4C1E004
:100850002091B501222309F458C0B3DFE82FC3303B
:1008600071F48091860190E0019663E170E00E944E
:10087000321480938601865C9E4FDC01CC91CC23A0
:1008800009F44DC0C13011F0EE0FC2E08E2FB9DD7A
:100890008C2FBACFC2E0E73010F4F0E016C0E7309A
:1008A000C1F40091870110E00F5F1F4F87DD65E005
:1008B0000E9426149801290F311DC90166E070E0DD
:1008C0000E94461480938701FC01E058FF4FE49199
:1008D000C6CFE83009F0BCCF2091B501222399F0B2
:1008E0002FE030E082239323892B51F480918701FC
:1008F00090E0019666E070E00E94461480938701C4
:10090000E0918701CACF23E0ECCF9695879563E00D
:1009100070E00E943214FC01EE0FFF1FD6CFE0E022
:10092000B5CFCF93C091B40182E38C0F873908F023
:1009300080E0B4DD83E021DD8C2FCF91AFCDCF936C
:10094000C091B40180E0AADD83E017DD8C2FCF9148
:10095000A5CD81E00895823019F460932B010895AC
:100960006111609326010895662369F0813099F43E
:10097000809128019091D001891B680F6093280114
:1009800082E080930B0180912701873418F086E480
:10099000809327010895635E60932701F4CF6093ED
:1009A0002C010895E82FF0E0E45FFE4F60A3089566
:1009B00040911D0150911E012FEF280F81E090E022
:1009C00002C0880F991F2A95E2F7662339F0842B1D
:1009D000952B90931E0180931D010895809584238B
:1009E0009523F7CFCF93DF938CE091E09093B00104
:1009F0008093AF01F894D0E0C0E0E091AF01F091B6
:100A0000B001EC0FFD1F6081CE018F579F4F0E94F8
:100A100061142196C832D10581F765EA80E890E03B
:100A20000E9461147894DF91CF9108951092DE01B5
:100A300030B181B12091B101329536953695337040
:100A400090E0880F991F880F991F830F911D820FC7
:100A50008093B1018091D301882309F447C010929B
:100A6000D3018091DC019091B501992329F01F9861
:100A70001092DF011092DC01811146C080910B01C0
:100A80008823A9F18091D8019091D9019093D50143
:100A90008093D4014096807E61EC72E00E94321413
:100AA000809126018750990B680F791F769567957D
:100AB0006093D2018091A0018823F1F0815080934E
:100AC000A0018091B501811108C08EE884B981E050
:100AD0008093DC011092DD0164DC80910B0188239E
:100AE00029F080910B01815080930B010895809132
:100AF000D4019091D501CECF6D3118F770E060E050
:100B000084E012DC85E0DBCF813039F780910B0186
:100B100081115EC08091D6019091D7014096DC0191
:100B200045E0B695A7954A95E1F74091280156E032
:100B3000969587955A95E1F7042E000C550B9A016E
:100B40002E503140820F931F9093D1018093D0019A
:100B500080918F01E82FF0E0EE0FFF1FE057FE4F6E
:100B600020813181BD01621B730B9B01B183A08386
:100B70008F5F877080938F01660F771F660F771FD7
:100B80006A0F7B1F8091270190E0841B950B825F89
:100B90009E4F880F991F681B790B83E01616170666
:100BA0000CF045C0615071098150C1F71616170647
:100BB0000CF057C037FD74C080918E011816F4F503
:100BC000861B80938E0186E884B91092DC0182CF67
:100BD0008091DA019091DB019093D7018093D60147
:100BE000409635E0969587953A95E1F79093910177
:100BF000809390019093930180939201909395013B
:100C0000809394019093970180939601909399011A
:100C10008093980190939B0180939A0190939D01FA
:100C200080939C0190939F0180939E0173CF6115E7
:100C3000710509F4B9CF6F5F7F4FB6CF660F771F8D
:100C4000653071055CF0635071097595679588E1B1
:100C5000861B80938E0185E067DBB5CF61E070E095
:100C6000F6CF6C3F8FEF7807DCF437FF19C0809127
:100C70008E0187FF02C08450A3CF84EE861B809331
:100C80008E018091D2018F3108F49DCF8CEF9FEFC0
:100C90009C01261B370BB9017595679586E0DCCF63
:100CA0008091D2018E3108F48ECF70E060E087E051
:100CB000D3CF81110EC010926D0010926C00109273
:100CC0006B0010926A0010926F0010926E0068988C
:100CD0000895689A815090E0FC01E75BFD4FE49134
:100CE0004E2F50E0FC01ED54FE4FE4912E2F30E0EA
:100CF000FC01EE0FFF1FE957FF4F85919491509330
:100D00006D0040936C0030936B0020936A006091FB
:100D1000B4019C0120523109662339F040916E00E4
:100D200050916F0024173507B8F3909369008093B2
:100D300068008091B401811104C010926F0010927C
:100D40006E000895813019F410921A0108958230CE
:100D500019F460931B010895833019F4609319010D
:100D60000895843011F460930D010895813019F4D1
:100D7000609330010895662389F0823021F4615038
:100D8000609331010895833021F461506093320102
:100D90000895843019F461506093330108954091AF
:100DA0001C0160911D0170911E01842F98E0282F75
:100DB00030E02F5F3F4F27703327822FFB0102C0A7
:100DC000F695E7952A95E2F7E0FD02C0915079F794
:100DD000481721F09FDB06DE80E0089581E008954A
:100DE000FF920F931F93CF93DF938C01D62FC72FC2
:100DF000F42E8091CE019091CF01892B31F0E091BA
:100E0000CE01F091CF0189E009951093CF010093B5
:100E1000CE01012B41F0E091CE01F091CF016D2F79
:100E20007C2F8F2D099581E08093AE01DF91CF91CA
:100E30001F910F91FF9008952091BD01283080F4FB
:100E4000E22FF0E0EE0FFF1FE254FE4F808391830C
:100E50002F5F2093BD0148E0C3DF8091BD0108955D
:100E60008FEF0895CF932091CE013091CF01833C35
:100E700011F4CF9194CFC0911701C1110AC0893BE1
:100E800041F470E060E084E798E0D6DF8C2FCF91EA
:100E90000895C1E0FBCF282FCB01283039F4109200
:100EA000A7011092A5011092A4010895213B59F4C5
:100EB0008091A70181508330B8F583E08093A7012A
:100EC0008093A601EECF253BA1F46EE370E00E9473
:100ED0003214892B49F58091A7018A3F28F58B5F51
:100EE0008093A7018093A6011092A5011092A401FE
:100EF00018CD2130C9F48091A4019091A5010196EB
:100F000088382EE0920728F49093A5018093A401DD
:100F100008951092A5011092A4018091A701882341
:100F200019F081508093A7010895EF92FF921F93CB
:100F3000CF93DF931091E001111106C0DF91CF91A3
:100F40001F91FF90EF900895E090E101F090E20191
:100F5000C091BD01C1500C2E000CDD0BC7FD0EC0B1
:100F6000FE01EE0FFF1FE254FE4F0190F081E02DD5
:100F7000B701812F099521978111F0CFE0EEF1E0C3
:100F8000838180838481958192838183339682E0FB
:100F9000ED30F807A9F710920D0210920F0210928F
:100FA0000E02C8CF8091BD01882319F08150809333
:100FB000BD01E091BD0190E080E0EE2341F0E15001
:100FC000FF0BEE0FFF1FE254FE4F808191814AE03C
:100FD00070E060E005CF1F93CF93DF93162FD72FDC
:100FE000C42FF9018830B9F480911C0180938A01E3
:100FF0001092890180E052DA8091B60181112FC0F0
:10100000809189018F5F8093890170E060E08EE7B5
:1010100098E012DF24C0982F907F903B49F5809193
:101020008901481718F18150883040F49091A90146
:10103000992321F090911C0189136CDA812F9D2F47
:101040006DE570E00E943214069771F48091890179
:101050008F5F80938901C81710F088E31FDA80E062
:10106000DF91CF911F91089582E1F8CF80E0F6CF14
:10107000903E51F480918901882371F0481760F007
:1010800080918A0147DAC1CF8A3041F46091A10191
:10109000809189010995A6DC85DFE1CF8930F9F6D9
:1010A00080918A0137DADBCF2DE133E043E093CF43
:1010B0002DE133E044E08FCF22EA36E044E08BCFED
:1010C00026EB36E044E087CF2BEA34E042E083CFE2
:1010D00024EB34E042E07FCF2FEC34E041E07BCFE3
:1010E00022ED34E043E077CF91E09093A90128ED21
:1010F00034E048E070DF1092A9010895883039F497
:101100001092A1011092880180E0C8D90CC08130F2
:1011100001F590918801911108C06032710518F0B5
:101120008093880120D980E00895913081F46B3B51
:10113000710520F082E080938801E6CF611571058A
:1011400091F3862F880F880F88708E5EDECF2ADF9E
:10115000EACF813811F0813E31F791E09093880118
:10116000813E41F48091A101865F8093A101FBD86B
:101170008BE4CBCF8091A1018F5FF7CF0F931F93AB
:10118000CF93DF93D82FC92F8B010CDFB8018D2FA0
:101190009C2FDF91CF911F910F914ECE813C39F45E
:1011A00070E060E080E299E0E9DF80E00895823C51
:1011B00029F470E060E08AE99CE0F6CF873B31F4E7
:1011C00070E060E088E698E037DEEFCF81E00895D8
:1011D000813C39F470E060E080E299E0CFDF80E0AC
:1011E0000895823C29F470E060E08EE69CE0F6CF42
:1011F00081E00895843011F58091CE019091CF0166
:101200002EE08D3E920731F469E170E08DE49AE0C2
:10121000B5DF0DC08D549A4061F49091B4019230C5
:1012200040F0892F869596959695890FB0DA80E0E3
:10123000089570E060E080E299E0EACF81E00895EF
:101240000F931F93CF938B018830B9F480E026D998
:101250001092AD0170E060E080912901C8DA10922F
:10126000A701012B31F0C0E08C2FCF911F910F917E
:10127000089581E08093B501F6CF813051F4693152
:10128000710588F38093B501B80180912901AFDA27
:10129000EACF833061F58091AD018F3F19F08F5F08
:1012A0008093AD0180911A01882359F080911B0130
:1012B00090E062EC71E00E9415140817190708F01D
:1012C00069DAB8018091290192DA80912C01882392
:1012D00051F290E062EC71E00E94151480179107C2
:1012E00008F0C1CF70E060E082EC9CE016C0813B6A
:1012F000B1F481E090E0E0D9D1D880911901811159
:10130000B2CF80910C01811104C00831110508F49D
:10131000AACF61E070E08DE49AE030DFA4CF813E97
:10132000C1F3813831F480910A0190E0C5D9B6D873
:101330009ACF813C21F46091B40170E0ECCF823B04
:1013400081F41092AD0180910D01909117019111DE
:1013500080911801811103C086E990E0E7CF86E90A
:10136000E6CF823E11F480E0E2CF66E970E0823C95
:1013700091F28339C1F3833C29F470E060E08EE69A
:101380009CE0CBCF843C11F4CCDAACCF8D3B41F464
:10139000F89488ED8FBD88E880BF7894A895FFCF3A
:1013A0008F3C29F470E060E089EA94E0B6CF8A3B94
:1013B00099F40115110509F048C0C0911701CC231B
:1013C00029F0AFDA109217010DDB4DCF70E060E02D
:1013D00088E598E031DD48CF833B29F470E060E098
:1013E0008DEE9EE09ACF873C99F490912901892F48
:1013F00082958F708F5F83708295807F9F70892B1D
:101400008093290170E060E0F2D9ECDA8ADA2BCF20
:10141000873BB1F481E08093A801C8018F739927BD
:10142000892B09F031CF20912901822F8F708F5F96
:10143000207F6BE00E942614922B9093290124CFE9
:10144000873E19F41092A801BFCFC0911701C111B6
:1014500022C08A3C31F465DA81E080931701C2DA58
:1014600003CF853C39F45DDA70E060E089E790E114
:1014700085DEFACE863C31F454DA70E060E083EC2D
:1014800090E1F6CF893B39F4012B29F470E060E05C
:1014900080E698E09FCFC1E0E7CEBF92CF92DF9287
:1014A000EF92FF920F931F93CF93DF93C82F8B017F
:1014B000D0900901D091080180910C01B090AB014E
:1014C000811102C0BB24B394E0900D0180911701FB
:1014D0008111E0901801EE2009F43FC041E0E416CC
:1014E00021F080910A018D17C0F1F6E9FF2EC0901E
:1014F000A701B8018C2FCFDC8091A701882309F4C4
:10150000E4C1C11004C09091B4019093AA019C2F32
:101510009D7F983021F51092A301CA3019F40091F3
:101520000A0110E0D016110630F4D017110619F098
:1015300010F000930A01C801BFD829D981E0809337
:101540000501D0E08D2FDF91CF911F910F91FF907A
:10155000EF90DF90CF90BF900895FD2EC8CFC13C93
:1015600009F4B6C1C23C49F48091B4018F1508F06A
:101570003DC08F2D0CD916D9E4CFC43C41F480E096
:101580000E944E0270E060E082EC9CE0A5C19FE406
:101590009C0F923008F056C080910C01882349F1CD
:1015A000C80168E170E00E943214892B51F6209145
:1015B000B4010115110541F5C23B01F58FEF809390
:1015C0000501C091B401809105016B2D70E0082EDA
:1015D000000C990B0E9415148C0F911D6DD88093EF
:1015E0000A01C81719F08D1301C0A9D980910A0109
:1015F000C1CF6091140170E0C801D5CF2D17F0F66E
:10160000D216F8F281E0DBCFE0911401F0E0CF01D7
:1016100066E371E00E9415148017910710F42D17EE
:1016200068F6CF016CE672E00E94151480179107EE
:1016300040F6D21630F275D970E060E082EC9CE0A2
:101640009DDDBFCF9FE19C0F923020F4809105017A
:10165000819575CFC13009F085C00932110511F4AB
:10166000C0930501882381F1C091AA01D0E090E0E8
:10167000BE010E9415149C01E091A601F0E0BF019B
:101680000E944614462FC9018C1B9D0BBF010E946E
:101690004614242F261B8091A4019091A5016EE38E
:1016A00070E00E943214822F90E00E9415146CE3C7
:1016B00070E00E943214842F861B461301C081E023
:1016C0008093B2018093AC01C091B2012091B4012A
:1016D0004C2F421B550BCA0160918B0170918C01FC
:1016E0006F5F7F4F70938C0160938B01009709F4BB
:1016F00028CF40E052E097FF06C040E450E0283891
:1017000010F440E051E05695479597FD0196959568
:1017100087950097C1F74617570708F012CFC217F1
:10172000E8F4CFEFC20FE0911C01F0E0EE0FFF1FD5
:10173000E35AFE4F0190F081E02D8FEF8C0F099559
:10174000882339F0D091B2018C2F0E944E02D093A1
:10175000B20110928C0110928B01F3CE2C1718F766
:10176000C1E0E0CFC530A9F48091B401833408F41E
:10177000E8CE90E0801B910B8739910514F086E943
:1017800090E08234910514F482E490E08093B201F9
:10179000D8CEC63079F49091B4018091AC019817FD
:1017A00008F0CFCE090F111D90E08017910774F358
:1017B000C801E7CFC73069F49091B2018091B401BC
:1017C000891710F48F5FE2CF981708F0BACE8150D6
:1017D000DDCFC33C99F0C63C49F581E090910C0106
:1017E000911180E080930C01FDD8A9D88091B401BB
:1017F00090E00E945C0380930A01BCCE60911D01C1
:1018000070911E0190E080E020E0AB01082E02C044
:10181000569547950A94E2F74170240F0196883057
:10182000910599F72230C8F2D1E08CCED091170102
:10183000D111FACFC33B59F4012B09F082CEEE202F
:1018400011F086E9F82E8F2D0E94C7037BCEC33E90
:1018500019F480910A01F8CFC53C49F480E00E9458
:101860004E0270E060E089E790E188DC6BCE70E0CA
:1018700060E084E598E0C73B99F0CA3C59F4809158
:10188000B40180931A0180911C0180931F01AAD892
:1018900048D858CECA3B31F470E060E08CE598E05F
:1018A000CBDA50CEC83C09F0BFCF809131018823FC
:1018B00041F0109231018091B4010E944E023FD854
:1018C00041CE81E080933101F6CFCC2009F41FCEC8
:1018D00070E060E080E299E051DC33CECF93C091BC
:1018E0001701C11125C0813C41F470E060E080E245
:1018F00099E044DC8C2FCF910895823C29F470E06C
:1019000060E08EEC98E0F5CF833C51F480912001AB
:1019100090E00196877099278093200163D8EACFE1
:10192000873B31F470E060E084E698E085DAE2CF4E
:10193000C1E0E0CF282FCB01213C39F470E060E01A
:1019400080E299E01BDC80E00895223C29F470E0FD
:1019500060E088EE98E0F6CF213B41F46EE370E062
:1019600081D7892B81F70E949104EDCF213E41F46C
:101970006EE370E077D76F5F6093250133D8E3CFD4
:1019800081E008950F931F93CF93DF93C82F8B01AE
:10199000873B91F480E00E944E0281E08093A80191
:1019A000C8018F739927892B09F4A6C0B8018091CB
:1019B0002A010E94F70323C08079803911F59091A4
:1019C0000E0120910F018C2F8F70813029F4822F0E
:1019D000921748F4892F07C080911A01811103C022
:1019E000822F2917B8F30E944E02C33C09F045C06C
:1019F0000E94910470E060E080E299E0BFDBD0E0FB
:101A00001BC0803811F480E0EECFC83009F08AC0E6
:101A10001092AD0170E060E080912A010E94F7030E
:101A2000D0911701D1117CC0CA3B09F079C070E098
:101A300060E08CE698E000DA8D2FDF91CF911F9166
:101A40000F910895C33089F68091AD018F3F19F051
:101A50008F5F8093AD0180911A01882309F4A6CF8E
:101A600080911B0190E062EC71E0DFD60817190746
:101A700008F49CCF0E94CA0399CF60910A0170E0DC
:101A8000C43C41F0C43B49F40E949F0410921202EE
:101A900061E070E08DE49AE0B1CFC53C19F466E9ED
:101AA00070E0F8CFC33B81F4C8016EE370E0DAD692
:101AB000892B09F0B5CF8091CE019091CF01DF91B4
:101AC000CF911F910F916BC9C73C11F590912A01DD
:101AD000892F82958F708F5F83708295807F9F7032
:101AE000892B80932A0170E060E00E94F7030E9436
:101AF000F2040E94910483CF20912A01822F8F70DB
:101B00008F5F207F6BE0A2D6922B90932A014ECF5D
:101B1000C73E09F085CF1092A8010E94F2046FCF52
:101B2000D1E08ACFC13009F08DCF0931110508F419
:101B300066CFC093B5013ACF86E884B91092DC0134
:101B40001092DD010E94D101E1E6F0E08081826027
:101B50008083139A87EE83B908950F931F93CF93D1
:101B60001092B80180911002909111029C012F5F98
:101B70003F4F88279078822B932B9093110280936C
:101B80001002C091B6010E94D501C817B9F0109299
:101B9000B5018093B601909112028823C9F1892F73
:101BA00080699F709F3091F58093120290E080E0F1
:101BB0000E94AF01109211021092100200911002C7
:101BC000109111028091B501882381F1B80183E061
:101BD0000E949401AAD907701127012B99F4109241
:101BE0008D0181E08093DF01A7DFC0918D01C111DC
:101BF00005C00E94D10181E08093D301CF5FCF71F6
:101C0000C0938D01CF911F910F9108958F5FCCCF1D
:101C1000892F8F7E95FD08C0806880931202809185
:101C2000100290911102C4CF806CF7CFC0911202C4
:101C30008C2F807F803B49F470E060E081E00E945F
:101C40009401C8010E94AF01D0CFB80181E00E9489
:101C50009401C4FF0FC0C5FDF4CF0831110528F26F
:101C60001092110210921002C062C093120290E012
:101C700080E0E8CFCC2309F4B8CFC5FF03C00E94B1
:101C8000B301B3CF0231110508F4AFCFC064C093E4
:101C9000120290E080E00E94AF01F1CF8091DE015E
:101CA00081110E9416058091B801811156CF0895C7
:101CB000EF92FF920F931F93CF93DF93EC0108E015
:101CC00017E082ECE82EFF24F394209739F4DF919B
:101CD000CF911F910F91FF90EF9008958091AE01E9
:101CE0008111F5CF8091B401843068F482E00E94C4
:101CF0008E01C7010197F1F780E00E948E01CEDFCF
:101D000014D92197E2CF80E00E948E01C801F2CF62
:101D10000F931F93CF93DF93C82F06EA811102C060
:101D20000CE0C1E0D0911C0110E0809120010E94E4
:101D30008A0282E30E944E02D0931C01C801B8DFE0
:101D4000809120010E948A0280E00E944E02D0937E
:101D50001C018AEF90E0ACDFC15039F78D2F0E9453
:101D60008A028AE992E0DF91CF911F910F91A0CF73
:101D7000CF93DF93282F64E669D5382FC92F892F99
:101D80006AE064D5D92F243650F0832FC1DF8C2F21
:101D90006AE05CD5BDDF8D2FDF91CF91B9CFCA301E
:101DA000B0F7F9CFCF93DF93D82FC3E080910A012A
:101DB0000E944E0288EC90E07BDFDD2319F080E981
:101DC00091E076DF80E00E944E0288EC90E070DFC8
:101DD000C15061F7DF91CF910895FF920F931F9348
:101DE000CF93DF93D82F8B01C091210181E08093A5
:101DF000A301C43079F4F090A7018D2F4CD8FF20B7
:101E0000A1F08091A701811110C070E060E080E234
:101E100099E0B4D9D83071F0D13C09F00AC170E032
:101E200060E080E299E0AAD908C0D83041F481E0AE
:101E30008093030181E08093040180E04EC1D23C95
:101E400069F41092A7018C2F90E0019666E070E093
:101E50001DD5809321010E94F204EFCFD13BC1F444
:101E600080910201012B41F49FEF863618F48230F5
:101E700018F491E09093030190910301890F21F4EC
:101E800081E080930201D9CF8736D8F386E6F9CF77
:101E9000D13E59F480910301819580930301809193
:101EA0000401819580930401D6CFD23BE1F481E017
:101EB0008093030180910201823018F08150809359
:101EC000020181E080930401C23008F0F9C000FDF6
:101ED000B4CFEC2FF0E0E45FFE4F86898F3F09F42A
:101EE000ACCF8F5FC3C0D13009F0FDC009321105FE
:101EF00011F4D093030190918501892F880F97FDEC
:101F0000809590E069E070E090D4292F8091840161
:101F1000682F660F87FD60958091010170E090E069
:101F200084D4290F80918301682F660F87FD609507
:101F30008091000170E090E078D4622F690F809169
:101F40000201680F7727771F8091A701813091F4F4
:101F50008091A4019091A50125E0969587952A95F9
:101F6000E1F724E730E0A901481B590BCA015DD411
:101F7000B90178D4862F0E944E0200FD09C00E944C
:101F8000DE01982F917080918501890F80938501E2
:101F90008091840190918201890F809384010E9435
:101FA000DE0165E253D480918301890F8093830120
:101FB0000E94DE018F7331F40E94DE016DE046D491
:101FC00090938201C0910101CC2339F00E94DE017F
:101FD0008F7319F4C150C09301010E94DE01811179
:101FE00008C00E94DE016EE031D49093010110928E
:101FF0008401C0910001C33038F00E94DE018F716E
:1020000019F4C150C09300010E94DE018F7729F4BA
:102010000E94DE018770809300010932110519F4D6
:1020200081E0809304018091B101080F0093B10118
:1020300004CFD23C09F407CFD43C21F48C2F90E09C
:10204000059604CFD13B51F5C23090F400FDF5CE9A
:10205000EC2FF0E0E45FFE4F868990910401891B2C
:102060008F3F08F08EEF883008F488E0868BE5CE4D
:10207000C53009F0E2CE8091240190910401890FCE
:10208000823040F482E080932401809124010E94F8
:102090004E02D3CE8937B8F388E7F5CFD13E09F4A5
:1020A000FECED23B09F40DCFD23E09F4D4CED53CBE
:1020B00081F470E060E089E790E160D880E0E7CFEC
:1020C000C53009F0BACE809124018330F0F28150FE
:1020D000DACF81E0D13009F4A0CFDF91CF911F9109
:1020E0000F91FF900895D13C09F499CED43CE1F6CC
:1020F000A5CF0F931F93CF93DF93D82F8B018830F9
:1021000031F48091A301882311F088E066DE8D2FE1
:102110008079803999F481E08093A201C091A30174
:10212000CC2311F0C0E004C080910A010E944E024D
:102130008C2FDF91CF911F910F910895803831F44A
:102140001092A20180E00E944E02ECCFC1E0D1309B
:1021500079F7C091A201CC2359F08091A301882383
:1021600009F3B80181E0DF91CF911F910F9135CE36
:1021700007331140B8F2D093B50170E060E080E021
:102180000E94F703D5CFFF920F931F93CF93DF9356
:10219000C82F8B01F0900A0180798039C9F5DC2FB6
:1021A000DC70C1F01092A201D0E08091A2018823DE
:1021B00019F0B8018C2F9DDFF0920A01C83089F523
:1021C000B80188E0DFDB8D2FDF91CF911F910F9158
:1021D000FF90089591E09093A201EC2FEF70F0E052
:1021E000E45FFE4F80A12FEF280F263928F480935B
:1021F0000A011092A301D9CF9093A3018739A0F2CD
:102200008759990B66E070E041D380932101CDCFCF
:10221000803829F41092A20180E00E944E02D1E0A1
:10222000C4CFC13061F48091A201811117C0B801FF
:1022300081E0DF91CF911F910F91FF90A3CBC3302D
:1022400019F4B80183E0F5CFC63C51F40E94910423
:1022500070E060E080E299E00E94BE08D0E0B3CF79
:10226000C73B09F0B0CF70E060E080E798E00E94E3
:102270001C07F4CF2F932FB72F933F938F939F93E8
:10228000AF93BF93EF93FF938091DD018823E9F033
:10229000E091DC0120B131B1F0E0EE0FFF1FDF0172
:1022A000A852BE4F2D933C93EC52FE4F80819181FA
:1022B0008217930708F401962817390708F4019745
:1022C0009183808381E08093DE0181E08093DD0152
:1022D000FF91EF91BF91AF919F918F913F912F917E
:1022E0002FBF2F9118958F9381E08093B8018F9124
:1022F00018958F9381E08093B7018F911895F8948A
:1023000085B7877F85BF90E088ED0FB6F894A895D4
:102310008FBD90B7977F90BF0FBE89E08CB98CE7D7
:1023200080BB82EA8093720081E1809371008FEF1D
:1023300090E0909369008093680084E08EB988BD36
:102340008CB780618CBFA89580E480BFF5DB789462
:1023500081E00E94BD0170E060E08AEF98E00E9499
:102360001C071092AE010E9491040E94D5018111B8
:10237000BFC08CE091E09093B0018093AF01F894DE
:1023800080E890E096D2853A79F40091AF011091FF
:10239000B001C1E8D0E0CE018CD2F80181938F0169
:1023A0002196C93AD105B9F7789480911A01811123
:1023B0000E94CA0370E060E082E397E00E941C077D
:1023C00061E070E080E299E00E941C0733243394BE
:1023D0004EEF442E512CCC24C394D12C212C6CEFE5
:1023E000662E63E0762E70E2872E79E0972E0E94AB
:1023F00095078091BB019091BC01009751F06091CD
:10240000B9017091BA010E94BE081092BC011092ED
:10241000BB018091B501882321F180E00E944E022A
:10242000A895F3E4F0BF1F980E94D5018111FCCF5D
:102430000E94B3018CB780618CBF1092DE011092B4
:10244000B8011092B7018091B501811180C022E0DE
:1024500020930B018CB78F7E8CBF6EDBA89530E488
:1024600030BF1CDC1092AE01C091CE01D091CF01E3
:10247000809131018823E9F08091A801811119C070
:1024800080911C01F20102C0F595E7958A95E2F76B
:10249000E0FD0FC01091B40180913201181748F08F
:1024A000009133010E94E103101708F0880F0E9489
:1024B0000102F4E0C93ADF0709F083C0C0E7D0E0C9
:1024C000FE01849180538A3008F06AC021DC8CE2DE
:1024D00091E0EEDB2196F0E0CF37DF0789F79092AD
:1024E000BC018092BB011092BA011092B9017FCF5A
:1024F000C0E08C2F0E944E0283E190E0D9DB8C2F4C
:1025000086950E944E0283E190E0D2DB0E94D501C5
:102510008823D1F0CF5FC03461F765E181E00E948C
:10252000B4040E94F204C6E98C2F0E944E0284E09B
:1025300090E0BEDBC150C1F71CCF8C2F0E944E0231
:102540008DE090E0B5DBC150C111F7CF12CF809183
:10255000DF01882309F186B78F79806286BF86B74D
:10256000806186BF889586B78F7E86BF8091B701D0
:1025700081111092B5018091DE01882331F03092F3
:102580000B013092D3010E9416058091B801882377
:1025900009F459CFE2DA57CF86B78F798064DECF5E
:1025A00010E0812F8295880F80720E944E0280E198
:1025B00090E07EDB1F5F1931A1F78AE992E078DBBA
:1025C00086CF2EE0CD3ED20799F030E1C937D30750
:1025D00029F080E1C33CD80709F0DFC08091A30156
:1025E000813009F0DAC08091A201882309F4D5C0B6
:1025F000C0912101C33009F462C0C8F4C23009F4AB
:102600003EC0EC2FF0E0E45FFE4FD68986E90E94E1
:102610004E02C11130C0DA3250F5C3010197F1F713
:1026200080E00E944E028D2F90E042DBE0CEC5306C
:1026300009F0DDCEC0912401CC0FC73908F0C6E9FE
:10264000D4E08C2F0E944E0285E090E031DB809137
:1026500024010E944E0281E490E02ADBD15089F7E8
:1026600080ED92E025DB80E00E944E02C0CE81E04A
:1026700090E01EDBD5CF8D2F869590E0FACF10919C
:102680000A01D0911C01C0E081E0CC2319F0C530D3
:1026900019F485E00E948A02812F0E944E0281E295
:1026A00090E006DB80E00E944E0282E490E000DBD6
:1026B000CF5FCA3049F78D2F0E948A0298CE0E94C0
:1026C000DE018F73082F10E00E94DE0167E0BED0AC
:1026D000760102C0EE0CFF1C9A95E2F70E94DE0123
:1026E00065E0B4D0E60102C0CC0FDD1F9A95E2F799
:1026F000CE0DDF1D0E94DE0190E0BE01C7D0C80FE5
:10270000D91FC739D10524F0E6E9CE2FF0E0DF2F3D
:102710008C2F0E944E02C801CBDA7E0133E0F59483
:10272000E7943A95E1F7E11002C0EE24E394F12C2E
:10273000C801BEDA5E01AE18BF08E501B7FE03C0EE
:1027400020E0C22FD22D8C2F0E944E020E94DE016B
:10275000837039F4C801ACDACE01959587950E9453
:102760004E0282E0A816B1041CF70E94DE016DE063
:102770006DD0860102C0000F111F9A95E2F70E94EA
:10278000DE01E801219790E0C823D923C00FD11FB3
:1027900080E00E944E02CE0148CFECE0CE36DE074C
:1027A00051F48091D201E4DA80911701811197CE22
:1027B00088EE93E03ACFF8E0CE3CDF0721F4809139
:1027C000D001D6DAF5CF2CE0CA39D207B9F480911E
:1027D000B60181110CCE80910A010E944E0284E65E
:1027E00090E066DA80E00E944E028091250190E040
:1027F00068EE73E01AD08456910917CFC85ED840AE
:1028000049F480E0CFDA81E0CDDA80E0CBDA80ED08
:1028100097E00BCF86B78F7986BF86B7806186BF7A
:10282000889586B78F7E86BFE2CD0024552704C0E9
:10283000080E591F880F991F009729F07695679504
:10284000B8F37105B9F7802D952F0895991B79E09C
:1028500004C0991F961708F0961B881F7A95C9F730
:1028600080950895AA1BBB1B51E107C0AA1FBB1F7F
:10287000A617B70710F0A61BB70B881F991F5A950C
:10288000A9F780959095BC01CD01089597FB072E7F
:1028900016F4009406D077FD08D0E4DF07FC05D0DD
:1028A0003EF4909581959F4F0895709561957F4F67
:1028B0000895E199FECF1FBA8EBBE09A99278DB398
:1028C0000895262FE199FECF1FBA8EBBE09A815062
:1028D0000DB2021639F01CBA2DBB0FB6F894E29A6D
:0A28E000E19A0FBE0895F894FFCFAF
:1028EA00080E180101010004820B320200010B0BD1
:1028FA000B8282820107050100000000000100002E
:10290A00070429438202072D0018390400781E980B
:10291A0015010F320E01110114010201000000001D
:10292A00000000010000000000000000010000217A
:10293A000123022503270429052C06FF06AE02AC53
:10294A0002AC02AC02AC02AC02AC02AC0259069771
:10295A00029A029D02A002A302A602A9020504038A
:02296A0000006B
:00000001FF
