:1000000099C20000B4C200000C94D312B0C2000028
:10001000AEC200000C94CD12AAC20000A8C200001B
:10002000A6C20000A4C20000A2C20000A0C200003C
:100030009EC200009CC200000C94941298C2000062
:1000400096C2000094C2000092C2000090C200005C
:100050008EC200008CC200008AC2000088C200006C
:1000600086C2000084C2000082C2000080C200007C
:100070003230323330363235303133360001050418
:1000800014101115FF03FF03FF03FF03FF03FF031A
:10009000FF03FF03FF03FF03FF03FF03FF03FF0350
:1000A000FF03FF03FF03FF03FF03FF03FF03FF0340
:1000B000FF03FF03FF03FF03FF03FF03FF03FF0330
:1000C000FF03FF03FF03FF03FF03FF03FF03FF0320
:1000D000FF03FF03FF03FF03FF03FF03FF03FF0310
:1000E000FF03FF03FF03FF03FF03FF03FF03FF0300
:1000F000FF03FF03FF03FF03FF03FF03FF03FF03F0
:10010000FF03FF03FF03FF03FF03FF03FF03FF03DF
:10011000FF03FF03FF03FF03FF03FF03FF03FF03CF
:10012000FF03FF03FF03FF03FF03FF03FF03FF03BF
:10013000FF03FF03FF03FF03FF03FF03FF03FF03AF
:10014000FF03FF03FF03FF03FF03FF03FF03FF039F
:10015000FF03FF03FF03FF03FF03FF03FF03FF038F
:10016000FF03FF03FF03FF03FF03FF03FF03FF037F
:10017000FF03FF03FF03FF03FF03FF03FF03FF036F
:10018000FF03FF03FF03FF03FF03FF03FF03FF035F
:10019000FF03FF03FF03FF03FF03FF03FF03FF034F
:1001A000FF03FF03FF03FF03FF03FF03FF03FF033F
:1001B0000000000001000100020002000300030033
:1001C00004000400050005000600070008000900FF
:1001D0000A000B000C000D000F00100011001200AF
:1001E00014001500170018001A001B001D001F0046
:1001F000210023002500270029002B002D003000BE
:100200003200350037003A003D003F004200450013
:1002100048004B004F005200550059005C00600040
:10022000640068006C007000740078007D0081003C
:1002300086008A008F00940099009E00A300A90008
:10024000AE00B400B900BF00C500CB00D100D7009C
:10025000DE00E400EB00F200F800FF0007010E01F1
:1002600015011D0124012C0134013C0144014D0103
:1002700055015E0167017001790182018B019501D1
:100280009E01A801B201BC01C601D101DB01E6015A
:10029000F101FC01070213021E022A023602420289
:1002A0004E025B026702740281028E029B02A80268
:1002B000B602C402D202E002EE02FD020B031A03F0
:1002C0002903390348035803680378038803980314
:1002D000A903BA03CB03DC03ED03FF030000000016
:1002E000000000000000000000000000000000000E
:1002F00000000000000000000000000000000000FE
:1003000000000000000000000000000000000000ED
:1003100000000000000000000000000000000000DD
:1003200000000000000000000000000000000000CD
:1003300000000000000000000000000000000000BD
:1003400000000000000000000000000000000000AD
:10035000000000000000000000000000000000009D
:10036000000000000000000000000000000000008D
:10037000000000000000000000000000000000007D
:10038000000000000000000000000000000000006D
:10039000000000000000000000000000000000005D
:1003A000000000000000000000000000000000004D
:1003B000000000000000000000000000000000003D
:1003C0000000000000000000000000000F002200FC
:1003D000340047005A006E0081009500A900BE005D
:1003E000D300E900FE0013012A01400157016E010C
:1003F00085019D01B501CD01E501FE011702300225
:100400004A0264027F02990200000000010001001C
:1004100002000200030003000400040005000600BF
:100420000700080009000A000B000D000E000F0075
:10043000110013001400160018001A001C001E0002
:1004400021002300260028002B002E00310034005C
:1004500037003B003E00420046004A004E0052007A
:1004600056005B006000640069006F007400790052
:100470007F0085008B00910097009E00A500AC00D6
:10048000B300BA00C100C900D100D900E100EA0000
:10049000F300FB0005010E01180121012B013601BB
:1004A00040014B01560161016C017801840190010A
:1004B0009C01A901B601C301D001DE01EC01FA01E2
:1004C0000902180227023602460255026602760227
:1004D00087029802A902BB02CD02DF02F2020403E6
:1004E00018032B033F03530367037C039103A70304
:1004F000BC03D203E903FF03FF03FF03FF03FF0372
:10050000FF03FF03FF03FF03FF03FF03FF03FF03DB
:10051000FF03FF03FF03FF03FF03FF03FF03FF03CB
:10052000FF03FF03FF03FF03FF03FF03FF03FF03BB
:10053000FF03FF0311241FBECFEFD4E0DEBFCDBF0A
:1005400011E0A0E0B1E0EAE8FCE202C005900D9203
:10055000A435B107D9F722E0A4E5B1E001C01D92AE
:10056000AE30B207E1F70E94D9120C94431648CD81
:10057000F89498ED9FBD83BF78940895482F362F47
:10058000272FE9EDF1E090E080E0508151110BC0A0
:1005900063E070E00E94AA15FC01E752FE4F408321
:1005A0003183228305C0019633968031910569F726
:1005B0000895BC0180910B02E1CF10920B021092C2
:1005C0000A021092090281E08093880108950F9336
:1005D0001F93CF93C82F08EA17E0C15020F4CF91A2
:1005E0001F910F91089582E0C3DFC8010197F1F7D1
:1005F00080E0BEDFF2CF83B1886483B90895E091D3
:100600000701F09108013196FB70F460F093080146
:10061000E09307018091AB018B5A8093AB01E49189
:100620008091AB018E0F0895882321F0813031F045
:10063000829A05C0829892988A9808958298929A90
:100640008A9A0895CF93DF9300D00F92CDB7DEB78B
:1006500020914F01309150014091510129833A83FB
:100660004B83FE01319650E040E0682F70E0A1E03E
:10067000B0E09B01042E02C0359527950A94E2F75D
:10068000922F937081919D0101C0220F8A95EAF704
:10069000992329F09130C1F080B3822B19C080B327
:1006A0002095822380BB82B3822382BB81B328231F
:1006B00021BB4E5F5F4F46305105D9F60F900F902A
:1006C0000F90DF91CF91089590B3822F8095892369
:1006D00080BB82B3822B82BB81B3282BE9CFFF92F0
:1006E0000F931F93CF93DF9300D000D000D0CDB7EE
:1006F000DEB7F82E8091AD01811109C0FF2039F0DD
:1007000080912101F81618F4EADF82E060DFF092B0
:10071000AD01F092AC018091AE0181110CC092DF6D
:1007200091E0F11001C090E081E026E42F1508F07F
:1007300080E0890F79DFF1107DC010920D021092D8
:100740000C0218BA10926B0010926A0010926D00A1
:1007500010926C0010926B0010926A0010926F0061
:1007600010926E008898899800910C0210910D02E9
:1007700040916800509169005E834D838091AD0186
:10078000815090912201911192C090E06FEF70E042
:100790000E94AA1566E970E00E94E015C801B0E069
:1007A000A0E0262F30E050E040E089839A83AB83BD
:1007B000BC83B801CD010E94BB1561587F4F8F4F9C
:1007C0009F4F69837A838B839C832FEF30E040E0D7
:1007D00050E00E940716C9016D817E816217730780
:1007E00008F07EC09801261B370BCB0130936D00BB
:1007F00020936C0090936B0080936A00232B09F484
:100800007EC0889A892B09F47CC0899AF092620193
:100810008091AD01823008F076C082E026960FB656
:10082000F894DEBF0FBECDBFDF91CF911F910F9126
:10083000FF909ECE2FEF2F0D30E0220F331FF901D6
:10084000E85FFB4F8591949190930D0280930C0289
:10085000F901E452FD4F8591949188BBF901E0556F
:10086000FE4F8591949190936B0080936A00F901FB
:10087000EC57FF4F85919491609162019C01205249
:100880003109662339F040916E0050916F002417B2
:100890003507B8F3909369008093680080916201F6
:1008A000811162CF10926F0010926E005DCF9F3F5A
:1008B00059F490E06FEF70E00E94AA1566E970E0CD
:1008C0000E94E01560956ACF892F90E064E670E0A1
:1008D0000E94AA1563E670E00E94F41561505ECF95
:1008E000D801A21BB30B9D014D815E814A175B07A6
:1008F00008F07CCFC801841B950B9A0177CF8898AC
:1009000081CF899883CF8A3010F481E087CF80E04F
:1009100085CFCF93DF9300D000D000D0CDB7DEB726
:10092000209183014091C7015091C801495C594011
:1009300009F422E0843059F46093840126960FB6BE
:10094000F894DEBF0FBECDBFDF91CF91089566232F
:10095000A9F3823019F497E9961B692F96E0E6E235
:10096000F1E0DE01119601900D929A95E1F7815028
:10097000990B880F991FA1E0B0E0AC0FBD1F8A0F43
:100980009B1FDC01ED91FC91E20FF11D6083D6CF3E
:10099000CF92DF92EF92FF920F931F93CF93DF934B
:1009A0009C0150918301E0911F0182E0E11101C09F
:1009B000852F90E0DC01A75EBE4F4C9140931D0156
:1009C0008A5E9E4FDC018C9180931C01F0E0ED5E0D
:1009D000FE4FC181642F70E0552381F0C13071F466
:1009E000860F972F911D95958795DF91CF911F9138
:1009F0000F91FF90EF90DF90CF9008952617370763
:100A00009CF1821713068CF3511102C0822FEDCF97
:100A1000841B6C2F6150770B8B01E82EF12CC701E2
:100A20000E94F415609381016695E62FF0E0842F13
:100A3000D12CC12CD0E0DC17C1F2C601B8010E9454
:100A4000E015842F860FA82FB0E0B9016A1B7B0B3D
:100A500077FF03C0BD01621B730BCE0CDF1CE617D2
:100A6000F7071CF6DF5FE7CF842FBFCF0F931F93ED
:100A7000CF93DF93D82F862F9091CC012FEF290FA2
:100A80002C3140F480E0DEDD80E0DF91CF911F91DA
:100A90000F91CACDCD2FC295CF70DF702091AE01DE
:100AA000211103C0C33008F0C2E0D730B0F4009188
:100AB0005C0110E00F5F1F4FA2DD65E00E94D415BE
:100AC0009801290F311DC90166E070E00E94F415FC
:100AD00080935C01ED2FF0E016C0D73089F50091CE
:100AE0005C0110E00F5F1F4F8ADD65E00E94D415A6
:100AF000D801A90FB11DCD0166E070E00E94F41588
:100B000080935C01FC01E358FF4FE491C33071F422
:100B100080915B0190E0019663E170E00E94E01536
:100B200080935B01845D9E4FDC01CC91CC23E1F18D
:100B3000C13011F0EE0FC2E08E2F84DD8C2FA5CFD7
:100B4000D830A9F49091AE016FE0911101C063E03B
:100B5000862351F480915C0190E0019666E070E09C
:100B60000E94F41580935C01E0915C01B4CF209168
:100B7000AE01222381F080E09D3118F4E0E0C6CF81
:100B80008E5FE82FF0E0E15CFE4F20819217C0F706
:100B90003197E081A0CF869563E00E94D415E92FBC
:100BA000F0E0EE0FFF1FAFCFE0E0C6CFCF93C091D4
:100BB000AD0186E48C0F873908F080E090DD83E09A
:100BC00006DD8C2FCF918BCDCF93C091AD0180E00E
:100BD00086DD83E0FCDC8C2FCF9181CD81E0089510
:100BE0006111609324010895662369F0813099F4BE
:100BF0008091C9019091CA01891B680F6093C90156
:100C000082E08093250180912301873418F086E4E7
:100C1000809323010895635E60932301F4CF609372
:100C20007C010895E82FF0E0E45FFE4F60830895B3
:100C30000F931F93CF93DF9380918301809389015A
:100C40008091190180938A018091160180938B0114
:100C50008091130180938C0180911A0180938D0102
:100C60008091170180938E018091140180938F01F0
:100C700080911B01809390018091180180939101D4
:100C8000809115018093920180911F0180939301BF
:100C900080918401809394018091820180939501D9
:100CA00080911E0180939601809186018093970127
:100CB00080918501809398018091780180939901BA
:100CC0008091220180939A018091790180939B0108
:100CD0008091210180939C0180910C0180939D0162
:100CE00080910A0180939E0180910B0180939F0166
:100CF000809109018093A001809110018093A1014E
:100D0000809123018093A2018091C9018093A30166
:100D1000809124018093A401809112018093A50108
:100D2000809111018093A60180917C018093A7019D
:100D300080910D018093A80180910E018093A901FB
:100D400080910F018093AA0182E041DCF89409E8C8
:100D500011E0C1E8D0E0F80161918F01CE010E945D
:100D600031162196C33AD105B1F765EA80E890E0E3
:100D70000E9431167894DF91CF911F910F910895C1
:100D80001092D80130B181B12091AB0132953695E6
:100D90003695337090E0880F991F880F991F830F45
:100DA000911D820F8093AB018091CD01882309F4BE
:100DB00045C01092CD018091D6019091AE0199234A
:100DC00019F01F981092D601811146C0809125011B
:100DD0008823A9F18091D2019091D3019093CF0102
:100DE0008093CE014096807E61EC72E00E94E01517
:100DF000809124018750990B680F791F769567952C
:100E00006093CC01809176018823F1F0815080932A
:100E100076018091AE01811108C08EE884B981E02D
:100E20008093D6011092D701E6DB809125018823BB
:100E300029F08091250181508093250108958091AA
:100E4000CE019091CF01CECF6D3118F770E060E008
:100E500084E094DB85E0DBCF813039F78091250198
:100E600081115EC08091D0019091D1014096DC014A
:100E700045E0B695A7954A95E1F74091C90156E03E
:100E8000969587955A95E1F7042E000C550B9A011B
:100E90002E503140820F931F9093CB018093CA0153
:100EA00080916501E82FF0E0EE0FFF1FEA59FE4F39
:100EB00020813181BD01621B730B9B01B183A08333
:100EC0008F5F877080936501660F771F660F771FAE
:100ED0006A0F7B1F8091230190E0841B950B825F3A
:100EE0009E4F880F991F681B790B83E01616170613
:100EF0000CF045C0615071098150C1F716161706F4
:100F00000CF057C037FD74C0809164011816F4F5D9
:100F1000861B8093640186E884B91092D60182CF43
:100F20008091D4019091D5019093D1018093D0010B
:100F3000409635E0969587953A95E1F7909367014D
:100F400080936601909369018093680190936B018F
:100F500080936A0190936D0180936C0190936F016F
:100F600080936E019093710180937001909373014F
:100F700080937201909375018093740173CF611512
:100F8000710509F4B9CF6F5F7F4FB6CF660F771F3A
:100F9000653071055CF0635071097595679588E15E
:100FA000861B8093640185E0E9DAB5CF61E070E0EB
:100FB000F6CF6C3F8FEF7807DCF437FF19C08091D4
:100FC000640187FF02C08450A3CF84EE861B809308
:100FD00064018091CC018F3108F49DCF8CEF9FEF9D
:100FE0009C01261B370BB9017595679586E0DCCF10
:100FF0008091CC018E3108F48ECF70E060E087E004
:10100000D3CF813019F4109286010895823019F4FB
:10101000609385010895833019F4609382010895E7
:10102000843011F460931E010895813061F491E0E1
:10103000611101C090E090937901611101C08FE7C7
:10104000809322010895823011F460932101089564
:10105000CF93833B09F057C0809179018823A1F099
:10106000672B09F066C0809122018E3F19F081E064
:1010700080932201809122018095809322018091AA
:10108000AD012DDB80E029C0672B19F581E080934D
:101090005A0110925901909105018091220119166F
:1010A000F4F48E3F18F48F5F80932201C0915901B0
:1010B00080912201C034C9F491E49093590191E0E8
:1010C00089278093220180DD80912201809358013D
:1010D000D6CF80915A018111DECFCF910895992307
:1010E00029F3823018F38150DFCF90915801981383
:1010F000EBCFC11105C068DDCF5FC0935901E4CFCC
:10110000CF3F11F3F9CF833EA1F410925A018091A1
:10111000050181958093050180912201823028F498
:1011200081E08093050184DDAACF8E3FE0F38FEF4D
:10113000F8CF81E0D2CFFF920F931F93CF93DF932D
:101140008C01D62FC72FF42E8091C7019091C80132
:10115000892B31F0E091C701F091C80189E0099530
:101160001093C8010093C701012B41F0E091C70122
:10117000F091C8016D2F7C2F8F2D099581E0809310
:101180008801DF91CF911F910F91FF9008952091D9
:10119000B601283080F4E22FF0E0EE0FFF1FE95493
:1011A000FE4F808391832F5F2093B60148E0C3DF19
:1011B0008091B60108958FEF0895282FCB013091CB
:1011C0001F01311147C0283039F41092800110926C
:1011D0007E0110927D010895213B59F48091800198
:1011E00081508330B8F583E08093800180937F0144
:1011F0000895253BA1F46EE370E00E94E015892B71
:1012000049F5809180018A3F28F58B5F80938001AA
:1012100080937F0110927E0110927D01C7CC213016
:10122000C9F480917D0190917E01019688382EE06D
:10123000920728F490937E0180937D010895109287
:101240007E0110927D0180918001882319F08150E8
:10125000809380010895EF92FF921F93CF93DF93C5
:101260001091D901111106C0DF91CF911F91FF900C
:10127000EF900895E090DA01F090DB01C091B601A3
:10128000C1500C2E000CDD0BC7FD0EC0FE01EE0F91
:10129000FF1FE954FE4F0190F081E02DB701812F2F
:1012A000099521978111F0CFE9EDF1E083818083E9
:1012B0008481958192838183339682E0E630F807BA
:1012C000A9F7109206021092080210920702C8CFE6
:1012D0008091B601882319F081508093B601E09186
:1012E000B60190E080E0EE2341F0E150FF0BEE0FFD
:1012F000FF1FE954FE4F808191814AE070E060E079
:101300001ACF582FCB01F901583089F410925E01A1
:1013100080E0E5D98091AF0181111DC081E080930B
:101320005E0170E060E085EE99E031DF14C0252FAA
:10133000207F203BB9F420915E01421788F06DE5D3
:1013400070E00E94E015029741F42F5F20935E0148
:1013500088E3421718F480E0089582E1C0D9FBCFFA
:1013600080E0FCCF203E41F480915E01882311F0A3
:101370004817B8F6ADDFEFCF5A3069F760917701C3
:1013800080915E01099554DCF5CF29E834E043E013
:10139000B8CF29E834E044E0B4CF21E038E044E0BD
:1013A000B0CF25E138E042E0ACCF20EF35E041E0BE
:1013B000A8CF24EF35E042E0A4CF2FE036E041E0B3
:1013C000A0CF22E136E043E09CCF883039F4109280
:1013D000770110925D0180E082D90CC08130F9F470
:1013E00090915D01911108C06032710518F08093F1
:1013F0005D01E3D880E00895913079F46B3B71058D
:1014000020F082E080935D01E6CF6115710591F3D4
:10141000862F880F84708E5EDFCF5ADFEBCF813846
:1014200011F0813E39F791E090935D01813E41F4E6
:1014300080917701865F80937701BFD88BE4CCCF12
:10144000809177018F5FF7CF0F931F93CF93DF9337
:10145000D82FC92F8B013CDFB8018D2F9C2FDF9136
:10146000CF911F910F9193CECF93C0911F01C111C6
:1014700019C0813C41F470E060E088EA9AE0E4DF62
:101480008C2FCF910895823C29F470E060E084E5D0
:101490009AE0F5CF873B31F470E060E085ED99E0AC
:1014A00076DEEECFC1E0ECCF813C39F470E060E055
:1014B00088EA9AE0C9DF80E00895823C29F470E070
:1014C00060E085EC9BE0F6CF873B31F470E060E0B4
:1014D00089ED99E05CDEEFCF81E00895813C39F43D
:1014E00070E060E088EA9AE0AFDF80E00895823C37
:1014F00029F470E060E084E39AE0F6CF81E008959B
:10150000843021F58091C7019091C80120E1853494
:10151000920731F469E170E08EED9DE095DF0FC038
:101520008E5D9D4071F49091AD01923050F0892F05
:10153000869596959695890F80938701D0D880E0FF
:10154000089570E060E088EA9AE0E8CF81E00895CD
:101550000F931F93CF938B018830A1F480E0BFD805
:1015600060E08091120182DA10928001012B31F04B
:10157000C0E08C2FCF911F910F91089581E080934F
:10158000AE01F6CF813049F46931710588F380935B
:10159000AE01809112016ADAEBCF833049F52091D8
:1015A0008601222381F08091850190E062EC71E058
:1015B0000E94AA150817190730F020932001809186
:1015C000780180932201602F809112014FDA80917F
:1015D0007C01882369F290E062EC71E00E94AA1518
:1015E0008017910728F670E060E08EEE9BE016C051
:1015F000813BB1F481E090E0CBD971D88091820138
:101600008111B6CF80918301811104C00831110589
:1016100008F4AECF61E070E08EED9DE015DFA8CF5D
:10162000813EC1F3813831F48091200190E0B0D93E
:1016300056D89ECF6091AD0170E0813C69F3823B4A
:1016400071F480911E0190911F019111809184018C
:10165000811103C086E990E0EACF86E9E9CF823EB6
:1016600011F480E0E5CF66E970E0823CA9F28339AD
:10167000C1F3833C29F470E060E084E39AE0CECFCC
:10168000843C11F493DAAFCF8D3B41F4F89488EDAC
:101690008FBD88E880BF7894A895FFCF8F3C29F450
:1016A00070E060E08EEE95E0B9CFC0911F018A3BFB
:1016B00081F4012B09F067C0CC2329F077DA10926E
:1016C0001F01B6DA55CF70E060E089EC99E05FDD8C
:1016D00050CFC11158C08A3C31F468DA81E0809360
:1016E0001F01A6DA46CF833B31F470E060E085E469
:1016F00090E1AADE3ECF853C31F458DA70E060E03C
:101700008CEC91E1F6CF863C31F450DA70E060E089
:1017100085E192E1EECF873C91F490911201892FFF
:1017200082958F708F5F83708295807F9F70892BE9
:101730008093120160E09AD97BDA38DA1ACF873BBE
:10174000B1F4C8018F739927892B61F4209112019C
:10175000822F8F708F5F207F6BE00E94D415922BB9
:1017600090931201602F8091120180D902CF873EA1
:1017700009F4B7CF893B39F4012B29F470E060E01C
:1017800081ED99E0A4CFC1E0F4CE282FCB01213C1C
:1017900039F470E060E088EA9AE056DE80E008956F
:1017A000223C29F470E060E08EE69AE0F6CF213B1F
:1017B00041F46EE370E00E94E015892B79F7F6D9C9
:1017C000EDCF213E49F46EE370E00E94E0156F5FBB
:1017D000609310012DDAE2CF81E008950F931F93FB
:1017E000CF93DF93C82F8B01873B81F480E00E9469
:1017F0006F03D0911F01D11196C0CA3B09F063C09D
:1018000070E060E08DED99E0C2DC47C080798039FE
:10181000F9F42091190190911A018C2F8F70823068
:1018200049F480918601811108C0822F291728F47C
:10183000892F03C0822F9217D8F30E946F03C33CF5
:10184000F1F4B4D970E060E088EA9AE0FDDD15C0FB
:10185000803811F480E0F1CFC83009F066C060E054
:101860008091110103D9C5CF0931110530F0C09322
:10187000AE01602F80911101F9D8D0E00EC0C43CB8
:1018800091F4D09186016D2F70E0D11113C0609159
:10189000200170E08EED9DE0D7DD8D2FDF91CF919F
:1018A0001F910F910895C43B41F48ED910920B0201
:1018B00061E070E08EED9DE0C9CFC53C09F099CFA5
:1018C00066E970E0F7CFC73C91F490911101892F40
:1018D00082958F708F5F83708295807F9F70892B38
:1018E0008093110160E0C2D8A3D960D9D6CFC73B9D
:1018F000B1F4C8018F739927892B61F420911101EC
:10190000822F8F708F5F207F6BE00E94D415922B07
:1019100090931101602F80911101A8D8BECFC73ECE
:1019200011F486D9BACFD1E0B8CFC13009F49CCF39
:10193000C33009F49ECF83CF86E884B91092D601D4
:101940001092D7010E94FB02E1E6F0E08081826004
:101950008083139A87EE83B908950F931F93CF93D3
:101960001092B1018091090290910A029C012F5FAF
:101970003F4F88279078822B932B90930A02809375
:1019800009029091AF012FB1822F8095881F88277F
:10199000881F8093AF019817B9F01092AE01809321
:1019A000AF0190910B02892F27FD35C080699F7090
:1019B0009F3079F580930B0290E080E00E94D9027D
:1019C00010920A02109209020091090210910A0273
:1019D0008091AE01882361F1B80183E00E94BE02CC
:1019E0003ADC0F731127012B81F410926301A4DFFD
:1019F000C0916301C11105C00E94FB0281E0809388
:101A0000CD01CF5FCF71C0936301CF911F910F9133
:101A100008958F5FCFCF8F7E95FD08C0806880933B
:101A20000B028091090290910A02C8CF806CF7CF17
:101A3000C0910B028C2F807F803B49F470E060E006
:101A400081E00E94BE02C8010E94D902D1CFB80134
:101A500081E00E94BE02C4FF0FC0C5FDF4CF083173
:101A6000110530F210920A0210920902C062C0936E
:101A70000B0290E080E0E8CFCC2309F4B9CFC5FF9A
:101A800003C00E94DD02B4CF0231110508F4B0CFCB
:101A9000C064C0930B0290E080E00E94D902F1CFB5
:101AA0008091D80181116CD98091B101811155CFFC
:101AB0000895EF92FF920F931F93CF93DF93EC0162
:101AC00008E017E082ECE82EFF24F394209739F425
:101AD000DF91CF911F910F91FF90EF90089580912A
:101AE00088018111F5CF8091AD01823068F482E0E8
:101AF0000E94B802C7010197F1F780E00E94B80286
:101B0000CFDFA9DB2197E2CF80E00E94B802C801B5
:101B1000F2CF0F931F93CF93C82F06EA811102C013
:101B200008E0C1E010E086E40E946F03C801C1DF55
:101B300080E00E946F038AEF90E0BBDFC15099F70D
:101B40008AE992E0CF911F910F91B3CFCF93DF93AA
:101B5000282F64E60E94D415382FC92F892F6AE0F8
:101B60000E94D415D92F243658F0832FD2DF8C2F22
:101B70006AE00E94D415CDDF8D2FDF91CF91C9CFC0
:101B8000CA30A8F7F9CFCF93DF93D82FC3E0809165
:101B900020010E946F0388EC90E08BDFDD2319F0B9
:101BA00080E991E086DF80E00E946F0388EC90E09E
:101BB00080DFC15061F7DF91CF910895AF92BF925E
:101BC000CF92DF92EF92FF920F931F93CF93DF9309
:101BD000C82F8B01B0901D01F0901C01C0908301B3
:101BE000D0908101C11002C0DD24D39480911E01E8
:101BF000D0911F01D11180918401882309F443C041
:101C0000813021F0809120018F15E8F1A6E9EA2EBC
:101C1000A0908001B8018C2FD0DA609180016623FA
:101C200009F426C2A11004C08091AD018093610126
:101C30008C2F8D7F883049F510927B01CA3019F4C2
:101C40000091200110E0B016110630F4F0161106D4
:101C500019F010F000932001C8010E94C80480937D
:101C600087010E946F0381E080930601D0E08D2FF1
:101C7000DF91CF911F910F91FF90EF90DF90CF9068
:101C8000BF90AF900895EF2CC3CFC13C09F4F3C1CE
:101C9000C23C99F48091AD018E1550F4E092870119
:101CA0008E2D0E946F038091AD0180936101DECF84
:101CB0008091200180938701F4CFC43C41F480E0FF
:101CC0000E946F0370E060E08EEE9BE0D8C18FE46D
:101CD0008C0F823008F054C06091130170E0C8018D
:101CE000CC2011F068E170E06BD7892B09F0BECFF2
:101CF0002091AD010115110531F5C23BF1F48FEFD3
:101D000080930601D091AD01809106016D2D70E0A8
:101D1000082E000C990B1ED78D0F911D0E94C80430
:101D2000C82F80932001D81721F08F1102C00E9484
:101D3000E405C09387018C2FB4CF2F1500F7B2169E
:101D400008F381E0DDCFE0911301F0E0CF0166E31D
:101D500071E000D78017910710F42F1580F6CF019E
:101D60006CE672E0F7D68017910760F6B21650F273
:101D70000E94D60570E060E08EEE9BE065DBC2CF8E
:101D80008FE18C0F823020F48091060181956CCF19
:101D9000C13009F0E8C00932110511F4C093060101
:101DA000662389F0809161016150770B90E0D2D673
:101DB00060917F0170E018D7611101C061E060930C
:101DC000AC01609387014091AC015091AD01242F8B
:101DD000251B330BC90160915F01709160016F5F3A
:101DE0007F4F7093600160935F01009709F43ECFCD
:101DF00020E032E097FF06C020E430E0533810F4D2
:101E000020E031E03695279597FD019695958795C9
:101E10000097C1F72617370708F028CF451708F0B5
:101E200050C04FEF450FCFEFC40F8C2F90E0880FBD
:101E3000991F20912201211162C0BC01685F7B4F74
:101E4000FB01A591B49120910C0230910D02C517B0
:101E500008F03CC02115310509F038C0AF3F53E010
:101E6000B50709F00EC1B0930D02A0930C02845285
:101E70009D4FFC01259134913695279536952795F0
:101E800058B35217130698F528B32F5F28BBFB01F0
:101E90006591749120910C0230910D0262177307C5
:101EA00009F04EC028B3FC018591949196958795D1
:101EB000969587952817190609F042C04093AD0101
:101EC0003FC0541708F0AFCF41E0ACCF2A173B0713
:101ED00038F42F5F3F4F30930D0220930C02C7CF91
:101EE000A217B30708F0C3CF21503109F4CF58B37C
:101EF0005217130661F258F228B32150C7CF80550C
:101F00009E4FFC012591349160916A0070916B00A5
:101F100062177307D0F420916A0030916B002F5F35
:101F20003F4F30936B0020936A0020916A003091FC
:101F30006B00FC01859194912817390709F4BECFF5
:101F40001092600110925F0191CE60916A007091D1
:101F50006B002617370748F720916A0030916B0015
:101F600021503109DECFC530A9F48091AD01823412
:101F700008F47CCE90E0801B910B282F81349105D2
:101F80003CF08739910508F026E92093AC016ECE2C
:101F900021E4FBCFC630B1F49091AD01809187016F
:101FA000981708F063CE090F111D90E08017910774
:101FB00034F0C8010134110514F481E490E08093F9
:101FC000AC0154CEC73069F49091AC018091AD0161
:101FD000891710F48F5FF3CF981708F047CE815020
:101FE000EECFD11143C0C33CC9F481E0C11080E001
:101FF000809383010E9418060E94E4058091AD0140
:1020000090E00E94C80480932001809387010E9481
:102010006F038091AD018093610129CEC53C49F4E5
:1020200080E00E946F0370E060E08CEC91E10CDADC
:102030001ECE70E060E085EC99E0C73BA9F0CA3C99
:1020400069F48091AD018093860180912201809393
:1020500078010E9418060E94D60509CECA3B31F4C9
:1020600070E060E08DEC99E092D801CED1E0FFCD38
:10207000AA2009F4DDCD70E060E088EA9AE0E4D9B6
:10208000F5CDAB2B09F025CFF2CEDF92EF92FF9288
:102090000F931F93CF93DF93D82F8B01C0910C0127
:1020A00081E080937B01C33079F4F09080018D2F23
:1020B00084D8FF20A1F080918001811110C070E0D0
:1020C00060E088EA9AE0C0D9D83071F0D13C09F0DC
:1020D00001C170E060E088EA9AE0B6D908C0D83063
:1020E00041F481E08093030181E08093040180E06A
:1020F00045C1D23C69F4109280018C2F90E001968A
:1021000065E070E071D580930C010E941806EFCF56
:10211000D13BC1F480910201012B41F49FEF86363F
:1021200018F4823018F491E0909303019091030128
:10213000890F21F481E080930201D9CF8736D8F34B
:1021400086E6F9CFD13E59F48091030181958093C1
:10215000030180910401819580930401D6CFD23B85
:10216000E1F481E08093030180910201823018F054
:1021700081508093020181E080930401C23008F015
:10218000F0C000FDB4CFEC2FF0E0E65FFE4F8081A1
:102190008F3F09F4ACCF8F5FBAC0D13009F0F6C0E1
:1021A0000932110511F4D0930301D09057018D2D00
:1021B000880FD7FC809590E069E070E0CBD4292FA0
:1021C000E09056018E2D880FE7FC8095D09101019B
:1021D0006D2F70E090E0BED4290FF09055018F2D47
:1021E000880FF7FC8095C09100016C2F70E090E0A3
:1021F000B1D4622F690F80910201680F7727771F92
:1022000080918001813091F480917D0190917E01D7
:1022100025E0969587952A95E1F724E730E0A90116
:10222000481B590BCA0196D4B901CAD4862F0E9403
:102230006F0300FD06C00E94FF0281708D0D809328
:102240005701809154018E0D809356010E94FF0228
:1022500065E2AAD49F0D909355010E94FF028F73EF
:1022600031F40E94FF026DE09FD490935401DD236E
:1022700039F00E94FF028F7319F4D150D0930101FD
:102280000E94FF02811108C00E94FF026EE08CD400
:102290009093010110925601C33038F00E94FF0262
:1022A0008F7119F4C150C09300010E94FF028F7713
:1022B00029F40E94FF028770809300010932110502
:1022C00019F481E0809304018091AB01080F009321
:1022D000AB010DCFD23C09F410CFD43C21F48C2FAC
:1022E00090E004960DCFD13B51F5C23090F400FD43
:1022F000FECEEC2FF0E0E65FFE4F8081909104016E
:10230000891B8F3F08F08EEF883008F488E08083C7
:10231000EECEC43009F0EBCE80910901909104011A
:10232000890F823040F482E0809309018091090195
:102330000E946F03DCCE8937B8F388E7F5CFD13E32
:1023400009F407CFD23B09F416CFD23E09F4DDCE13
:10235000D53C81F470E060E08CEC91E175D880E0D0
:10236000E7CFC43009F0C3CE809109018330F0F289
:102370008150DACF81E0D13009F4A0CFDF91CF9145
:102380001F910F91FF90EF90DF900895D13C09F4D9
:10239000A0CED43CD1F6A3CF0F931F93CF93DF935E
:1023A000D82F8B01883031F480917B01882311F084
:1023B00088E06BDE8D2F8079803999F481E08093FD
:1023C0007A01C0917B01CC2311F0C0E004C0809160
:1023D00020010E946F038C2FDF91CF911F910F91ED
:1023E0000895803831F410927A0180E00E946F03E2
:1023F000ECCFC1E0D13079F7C0917A01CC2359F00C
:1024000080917B01882309F3B80181E0DF91CF91AE
:102410001F910F913ACE07331140B8F2D093AE011D
:1024200060E080E00E943605D6CFFF920F931F93A5
:10243000CF93DF93C82F162F072FF09020018079BC
:10244000803909F03BC0DC2FDC70D1F010927A01AA
:10245000D0E080917A01882321F0612F702F8C2F9A
:102460009BDFF0922001C83091F5612F702F88E03A
:10247000B5D98D2FDF91CF911F910F91FF900895C6
:1024800091E090937A01EC2FEF70F0E0E45FFE4F63
:1024900080812FEF280F263928F480932001109295
:1024A0007B01D7CF90937B01873990F28759990BA5
:1024B00065E070E085D380930C01CBCF803829F4A0
:1024C00010927A0180E00E946F03D1E0C2CFC13048
:1024D00069F480917A01811110C0612F702F81E021
:1024E000DF91CF911F910F91FF9078C9C33039F4DC
:1024F000612F809111010E943605D0E0BACFC63C11
:1025000049F40E94D60570E060E088EA9AE00E94F3
:10251000240AF3CFC73B09F0ACCF70E060E081EE56
:1025200099E00E94C708E9CF2F932FB72F933F93CD
:102530008F939F93AF93BF93EF93FF938091D701B6
:102540008823E9F0E091D60120B131B1F0E0EE0F3F
:10255000FF1FDF01AE52BE4F2D933C93E253FE4F5F
:10256000808191818217930708F401962817390713
:1025700008F401979183808381E08093D80181E002
:102580008093D701FF91EF91BF91AF919F918F9170
:102590003F912F912FBF2F9118958F9381E08093BA
:1025A000B1018F9118958F9381E08093B0018F9145
:1025B0001895F89485B7877F85BF90E088ED0FB6B2
:1025C000F894A8958FBD90B7977F90BF0FBE81E01C
:1025D00088B998E09CB99FE790BB92EA909372000B
:1025E00091E19093710091E89BBB8ABB8FEF91E0E2
:1025F000909369008093680080E882BB87BD8CB7A8
:1026000088608CBFA89580E480BF96D9789481E0DB
:102610000E94E70270E060E080E89AE00E94C7084C
:10262000109288010E94D6059FB1892F8095881F3E
:102630008827881F8093AF0197FFA1C082E00E9486
:10264000E702F89480E890E004D3853A09F0CCC022
:1026500009E811E0C1E8D0E0CE01FBD2F801819396
:102660008F012196C33AD105B9F7789480918901F9
:102670008093830180918A018093190180918B015D
:102680008093160180918C018093130180918D01BC
:1026900080931A0180918E018093170180918F01A0
:1026A000809314018091900180931B01809191018E
:1026B000809318018091920180931501809193017C
:1026C00080931F01809194018093840180919501F2
:1026D000809382018091960180931E0180919701E1
:1026E0008093860180919801809385018091990162
:1026F0008093780180919A018093220180919B01BF
:102700008093790180919C018093210180919D01AA
:1027100080930C0180919E0180930A0180919F011A
:1027200080930B018091A001809309018091A10108
:10273000809310018091A201809323018091A301D5
:102740008093C9018091A401809324018091A50107
:10275000809312018091A601809311018091A701BD
:1027600080937C018091A80180930D018091A90143
:1027700080930E018091AA0180930F0136C0C0E0C2
:102780008C2F0E946F0383E190E093D98C2F869564
:102790000E946F0383E190E08CD99FB1892F8095CF
:1027A000881F8827881F8093AF0197FD1AC0CF5FCD
:1027B000C03431F765E181E00E94F4050E941806FB
:1027C000C6E98C2F0E946F0384E090E072D9C1505B
:1027D000C1F734CF8C2F0E946F038DE090E069D950
:1027E000C150C111F7CF2ACF789480918601811111
:1027F0008093200170E060E088E298E00E94C708C2
:1028000061E070E088EA9AE00E94C70840E4242E64
:1028100055245394CC24C394D12C312C412C6CEFEF
:10282000662E63E0762E78EA872E7AE0972E0E9455
:102830002B098091B4019091B501009751F06091FE
:10284000B2017091B3010E94240A1092B501109256
:10285000B4018091AE01882349F180E00E946F03AA
:10286000A895F3E4F0BF1F989FB1892F8095881F2A
:102870008827881F8093AF0197FFF6CF0E94DD0263
:102880008CB788608CBF1092D8011092B101109261
:10289000B0018091AE0181112CC022E0209325016E
:1028A0008CB7877F8CBF48D8A89520BEF9D81092E6
:1028B00088018091C7019091C801E5E08E3E9E0796
:1028C00009F038C0C0E7D0E0FE018491805321D9DF
:1028D0008CE291E0EED82196F0E0CC37DF07A1F74B
:1028E0009092B5018092B4011092B3011092B2019E
:1028F0009ECF86B78F79806486BF86B7806186BF9A
:10290000889586B78F7E86BF8091B0018111109225
:10291000AE018091D801882331F050922501509268
:10292000CD010E94C0068091B101882309F4B1CF86
:1029300014D8AFCF20E18534920799F0E1E18C3CC7
:102940009E0729F0F2E185319F0709F0BAC0209176
:102950007B01213009F0B5C020917A01222309F4CE
:10296000B0C0C0910C01C23009F43EC0F8F0C430D0
:1029700009F05DCFD0910901DD0FD73908F0D6E914
:102980008D2F0E946F0385E090E093D8809109011C
:102990000E946F0381E490E08CD8C15089F780EDEC
:1029A00092E087D880E00E946F0341CFEC2FF0E0E7
:1029B000E65FFE4FD08186E90E946F03C11110C00F
:1029C000DA3250F4C3010197F1F780E00E946F03FF
:1029D0008D2F90E06ED82BCF81E090E06AD8F5CFB4
:1029E0008D2F869590E0FACF0E94FF028F73082FFB
:1029F00010E00E94FF0267E0D7D0760102C0EE0C23
:102A0000FF1C9A95E2F70E94FF0265E0CDD0E60137
:102A100002C0CC0FDD1F9A95E2F7CE0DDF1D0E949C
:102A2000FF0290E0BE01E0D0C80FD91FC739D10521
:102A300024F026E9C22F80E0D82F8C2F0E946F034C
:102A4000C80137D87E0133E0F594E7943A95E1F771
:102A5000E11002C0EE24E394F12CC8012AD85E01F3
:102A6000AE18BF08E501B7FE02C0C32DD42D8C2FD0
:102A70000E946F030E94FF02837039F4C80119D8C5
:102A8000CE01959587950E946F0322E0A216B104AE
:102A900024F70E94FF026DE087D0860102C0000F7C
:102AA000111F9A95E2F70E94FF02E801219790E03A
:102AB000C823D923C00FD11F80E00E946F03CE012D
:102AC00089CFEAE084339E0751F48091CC013ED84F
:102AD00080911F01811104CF88EE93E07BCFFAE053
:102AE00084359F0721F48091CA0130D8F5CF2BE0BF
:102AF000853C9207C1F48091AF01811198CE8091FD
:102B000020010E946F0384E690E00E94590D80E04E
:102B10000E946F038091100190E068EE73E01AD07C
:102B20008456910957CF8E569A4049F480E02BD8AD
:102B300081E029D880E027D880ED97E04BCF86B799
:102B40008F7986BF86B7806186BF889586B78F7E6E
:102B500086BF6DCE0024552704C0080E591F880F6C
:102B6000991F009729F076956795B8F37105B9F725
:102B7000802D952F0895EE27FF27AA27BB2708C091
:102B8000A20FB31FE41FF51F220F331F441F551F51
:102B9000969587957795679598F37040A9F7009774
:102BA00099F7BD01CF010895991B79E004C0991FE1
:102BB000961708F0961B881F7A95C9F78095089597
:102BC000AA1BBB1B51E107C0AA1FBB1FA617B70753
:102BD00010F0A61BB70B881F991F5A95A9F780956F
:102BE0009095BC01CD01089597FB072E16F4009433
:102BF00006D077FD08D0E4DF07FC05D03EF49095C1
:102C000081959F4F0895709561957F4F0895A1E23A
:102C10001A2EAA1BBB1BFD010DC0AA1FBB1FEE1F56
:102C2000FF1FA217B307E407F50720F0A21BB30BA1
:102C3000E40BF50B661F771F881F991F1A9469F71D
:102C400060957095809590959B01AC01BD01CF0179
:102C50000895E199FECF1FBA8EBBE09A99278DB3F4
:102C60000895262FE199FECF1FBA8EBBE09A8150BE
:102C70000DB2021639F01CBA2DBB0FB6F894E29AC9
:0A2C8000E19A0FBE0895F894FFCF0B
:102C8A00080E1801010101000482294303781E98E5
:102C9A000237180107058282820A0A0A820A01019A
:102CAA004615802D070219011601130102010000C1
:102CBA000000000000010000000000000000010008
:102CCA0000210123022503270429052C06FF0605F6
:042CDA0004030000EF
:00000001FF
