:10000000ACC0C6C015CDC4C0C3C0C2C0C1C0C0C092
:10001000D0CCBEC0BDC0BCC005CDBAC0B9C03035A3
:1000200033312E323032332D30392D333000000051
:1000300000000000000000000000000000000000C0
:1000400000000000000000000000000000000000B0
:1000500000000000000000000000000000000000A0
:100060000000010202030405060708090A0B0C0E32
:100070000F10111214151618191B1C1E1F212324F2
:1000800026282A2B2D2F31333537393B3E40424429
:1000900047494B4E505356585B5E606366696C6FC0
:1000A0007275787C7F8286898C9094979B9FA2A69C
:1000B000AAAEB2B6BABEC3C7CBD0D4D9DDE2E7EBA5
:1000C000F0F5FAFF010202030405060708090B0D0B
:1000D0000E101215171A1C1F2326292D31353A3FF1
:1000E00043494E545A60666D747C838B939CA5AED5
:1000F000B8C2CCD7E2EDF9FFFFFFFFFFFFFFFFFF24
:10010000FFFFFFFFFFFFFFFFFFFFFFFFFFFFFFFFFF
:10011000FFFFFFFFFFFFFFFFFFFFFFFFFFFFFFFFEF
:10012000FFFFFFFFFFFFFFFFFFFFFFFFFFFFFFFFDF
:10013000FFFFFFFFFFFFFFFFFFFFFFFFFFFFFFFFCF
:10014000FFFFFFFFFFFFFFFFFFFFFFFFFFFFFFFFBF
:10015000FFFFFFFFFFFFFFFFFF0011241FBECFE5E2
:10016000D2E0DEBFCDBF10E0A0E6B0E0E6E2FFE106
:1001700002C005900D92A63AB107D9F721E0A6EA90
:10018000B0E001C01D92A333B207E1F757DCC9CE3E
:1001900037CF482F362F272FE0E0F1E090E080E0C6
:1001A000508151110AC063E070E05DDEFC01E05057
:1001B000FF4F40833183228305C0019633968031FF
:1001C000910571F70895BC0180913201E2CF109240
:1001D0003201109231011092300181E08093CE0003
:1001E000089590E822E048EA57E030E0815008F4B2
:1001F00008950FB6F89496BD26BD0FBEFA0131974B
:10020000F1F70FB6F89496BD36BD0FBEEFCF86B1AD
:10021000886486B9089586B383FB882780F991E0C6
:1002200089278093D6000895E0916600F0916700D9
:100230003196FB70F460F0936700E0936600809164
:10024000D1008B5A8093D100E4918091D1008E0F20
:10025000089590E0FC01EC53FF4F2491825D9F4F85
:10026000FC0184912BBD89BD089590E0FC01EC5305
:10027000FF4F2491825D9F4FFC0194918BB58111BA
:1002800002C02F3F29F08BB58F3F89F421110FC099
:100290002BBD89B58917C0F489B58F5F89BD8BB532
:1002A000821303C029B581E0291380E008958BB53E
:1002B000821720F48BB58F5F8BBDEBCF8BB52817E2
:1002C00040F78BB58150F8CF89B5981740F789B5BD
:1002D0008150E4CFCF93DF9300D000D000D0CDB7D2
:1002E000DEB7662301F1823019F497E9961B692F76
:1002F00020916C0096E0EBE8F0E0DE0111960190B1
:100300000D929A95E1F78150990B880F991F41E062
:1003100050E04C0F5D1F840F951FDC01ED91FC91A7
:10032000E20FF11D608326960FB6F894DEBF0FBE74
:10033000CDBFDF91CF910895CF92DF92EF92FF92E0
:100340000F931F93CF93DF939C0190916C00E92F43
:10035000F0E0E459FF4F428140936900848180932B
:100360006800C0917300642F70E0992381F0C13060
:1003700071F4860F972F911D95958795DF91CF91F9
:100380001F910F91FF90EF90DF90CF900895261767
:1003900037078CF1821713068CF3911102C0822F5C
:1003A000EDCF841B6C2F6150770B8B01E82EF12C65
:1003B000C7018ADD6093CB006695E62FF0E0842FBD
:1003C000D12CC12CD0E0DC17C9F2C601B80168DD20
:1003D000842F860FA82FB0E0B9016A1B7B0B77FF33
:1003E00003C0BD01621B730BCE0CDF1CE617F707C1
:1003F0002CF6DF5FE8CF842FC1CFECE6F0E08185FB
:1004000080936A00868583878093D40008958091C5
:10041000C900882351F09091D3009093CA00809333
:10042000C8001092C7001092C600089581E0089598
:100430006111609386000895662369F0813099F414
:10044000809188009091F000891B680F609388006C
:1004500082E080936B0080918700873418F086E4F7
:10046000809387000895635E60938700F4CF609364
:100470008A00089540917800509179002FEF280F5D
:1004800081E090E002C0880F991F2A95E2F7662369
:1004900039F0842B952B9093790080937800089500
:1004A000809584239523F7CFCF93DF938CE690E05C
:1004B0009093D0008093CF00F894D0E0C0E0E0911A
:1004C000CF00F091D000EC0FFD1F6081CE018F5F57
:1004D0009E4F15DD2196CF31D10589F765EA80E081
:1004E00091E00DDD7894DF91CF9108951092FE0098
:1004F00034B185B12091D10032953695369533705F
:1005000090E0880F991F880F991F830F911D820F0C
:100510008093D1008091F300882309F44DC010929C
:10052000F3008091FC009091D500992329F0379831
:100530001092FF001092FC00811147C080916B0067
:100540006091F4007091F500882341F06091F8000B
:100550007091F9007093F5006093F400605F7F4F35
:1005600086E0769567958A95E1F780E098E598DCD6
:1005700080918600680F711D769567956093F200F3
:100580008091C1008823C9F081508093C10080917F
:10059000D500811108C08FEA87B981E08093FC0003
:1005A0001092FD0034DE80916B00882329F0809149
:1005B0006B00815080936B0008956D3140F770E0BF
:1005C00060E084E0E6DD85E0E0CF813061F7809196
:1005D0006B0081115FC08091F6009091F70040960A
:1005E0009C0145E0369527954A95E1F7E091880012
:1005F00056E0969587955A95E1F70E2E000CFF0B65
:10060000AF0143515140840F951F9093F1008093A7
:10061000F0008091B000A82FB0E0AA0FBB1FAF542C
:10062000BF4F4D915C911197B901641B750BAB01E4
:100630002D933C938F5F87708093B000660F771F78
:10064000660F771F8091870090E08D5E9E4F8E1B16
:100650009F0B880F991F681B790B620F731F83E034
:10066000161617060CF045C0615071098150C1F78C
:10067000161617060CF05AC057FD77C08091AF00D0
:100680001816F4F5861B8093AF008CE287B91092A0
:10069000FC0086CF8091FA009091FB009093F700C8
:1006A0008093F600409635E0969587953A95E1F768
:1006B0009093B2008093B1009093B4008093B30004
:1006C0009093B6008093B5009093B8008093B700E4
:1006D0009093BA008093B9009093BC008093BB00C4
:1006E0009093BE008093BD009093C0008093BF00A4
:1006F00072CF6115710509F4B9CF6F5F7F4FB6CF27
:10070000660F771F6B30710574F06350710993E0C9
:10071000759567959A95E1F788E1861B8093AF0000
:1007200085E037DDB2CF61E070E0F6CF6C3F8FEF50
:100730007807DCF457FF19C08091AF0087FF02C033
:100740008450A0CF84EE861B8093AF008091F2008E
:100750008F3108F49ACF8CEF9FEF9C01261B370B4B
:10076000B9017595679586E0DCCF8091F2008E31F6
:1007700008F48BCF70E060E087E0D3CF882321F0CE
:10078000813029F0BA9A04C0BA98C2980895BA98EC
:10079000C29A0895CF93C82F8091D50081110AC0C5
:1007A00091E0C11101C090E081E0CF3208F480E017
:1007B000890FE4DFC11115C01BBC19BCC093D30065
:1007C000C093D20080E892E0CA3020F091E0C431BA
:1007D00008F090E00FB6F89486BD96BD0FBECF919D
:1007E0000895E091D400F0E0EE0FFF1FEE0FFF1F21
:1007F000EF55FF4F0190F081E02D8FEF8C0F0995A1
:10080000DDCFCF93DF93C82FD091D30080E0C2DF3C
:10081000C093D4008D2FDF91CF91BCCF8093CC00BB
:10082000B9CFCF93C091D30089E18C0F873908F0FD
:1008300080E0B0DF82E0D5DC8C2FCF91ABCFCF93BF
:10084000C091D30080E0A6DF83E0CBDC8C2FCF917A
:10085000A1CF813019F4109275000895823019F4F7
:10086000609376000895833019F4609374000895BE
:10087000843011F460936D000895E62F9091F2009A
:100880009D3110F480E07ACF913228F4E695E17042
:10089000E3508E23F8CF982F9F709330A0F3EF7022
:1008A000F0E0EF56FF4F8081EECF9091D400409161
:1008B000780050917900292F30E02F5F3F4F217051
:1008C0003327822F022E02C0569547950A94E2F7ED
:1008D00040FD04C02F5F3F4F822F8170981741F079
:1008E00090DF8091D40080937700DEDD80E0089572
:1008F00081E00895FF920F931F93CF93DF938C01B4
:10090000D62FC72FF42E8091EE009091EF00892B07
:1009100031F0E091EE00F091EF0089E0099510933D
:10092000EF000093EE00012B41F0E091EE00F0911A
:10093000EF006D2F7C2F8F2D099581E08093CE00E5
:10094000DF91CF911F910F91FF9008952091DD00CD
:10095000283080F4E22FF0E0EE0FFF1FE252FF4F4D
:10096000808391832F5F2093DD0048E0C3DF809177
:10097000DD0008958FEF0895833C09F496CF893BFD
:1009800039F470E060E082EC95E0E0DF80E008950B
:1009900081E00895282FCB01283039F41092C90046
:1009A0001092C7001092C6000895213B59F480911F
:1009B000C90081508330B0F583E08093C9008093F3
:1009C000C800EECF253B99F46EE370E069DA892B1D
:1009D00049F58091C9008A3F28F58B5F8093C90053
:1009E0008093C8001092C7001092C6001ACF213021
:1009F000C9F48091C6009091C700019688382EE016
:100A0000920728F49093C7008093C600089510922F
:100A1000C7001092C6008091C900882319F0815048
:100A20008093C9000895EF92FF921F93CF93DF93B5
:100A300010910001111106C0DF91CF911F91FF901D
:100A4000EF900895E0900101F0900201C091DD0067
:100A5000C1500C2E000CDD0BC7FD0EC0FE01EE0FC9
:100A6000FF1FE252FF4F0190F081E02DB701812F6F
:100A7000099521978111F0CFE0E0F1E08381808337
:100A80008481958192838183339681E0ED32F807EA
:100A9000A9F710922D0110922F0110922E01C8CFAC
:100AA0008091DD00882319F081508093DD00E09172
:100AB000DD0090E080E0EE2341F0E150FF0BEE0F0F
:100AC000FF1FE252FF4F808191814AE070E060E0B9
:100AD00011CF582FCB01F901583099F41092AB0087
:100AE00080E058DE8091D60081111EC08091AB005D
:100AF0008F5F8093AB0070E060E086EC95E026DFCE
:100B000013C0252F207F203BB1F42091AB0042176A
:100B100080F06DE570E0C4D9069741F42F5F209313
:100B2000AB0088E3421718F480E0089582E132DEDA
:100B3000FBCF80E0FCCF203E41F48091AB008823C6
:100B400011F04817C0F6ACDFEFCF5A3069F760916B
:100B5000C2008091AB000995A7DCF5CF2AE631E011
:100B600043E0B7CF29E234E044E0B3CF28E132E0FC
:100B700041E0AFCF2CE132E042E0ABCF27E332E0FF
:100B800041E0A7CF2AE332E042E0A3CF883039F436
:100B90001092C2001092AA0080E0FCDD0CC08130EF
:100BA00001F59091AA00911108C06032710518F00A
:100BB0008093AA000CDB80E00895913081F46B3BB8
:100BC000710520F082E08093AA00E6CF61157105DF
:100BD00091F3862F880F880F88708E5EDECF60DFDE
:100BE000EACF813811F0813E31F791E09093AA006D
:100BF000813E41F48091C200865F8093C200E7DAB3
:100C00008BE4CBCF8091C2008F5FF7CF0F931F9300
:100C1000CF93DF93D82FC92F8B0142DFB8018D2FDF
:100C20009C2FDF91CF911F910F9190CE813C39F491
:100C300070E060E086E596E0E9DF80E00895823CC0
:100C400029F470E060E084E199E0F6CF873B31F46D
:100C500070E060E08AEB95E079DEEFCF81E0089507
:100C6000843011F58091EE009091EF002BE08230FE
:100C7000920731F469E170E08FE097E0C7DF0DC0C3
:100C80008F50974061F49091D300923040F0892FBB
:100C9000869596959695890FC1DD80E0089570E060
:100CA00060E086E596E0EACF81E00895CF93DF9398
:100CB000EB018830A1F480E06DDD1092CD008091D1
:100CC00077008093D4001092C900CD2B21F080E0F2
:100CD000DF91CF91089581E08093D500F8CF8130E6
:100CE00021F46931710598F3F7CF833051F5809184
:100CF000CD008F3F19F08F5F8093CD0080917500FC
:100D0000882351F08091760090E062EC71E0ABD8DE
:100D1000C817D90708F071DB809189006C2F8370A8
:100D2000ACDD80918A00882391F290E062EC71E062
:100D30009AD88C179D0758F670E060E08BE399E035
:100D400015C0813BA9F481E090E0F6DA23DD8091C3
:100D500074008111BCCF80916C00811103C0689731
:100D600008F4B5CF61E070E08FE097E04FDFAFCFE0
:100D7000813EC1F3813831F480916A0090E0DCDA81
:100D800009DDA5CF60916A0070E0813C69F3823B88
:100D900059F41092CD0080916D00811103C086E955
:100DA00090E0EDCF86E9ECCF823E11F480E0E8CF11
:100DB000823C19F466E970E0D7CF8339B9F3833CFC
:100DC00029F470E060E08EEE98E0D0CF843C11F41E
:100DD00028DDB2CF8F3C29F470E060E086E192E03C
:100DE000C5CF833B29F470E060E082E09BE0BECF9A
:100DF000873C59F49091890081E0890F83709C7F32
:100E0000892B8093890050DB62CF853C31F409DD6A
:100E100070E060E084E99CE0A9CF81E059CFBF9207
:100E2000CF92DF92EF92FF920F931F93CF93DF93B6
:100E3000C82F8B01809177008093D400E0906900E7
:100E4000F090680080916C00B090CB00811102C0DE
:100E5000BB24B394D0906D00DD2099F181E0D816C9
:100E600021F080916A008F1560F1D6E9C090C90029
:100E7000B8018C2F8FDD8091C900882309F4A5C1AA
:100E8000C11004C09091D3009093CA009C2F9D7F05
:100E90009830C9F41092C500CA3019F400916A0064
:100EA00010E0E016110630F4F016110619F010F0FB
:100EB00000936A00C80140DAB1DC81E080936500EC
:100EC0000FC0DF2DD3CFC13C09F482C1C23C99F4DD
:100ED0008091D3008D1708F044C08D2F9FDC97DAE6
:100EE00080E0DF91CF911F910F91FF90EF90DF9005
:100EF000CF90BF900895C43C39F480E04BDC70E0A3
:100F000060E08BE399E068C19FE49C0F923008F0A9
:100F100052C080916C00882339F1C80168E170E00B
:100F2000BFD7892BE9F62091D3000115110539F5BA
:100F3000C23BF9F48FEF80936500C091D30080919C
:100F400065006B2D70E0082E000C990B8CD78C0F70
:100F5000911DF2D980936A00C81719F08F1101C052
:100F60006EDC80916A00BACF6091720070E0C801B7
:100F7000D7CF2F15F8F6E21600F381E0DCCFE09131
:100F80007200F0E0CF0166E371E06DD78017910742
:100F900010F42F1578F6CF016CE672E064D7801755
:100FA000910758F6E21648F23CDC70E060E08BE313
:100FB00099E02CDEC2CF9FE19C0F923020F480910B
:100FC000650081957BCFC13009F076C009321105EB
:100FD00011F4C0936500882351F1C091CA00D0E09C
:100FE00090E0BE0140D79C01E091C800F0E0BF0155
:100FF0006BD7462FC9018C1B9D0BBF0165D7242FD2
:10100000261B8091C6009091C7006EE370E048D720
:10101000822F90E028D76CE370E042D7842F861BA4
:10102000461301C081E08093D2008093CC00D09120
:10103000D200C091D3008D2F8C1B990B9C01609125
:10104000AC007091AD006F5F7F4F7093AD00609307
:10105000AC00009709F444CF40E052E097FF06C08F
:1010600040E450E0C93710F440E051E05695479510
:1010700037FF02C02F5F3F4F35952795211531056A
:10108000A9F74617570708F02BCFDC1778F4C150A3
:101090008FEF8C0FEAD8882321F08C2F7BDBD09345
:1010A000D2001092AD001092AC001ACFCD1710F400
:1010B000CF5FEECFCD2FECCFC530A9F48091D30018
:1010C000803608F40DCF90E0801B910B8739910595
:1010D00014F086E990E08F35910514F48FE590E0E7
:1010E0008093D200FDCEC63079F49091D3008091E8
:1010F000CC00981708F0F4CE090F111D90E080176E
:10110000910774F3C801E7CFC73069F49091D2001A
:101110008091D300891710F48F5FE2CF981708F001
:10112000DFCE8150DDCFC33C91F0C63CD9F481E0E5
:1011300090916C00911180E080936C00B5D97FDBB9
:101140008091D30090E0F8D880936A00C7CE809158
:10115000780081FB992790F98170890F823039F7E7
:1011600081E0BFCEC33B41F4012B09F0B9CED110D1
:10117000D6E98D2F53DBB4CEC33E19F480916A00BB
:10118000F9CFC53C39F480E005DB70E060E084E92C
:101190009CE022C070E060E08EEA95E0C73B99F0E9
:1011A000CA3C59F48091D300809375008091D4009B
:1011B00080937A0079D935DB93CECA3B89F670E00B
:1011C00060E082EB95E0C2DB8BCECC2009F45ECEF2
:1011D00070E060E086E596E019DD82CE813C39F46E
:1011E00070E060E086E596E011DD80E00895823CE5
:1011F00029F470E060E086E196E0F6CF833C51F49C
:1012000080917B0090E001968170992780937B000C
:101210004BD9EBCF873B31F470E060E086EB95E093
:1012200095DBE3CF81E00895282FCB01213C39F4F1
:1012300070E060E086E596E0E9DC80E00895223C1D
:1012400029F470E060E08EEE98E0F6CF213B39F4AF
:101250006EE370E025D6892B81F7E3DAEECF213EED
:1012600041F46EE370E01CD66F5F609385001CD97B
:10127000E4CF81E008950F931F93CF93C82F8B0184
:1012800080798039F1F420916E0090916F008C2F5D
:101290008F70813029F4822F921748F4892F07C06C
:1012A00080917500811103C0822F2917B8F372DA7B
:1012B000C33CD9F5B6DA70E060E086E596E0A6DCDE
:1012C00011C0803811F480E0F2CFC83021F41092C0
:1012D000CD0081E008C0C13051F46931710510F0D2
:1012E000C093D50080E0CF911F910F910895C33036
:1012F000F9F68091CD008F3F19F08F5F8093CD007C
:1013000080917500882351F08091760090E062EC26
:1013100071E0A9D50817190708F06FD880918900E6
:10132000602F86958695A9DADDCF60916A0070E01E
:10133000C43C39F0C43B41F482DA1092320161E0DE
:1013400070E08FE097E0BBCFC53C19F466E970E030
:10135000F8CFC33B59F4C8016EE370E0A1D5892BE7
:1013600009F0B7CFCF911F910F919FCAC73C61F48D
:1013700090918900892F8C7F8C5F8C709370892B62
:101380008093890091D8AECFCA3B09F0A2CF70E01C
:1013900060E08EEB95E0DADAA5CF8CE287B91092A7
:1013A000FC001092FD0033D787EE86B908950F93A5
:1013B0001F93CF931092D80080913001909131010A
:1013C0009C012F5F3F4F88279078822B932B90931F
:1013D000310180933001C091D6001DD7C817B1F0FC
:1013E0001092D5008093D600909132018823C9F1E4
:1013F000892F80699F709F3091F58093320190E032
:1014000080E0E1D61092310110923001009130015C
:10141000109131018091D500882389F1B80183E0D2
:10142000B8D601DB0134110520F00F701127012B14
:1014300091F41092AE0081E08093FF00AEDFC09186
:10144000AE00C11104C0E3D681E08093F300CF5F0A
:10145000CF71C093AE00CF911F910F9108958F5F10
:10146000CCCF892F8F7E95FD08C080688093320194
:101470008091300190913101C4CF806CF7CFC09141
:1014800032018C2F807F803B39F470E060E081E096
:1014900080D6C80198D6D3CFB80181E07AD6C4FFF0
:1014A0000FC0C5FDF6CF0831110548F21092310189
:1014B00010923001C062C093320190E080E0EACF28
:1014C000CC2309F4BCCFC5FF02C081D6B8CF02310E
:1014D000110508F4B4CFC064C093320190E080E0FD
:1014E00072D6F3CF8091FE00811100D88091D80090
:1014F00081115DCF0895BF92CF92DF92EF92FF925C
:101500000F931F93CF93DF93EC0110E888E0E82E50
:1015100087E0F82E02E092ECC92EDD24D394B12CA2
:10152000209751F4DF91CF911F910F91FF90EF9091
:10153000DF90CF90BF9008958091CE008111F2CFBF
:101540009091D3009A3090F40FB6F89416BD06BD72
:101550000FBEC6010197F1F78B2D0FB6F89416BD9B
:1015600086BD0FBEBFDF5FDA2197DACF0FB6F894E2
:1015700016BD86BD0FBEC701EDCF0F931F93CF934E
:10158000DF93C82F06EA811102C00AE0C1E0D091C2
:10159000D40010E080917B0034D989E1FBD8D0934E
:1015A000D400C801A8DF80917B002BD980E0F2D85D
:1015B000D093D4008AEF90E09EDFC15059F78D2F71
:1015C00020D98AE992E0DF91CF911F910F9193CFBB
:1015D000CF93DF93282F64E657D4382FC92F892F54
:1015E0006AE052D4D92F243650F0832FC6DF8C2FD7
:1015F0006AE04AD4C2DF8D2FDF91CF91BECFCA30CF
:10160000B0F7F9CFFF920F931F93CF93DF93D82FAB
:101610008B01C091C30081E08093C500C33079F491
:10162000F090C9008D2FB6D9FF20A1F08091C9009C
:10163000811110C070E060E086E596E0E7DAD8300E
:1016400071F0D13C09F004C170E060E086E596E0FD
:10165000DDDA0CC0D83061F481E0809363008091C2
:101660007C008093C30081E08093640080E052C1DD
:10167000D23C69F41092C9008C2F90E0019665E08D
:1016800070E022D480937C008093C300F2C0D13BF1
:10169000C1F480916200012B41F49FEF8E3618F463
:1016A000823018F491E09093630090916300890F69
:1016B00021F481E080936200D9CF8F36D8F38EE693
:1016C000F9CFD13E59F480916300819580936300F6
:1016D00080916400819580936400CBC0D23BE1F49B
:1016E00081E08093630080916200823018F0815025
:1016F0008093620081E080936400C23008F0FDC0F6
:1017000000FDB4CFEC2FF0E0E459FF4F86898F3F06
:1017100009F4ACCF8F5FC9C0D13009F001C10932E3
:10172000110511F4D09363009091A900892F880FBF
:1017300097FD809590E067E070E095D3292F809128
:10174000A800682F660F87FD60958091610070E0AA
:1017500090E089D3290F8091A700682F660F87FD3D
:1017600060958091600070E090E07DD3622F690FFA
:1017700080916200680F7727771F8091C9008130C0
:1017800091F48091C6009091C70025E096958795C9
:101790002A95E1F724E730E0A901481B590BCA015B
:1017A00062D3B9017DD3862FF5D700FD08C03CD5A3
:1017B000982F91708091A900890F8093A900809142
:1017C000A8009091A600890F8093A8002DD565E20E
:1017D0005BD38091A700890F8093A70025D58F73D5
:1017E00029F422D56DE050D39093A600C0916100FA
:1017F000CC2331F019D58F7319F4C150C093610017
:1018000013D5811107C010D56BE03ED390936100D2
:101810001092A800C0916000C33030F005D58F71E0
:1018200019F4C150C0936000FFD48F7729F4FCD421
:1018300066E02AD3909360000932110519F481E023
:10184000809364008091D100080F0093D1000ECFE7
:10185000D23C09F411CFD33C71F48091D4008F5F56
:101860008170CFD7EC2FF0E0E459FF4F8091D40086
:10187000818B1AD6FBCED43C21F48C2F90E00496B9
:10188000FECED13B49F5C23090F400FDEFCEEC2FF7
:10189000F0E0E459FF4F868990916400891B8F3FE7
:1018A00008F08EEF883008F488E0868BDFCEC430F5
:1018B00009F0DCCE8091840090916400890F823021
:1018C00038F482E0809384008091840063D7CECE88
:1018D0008937C0F388E7F6CFD13E09F4F9CED23B81
:1018E00009F408CFD23E29F2D53C81F470E060E0E3
:1018F00084E99CE08BD980E0E9CFC43009F0B6CE12
:1019000080918400833000F38150DCCF81E0D130BE
:1019100009F492CFDF91CF911F910F91FF9008951D
:10192000D13C09F098CF90CE0F931F93CF93DF93C4
:10193000D82F8B01883031F48091C500882311F0B5
:1019400088E060DE8D2F8079803991F481E080938A
:10195000C400C091C500CC2311F0C0E003C0809149
:101960006A0018D78C2FDF91CF911F910F910895A6
:10197000803829F41092C40080E00CD7EECFC1E08B
:10198000D13081F7C091C400CC2359F08091C500BB
:10199000882319F3B80181E0DF91CF911F910F9156
:1019A00031CE07331140C8F2D093D50080E0E6D69F
:1019B000D9CF2F932FB72F933F938F939F93AF93AD
:1019C000BF93EF93FF938091FD008823E9F0E091AE
:1019D000FC0024B135B1F0E0EE0FFF1FDF01A8508D
:1019E000BF4F2D933C93EC50FF4F80819181821724
:1019F000930708F401962817390708F40197918393
:101A0000808381E08093FE0081E08093FD00FF9160
:101A1000EF91BF91AF919F918F913F912F912FBFE8
:101A20002F9118958F9381E08093D8008F9118950E
:101A30008F9381E08093D7008F911895F89484B7A5
:101A4000877F84BF0FB6F894A89581B5886181BD62
:101A500011BC0FBE81E187BB81E083BF81EA8ABDF3
:101A600088E088BB85BB8BB780628BBFA89581B5AA
:101A7000886181BD80E481BD90DC789481E0B1D340
:101A800070E060E080E396E061D71092CE00C9D6A6
:101A9000C2D381119DC08CE690E09093D0008093DA
:101AA000CF00F89480E091E022D2853A81F4009151
:101AB000CF001091D000C1E0D1E0CE0118D2F801E2
:101AC00081938F012196C032F1E0DF07B1F778945E
:101AD00080917500811191D470E060E08CEB94E00E
:101AE00035D761E070E086E596E030D73324339453
:101AF000CC24C394D12C212C5CEF452E53E0552EE1
:101B00006DE2662E60E0762E76E5872E76E0972EE3
:101B10008AD78091DB009091DC00009749F06091BA
:101B2000D9007091DA0072D81092DC001092DB00BC
:101B30008091D500882339F180E02CD6A89581B515
:101B4000886181BD23E421BD379865D38111FDCF24
:101B50003ED38BB780628BBF1092FE001092D800EC
:101B60001092D7008091D50081115AC082E08093F5
:101B70006B008BB78F7D8BBF10DCA89581B588611A
:101B800081BDE0E4E1BDAEDC1092CE008091EE00BC
:101B90009091EF00F2E086319F0709F079C0CEE125
:101BA000D0E0FE01849180538A3008F061C0E5DC0A
:101BB0008CE291E0A0DC21966C167D0691F7909264
:101BC000DC008092DB001092DA001092D900A0CFE6
:101BD000C0E08C2FDFD583E190E08DDC8C2F8695E3
:101BE000D9D583E190E087DC16D38823B1F0CF5FAD
:101BF000C03479F765E181E01FD456D4C6E98C2F53
:101C0000C9D584E090E077DCC150C9F744CF8C2F70
:101C1000C1D58DE090E06FDCC150C111F8CF3BCF52
:101C20008091FF00882301F185B7877E886085BF9A
:101C300085B7806285BF889585B78F7D85BF809188
:101C4000D70081111092D5008091FE00882329F0E1
:101C500030926B003092F30049D48091D8008823F1
:101C600009F480CFA4DB7ECF85B7877E8061DFCF8C
:101C700010E0812F8295880F80728CD580E190E0F2
:101C80003ADC1F5F1931A9F78AE992E034DC90CF82
:101C9000FBE082309F0779F02CE08439920709F04D
:101CA000ADC08091C500813009F0D2C08091C400E0
:101CB000882309F4CDC0C091C300EC2FF0E0E459B3
:101CC000FF4F81898093D400C230A9F1E0F0C43085
:101CD00009F01ECFD0918400DD0FD73908F0D6E986
:101CE0008D2F58D585E090E006DC8091840052D598
:101CF00081E490E000DCC15099F780ED92E0FBDBDD
:101D000080E048D505CFD68986E944D5C1110FC0FA
:101D1000DA3248F4C2010197F1F780E03BD58D2F0C
:101D200090E0E9DBF5CE81E090E0E5DBF6CF8D2FAA
:101D3000869590E0FACF78D28F73082F10E074D296
:101D400067E0A2D0760102C0EE0CFF1C9A95E2F784
:101D50006BD265E099D0E60102C0CC0FDD1F9A95E9
:101D6000E2F7CE0DDF1D60D290E0BE01ADD0C80F0E
:101D7000D91FC739D10524F086E9C82FE0E0DE2F4E
:101D80008C2F08D5C801B7DB7E0133E0F594E794CA
:101D90003A95E1F7E11002C0EE24E394F12CC8017A
:101DA000AADB5E01AE18BF08E501B7FE03C0F0E094
:101DB000CF2FD22D8C2FEED437D2837031F4C801BF
:101DC0009ADBCE0195958795E5D482E0A816B104FB
:101DD00034F72AD26DE058D0860102C0000F111FDF
:101DE0009A95E2F721D2E801219790E0C823D92300
:101DF000C00FD11F80E0CED4CE0193CFE8E08E3E5D
:101E00009E0721F48091F200E3DB82CEF6E086317A
:101E10009F0731F48091F000DBDB88EE93E081CF07
:101E200084519940A9F48091D600811171CE80919E
:101E30006A00B0D484E690E05EDB80E0ABD48091B1
:101E4000850090E068EE73E00ED08456910969CF6A
:101E500085B7877E85BF85B7806285BF889585B742
:101E60008F7D85BF55CE0024552704C0080E591F0D
:101E7000880F991F009729F076956795B8F371053B
:101E8000B9F7802D952F0895991B79E004C0991F0B
:101E9000961708F0961B881F7A95C9F780950895C4
:101EA000AA1BBB1B51E107C0AA1FBB1FA617B70780
:101EB00010F0A61BB70B881F991F5A95A9F780959C
:101EC0009095BC01CD01089597FB072E16F4009460
:101ED00006D077FD08D0E4DF07FC05D03EF49095EE
:101EE00081959F4F0895709561957F4F0895E19971
:101EF000FECF9FBB8EBBE09A99278DB30895262F06
:101F0000E199FECF9FBB8EBBE09A01970DB20216FE
:101F100039F01CBA2DBB0FB6F894E29AE19A0FBEC5
:061F20000895F894FFCFC4
:101F2600060B18010101000470012E020001010ACE
:101F360070700107000000000100000003000000AF
:101F460000002943340207370009006E0070007252
:101F56000000010201000000000000010000000076
:061F660000290135010015
:00000001FF
