:1000000075C1000090C100008EC100000C94F31176
:100010008AC1000088C1000086C100000C94EB1169
:1000200082C1000080C100007EC100007CC10000D0
:100030007AC1000078C1000076C1000074C10000E0
:1000400072C1000070C100006EC100006CC10000F0
:100050000C946D1168C1000066C1000064C100000D
:1000600062C1000060C100005EC100005CC1000010
:100070005AC1000058C1000056C10000303731336A
:100080002E323032332D31302D3036000001050450
:1000900014101115FF0F4D0B4D0FF60AB40C8F0AFB
:1000A0007C0A640A500A4209B80B540B460AF50947
:1000B000C6089108EE07A9076107B4066A0621067B
:1000C000D90594050A05D004980462042E04D003CF
:1000D000A4037A0351030B03E902AD0290025D020F
:1000E000430218020202DC01C901A80197017B0149
:1000F0006C01540147013A012E012301180114013A
:100100000A0106010101FD00FD00FF00FF00FF00E4
:10011000FF00FF00FF00FF00FF00FF00FF00FF00E7
:10012000FF00FF00FF00FF00FF00FF00FF00FF00D7
:10013000FF00FF00FF00FF00FF00FF00FF00FF00C7
:10014000FF00FF00FF00FF00FF00FF00FF00FF00B7
:10015000FF00FF00FF00FF00FF00FF00FF00FF00A7
:10016000FF00FF00FF00FF00FF00FF00FF00FF0097
:10017000FF00FF00FF00FF00FF00FF00FF00FF0087
:10018000FF00FF00FF00FF00FF00FF00FF00FF0077
:10019000FF00FF00FF00FF00FF00FF00FF00FF0067
:1001A000FF00FF00FF00FF00FF00FF00FF00FF0057
:1001B000FF00FF00FF00FF00FF00FF00FF00FF0047
:1001C000000000000000000000000000000000002F
:1001D000000000000000000000000000000000001F
:1001E000000000000000000000000000000000000F
:1001F00000000000000000000000000000000000FF
:1002000000000000000000000000000000000000EE
:1002100000000000000000000000000203050708C5
:100220000A0C0E10121416181A1D1F2225272A2D2B
:100230003033363A3D4144484C5054585D61666B0A
:1002400070757A7F858B91979DA3AAB1B1B1B1B139
:10025000B1B1B1B1B1B10101020203030405060657
:100260000809090A0A0B0C0D0E0F101112131314B2
:100270001516171718191A1A1B1B1C1C1D1D1E1EDC
:100280001F1F20202121222324252628292B2D2F22
:100290003235383C3F43474B4F54595E63686E7468
:1002A0007A81888F969EA6AEB7C0CAD3DEE8F3FFE8
:1002B000FFFFFFFFFFFFFFFFFFFFFFFFFFFFFFFF4E
:1002C000FFFFFFFFFFFFFFFFFFFFFFFFFFFFFFFF3E
:1002D000FFFFFFFFFFFFFFFFFFFFFFFFFFFFFFFF2E
:1002E000FFFFFFFFFFFFFFFFFFFFFFFF11241FBE08
:1002F000CFEFCDBFDFE3DEBF18E3A0E0B8E3EBE272
:10030000FBE202C005900D92A833B107D9F728E3AC
:10031000A8E3B8E301C01D92AF3CB207E1F70E9429
:10032000FA110C946C156CCEF89498ED94BF8093F0
:1003300061008091630080FDFCCF78940895ECE922
:10034000F8E330E020E0908191110BC0F901EE0F4D
:10035000FF1FE20FF31FE456F74C80836183728323
:1003600006C02F5F3F4F33962031310561F7089566
:10037000BC018091CE38E3CF1092CE381092CC38A9
:100380001092CD3881E08093693808950F931F93C0
:10039000CF93C82F02E919E0C15020F4CF911F91EB
:1003A0000F91089585E0C0DFC8010197F1F781E062
:1003B000BBDFF2CFE0E0F6E0828581608287808556
:1003C000816080870895E0EAF0E080818061808329
:1003D000E0E0F6E083E880838381806283838DE1BF
:1003E000868385E582831092983810929938E2CFFF
:1003F00082B185FB882780F991E089278093723844
:100400000895E0910638F09107383196FB70F4605A
:10041000E0930638F093073880916C388B5A8093BC
:100420006C38E49180916C388E0F0895FF920F9391
:100430001F93CF93DF9300D00F92CDB7DEB72091FB
:1004400027AB309128AB409129AB29833A834B836A
:10045000DE01119650E040E0682F70E001E010E00E
:1004600088E0F82E9B01042E02C0359527950A944A
:10047000E2F7922F93708D91E82FF0E0980101C080
:10048000220F8A95EAF7992339F09130B9F0209339
:1004900041042093450404C0209341042093460462
:1004A0004E5F5F4F46305105E9F62396CDBFDEBF64
:1004B000DF91CF911F910F91FF90089520934204F7
:1004C000E05BFB4FF082ECCF811182E0AFCF811176
:1004D0008AE0ACCF811188E0A9CF811188E2A6CF54
:1004E000811180E2A3CF811182E2A0CF81118AE243
:1004F0009DCF81E0089590E0FC01EA5AFD4FE49120
:100500004E2F50E0FC01E054FE4FE4912E2F30E0DE
:10051000FC01EE0FFF1FEC56FF4F85919491409325
:100520003A0A50933B0A2093380A3093390A809351
:10053000360A9093370A80916F38811104C0109267
:10054000200A1092210A089590E0FC01EA5AFD4F1A
:10055000E4912E2F30E0FC01E054FE4FE491F0E0F6
:1005600080913A0A90913B0A892B19F42F3F31056B
:1005700051F080913A0A90913B0A8F3F910541F5E5
:100580002115310529F520933A0A30933B0A8091D1
:10059000380A9091390A8E179F07C0F58091380A62
:1005A0009091390A01968093380A9093390A809184
:1005B0003A0A90913B0A8217930741F42091380A36
:1005C0003091390A81E02E173F0709F080E0089545
:1005D00080913A0A90913B0A8217930750F48091D8
:1005E0003A0A90913B0A019680933A0A90933B0A0B
:1005F000CECF80913A0A90913B0A2817390738F6F6
:1006000080913A0A90913B0A0197EECF8091380A87
:100610009091390AE817F90750F68091380A9091BD
:10062000390A0197C0CFCF93DF93CDB7DEB72697B6
:10063000CDBFDEBF20910C3840918A3850918B3865
:100640004951574009F422E0843041F4609318384E
:100650002696CDBFDEBFDF91CF9108956623C1F30B
:10066000823019F497E9961B692F96E0ECEDFAEACF
:10067000DE01119601900D929A95E1F78150990B48
:10068000880F991FA1E0B0E0AC0FBD1F8A0F9B1F20
:10069000DC01ED91FC91E20FF11D6083D9CFCF9287
:1006A000DF92EF92FF920F931F93CF93DF939C0102
:1006B00050910C3890911738E2E0911101C0E52F6C
:1006C000F0E0E45FF74C42814093093885818093E4
:1006D0000838E92FF0E0E45FF74CC185642F70E043
:1006E000552381F0C13071F4860F972F911D959598
:1006F0008795DF91CF911F910F91FF90EF90DF9041
:10070000CF900895261737079CF1821713068CF3B4
:10071000511102C0822FEDCF841B6C2F6150770BDB
:100720008B01E82EF12CC7010E94251560936538D6
:100730006695E62FF0E0842FD12CC12CD0E0DC1799
:10074000C1F2C601B8010E941115842F860FA82F8F
:10075000B0E0B9016A1B7B0B77FF03C0BD01621BD0
:10076000730BCE0CDF1CE617F7071CF6DF5FE7CF35
:10077000842FBFCFECE0F8E3868580930A38838925
:10078000808B80937038089580916238882351F06F
:1007900090916F38909364388093613810925F38ED
:1007A00010926038089590918E3880E0E82FF0E044
:1007B000EB50F5452081921738F43197E081F0E055
:1007C000E457FF4F849108958E5FF0CF0F931F93EE
:1007D000CF93C82FCB0120918E3821502C3128F493
:1007E00080E0CF911F910F9121CEEC2FEF702091DF
:1007F000683821113FC0C295CF702091323848E04F
:10080000249F9001112462177307A8F5409167385F
:100810004217130684F5442371F121E030916E38BC
:10082000393108F420E031E0C23009F030E0232B08
:10083000C1E0C20F20917138222309F456C0B3DF02
:10084000E82FC33071F480913C3890E0019663E169
:1008500070E00E94111580933C388E519545DC0163
:10086000CC91CC2329F0C13009F449C0CE2FCC0F54
:100870008C2FB7CFC2E0E73010F4F0E016C0E730BD
:10088000C1F400913D3810E00F5F1F4FBADD65E005
:100890000E940515D801A90FB11DCD0166E070E0D9
:1008A0000E94251580933D38FC01E457FF4FE491E9
:1008B000C8CFE83009F0BECF20917138222399F0DB
:1008C0002FE030E082239323892B51F480913D382F
:1008D00090E0019666E070E00E94251580933D3817
:1008E000E0913D38CACF23E0ECCF9695879563E041
:1008F00070E00E941115FC01EE0FFF1FD6CFCE2F26
:10090000B7CF81E00895823019F4609332380895AA
:10091000611160932D380895662369F0813099F450
:1009200080912F3890918C38891B680F60932F38F5
:1009300082E080930B3880912E38873418F086E45B
:1009400080932E380895635E60932E38F4CF6093C1
:1009500033380895E82FF0E0E45FF74C67A308957B
:1009600040911D3850911E382FEF280F81E090E004
:1009700002C0880F991F2A95E2F7662339F0842B6D
:10098000952B80931D3890931E380895809584236D
:100990009523F7CFCF93DF938CE098E380936A3869
:1009A00090936B38F894D0E0C0E0E0916A38F09111
:1009B0006B38EC0FFD1F6081CE018F5B9F4F0E9453
:1009C0004F152196CB32D10581F765EA80E490E09E
:1009D0000E944F157894DF91CF910895813019F4DA
:1009E00010921A380895823019F460931B380895D4
:1009F000833019F4609319380895843019F46093A2
:100A00000D380895853011F4609321380895CF93FF
:100A1000C82F80917138811101C008DD8091713833
:100A2000811136C0CC23A1F0BEDECA3108F0880F98
:100A3000FDDCE091703884E0E89FF0011124E95F6B
:100A4000F4450190F081E02D8FEF8C0F09950EC0D9
:100A500080E0ECDC10923A0A10923B0A1092380ABD
:100A60001092390A1092200A1092210A80916F3850
:100A70008C1380936E38C0936F38C0936D3885E0C7
:100A8000C53020F083E0CB3008F081E0CF914CCC32
:100A9000C111CFCFDFCFCF93DF93C82FD0916F3865
:100AA00080E0B5DFC09370388D2FDF91CF91AFCF4D
:100AB0004091703860911D3870911E38842F98E0F5
:100AC000282F30E02F5F3F4F27703327822FFB0105
:100AD00002C0F695E7952A95E2F7E0FD02C0915035
:100AE00079F7481741F0D7DF8091703880931C3830
:100AF00051DF80E0089581E00895CF93C0916F3871
:100B000089E18C0F873908F080E081DF82E03EDCEC
:100B10008C2FCF917CCFCF93C0916F3880E077DF5F
:100B200083E034DC8C2FCF9172CF80936638909124
:100B30006F38282F291B981710F0292F281B309168
:100B40005938311106C030912138332369F02230F1
:100B500058F080935A3884E08093583881E080932D
:100B6000593890935B38089552CFFF920F931F939B
:100B7000CF93DF938C01D62FC72FF42E80918A3824
:100B800090918B38892B31F0E0918A38F0918B3835
:100B900089E0099500938A3810938B38012B41F036
:100BA000E0918A38F0918B386D2F7C2F8F2D09952D
:100BB00081E080936938DF91CF911F910F91FF9071
:100BC000089520917938283080F4E22FF0E0EE0F7C
:100BD000FF1FE658F74C808391832F5F209379386D
:100BE00048E0C3DF8091793808958FEF0895CF935F
:100BF000833C11F4CF915CCFC0911738C1110AC06A
:100C0000893B41F470E060E081E397E0DADF8C2F0C
:100C1000CF910895C1E0FBCF282FCB01283039F4C4
:100C20001092623810925F38109260380895213B1C
:100C300059F48091623881508330B8F583E0809315
:100C4000623880936138EECF253BA1F46EE370E00B
:100C50000E941115892B49F5809162388A3F28F549
:100C60008B5F809362388093613810925F38109266
:100C7000603843CF2130C9F480915F38909160385B
:100C8000019688382EE0920728F480935F3890937D
:100C90006038089510925F38109260388091623801
:100CA000882319F08150809362380895EF92FF9263
:100CB0001F93CF93DF9310919C38111106C0DF91E1
:100CC000CF911F91FF90EF900895E0909D38F090A4
:100CD0009E38C0917938C1500C2E000CDD0BC7FD39
:100CE0000EC0FE01EE0FFF1FE658F74C0190F08199
:100CF000E02DB701812F099521978111F0CFECE903
:100D0000F8E3838180838481958181839283339604
:100D100088E3E93CF807A9F71092C9381092CA385D
:100D20001092CB38C8CF80917938882319F0815040
:100D300080937938E091793890E080E0EE2341F0BB
:100D4000E150FF0BEE0FFF1FE658F74C80819181B9
:100D50004AE070E060E009CF1F93CF93DF93162F36
:100D6000D72FC42FF9018830B9F48091703880935F
:100D7000403810923F3880E04ADE8091723881110D
:100D80002FC080913F388F5F80933F3870E060E0E4
:100D90008BE397E016DF24C0982F907F903B49F5B6
:100DA00080913F38481718F18150883040F4909175
:100DB0006338992321F09091703889136CDE812F6C
:100DC0009D2F6DE570E00E941115069771F48091DA
:100DD0003F388F5F80933F38C81710F088E317DEE5
:100DE00080E0DF91CF911F91089582E1F8CF80E0FC
:100DF000F6CF903E51F480913F38882371F0481728
:100E000060F08091403847DEC1CF8A3041F4609174
:100E1000573880913F380995BDDD85DFE1CF8930B6
:100E2000F9F68091403837DEDBCF23E133E043E051
:100E300093CF23E133E044E08FCF2EEE34E045E062
:100E40008BCF23E834E042E087CF2CE834E042E067
:100E500083CF27EA34E041E07FCF2AEA34E043E061
:100E60007BCF91E09093633820EB34E048E074DF6F
:100E7000109263380895883039F4109257381092E0
:100E80003E3880E0C4DD0CC0813001F590913E38E1
:100E9000911108C06032710518F080933E386CDA09
:100EA00080E00895913081F46B3B710520F082E081
:100EB00080933E38E6CF6115710591F3862F880F38
:100EC000880F88708E5EDECF2EDFEACF813811F07A
:100ED000813E31F791E090933E38813E41F480911C
:100EE0005738865F8093573847DA8BE4CBCF8091B1
:100EF00057388F5FF7CF0F931F93CF93DF93D82F80
:100F0000C92F8B0110DFB8018D2F9C2FDF91CF915E
:100F10001F910F9156CE813C39F470E060E087E27A
:100F20009BE0E9DF80E00895823C29F470E060E016
:100F30008AE19AE0F6CF873B31F470E060E085E229
:100F400097E03FDEEFCF81E00895813C39F470E017
:100F500060E087E29BE0CFDF80E00895823C29F4E7
:100F600070E060E08EEE99E0F6CF81E00895843085
:100F700011F580918A3890918B382CE08F3F920741
:100F800031F469E170E08DED97E0B5DF0DC08D5D66
:100F9000974061F490916F38923040F0892F869598
:100FA00096959695890FC1DD80E0089570E060E028
:100FB00087E29BE0EACF81E00895BF92CF92DF9273
:100FC000EF92FF920F931F93CF93DF93C82F8B0164
:100FD00080911C3880937038D0900938D0910838AF
:100FE00080910C38B0906538811102C0BB24B39455
:100FF000E0900D38809117388111E0901838EE207C
:1010000009F43FC031E0E31621F080910A388D17D2
:10101000C0F1F6E9FF2EC0906238B8018C2FFCDDDC
:1010200020916238222309F4D0C1C11004C08091FC
:101030006F38809364388C2F8D7F883021F5109223
:101040005E38CA3019F400910A3810E0D016110643
:1010500030F4D017110619F010F000930A38C801C7
:101060001EDB63DD81E080930538D0E08D2FDF91BA
:10107000CF911F910F91FF90EF90DF90CF90BF9095
:101080000895FD2EC8CFC13C09F4A2C1C23C41F471
:1010900080916F388F15C8F58F2D47DD75DBE5CF53
:1010A000C43C39F480E0B3DC70E060E083E49AE0B3
:1010B00093C18FE48C0F823008F05BC080910C38B4
:1010C000882331F1C80168E170E00E941115892B75
:1010D00061F690916F380115110529F5C23BE9F4CD
:1010E0008FEF80930538C0916F38209105384B2DD4
:1010F0002403C00111248C0F911DD1DA80930A388A
:10110000C81719F08D1301C006DD80910A38C5CFCC
:101110006091143870E0C801D8CF9D1708F7D91630
:1011200010F381E0DECF80911438682F70E046E341
:1011300051E0849F9001859F300D112420173107C5
:1011400010F49D1768F64CE652E0649F9001659F8D
:10115000300D749F300D11242017310720F6D91659
:1011600008F4C1CFCADC70E060E083E49AE0C3DE3B
:10117000BACF8FE18C0F823020F4809105388195B1
:1011800072CFC13009F084C00932110511F4C09347
:101190000538222379F1C0916438C29F900111244F
:1011A000E0916138F0E0C901BF010E942515462F8A
:1011B000C9018C1B9109BF010E942515242F261BF4
:1011C00080915F38909160386EE370E00E94111555
:1011D000269FC001279F900D11246CE370E00E94B0
:1011E0001115842F861B461301C081E080936D3852
:1011F00080936638C0916D3820916F384C2F421B18
:10120000550BCA0160914138709142386F5F7F4F32
:101210006093413870934238009709F426CF40E03C
:1012200052E097FF06C040E450E0233810F440E05D
:1012300051E05695479597FD0196959587950097AE
:10124000C1F74617570708F010CFC217E8F4CFEFE1
:10125000C20FE091703854E0E59FF0011124E95F7E
:10126000F4450280F381E02D8FEF8C0F09958823E0
:1012700031F0D0916D388C2FCADBD0936D3810923D
:10128000413810924238F1CE2C1718F7C1E0E0CF68
:10129000C530A9F480916F388D3308F4E6CE90E024
:1012A000801B910B8739910514F086E990E08C330F
:1012B000910514F48CE390E080936D38D6CEC6305F
:1012C00079F490916F3880916638981708F0CDCEF8
:1012D000090F111D90E08017910774F3C801E7CF43
:1012E000C73069F490916D3880916F38891710F488
:1012F0008F5FE2CF981708F0B8CE8150DDCFC33CA6
:1013000091F0C63C41F581E090910C38911180E05C
:1013100080930C383FDBFFDB80916F3890E0BFD9C2
:1013200080930A38BACE60911D3870911E3890E0D3
:1013300080E020E0AB01082E02C0569547950A9444
:10134000E2F74170240F01968830910599F7223019
:10135000D0F2D1E08BCED0911738D111FACFC33B68
:1013600051F4012B09F081CEEE2011F086E9F82E20
:101370008F2DDBDB7BCEC33E19F480910A38F9CF89
:10138000C53C41F480E043DB70E060E082EA9EE02F
:10139000B2DD6CCE70E060E085E197E0C73B99F08C
:1013A000CA3C59F480916F3880931A388091703814
:1013B00080931F38EFDAA1DB59CECA3B51F670E0BB
:1013C00060E08DE197E0FDDB51CECC2009F433CE17
:1013D00070E060E087E29BE08EDD47CECF93C09166
:1013E0001738C11125C0813C41F470E060E087E20C
:1013F0009BE081DD8C2FCF910895823C29F470E031
:1014000060E08BE897E0F5CF833C51F48091203881
:1014100090E001968770992780932038BBDAEACF55
:10142000873B31F470E060E081E297E0CADBE2CF15
:10143000C1E0E0CF282FCB01213C39F470E060E01F
:1014400087E29BE058DD80E00895223C29F470E0BB
:1014500060E085EA97E0F6CF213B41F46EE370E06F
:101460000E941115892B79F748DBEDCF213E49F415
:101470006EE370E00E9411156F5F60932C388ADA7A
:10148000E2CF81E008950F931F93CF93DF93C82F8E
:101490008B01873B81F480E0BADA81E08093683881
:1014A000C8018F739927892B09F49FC0B8018091D7
:1014B00031388CD921C08079803901F590910E386E
:1014C00020910F388C2F8F70813029F4822F921742
:1014D00048F4892F07C080911A38811103C0822FE8
:1014E0002917B8F394DAC33C09F045C006DB70E075
:1014F00060E087E29BE0FFDCD0E01AC0803811F4A6
:1015000080E0F0CFC83009F086C01092673870E0F4
:1015100060E0809131385AD9D0911738D11179C013
:10152000CA3B09F076C070E060E089E297E049DBF1
:101530008D2FDF91CF911F910F910895C33099F6B0
:10154000809167388F3F19F08F5F80936738809163
:101550001A38882309F4AACF40911B3822EC31E0D5
:10156000429FC001439F900D11240817190708F4EA
:101570009DCF00D99BCF60910A3870E0C43C39F010
:10158000C43B41F4C8DA1092CE3861E070E08DEDD2
:1015900097E0B1CFC53C19F466E970E0F8CFC33BE2
:1015A00069F4C8016EE370E00E941115892B09F0FF
:1015B000B3CFDF91CF911F910F917ACAC73C11F53C
:1015C00080913138282F22952F702F5F237090E162
:1015D000299F900111248F70822B8093313870E005
:1015E00060E0F4D8D7D989DA87CF20913138822FBB
:1015F0008F708F5F207F6BE00E940515922B909378
:10160000313854CFC73E09F087CF10926838C2D91D
:1016100073CFD1E08DCFC13009F090CF09311105E2
:1016200008F46ACFC093713841CF90912138992343
:1016300069F080935A3888E08093583881E080932D
:10164000593880916F3880935B380895E0C9CF9303
:10165000DF93EB018830C1F480E0E7DF80915938F7
:10166000C82B1092673880911C3880937038109284
:101670006238CD2B29F0C0E08C2FDF91CF910895F7
:1016800081E080937138F7CF813051F46931710571
:1016900090F3C0915938C111EECF80937138ECCFDF
:1016A000833081F5809167388F3F19F08F5F809389
:1016B000673880911A38882369F040911B3822ECF2
:1016C00031E0429FC001439F900D1124C817D907F4
:1016D00008F050D8BE018091303878D880913338E6
:1016E000882349F242EC51E0849F9001859F300DA0
:1016F00011242C173D0708F0BECF70E060E083E4B2
:101700009AE016C0813BB1F481E090E00E944F0363
:101710008CDF809119388111AECF80910C38811106
:1017200003C0689708F4A7CF61E070E08DED97E003
:10173000E2DBA1CF813EC1F3813839F480910A38D0
:1017400090E00E944F0371DF96CF60910A3870E0FD
:10175000813C61F3823B81F41092673880910D38AF
:1017600090911738911180911838811103C086E942
:1017700090E0E7CF86E9E7CF823E11F480E0E3CF47
:10178000823C19F466E970E0D1CF833919F41092E4
:101790005938F4CF833C29F470E060E08EEE99E094
:1017A000C7CF843C11F4A9D9A8CF8D3B49F4F89454
:1017B00088ED84BF81E0809300017894A895FFCFE5
:1017C0008F3C29F470E060E081E894E0B1CF8A3B7F
:1017D00091F4CD2B09F04FC0C0911738CC2329F0DC
:1017E0008CD910921738D6D846CF70E060E089E1E6
:1017F00097E0E7D941CF833B29F470E060E08FEFB9
:101800009CE096CF873CB1F480913038282F229508
:101810002F702F5F237090E1299F900111248F700A
:10182000822B8093303870E060E00E94E603B2D8EB
:1018300064D921CF873BD1F481E080936838CE0111
:101840008F739927892B61F420913038822F8F7004
:101850008F5F207F6BE00E940515922B90933038AC
:10186000BE01809130380E94E60305CF873E19F40F
:1018700010926838B8CFC0911738C11119C08A3C8E
:1018800031F43BD981E08093173884D8F5CE853C7C
:1018900039F433D970E060E082EA9EE02CDBECCED4
:1018A000863C31F42AD970E060E08CEE9EE0F6CF01
:1018B000C1E0E2CE0F931F93CF93109274388091C2
:1018C000CC389091CD389C012F5F3F4F882790787E
:1018D000822B932B8093CC389093CD38C091723863
:1018E0000E94F801C817B9F01092713880937238CD
:1018F0009091CE388823E9F1892F80699F709F30BD
:10190000B1F58093CE3890E080E00E94B80110924B
:10191000CC381092CD380091CC381091CD388091D0
:1019200071388823A1F1B80183E00E949F01BED9DC
:101930000134110520F00F701127012BA1F4109232
:10194000433881E080939B380E94E301C091433883
:10195000C11105C00E94DA0181E080938F38CF5F0A
:10196000CF71C0934338CF911F910F9108958F5F2E
:10197000C8CF892F8F7E95FD08C080688093CE38B0
:101980008091CC389091CD38C0CF806CF7CFC0918A
:10199000CE388C2F807F803B49F470E060E081E09E
:1019A0000E949F01C8010E94B801D0CFB80181E018
:1019B0000E949F01C4FF0FC0C5FDF4CF083111057F
:1019C00028F21092CC381092CD38C062C093CE3835
:1019D00090E080E0E8CFCC2309F4B8CFC5FF03C086
:1019E0000E94BC01B3CF0231110508F4AFCFC0642F
:1019F000C093CE3890E080E00E94B801F1CFFF9212
:101A00000F931F93CF93DF93D82F8B01C0915C3836
:101A100081E080935E38C43079F4F09062388D2F85
:101A2000FBD8FF20A1F080916238811110C070E0D6
:101A300060E087E29BE05FDAD83071F0D13C09F0DA
:101A400012C170E060E087E29BE055DA0CC0D8304C
:101A500061F481E0809303388091223880935C3870
:101A600081E08093043880E063C1D23C69F4109235
:101A700062388C2F90E0019666E070E0E6D78093A4
:101A8000223880935C3801C1D13BC1F48091023887
:101A9000012B41F49FEF863618F4823018F491E060
:101AA0009093033890910338890F21F481E080935B
:101AB0000238D9CF8736D8F386E6F9CFD13E59F42C
:101AC0008091033881958093033880910438819503
:101AD00080930438DAC0D23BE1F481E0809303388C
:101AE00080910238823018F081508093023881E072
:101AF00080930438C23008F00EC100FDB4CFEC2F43
:101B0000F0E0E45FF74C858D8F3F09F4ACCF8F5F39
:101B1000D9C0D13009F012C10932110511F4D093A6
:101B2000033890913B38892F880F97FD809529E0E5
:101B3000829FC001112430913A38232F220F37FDA4
:101B4000209580910138289F90011124232F290F7F
:101B500090913938892F880F97FD809590910038A2
:101B6000899FC0011124290F80910238280F332743
:101B7000331F809162388130B9F480915F38909141
:101B8000603845E0969587954A95E1F764E770E0FF
:101B9000AB01481B590B429FC001439F900D529FC0
:101BA000900D11243ED79B01822F0E94070500FD56
:101BB00009C00E940102982F917080913B38890FD3
:101BC00080933B3880913A3890913838890F8093D0
:101BD0003A380E94010265E218D780913938890F9E
:101BE000809339380E9401028F7331F40E94010200
:101BF0006DE00BD790933838C0910138CC2339F081
:101C00000E9401028F7319F4C150C09301380E94E1
:101C10000102811108C00E9401026EE0F6D6909385
:101C2000013810923A38C0910038C33038F00E9421
:101C300001028F7119F4C150C09300380E94010253
:101C40008F7729F40E94010287708093003809324F
:101C5000110519F481E08093043880916C38080FE5
:101C600000936C3800CFD23C09F403CFD33C81F40D
:101C7000809170388F5F87700E944B05EC2FF0E0E9
:101C8000E45FF74C80917038878B0E94CA04EBCEDA
:101C9000D43C21F48C2F90E00596EECED13B51F54B
:101CA000C23090F400FDDFCEEC2FF0E0E45FF74CA3
:101CB000858D90910438891B8F3F08F08EEF883016
:101CC00008F488E0858FCFCEC53009F0CCCE809166
:101CD0002B3890910438890F823040F482E0809351
:101CE0002B3880912B380E940705BDCE8937B8F379
:101CF00088E7F5CFD13E09F4E8CED23B09F4F7CE20
:101D0000D23E19F2D53C81F470E060E082EA9EE0B8
:101D1000F2D880E0E8CFC53009F0A5CE80912B380D
:101D20008330F8F28150DBCF81E0D13009F48FCFDE
:101D3000DF91CF911F910F91FF900895D13C09F051
:101D400095CF7FCE0F931F93CF93DF93D82F8B0127
:101D5000883031F480915E38882311F088E04FDEBE
:101D60008D2F8079803999F481E080935D38C0911E
:101D70005E38CC2311F0C0E004C080910A380E9484
:101D800007058C2FDF91CF911F910F910895803817
:101D900031F410925D3880E00E940705ECCFC1E07D
:101DA000D13079F7C0915D38CC2359F080915E38FD
:101DB000882309F3B80181E0DF91CF911F910F9142
:101DC0001ECE07331140B8F2D093713870E060E056
:101DD00080E00E94E603D5CFFF920F931F93CF932D
:101DE000DF93C82F8B01F0900A388079803909F091
:101DF0003DC0DC2FDC70C1F010925D38D0E08091E6
:101E00005D38882319F0B8018C2F9CDFF0920A38D6
:101E1000C830C1F5B80188E036DB8D2FDF91CF9156
:101E20001F910F91FF90089591E090935D38EC2FF2
:101E3000EF70F0E0E45FF74C87A12FEF280F263911
:101E400048F480930A3810925E3880911C38809351
:101E50007038D5CF90935E38873980F28759990BC7
:101E600066E070E0F2D580935C38C9CF803841F4E9
:101E700010925D3880E00E94070581E08093693808
:101E8000D1E0BDCFC13061F480915D38811116C0C1
:101E9000B80181E0DF91CF911F910F91FF90F3CABC
:101EA000C33019F4B80183E0F5CFC63C49F40E9471
:101EB0007D0570E060E087E29BE01DD8D0E0ADCF0B
:101EC000C73B09F0AACF70E060E08DE297E00E9486
:101ED000E105F4CF10929A389091100680916C38F9
:101EE000890F80936C3880918F38882309F470C0F3
:101EF00010928F389091983880917138882349F0EA
:101F0000809100068E7F8093000610929B3810927D
:101F10009838911167C080910B3860919438709116
:101F2000953881111CC08091713860919038709102
:101F300091388823C1F0809194389091953823E0AE
:101F4000969587952A95E1F7860F971F33E076954A
:101F500067953A95E1F79C01261B370BB901609311
:101F6000903870939138605F7F4F86E076956795E3
:101F70008A95E1F780E098E554D580912D3882501C
:101F8000990B680F791F7695679560938E388091CD
:101F900056388823F1F081508093563880917138FB
:101FA00081110DC08EE18093060685E480930206C0
:101FB00081E080939838109299380E94DA018091DC
:101FC0000B38882329F080910B38815080930B388F
:101FD00008956D3118F770E060E084E00E949F0181
:101FE00085E0DACF913059F780910B38811164C0C8
:101FF000809192389091933840969C0145E03695B7
:1020000027954A95E1F7E0912F3856E09695879508
:102010005A95E1F70E2E000CFF0BAF0143515140D2
:10202000840F951F80938C3890938D38809145381C
:10203000A82FB0E0AA0FBB1FAA5BB74C4D915C91D3
:102040001197B901641B750BAB012D933C938F5F06
:10205000877080934538660F771F660F771F8091D2
:102060002E3890E08D5E9E4F8E1B9F0B880F991F20
:10207000681B790B620F731F83E0161617060CF0AE
:102080004AC0615071098150C1F7161617060CF04D
:102090005DC057FD7AC08091443818160CF042C0DC
:1020A000861B809344388DE18093060685E58093F6
:1020B0000206109298387FCF809196389091973889
:1020C0008093923890939338409635E09695879513
:1020D0003A95E1F780934638909347388093483893
:1020E0009093493880934A3890934B3880934C387A
:1020F00090934D3880934E3890934F38809350385A
:102100009093513880935238909353388093543839
:10211000909355386DCF6115710509F4B4CF6F5F99
:102120007F4FB1CF660F771F6530710564F0635044
:1021300071097595679588E1861B8093443885E021
:102140000E949F01B0CF61E070E0F5CF6C3F8FEF50
:102150007807DCF457FF19C08091443887FF02C02C
:1021600084509ECF84EE861B8093443880918E38B5
:102170008F3108F498CF8CEF9FEF9C01261B370B13
:10218000B9017595679586E0DBCF80918E388E31E9
:1021900008F489CF70E060E087E0D2CF80919A3870
:1021A000811198DE80917438811184CB0895EF926B
:1021B000FF920F931F93CF93DF93EC010AEC18E08B
:1021C00082E3E82E82E0F82E209739F4DF91CF9158
:1021D0001F910F91FF90EF900895809169388111C0
:1021E000F5CF80916F38853070F485E00E949401BE
:1021F000C7010197F1F781E00E949401CFDF0E94AF
:1022000056062197E1CF81E00E949401C801F1CFE9
:102210000F931F93CF93DF93C82F06EA811102C05B
:102220000AE0C1E0D091703810E0809120380E941F
:102230004B0589E10E940705D0937038C801B7DFCC
:10224000809120380E944B0580E00E940705D093C2
:1022500070388AEF90E0ABDFC15039F78D2F0E94C4
:102260004B058AE992E0DF91CF911F910F919FCFAB
:10227000CF93DF93282F64E6C8D3382FC92F892F37
:102280006AE0C3D3D92F243650F0832FC1DF8C2FBF
:102290006AE0BBD3BDDF8D2FDF91CF91B9CFCA30BC
:1022A000B0F7F9CFCF93DF93D82FC3E080910A38EE
:1022B0000E94070588EC90E07ADFDD2319F080E9C1
:1022C00091E075DF80E00E94070588EC90E06FDF09
:1022D000C15061F7DF91CF9108950F920FB60F9221
:1022E0001F9211242F933F934F935F936F937F938C
:1022F0008F939F93AF93BF93EF93FF93CF93DF930E
:1023000000D000D0CDB7DEB781E080930B0680917E
:102310009938882309F441C0E0919838E13009F0F8
:1023200055C080912111A09120112091100630916B
:102330001106281B310987FD3395B0E099D36983D5
:102340007A838B839C83DC01CB0180589F4FAF4FF6
:10235000BF4F892F9A2FAB2FBB2726E0880F991FDD
:102360002A95E1F7F0E0EE0FFF1FDF01AC56B74C06
:102370008D939C93E057F74C2081318128173907C2
:1023800010F42F5F3F4F8217930710F4215031094B
:102390002083318381E080939A3881E0809399385B
:1023A0002496CDBFDEBFDF91CF91FF91EF91BF911A
:1023B000AF919F918F917F916F915F914F913F91DD
:1023C0002F911F900F900FBE0F90189580911006BF
:1023D00090911106C2CF8F9381E080935301809337
:1023E00074388F9118958F931D9A81E0809373387C
:1023F0008F911895F89480914000877F80934000DA
:1024000088EDA89584BF90910001907F9093000182
:1024100021E030E084BF2093610083E084B98EE046
:1024200088B988E08093100480931104809312048B
:10243000809313048093140499E09093150480937F
:10244000160480931704809332048093330480939E
:102450003404809335048093500487E38093010A09
:1024600091E09093000A2FEF30E02093360A3093EA
:10247000370A809112048160809312049093520174
:10248000809151018111FCCF81E4809350010E9421
:10249000E301789481E00E94C60170E060E087EB80
:1024A00097E00E94E105109269380E947D050E9424
:1024B000F8018111BDC08CE098E380936A38909355
:1024C0006B38F89480E490E0E2D2853A79F4009198
:1024D0006A3810916B38C1E4D0E0CE01D8D2F8014F
:1024E00081938F012196CC36D105B9F778948091EC
:1024F0001A3881110E94BA0370E060E087EF95E01E
:102500000E94E10561E070E087E29BE00E94E10546
:1025100033243394CC24C394D12C212C5CEF452E4E
:1025200053E0552E68EE662E63E0762E77E2872E16
:102530007BE0972E0E9456068091773890917838EC
:10254000009751F060917538709176380E947B0742
:102550001092773810927838809171388823C9F1B9
:1025600080E00E9407053092520180915101811153
:10257000FCCFF9E5F0935001809100068E7F8093A7
:1025800000060E94F8018111FCCF0E94BC018091DD
:10259000120481608093120410929A381092743859
:1025A0001092733880917138811175C082E08093E8
:1025B0000B3880911204887F809312040E94E301FB
:1025C00030925201809151018111FCCFE1E4E093FE
:1025D0005001E4DD1092693880918A3890918B38EF
:1025E000F7E08D3D9F0709F084C0C0916F380E94CD
:1025F000D303CA3108F0880F0E9416028091213857
:10260000882309F4F1C180915938882309F4ECC179
:1026100020916F3890915A382913C6C1822F0E9499
:1026200007051092593880915B3880936E3882CFBD
:10263000C0E08C2F0E94070583E190E0B8DD8C2F6D
:1026400086950E94070583E190E0B1DD0E94F801C4
:102650008823F1F0CF5FC03461F760918C388091AE
:102660002F38681B81E00E948C040E94CA04C6E9CE
:102670008C2F0E94070584E090E099DDC150C1F7DE
:102680001ACF8C2F0E9407058DE090E090DDC1509D
:10269000C111F7CF10CF80919B38882329F1809109
:1026A0005000897F8260809350008091500081604B
:1026B000809350008895809150008E7F80935000C9
:1026C0008091733881111092713880919A388823E3
:1026D00021F021E020938F38FDDB8091743888232E
:1026E00009F460CFE7D85ECF80915000897F846085
:1026F000DACF24E08138920751F5CCE7D0E0FE0133
:10270000849180538A3090F483DD8CE291E04FDD38
:102710002196F0E0CB38DF0791F7809277389092DE
:102720007838109275381092763804CF00E010E0B7
:10273000802F80720E94070580E190E038DD1F5FE6
:10274000005E1931A9F78AE992E031DDDECF2CE095
:102750008F3F920799F0EEE0823A9E0729F0FEE063
:102760008C3E9F0709F0E1C020915E38213009F0CE
:10277000DCC020915D38222309F4D7C0C0915C38B9
:10278000EC2FF0E0E45FF74C878980937038C3301A
:1027900009F45DC0A8F4C23009F43AC0D58D86E9C9
:1027A0000E940705C11130C0DA3250F5C20101970D
:1027B000F1F780E00E9407058D2F90E0F8DCBACE9B
:1027C000C53009F0B7CEC0912B38CC0FC73908F00F
:1027D000C6E9D4E08C2F0E94070585E090E0E7DC95
:1027E00080912B380E94070581E490E0E0DCD15015
:1027F00089F780ED92E0DBDC80E00E9407059ACE4D
:1028000081E090E0D4DCD5CF8D2F869590E0FACF93
:10281000D0910A38C0E081E0CC2319F0C53019F41A
:1028200085E00E944B058D2F0E94070581E290E014
:10283000BEDC80E00E94070582E490E0B8DCCF5F58
:10284000CA3049F780911C388093703873CE0E944B
:1028500001028F73082F10E00E94010267E0D5D0BB
:10286000760102C0EE0CFF1C9A95E2F70E9401026D
:1028700065E0CBD0E60102C0CC0FDD1F9A95E2F7F0
:10288000CE0DDF1D0E94010290E0BE01DED0C80F18
:10289000D91FC739D10524F026E9C22F80E0D82FEF
:1028A0008C2F0E940705C80182DC7E0133E0F5947D
:1028B000E7943A95E1F7E11002C0EE24E394F12C9D
:1028C000C80175DC5E01AE18BF08E501B7FE03C0A4
:1028D000E0E0CE2FD22D8C2F0E9407050E9401022E
:1028E000837039F4C80163DCCE01959587950E9409
:1028F000070522E0A216B1041CF70E9401026DE058
:1029000084D0860102C0000F111F9A95E2F70E9441
:102910000102E801219790E0C823D923C00FD11FFD
:1029200080E00E940705CE0149CFE9E08E3E9E0778
:1029300051F480918E389CDC809117388111EDCE56
:1029400088EE93E03BCFF7E08B389F0721F480912E
:102950008C388EDCF5CF2AE08A319207C1F4809161
:1029600072388111E7CD80910A380E94070584E60C
:1029700090E01DDC80E00E94070520912C38269D08
:10298000C001279D900D11248456910917CF855AB7
:10299000974009F033CE80E085DC81E083DC80E085
:1029A00081DC80ED97E00ACF60915838291768F4F0
:1029B000892F821B861738F028D0820F0E940705C6
:1029C0008AE090E0FBCE81E0F8CFFAE16F9FA001B2
:1029D000112460915B38691B70E0CA0136D0EB01AD
:1029E00021968FEF820F9DCF80915000897F809339
:1029F00050008091500081608093500088958091B4
:102A000050008E7F8093500095CD991B79E004C0D3
:102A1000991F961708F0961B881F7A95C9F780951D
:102A20000895AA1BBB1B51E107C0AA1FBB1FA61715
:102A3000B70710F0A61BB70B881F991F5A95A9F767
:102A400080959095BC01CD01089597FB072E16F453
:102A5000009406D077FD08D0E4DF07FC05D03EF4F3
:102A6000909581959F4F0895709561957F4F08953A
:102A7000A29FB001B39FC001A39F700D811D1124BF
:102A8000911DB29F700D811D1124911D089503D0D9
:102A9000808199270895FC01E050FC4E0895262F6F
:102AA000FADF0080021611F004D001970197089513
:102AB000262FAF93BF93E0E0F0E1328131FDFDCFEF
:102AC000DC01A050BC4E2C932DE924BF23E02083D1
:0C2AD0000196BF91AF910895F894FFCFDC
:102ADC000E3811381438020100000000000000010B
:102AEC0000000000000000000100001D0121022375
:102AFC00032504270529062C07FF077B02A4026483
:102B0C00027902670279026A0279026D0279027017
:0F2B1C0002790273027902760279020203010044
:102B2B00080E180101010004960132020001010A8E
:102B3B000A968282010707010000000000010000D5
:102B4B0007010400000000000029435A020732006D
:082B5B0019390400781E9800EE
:00000001FF
