:1000000024C100003FC100000C94DE103BC1000081
:1000100039C100000C94D81035C1000033C1000074
:1000200031C100002FC100002DC100002BC1000014
:1000300029C1000027C100000C949F1023C10000BB
:1000400021C100001FC100001DC100001BC1000034
:1000500019C1000017C1000015C1000013C1000044
:1000600011C100000FC100000DC100000BC1000054
:10007000303237332E323032332D30372D30380096
:1000800001050414101115FF3FFF3F7430CC1FC64B
:100090002C6C39212B9332E3351F372C377A3649B4
:1000A00035C033F7316A340832013361308C304661
:1000B00030B12FE02EE22DC32C8B2B962B292AD486
:1000C000295029BD270E274826712537253E243F74
:1000D00023C522BA2126211820751FC91EBF1D1055
:1000E0001D5D1C611BB01A001A161934188F17BB3E
:1000F00016EF152B1546146D13C312DB1122115385
:1001000010730FA10EDD0D0C0D490C7C0BA90AD14B
:100110000908093D086F07A106D30506052E0467E7
:10012000039602CB01FF00FF00FF00FF00FF00FF6E
:1001300000FF00FF00FF00FF00FF00FF00FF00FFC7
:1001400000FF00FF00FF00FF00FF00FF00FF00FFB7
:1001500000FF00FF00FF00FF00FF00FF00FF00FFA7
:1001600000FF00FF00FF00FF00FF00FF00FF00FF97
:1001700000FF00FF00FF00FF00FF00FF00FF00FF87
:1001800000FF00FF00FF00FF00FF00FF00FF00FF77
:1001900000FF00FF00FF00FF00FF00FF00FF00FF67
:1001A00000FF00FF00FF00FF00FF00FF00FF00FF57
:1001B00000FF00000101010203030405060708090E
:1001C0000A0B0D0E1011131517191B1D1F222427C2
:1001D0002A2C2F3235393C3F43464A4D5155585C05
:1001E0006063676B6E7175787B7E80828586888997
:1001F000898989888785827E7A756F6860574C41C6
:1002000034261617191A1B1C1D1E202122242527EF
:10021000282A2B2D2F31333537393B3D3F42444679
:10022000494C4E5154575A5D6063676A6E717579D7
:100230007D8185898E92979BA0A5AAAFB5BAC0C5CE
:10024000CBD1D7DEE4EAF1F8FF0011241FBECFEFD7
:10025000D4E0DEBFCDBF11E0A0E0B1E0ECECF7E20E
:1002600002C005900D92A238B107D9F722E0A2E8AA
:10027000B1E001C01D92A331B207E1F70E94E41082
:100280000C94E413BDCEF89498ED9FBD83BF789491
:100290000895482F362F272FE0EEF1E090E080E020
:1002A000508151110BC063E070E00E948613FC0185
:1002B000E052FE4F40833183228305C0019633967E
:1002C0008031910569F70895BC0180911202E1CF58
:1002D00010921202109211021092100281E080938B
:1002E000AE0108950F931F93CF93C82F08EA17E02C
:1002F000C15020F4CF911F910F91089582E0C3DF88
:10030000C8010197F1F780E0BEDFF2CF83B18864C6
:1003100083B90895E0910601F09107013196FB70D1
:10032000F460F0930701E09306018091B1018B5ACC
:100330008093B101E4918091B1018E0F08958823DB
:1003400021F0813031F0829A05C0829892988A9883
:1003500008958298929A8A9A0895CF93DF9300D055
:100360000F92CDB7DEB720917D0130917E01409193
:100370007F0129833A834B83FE01319650E040E0B0
:10038000682F70E0A1E0B0E09B01042E02C035951B
:1003900027950A94E2F7922F937081919D0101C0F5
:1003A000220F8A95EAF7992329F09130C1F080B3A2
:1003B000822B19C080B32095822380BB82B3822315
:1003C00082BB81B3282321BB4E5F5F4F463051056E
:1003D000D9F60F900F900F90DF91CF91089590B3C1
:1003E000822F8095892380BB82B3822B82BB81B30D
:1003F000282BE9CFCF93C82F8091B401811109C078
:10040000CC2339F080913001C81718F4F3DF82E073
:1004100069DF8091B50181110BC09FDF91E0C111AF
:1004200001C090E081E0C73408F480E0890F87DFE5
:10043000E0911C01F0E0EE0FFF1FE359FE4F019029
:10044000F081E02D8C2F09958091B4018C1380935D
:10045000B301C093B401C093B20182E0C43020F074
:1004600081E0CC3008F080E0CF910DCFCF93DF93C7
:10047000C82FD091B40180E0BDDFC0931C018D2F47
:10048000DF91CF91B7CF811182E067CF81118AE0F0
:1004900064CF811188E061CF811188E25ECF811144
:1004A00080E25BCF811182E258CF81118AE255CF81
:1004B00081E00895E82FF0E0ED54FE4FE491F0E084
:1004C00080916C0090916D008E179F0798F4809139
:1004D0006C0090916D00019690936D0080936C007C
:1004E00020916C0030916D0081E02E173F0709F0DC
:1004F00080E0089580916C0090916D00E817F907F5
:1005000078F780916C0090916D000197E5CFCF93C3
:10051000DF9300D000D000D0CDB7DEB720910C0122
:100520004091CE015091CF01485B574009F422E041
:10053000843059F46093180126960FB6F894DEBF04
:100540000FBECDBFDF91CF9108956623A9F382300E
:1005500019F497E9961B692F96E0E4E3F1E0DE01D8
:10056000119601900D929A95E1F78150990B880FA1
:10057000991FA1E0B0E0AC0FBD1F8A0F9B1FDC01EB
:10058000ED91FC91E20FF11D6083D6CFCF92DF9207
:10059000EF92FF920F931F93CF93DF939C015091A3
:1005A0000C0190911701E2E0911101C0E52FF0E0FC
:1005B000E45FFE4F428140930901858180930801E9
:1005C000E92FF0E0E45FFE4FC185642F70E0552312
:1005D00081F0C13071F4860F972F911D9595879505
:1005E000DF91CF911F910F91FF90EF90DF90CF900F
:1005F0000895261737079CF1821713068CF35111C3
:1006000002C0822FEDCF841B6C2F6150770B8B01C2
:10061000E82EF12CC7010E94B7136093AB016695D9
:10062000E62FF0E0842FD12CC12CD0E0DC17C1F2F2
:10063000C601B8010E94A313842F860FA82FB0E033
:10064000B9016A1B7B0B77FF03C0BD01621B730BF3
:10065000CE0CDF1CE617F7071CF6DF5FE7CF842F11
:10066000BFCF8093AC01C6CEECE0F1E086858093ED
:100670000A018389808B08958091A701882351F016
:100680009091B4019093AA018093A6011092A501C4
:100690001092A40108959091D20180E09D3180F0E4
:1006A000E82FF0E0E35BFE4F2081921738F431979A
:1006B000E081F0E0E058FF4F849108958E5FF0CF25
:1006C00008950F931F93CF93E82FCB012091D20170
:1006D00021502C3138F480E040DE80E0CF911F9132
:1006E0000F912DCECE2FC295CF70EF702091A80123
:1006F00021113AC020912B0130E043E0220F331F3B
:100700004A95E1F76217730780F54091AD014217F2
:1007100013065CF5442349F12091B301C2E02F3068
:1007200008F4C1E02091B501222309F458C0B3DFD9
:10073000E82FC33071F48091860190E0019663E167
:1007400070E00E94A31380938601865C9E4FDC01BB
:10075000CC91CC2309F44DC0C13011F0EE0FC2E0B2
:100760008E2FFBDD8C2FBACFC2E0E73010F4F0E023
:1007700016C0E730C1F40091870110E00F5F1F4FF2
:10078000C9DD65E00E9497139801290F311DC90149
:1007900066E070E00E94B71380938701FC01E05887
:1007A000FF4FE491C6CFE83009F0BCCF2091B501EE
:1007B000222399F02FE030E082239323892B51F4F8
:1007C0008091870190E0019666E070E00E94B71387
:1007D00080938701E0918701CACF23E0ECCF969503
:1007E000879563E070E00E94A313FC01EE0FFF1FEA
:1007F000D6CFE0E0B5CFCF93C091B40182E38C0FA8
:10080000873908F080E0F6DD83E06CDD8C2FCF9136
:10081000F1CDCF93C091B40180E0ECDD83E062DDE7
:100820008C2FCF91E7CD81E00895823019F4609349
:100830002B0108956111609326010895662369F0E4
:10084000813099F4809128019091D001891B680F23
:100850006093280182E080930B0180912701873407
:1008600018F086E4809327010895635E6093270162
:10087000F4CF60932C010895E82FF0E0E45FFE4F81
:1008800060A3089540911D0150911E012FEF280F84
:1008900081E090E002C0880F991F2A95E2F7662355
:1008A00039F0842B952B90931E0180931D010895A0
:1008B000809584239523F7CFCF93DF938CE091E04D
:1008C0009093B0018093AF0182E00CDDF894D0E00A
:1008D000C0E0E091AF01F091B001EC0FFD1F60812D
:1008E000CE018F579F4F0E94D2132196C832D10557
:1008F00081F765EA80E890E00E94D2137894DF9156
:10090000CF9108951092DE0130B181B12091B101F3
:10091000329536953695337090E0880F991F880F81
:10092000991F830F911D820F8093B1018091D30194
:10093000882309F447C01092D3018091DC01909183
:10094000B501992329F01F981092DF011092DC0164
:10095000811146C080910B018823A9F18091D801B3
:100960009091D9019093D5018093D4014096807ED7
:1009700061EC72E00E94A313809126018750990BCD
:10098000680F791F769567956093D2018091A001D9
:100990008823F1F081508093A0018091B5018111ED
:1009A00008C08EE884B981E08093DC011092DD01FB
:1009B000ADDC80910B01882329F080910B018150DF
:1009C00080930B0108958091D4019091D501CECFF1
:1009D0006D3118F770E060E084E05BDC85E0DBCF30
:1009E000813039F780910B0181115EC08091D60171
:1009F0009091D7014096DC0145E0B695A7954A95C0
:100A0000E1F74091280156E0969587955A95E1F7D0
:100A1000042E000C550B9A012E503140820F931F6B
:100A20009093D1018093D00180918F01E82FF0E065
:100A3000EE0FFF1FE057FE4F20813181BD01621B89
:100A4000730B9B01B183A0838F5F877080938F01AD
:100A5000660F771F660F771F6A0F7B1F8091270134
:100A600090E0841B950B825F9E4F880F991F681B37
:100A7000790B83E0161617060CF045C0615071091A
:100A80008150C1F7161617060CF057C037FD74C019
:100A900080918E011816F4F5861B80938E0186E8EE
:100AA00084B91092DC0182CF8091DA019091DB0150
:100AB0009093D7018093D601409635E0969587951F
:100AC0003A95E1F79093910180939001909393016F
:100AD0008093920190939501809394019093970154
:100AE00080939601909399018093980190939B0134
:100AF00080939A0190939D0180939C0190939F0114
:100B000080939E0173CF6115710509F4B9CF6F5FB2
:100B10007F4FB6CF660F771F653071055CF063506D
:100B200071097595679588E1861B80938E0185E034
:100B3000B0DBB5CF61E070E0F6CF6C3F8FEF7807A8
:100B4000DCF437FF19C080918E0187FF02C084500A
:100B5000A3CF84EE861B80938E018091D2018F31CA
:100B600008F49DCF8CEF9FEF9C01261B370BB9013A
:100B70007595679586E0DCCF8091D2018E3108F4BF
:100B80008ECF70E060E087E0D3CF81110BC0109270
:100B90006D0010926C0010926F0010926E006898B9
:100BA00048980895689A489A815090E0FC01ED5465
:100BB000FE4FE4912E2F30E0FC01EE0FFF1FE957AE
:100BC000FF4F8591949130936D0020936C0060915C
:100BD000B4019C0120523109662339F040916E0026
:100BE00050916F0024173507B8F3909369008093F4
:100BF00068008091B401811104C010926F001092BE
:100C00006E000895813019F410921A01089582300F
:100C100019F460931B010895833019F4609319014E
:100C20000895843011F460930D010895813019F412
:100C3000609330010895662389F0823021F4615079
:100C4000609331010895833021F461506093320143
:100C50000895843019F461506093330108954091F0
:100C60001C0160911D0170911E01842F98E0282FB6
:100C700030E02F5F3F4F27703327822FFB0102C0E8
:100C8000F695E7952A95E2F7E0FD02C0915079F7D5
:100C9000481721F0EBDB10DE80E0089581E0089535
:100CA000FF920F931F93CF93DF938C01D62FC72F03
:100CB000F42E8091CE019091CF01892B31F0E091FB
:100CC000CE01F091CF0189E009951093CF010093F7
:100CD000CE01012B41F0E091CE01F091CF016D2FBB
:100CE0007C2F8F2D099581E08093AE01DF91CF910C
:100CF0001F910F91FF9008952091BD01283080F43D
:100D0000E22FF0E0EE0FFF1FE254FE4F808391834D
:100D10002F5F2093BD0148E0C3DF8091BD0108959E
:100D20008FEF0895CF932091CE013091CF01833C76
:100D300011F4CF9194CFC0911701C1110AC0893B22
:100D400041F470E060E084ED97E0D6DF8C2FCF9126
:100D50000895C1E0FBCF282FCB01283039F4109241
:100D6000A7011092A5011092A4010895213B59F406
:100D70008091A70181508330B8F583E08093A7016B
:100D80008093A601EECF253BA1F46EE370E00E94B4
:100D9000A313892B49F58091A7018A3F28F58B5F22
:100DA0008093A7018093A6011092A5011092A4013F
:100DB00022CD2130C9F48091A4019091A501019622
:100DC00088382EE0920728F49093A5018093A4011F
:100DD00008951092A5011092A4018091A701882383
:100DE00019F081508093A7010895EF92FF921F930D
:100DF000CF93DF931091E001111106C0DF91CF91E5
:100E00001F91FF90EF900895E090E101F090E201D2
:100E1000C091BD01C1500C2E000CDD0BC7FD0EC0F2
:100E2000FE01EE0FFF1FE254FE4F0190F081E02D16
:100E3000B701812F099521978111F0CFE0EEF1E004
:100E4000838180838481958192838183339682E03C
:100E5000ED30F807A9F710920D0210920F021092D0
:100E60000E02C8CF8091BD01882319F08150809374
:100E7000BD01E091BD0190E080E0EE2341F0E15042
:100E8000FF0BEE0FFF1FE254FE4F808191814AE07D
:100E900070E060E005CF1F93CF93DF93162FD72F1D
:100EA000C42FF9018830B9F480911C0180938A0124
:100EB0001092890180E09EDA8091B60181112FC0E5
:100EC000809189018F5F8093890170E060E08EEDF1
:100ED00097E012DF24C0982F907F903B49F58091D6
:100EE0008901481718F18150883040F49091A90188
:100EF000992321F090911C018913B8DA812F9D2F3D
:100F00006DE570E00E94A313069771F4809189014A
:100F10008F5F80938901C81710F088E36BDA80E057
:100F2000DF91CF911F91089582E1F8CF80E0F6CF55
:100F3000903E51F480918901882371F0481760F048
:100F400080918A0193DAC1CF8A3041F46091A10186
:100F5000809189010995B0DC85DFE1CF8930F9F610
:100F600080918A0183DADBCF27E832E043E093CF38
:100F700027E832E044E08FCF22E036E044E08BCF38
:100F800026E136E044E087CF25E134E042E083CF3C
:100F90002EE134E042E07FCF29E334E041E07BCF33
:100FA0002CE334E043E077CF91E09093A90122E471
:100FB00034E048E070DF1092A9010895883039F4D8
:100FC0001092A1011092880180E014DA0CC08130E7
:100FD00001F590918801911108C06032710518F0F7
:100FE0008093880175D980E00895913081F46B3B3E
:100FF000710520F082E080938801E6CF61157105CC
:1010000091F3862F880F880F88708E5EDECF2ADFDF
:10101000EACF813811F0813E31F791E09093880159
:10102000813E41F48091A101865F8093A10150D956
:101030008BE4CBCF8091A1018F5FF7CF0F931F93EC
:10104000CF93DF93D82FC92F8B010CDFB8018D2FE1
:101050009C2FDF91CF911F910F914ECE813C39F49F
:1010600070E060E080E898E0E9DF80E00895823C8D
:1010700029F470E060E08AEF9BE0F6CF873B31F423
:1010800070E060E088EC97E037DEEFCF81E0089514
:10109000813C39F470E060E080E898E0CFDF80E0E8
:1010A0000895823C29F470E060E08EEC9BE0F6CF7E
:1010B00081E00895843011F58091CE019091CF01A7
:1010C0002EE08235920731F469E170E08DEA99E013
:1010D000B5DF0DC08D5A994061F49091B401923002
:1010E00040F0892F869596959695890FBADA80E01B
:1010F000089570E060E080E898E0EACF81E008952C
:101100000F931F93CF938B018830B9F480E072D98D
:101110001092AD0170E060E080912901D2DA109266
:10112000A701012B31F0C0E08C2FCF911F910F91BF
:10113000089581E08093B501F6CF813051F4693193
:10114000710588F38093B501B80180912901B9DA5E
:10115000EACF833061F58091AD018F3F19F08F5F49
:101160008093AD0180911A01882359F080911B0171
:1011700090E062EC71E00E9486130817190708F0EE
:1011800073DAB801809129019CDA80912C018823BF
:1011900051F290E062EC71E00E9486138017910793
:1011A00008F0C1CF70E060E082E29CE016C0813BB5
:1011B000B1F481E090E0EAD91DD980911901811143
:1011C000B2CF80910C01811104C00831110508F4DF
:1011D000AACF61E070E08DEA99E030DFA4CF813ED4
:1011E000C1F3813831F480910A0190E0CFD902D95E
:1011F0009ACF813C21F46091B40170E0ECCF823B46
:1012000081F41092AD0180910D019091170191111F
:1012100080911801811103C086E990E0E7CF86E94B
:10122000E6CF823E11F480E0E2CF66E970E0823CD6
:1012300091F28339C1F3833C29F470E060E08EECD5
:101240009BE0CBCF843C11F4D6DAACCF8D3B41F49C
:10125000F89488ED8FBD88E880BF7894A895FFCF7B
:101260008F3C29F470E060E083E194E0B6CF8A3BE4
:1012700099F40115110509F048C0C0911701CC235C
:1012800029F0B9DA1092170117DB4DCF70E060E05A
:1012900088EB97E031DD48CF833B29F470E060E0D4
:1012A00082E59EE09ACF873C99F490912901892F9D
:1012B00082958F708F5F83708295807F9F70892B5E
:1012C0008093290170E060E0FCD9F6DA94DA2BCF44
:1012D000873BB1F481E08093A801C8018F739927FF
:1012E000892B09F031CF20912901822F8F708F5FD8
:1012F000207F6BE00E949713922B9093290124CFBB
:10130000873E19F41092A801BFCFC0911701C111F7
:1013100022C08A3C31F46FDA81E080931701CCDA85
:1013200003CF853C39F467DA70E060E08EED9FE032
:1013300085DEFACE863C31F45EDA70E060E088E269
:1013400090E1F6CF893B39F4012B29F470E060E09D
:1013500080EC97E09FCFC1E0E7CEBF92CF92DF92C3
:10136000EF92FF920F931F93CF93DF93C82F8B01C0
:10137000D0900901D091080180910C01B090AB018F
:10138000811102C0BB24B394E0900D01809117013C
:101390008111E0901801EE2009F43FC041E0E4160D
:1013A00021F080910A018D17C0F1F6E9FF2EC0905F
:1013B000A701B8018C2FCFDC8091A701882309F405
:1013C000E4C1C11004C09091B4019093AA019C2F74
:1013D0009D7F983021F51092A301CA3019F4009135
:1013E0000A0110E0D016110630F4D017110619F0DA
:1013F00010F000930A01C801C9D833D981E0809365
:101400000501D0E08D2FDF91CF911F910F91FF90BB
:10141000EF90DF90CF90BF900895FD2EC8CFC13CD4
:1014200009F4B6C1C23C49F48091B4018F1508F0AB
:101430003DC08F2D16D920D9E4CFC43C41F480E0C3
:101440000E94FA0170E060E082E29CE0A5C19FE4A6
:101450009C0F923008F056C080910C01882349F10E
:10146000C80168E170E00E94A313892B51F6209116
:10147000B4010115110541F5C23B01F58FEF8093D1
:101480000501C091B401809105016B2D70E0082E1B
:10149000000C990B0E9486138C0F911D77D88093B6
:1014A0000A01C81719F08D1301C0B3D980910A0140
:1014B000C1CF6091140170E0C801D5CF2D17F0F6AF
:1014C000D216F8F281E0DBCFE0911401F0E0CF0119
:1014D00066E371E00E9486138017910710F42D17C0
:1014E00068F6CF016CE672E00E94861380179107C0
:1014F00040F6D21630F27FD970E060E082E29CE0E4
:101500009DDDBFCF9FE19C0F923020F480910501BB
:10151000819575CFC13009F085C00932110511F4EC
:10152000C0930501882381F1C091AA01D0E090E029
:10153000BE010E9486139C01E091A601F0E0BF016C
:101540000E94B713462FC9018C1B9D0BBF010E943F
:10155000B713242F261B8091A4019091A5016EE35F
:1015600070E00E94A313822F90E00E9486136CE328
:1015700070E00E94A313842F861B461301C081E0F4
:101580008093B2018093AC01C091B2012091B4016B
:101590004C2F421B550BCA0160918B0170918C013D
:1015A0006F5F7F4F70938C0160938B01009709F4FC
:1015B00028CF40E052E097FF06C040E450E02338D7
:1015C00010F440E051E05695479597FD01969595AA
:1015D00087950097C1F74617570708F012CFC21733
:1015E000E8F4CFEFC20FE0911C01F0E0EE0FFF1F17
:1015F000E35AFE4F0190F081E02D8FEF8C0F09959B
:10160000882339F0D091B2018C2F0E94FA01D09337
:10161000B20110928C0110928B01F3CE2C1718F7A7
:10162000C1E0E0CFC530A9F48091B401813508F460
:10163000E8CE90E0801B910B8739910514F086E984
:1016400090E08035910514F480E590E08093B2013C
:10165000D8CEC63079F49091B4018091AC0198173E
:1016600008F0CFCE090F111D90E08017910774F399
:10167000C801E7CFC73069F49091B2018091B401FD
:10168000891710F48F5FE2CF981708F0BACE815017
:10169000DDCFC33C99F0C63C49F581E090910C0147
:1016A000911180E080930C0107D9B3D88091B401E7
:1016B00090E00E94C60280930A01BCCE60911D0199
:1016C00070911E0190E080E020E0AB01082E02C086
:1016D000569547950A94E2F74170240F0196883099
:1016E000910599F72230C8F2D1E08CCED091170144
:1016F000D111FACFC33B59F4012B09F082CEEE2071
:1017000011F086E9F82E8F2D0E9431037BCEC33E67
:1017100019F480910A01F8CFC53C49F480E00E9499
:10172000FA0170E060E08EED9FE088DC6BCE70E047
:1017300060E084EB97E0C73B99F0CA3C59F4809194
:10174000B40180931A0180911C0180931F01B4D8C9
:1017500052D858CECA3B31F470E060E08CEB97E091
:10176000CBDA50CEC83C09F0BFCF8091310188233D
:1017700041F0109231018091B4010E94FA0149D8E0
:1017800041CE81E080933101F6CFCC2009F41FCE09
:1017900070E060E080E898E051DC33CECF93C091F8
:1017A0001701C11125C0813C41F470E060E080E880
:1017B00098E044DC8C2FCF910895823C29F470E0AE
:1017C00060E08EE298E0F5CF833C51F480912001F7
:1017D00090E0019687709927809320016DD8EACF19
:1017E000873B31F470E060E084EC97E085DAE2CF8B
:1017F000C1E0E0CF282FCB01213C39F470E060E05C
:1018000080E898E01BDC80E00895223C29F470E039
:1018100060E088E498E0F6CF213B41F46EE370E0AD
:1018200092D7892B81F70E94FB03EDCF213E41F433
:101830006EE370E088D76F5F609325013DD8E3CFFA
:1018400081E008950F931F93CF93DF93C82F8B01EF
:10185000873B91F480E00E94FA0181E08093A80127
:10186000C8018F739927892B09F4A6C0B80180910C
:101870002A010E94610323C08079803911F590917B
:101880000E0120910F018C2F8F70813029F4822F4F
:10189000921748F4892F07C080911A01811103C063
:1018A000822F2917B8F30E94FA01C33C09F045C002
:1018B0000E94FB0370E060E080E898E0BFDBD0E0CE
:1018C0001BC0803811F480E0EECFC83009F08AC028
:1018D0001092AD0170E060E080912A010E946103E6
:1018E000D0911701D1117CC0CA3B09F079C070E0DA
:1018F00060E08CEC97E000DA8D2FDF91CF911F91A3
:101900000F910895C33089F68091AD018F3F19F092
:101910008F5F8093AD0180911A01882309F4A6CFCF
:1019200080911B0190E062EC71E0F0D60817190776
:1019300008F49CCF0E94340399CF60910A0170E0B3
:10194000C43C41F0C43B49F40E94090410921202C5
:1019500061E070E08DEA99E0B1CFC53C19F466E929
:1019600070E0F8CFC33B81F4C8016EE370E0EBD6C2
:10197000892B09F0B5CF8091CE019091CF01DF91F5
:10198000CF911F910F916BC9C73C11F590912A011E
:10199000892F82958F708F5F83708295807F9F7073
:1019A000892B80932A0170E060E00E9461030E940D
:1019B0005C040E94FB0383CF20912A01822F8F7049
:1019C0008F5F207F6BE0B3D6922B90932A014ECF8E
:1019D000C73E09F085CF1092A8010E945C046FCF2A
:1019E000D1E08ACFC13009F08DCF0931110508F45B
:1019F00066CFC093B5013ACF86E884B91092DC0176
:101A00001092DD010E948601E1E6F0E080818260B3
:101A10008083139A87EE83B908950F931F93CF9312
:101A20001092B80180911002909111029C012F5FD9
:101A30003F4F88279078822B932B909311028093AD
:101A400010029091B6012FB1822F8095881F8827B0
:101A5000881F8093B6019817B9F01092B501809352
:101A6000B60190911202892F27FD38C080699F70BE
:101A70009F3091F58093120290E080E00E94640113
:101A80001092110210921002009110021091110296
:101A90008091B501882379F1B80183E00E94490162
:101AA000A4D907701127012B99F410928D0181E0C0
:101AB0008093DF01A1DFC0918D01C11105C00E949B
:101AC000860181E08093D301CF5FCF71C0938D01F8
:101AD000CF911F910F9108958F5FCCCF8F7E95FD91
:101AE00008C08068809312028091100290911102C8
:101AF000C5CF806CF7CFC09112028C2F807F803BC6
:101B000049F470E060E081E00E944901C8010E9450
:101B10006401D1CFB80181E00E944901C4FF0FC028
:101B2000C5FDF4CF0831110530F210921102109268
:101B30001002C062C093120290E080E0E8CFCC2394
:101B400009F4B9CFC5FF03C00E946801B4CF0231C8
:101B5000110508F4B0CFC064C093120290E080E099
:101B60000E946401F1CF8091DE0181110E94820404
:101B70008091B801811151CF0895EF92FF920F9398
:101B80001F93CF93DF93EC0108E017E082ECE82E7F
:101B9000FF24F394209739F4DF91CF911F910F9197
:101BA000FF90EF9008958091AE018111F5CF809163
:101BB000B401843068F482E00E944301C7010197B8
:101BC000F1F780E00E944301CEDF0FD92197E2CFE9
:101BD00080E00E944301C801F2CF0F931F93CF937F
:101BE000DF93C82F06EA811102C00CE0C1E0D0915A
:101BF0001C0110E0809120010E94360282E30E94C5
:101C0000FA01D0931C01C801B8DF809120010E9425
:101C1000360280E00E94FA01D0931C018AEF90E026
:101C2000ACDFC15039F78D2F0E9436028AE992E06D
:101C3000DF91CF911F910F91A0CFCF93DF93282FEA
:101C400064E675D5382FC92F892F6AE070D5D92F52
:101C5000243650F0832FC1DF8C2F6AE068D5BDDFBA
:101C60008D2FDF91CF91B9CFCA30B0F7F9CFCF9395
:101C7000DF93D82FC3E080910A010E94FA0188EC1B
:101C800090E07BDFDD2319F080E991E076DF80E0F2
:101C90000E94FA0188EC90E070DFC15061F7DF919B
:101CA000CF910895FF920F931F93CF93DF93D82F77
:101CB0008B01C091210181E08093A301C43079F4AC
:101CC000F090A7018D2F47D8FF20A1F08091A701A8
:101CD000811110C070E060E080E898E0AFD9D830A2
:101CE00071F0D13C09F00AC170E060E080E898E052
:101CF000A5D908C0D83041F481E08093030181E088
:101D00008093040180E04EC1D23C69F41092A70197
:101D10008C2F90E0019666E070E029D58093210138
:101D20000E945C04EFCFD13BC1F480910201012BF2
:101D300041F49FEF863618F4823018F491E09093C6
:101D4000030190910301890F21F481E08093020146
:101D5000D9CF8736D8F386E6F9CFD13E59F48091B2
:101D60000301819580930301809104018195809303
:101D70000401D6CFD23BE1F481E08093030180914E
:101D80000201823018F081508093020181E080933B
:101D90000401C23008F0F9C000FDB4CFEC2FF0E030
:101DA000E45FFE4F86898F3F09F4ACCF8F5FC3C0DD
:101DB000D13009F0FDC00932110511F4D0930301AF
:101DC00090918501892F880F97FD809590E069E0BB
:101DD00070E09CD4292F80918401682F660F87FDC5
:101DE00060958091010170E090E090D4290F80917E
:101DF0008301682F660F87FD60958091000170E078
:101E000090E084D4622F690F80910201680F7727D8
:101E1000771F8091A701813091F48091A401909166
:101E2000A50125E0969587952A95E1F724E730E00E
:101E3000A901481B590BCA0169D4B90184D4862F62
:101E40000E94FA0100FD09C00E948A01982F91703A
:101E500080918501890F8093850180918401909103
:101E60008201890F809384010E948A0165E25FD418
:101E700080918301890F809383010E948A018F736F
:101E800031F40E948A016DE052D490938201C09196
:101E90000101CC2339F00E948A018F7319F4C150DB
:101EA000C09301010E948A01811108C00E948A0129
:101EB0006EE03DD49093010110928401C091000125
:101EC000C33038F00E948A018F7119F4C150C09359
:101ED00000010E948A018F7729F40E948A0187708D
:101EE000809300010932110519F481E08093040107
:101EF0008091B101080F0093B10104CFD23C09F4E5
:101F000007CFD43C21F48C2F90E0059604CFD13B31
:101F100051F5C23090F400FDF5CEEC2FF0E0E45F17
:101F2000FE4F868990910401891B8F3F08F08EEF48
:101F3000883008F488E0868BE5CEC53009F0E2CE23
:101F40008091240190910401890F823040F482E055
:101F500080932401809124010E94FA01D3CE893715
:101F6000B8F388E7F5CFD13E09F4FECED23B09F4B1
:101F70000DCFD23E09F4D4CED53C81F470E060E0C0
:101F80008EED9FE05BD880E0E7CFC53009F0BACE98
:101F9000809124018330F0F28150DACF81E0D1309A
:101FA00009F4A0CFDF91CF911F910F91FF90089579
:101FB000D13C09F499CED43CE1F6A5CF0F931F9301
:101FC000CF93DF93D82F8B01883031F48091A30118
:101FD000882311F088E066DE8D2F8079803999F4AE
:101FE00081E08093A201C091A301CC2311F0C0E055
:101FF00004C080910A010E94FA018C2FDF91CF91D9
:102000001F910F910895803831F41092A20180E061
:102010000E94FA01ECCFC1E0D13079F7C091A20162
:10202000CC2359F08091A301882309F3B80181E002
:10203000DF91CF911F910F9135CE07331140B8F248
:10204000D093B50170E060E080E00E946103D5CFDD
:10205000FF920F931F93CF93DF93C82F8B01F090C4
:102060000A0180798039C9F5DC2FDC70C1F010924B
:10207000A201D0E08091A201882319F0B8018C2F31
:102080009DDFF0920A01C83089F5B80188E0DADBFB
:102090008D2FDF91CF911F910F91FF90089591E0C7
:1020A0009093A201EC2FEF70F0E0E45FFE4F80A16F
:1020B0002FEF280F263928F480930A011092A301EC
:1020C000D9CF9093A3018739A0F28759990B66E085
:1020D00070E04DD380932101CDCF803829F4109248
:1020E000A20180E00E94FA01D1E0C4CFC13061F4C6
:1020F0008091A201811117C0B80181E0DF91CF91D9
:102100001F910F91FF909ECBC33019F4B80183E06B
:10211000F5CFC63C51F40E94FB0370E060E080E81C
:1021200098E00E941E08D0E0B3CFC73B09F0B0CFC3
:1021300070E060E080ED97E00E947C06F4CF2F9382
:102140002FB72F933F938F939F93AF93BF93EF93AB
:10215000FF938091DD018823E9F0E091DC0120B15B
:1021600031B1F0E0EE0FFF1FDF01A852BE4F2D93FB
:102170003C93EC52FE4F808191818217930708F4C3
:1021800001962817390708F401979183808381E02D
:102190008093DE0181E08093DD01FF91EF91BF919B
:1021A000AF919F918F913F912F912FBF2F911895B4
:1021B0008F9381E08093B8018F9118958F9381E080
:1021C0008093B7018F911895F89485B7877F85BF65
:1021D00090E088ED0FB6F894A8958FBD90B7977FE3
:1021E00090BF0FBE81E088B989E08CB98CE380BBD9
:1021F00082E88093720081E1809371008FEF90E01C
:10220000909369008093680080E882BB87BD8CB79B
:1022100088608CBFA89580E480BFEEDB789481E075
:102220000E94720170E060E08AE598E00E947C06FE
:102230001092AE010E94FB039FB1892F8095881FE9
:102240008827881F8093B60197FFC6C08CE091E075
:102250009093B0018093AF0182E00E947201F894E4
:1022600080E890E097D2853A79F40091AF0110911F
:10227000B001C1E8D0E0CE018DD2F80181938F0189
:102280002196C93AD105B9F7789480911A01811144
:102290000E94340370E060E082E996E00E947C06D0
:1022A00061E070E080E898E00E947C0640E4242E23
:1022B000552453945EEF652E712CCC24C394D12CFD
:1022C000312C412C70E8872E78E0972E0E94F5067D
:1022D0008091BB019091BC01009751F06091B901D0
:1022E0007091BA010E941E081092BC011092BB01AD
:1022F0008091B501882349F180E00E94FA01A895F8
:10230000F3E4F0BF1F989FB1892F8095881F88271D
:10231000881F8093B60197FFF6CF0E9468018CB7A3
:1023200088608CBF1092DE011092B8011092B70144
:102330008091B501811185C022E020930B018CB7FB
:10234000877F8CBF59DBA89520BE0DDC1092AE01B3
:10235000C091CE01D091CF01809131018823E9F065
:102360008091A801811119C080911C01F30102C064
:10237000F595E7958A95E2F7E0FD0FC01091B4015D
:1023800080913201181748F0009133010E944B03ED
:10239000101708F0880F0E94AD01F4E0C331DF0789
:1023A00009F089C0C0E7D0E0FE01849180538A30F3
:1023B00008F070C012DC8CE291E0DFDB2196F0E0E7
:1023C000CF37DF0789F79092BC018092BB01109252
:1023D000BA011092B9017ACFC0E08C2F0E94FA01A5
:1023E00083E190E0CADB8C2F86950E94FA0183E19D
:1023F00090E0C3DB9FB1892F8095881F8827881FB5
:102400008093B60197FD1AC0CF5FC03431F765E104
:1024100081E00E941E040E945C04C6E98C2F0E9489
:10242000FA0184E090E0A9DBC150C1F70FCF8C2FF7
:102430000E94FA018DE090E0A0DBC150C111F7CFFE
:1024400005CF8091DF01882309F186B78F798062FB
:1024500086BF86B7806186BF889586B78F7E86BF28
:102460008091B70181111092B5018091DE0188231E
:1024700031F050920B015092D3010E94820480915E
:10248000B801882309F454CFC8DA52CF86B78F79C0
:102490008064DECF10E0812F8295880F80720E94C9
:1024A000FA0180E190E069DB1F5F1931A1F78AE949
:1024B00092E063DB80CF2EE0C235D20799F03FE097
:1024C000CE3DD30729F080E1C832D80709F0D6C045
:1024D0008091A301813009F0D1C08091A2018823AD
:1024E00009F4CCC0C0912101C33009F45AC0C8F42A
:1024F000C230B9F1EC2FF0E0E45FFE4FD68986E9F7
:102500000E94FA0183E090E0CC2319F08D2F86958C
:1025100090E033DB80E00E94FA018D2F90E02DDB0C
:10252000D5CEC53009F0D2CEC0912401CC0FC73929
:1025300008F0C6E9D4E08C2F0E94FA0185E090E013
:102540001CDB809124010E94FA0181E490E015DBFC
:10255000D15089F780ED92E010DB80E00E94FA0113
:10256000B5CE10910A01D0911C01C0E081E0CC23CE
:1025700019F0C53019F485E00E943602812F0E94BF
:10258000FA0181E290E0F9DA80E00E94FA0182E447
:1025900090E0F3DACF5FCA3049F78D2F0E94360200
:1025A00095CE0E948A018F73082F10E00E948A0145
:1025B00067E0BDD0760102C0EE0CFF1C9A95E2F7F1
:1025C0000E948A0165E0B3D0E60102C0CC0FDD1F96
:1025D0009A95E2F7CE0DDF1D0E948A0190E0BE01C0
:1025E000C6D0C80FD91FC739D10524F0E6E9CE2FD0
:1025F000F0E0DF2F8C2F0E94FA01C801BEDA7E01C5
:1026000033E0F594E7943A95E1F7E11002C0EE2447
:10261000E394F12CC801B1DA5E01AE18BF08E50100
:10262000B7FE02C0C32DD42D8C2F0E94FA010E9448
:102630008A01837039F4C801A0DACE019595879597
:102640000E94FA0182E0A816B10424F70E948A01D0
:102650006DE06DD0860102C0000F111F9A95E2F760
:102660000E948A01E801219790E0C823D923C00F76
:10267000D11F80E00E94FA01CE0151CFEBE0CE3CA9
:10268000DE0751F48091D201D8DA809117018111CF
:102690009ACE88EE93E043CFF8E0CE32DF0721F404
:1026A0008091D001CADAF5CF2BE0CA3FD207B9F446
:1026B0008091B60181110ACE80910A010E94FA012F
:1026C00084E690E05ADA80E00E94FA0180912501C8
:1026D00090E068EE73E01AD08456910920CFC85478
:1026E000D84049F480E0C3DA81E0C1DA80E0BFDAA3
:1026F00080ED97E014CF86B78F7986BF86B780616B
:1027000086BF889586B78F7E86BFE0CD002455278B
:1027100004C0080E591F880F991F009729F076955D
:102720006795B8F37105B9F7802D952F0895991B1A
:1027300079E004C0991F961708F0961B881F7A95B8
:10274000C9F780950895AA1BBB1B51E107C0AA1FBA
:10275000BB1FA617B70710F0A61BB70B881F991F42
:102760005A95A9F780959095BC01CD01089597FBE6
:10277000072E16F4009406D077FD08D0E4DF07FC9E
:1027800005D03EF4909581959F4F08957095619581
:102790007F4F0895E199FECF1FBA8EBBE09A99272B
:1027A0008DB30895262FE199FECF1FBA8EBBE09A14
:1027B00081500DB2021639F01CBA2DBB0FB6F89439
:0C27C000E29AE19A0FBE0895F894FFCF52
:1027CC00080E180101010004820A460200010A0ADF
:1027DC000A8282820107050100000000000100004E
:1027EC00070429439602072D0018390400781E9817
:1027FC0001010F460E01110114010201000000003D
:10280C000000000100000000000000000100002199
:10281C000123022503270429052C06FF065A02581A
:10282C0002580258025802580258025802C5054371
:10283C0002460249024C024F0252025502050403A1
:02284C0000008A
:00000001FF
