:1000000024C100003FC100000C944F103BC1000010
:1000100039C100000C94491035C1000033C1000003
:1000200031C100002FC100002DC100002BC1000014
:1000300029C1000027C100000C94101023C100004A
:1000400021C100001FC100001DC100001BC1000034
:1000500019C1000017C1000015C1000013C1000044
:1000600011C100000FC100000DC100000BC1000054
:10007000303131352E323032332D30362D313300A0
:100080000105041410111501000100010002000215
:100090000002000200030003000300030004000448
:1000A000000500050006000600060007000800081D
:1000B00000090009000A000A000B000C000D000DE9
:1000C000000E000F001000100011001200130014A9
:1000D00000150016001700170018001A001B001C5E
:1000E000001D001E001F002000210022002400250A
:1000F000002600270029002A002B002D002E002FAB
:10010000003100320034003500370038003A003B3F
:10011000003D003E004000420043004500470048CB
:10012000004A004C004E005000510053005500574B
:100130000059005B005D005F0061006300650067BF
:100140000069006B006D006F00710074007600782C
:10015000007A007D007F0081008400860088008B8B
:10016000008D0090009200940097009A009C009FE0
:1001700000A100A400A600A900AC00AE00B100B42C
:1001800000B700B900BC00BF00C200C500C800CB6A
:1001900000CD00D000D300D600D900DC00DF00E2A3
:1001A00000E600E900EC00EF00F200F500F900FCC9
:1001B00000FF0001010203030405060708090B0CF8
:1001C0000D0F10121315171A1B1C1E20222426288F
:1001D0002A2C2E30323436383A3C3E404244464790
:1001E0004A4C4E505255575A5D6064676B70747A32
:1001F0007F858C939AA3ABB6C0CBD7E4F1FFFFFF0A
:10020000FFFFFFFFFFFFFFFFFFFFFFFFFFFFFFFFFE
:10021000FFFFFFFFFFFFFFFFFFFFFFFFFFFFFFFFEE
:10022000FFFFFFFFFFFFFFFFFFFFFFFFFFFFFFFFDE
:10023000FFFFFFFFFFFFFFFFFFFFFFFFFFFFFFFFCE
:10024000FFFFFFFFFFFFFFFF000011241FBECFEFE6
:10025000D4E0DEBFCDBF11E0A0E0B1E0E4E5F6E21E
:1002600002C005900D92AC37B107D9F722E0ACE798
:10027000B1E001C01D92AD30B207E1F70E94551008
:100280000C942813BDCEF89498ED9FBD83BF78944D
:100290000895482F362F272FEAEDF1E090E080E017
:1002A000508151110BC063E070E00E94CA12FC0142
:1002B000E652FE4F40833183228305C00196339678
:1002C0008031910569F70895BC0180910C02E1CF5E
:1002D00010920C0210920B0210920A0281E080939D
:1002E000A80108950F931F93CF93C82F08EA17E032
:1002F000C15020F4CF911F910F91089582E0C3DF88
:10030000C8010197F1F780E0BEDFF2CF83B18864C6
:1003100083B908958FB182FB882780F991E08927FE
:100320008093B0010895E0910601F09107013196A4
:10033000FB70F460F0930701E09306018091AB013C
:100340008B5A8093AB01E4918091AB018E0F08959D
:10035000882321F0813031F0819A05C081989198ED
:10036000899808958198919A899A0895CF93DF93F7
:1003700000D00F92CDB7DEB720917801309179018E
:1003800040917A0129833A834B83FE01319650E0F4
:1003900040E0682F70E0A1E0B0E09B01042E02C0B5
:1003A000359527950A94E2F7922F937081919D01DC
:1003B00001C0220F8A95EAF7992329F09130C1F004
:1003C00080B3822B19C080B32095822380BB82B377
:1003D000822382BB81B3282321BB4E5F5F4F46300F
:1003E0005105D9F60F900F900F90DF91CF9108959E
:1003F00090B3822F8095892380BB82B3822B82BBEE
:1004000081B3282BE9CFCF93C82F8091AF01811101
:100410000BC0ACDF91E0C11101C090E081E0C135BB
:1004200008F480E0890F94DFE0911C01F0E0EE0F0A
:10043000FF1FE859FE4F0190F081E02D8C2F0995A8
:100440008091AE018C138093AD01C093AE01C09337
:10045000AC0182E0C83020F081E0C03108F080E0DB
:10046000CF9111CFCF93DF93C82FD091AE0180E011
:10047000CADFC0931C018D2FDF91CF91C4CF8111B2
:1004800082E074CF81118AE071CF811188E06ECF54
:10049000811188E26BCF811180E268CF811182E205
:1004A00065CF81118AE262CF81E00895E82FF0E004
:1004B000ED54FE4FE491F0E080916C0090916D005E
:1004C0008E179F0798F480916C0090916D000196B3
:1004D00090936D0080936C0020916C0030916D00C2
:1004E00081E02E173F0709F080E0089580916C00AD
:1004F00090916D00E817F90778F780916C00909162
:100500006D000197E5CFCF93DF9300D000D000D0EE
:10051000CDB7DEB720910C014091C8015091C901BF
:100520004F55574009F422E0843059F46093180184
:1005300026960FB6F894DEBF0FBECDBFDF91CF91E8
:1005400008956623A9F3823019F497E9961B692F61
:1005500096E0EFE2F1E0DE01119601900D929A959E
:10056000E1F78150990B880F991FA1E0B0E0AC0F23
:10057000BD1F8A0F9B1FDC01ED91FC91E20FF11D65
:100580006083D6CFCF92DF92EF92FF920F931F93AB
:10059000CF93DF939C0150910C0190911701E2E001
:1005A000911101C0E52FF0E0E45FFE4F42814093DE
:1005B0000901858180930801E92FF0E0E45FFE4F97
:1005C000C185642F70E0552381F0C13071F4860F2E
:1005D000972F911D95958795DF91CF911F910F9141
:1005E000FF90EF90DF90CF900895261737079CF18A
:1005F000821713068CF3511102C0822FEDCF841B9A
:100600006C2F6150770B8B01E82EF12CC7010E94F3
:10061000FB126093A5016695E62FF0E0842FD12CA4
:10062000C12CD0E0DC17C1F2C601B8010E94E7126C
:10063000842F860FA82FB0E0B9016A1B7B0B77FFD0
:1006400003C0BD01621B730BCE0CDF1CE617F7075E
:100650001CF6DF5FE7CF842FBFCF8093A601D3CEF8
:10066000ECE0F1E0868580930A018289808B089511
:100670008091A101882351F09091AE019093A40143
:100680008093A00110929F0110929E0108950F93F4
:100690001F93CF93E82FCB014091CC012FEF240F74
:1006A0002C3138F480E062DE80E0CF911F910F9111
:1006B0004FCECE2FC295CF70EF702091A2012111A5
:1006C00021C020912A0130E053E0220F331F5A95B8
:1006D000E1F762177307B8F45091A7015217130698
:1006E00094F42091AD01C2E02F3008F4C1E02091D4
:1006F000AF01222309F465C080E04D3108F057C0F6
:10070000E0E01EC0C2E0E73010F4F0E016C0E730D1
:1007100089F50091810110E00F5F1F4F04DE65E055
:100720000E94DB129801290F311DC90166E070E0BB
:100730000E94FB1280938101FC01E058FF4FE4917D
:10074000C33071F48091800190E0019663E170E024
:100750000E94E712809380018B5C9E4FDC01CC915C
:10076000CC23C9F1C13011F0EE0FC2E08E2FFEDDB7
:100770008C2F9BCFE83009F0BACF2091AF01222314
:1007800099F02FE030E082239323892B51F480915C
:10079000810190E0019666E070E00E94FB12809378
:1007A0008101E0918101B1CF23E0ECCF8E5FE82F92
:1007B000F0E0E85BFE4F90814917C0F73197E08188
:1007C000A4CF9695879563E070E00E94E712FC0144
:1007D000EE0FFF1FB2CFE0E0C9CFCF93C091AE01C3
:1007E00089E18C0F873908F080E00DDE82E07ADD48
:1007F0008C2FCF9108CECF93C091AE0180E003DE65
:1008000083E070DD8C2FCF91FECD81E008958230A2
:1008100019F460932A0108956111609325010895E8
:10082000662369F0813099F4809127019091CA0183
:10083000891B680F6093270182E080930B018091F0
:100840002601873418F086E4809326010895635EBC
:1008500060932601F4CF60932B010895E82FF0E018
:10086000E45FFE4F678F089520911D013FEF380F21
:1008700081E090E001C0880F3A95EAF7662321F005
:10088000822B80931D01089580958223FACFCF9308
:10089000DF938CE091E09093AA018093A901F894F2
:1008A000D0E0C0E0E091A901F091AA01EC0FFD1F9A
:1008B0006081CE018F579F4F0E9416132196C3323D
:1008C000D10581F765EA80E890E00E9416137894DC
:1008D000DF91CF9108951092D80130B181B120916C
:1008E000AB01329536953695337090E0880F991F9D
:1008F000880F991F830F911D820F8093AB01809108
:10090000CD01882309F450C01092CD018091D60109
:100910009091AF01992329F01F981092D90110925C
:10092000D60181114AC080910B016091CE01709176
:10093000CF01882341F06091D2017091D30170936F
:10094000CF016093CE01605F7F4FA6E076956795FB
:10095000AA95E1F780E098E50E94E71280912501D1
:100960008350990B680F791F769567956093CC013A
:1009700080919A018823C9F0815080939A018091D7
:10098000AF01811108C08EE884B981E08093D6015F
:100990001092D701BBDC80910B01882329F0809154
:1009A0000B01815080930B0108956D3140F770E089
:1009B00060E084E06EDC85E0E0CF813061F780911B
:1009C0000B0181115EC08091D0019091D1014096C0
:1009D000DC0145E0B695A7954A95E1F740912701DE
:1009E00056E0969587955A95E1F7042E000C550B25
:1009F0009A012E503140820F931F9093CB01809328
:100A0000CA0180918901E82FF0E0EE0FFF1FE65741
:100A1000FE4F20813181BD01621B730B9B01B183AD
:100A2000A0838F5F877080938901660F771F660FA1
:100A3000771F6A0F7B1F8091260190E0841B950B26
:100A4000825F9E4F880F991F681B790B83E01616F3
:100A500017060CF045C0615071098150C1F7161698
:100A600017060CF057C037FD74C080918801181626
:100A7000F4F5861B809388018DE084B91092D6012D
:100A800087CF8091D4019091D5019093D10180932B
:100A9000D001409635E0969587953A95E1F7909389
:100AA0008B0180938A0190938D0180938C019093A8
:100AB0008F0180938E019093910180939001909388
:100AC0009301809392019093950180939401909368
:100AD000970180939601909399018093980173CF29
:100AE0006115710509F4B9CF6F5F7F4FB6CF660FFF
:100AF000771F653071055CF06350710975956795D6
:100B000088E1861B8093880185E0C3DBB5CF61E077
:100B100070E0F6CF6C3F8FEF7807DCF437FF19C039
:100B20008091880187FF02C08450A3CF84EE861B8A
:100B3000809388018091CC018F3108F49DCF8CEF98
:100B40009FEF9C01261B370BB9017595679586E0D1
:100B5000DCCF8091CC018E3108F48ECF70E060E064
:100B600087E0D3CFE82F811105C010926D0010925D
:100B70006C000895E150F0E0EE0FFF1FE957FF4FC2
:100B8000E491F0E0F0936D00E0936C000895813003
:100B900019F410921A010895823019F460931B0120
:100BA0000895833019F4609319010895843011F485
:100BB00060930D01089560911C0140911D0150E06A
:100BC000862F98E0282F30E02F5F3F4F2770332784
:100BD000822FFA0102C0F595E7952A95E2F7E0FD2C
:100BE00002C0915079F7681721F03CDC50DE80E0BC
:100BF000089581E00895FF920F931F93CF93DF93A1
:100C00008C01D62FC72FF42E8091C8019091C90175
:100C1000892B31F0E091C801F091C90189E0099573
:100C20001093C9010093C801012B41F0E091C80164
:100C3000F091C9016D2F7C2F8F2D099581E0809354
:100C4000A801DF91CF911F910F91FF9008952091FE
:100C5000B701283080F4E22FF0E0EE0FFF1FE854D8
:100C6000FE4F808391832F5F2093B70148E0C3DF5D
:100C70008091B70108958FEF0895CF93833C11F4CD
:100C8000CF9199CFC0911701C1110AC0893B41F49E
:100C900070E060E087E797E0DADF8C2FCF9108956E
:100CA000C1E0FBCF282FCB01283039F41092A101ED
:100CB00010929F0110929E010895213B59F480915A
:100CC000A10181508330B8F583E08093A101809326
:100CD000A001EECF253BA1F46EE370E00E94E71285
:100CE000892B49F58091A1018A3F28F58B5F80937C
:100CF000A1018093A00110929F0110929E016DCDE1
:100D00002130C9F480919E0190919F01019688380D
:100D10002EE0920728F490939F0180939E010895FE
:100D200010929F0110929E018091A101882319F0D9
:100D300081508093A1010895EF92FF921F93CF936A
:100D4000DF931091DA01111106C0DF91CF911F914D
:100D5000FF90EF900895E090DB01F090DC01C091EE
:100D6000B701C1500C2E000CDD0BC7FD0EC0FE01FB
:100D7000EE0FFF1FE854FE4F0190F081E02DB70108
:100D8000812F099521978111F0CFEAEDF1E0838160
:100D900080838481958192838183339682E0E730DA
:100DA000F807A9F7109207021092090210920802A0
:100DB000C8CF8091B701882319F081508093B70183
:100DC000E091B70190E080E0EE2341F0E150FF0BAD
:100DD000EE0FFF1FE854FE4F808191814AE070E0E2
:100DE00060E009CF1F93CF93DF93162FD72FC42F27
:100DF000F9018830B9F480911C018093840110922C
:100E0000830180E000DB8091B00181112FC08091CF
:100E100083018F5F8093830170E060E081E897E059
:100E200016DF24C0982F907F903B49F58091830175
:100E3000481718F18150883040F49091A30199230C
:100E400021F090911C0189130DDB812F9D2F6DE501
:100E500070E00E94E712069771F4809183018F5F22
:100E600080938301C81710F088E3CDDA80E0DF912A
:100E7000CF911F91089582E1F8CF80E0F6CF903EA8
:100E800051F480918301882371F0481760F08091BC
:100E90008401E8DAC1CF8A3041F460919B018091EE
:100EA00083010995F4DC85DFE1CF8930F9F6809183
:100EB0008401D8DADBCF23E832E043E093CF23E8A4
:100EC00032E044E08FCF27EC35E044E08BCF27E0E1
:100ED00034E042E087CF20E134E042E083CF2BE2F0
:100EE00034E041E07FCF2EE234E043E07BCF91E07D
:100EF0009093A30124E334E048E074DF1092A3014F
:100F00000895883039F410929B011092820180E09C
:100F10007ADA0CC0813001F590918201911108C0FC
:100F20006032710518F080938201D2D980E0089573
:100F3000913081F46B3B710520F082E08093820157
:100F4000E6CF6115710591F3862F880F880F8870A1
:100F50008E5EDECF2EDFEACF813811F0813E31F791
:100F600091E090938201813E41F480919B01865FE4
:100F700080939B01ADD98BE4CBCF80919B018F5F98
:100F8000F7CF0F931F93CF93DF93D82FC92F8B01E8
:100F900010DFB8018D2F9C2FDF91CF911F910F9102
:100FA00056CE813C39F470E060E083E298E0E9DFFE
:100FB00080E00895823C29F470E060E08AE79BE0DD
:100FC000F6CF873B31F470E060E08BE697E03FDEE0
:100FD000EFCF81E00895813C39F470E060E083E276
:100FE00098E0CFDF80E00895823C29F470E060E073
:100FF0008EE49BE0F6CF81E00895843011F5809176
:10100000C8019091C9012DE0823C920731F469E159
:1010100070E083E499E0B5DF0DC08354994061F43A
:101020009091AE01923040F0892F869596959695D5
:10103000890F13DB80E0089570E060E083E298E0C0
:10104000EACF81E00895CF93DF93EB018830B1F4CC
:1010500080E0D9D91092A70170E060E0809128016A
:1010600016DB1092A101CD2B29F0C0E08C2FDF916F
:10107000CF91089581E08093AF01F7CF813051F493
:101080006931710590F38093AF01BE018091280111
:10109000FEDAEBCF833061F58091A7018F3F19F025
:1010A0008F5F8093A70180911A01882359F0809166
:1010B0001B0190E062EC71E00E94CA12C817D907C8
:1010C00008F0CEDABE0180912801E1DA80912B018F
:1010D000882359F290E062EC71E00E94CA128C17EA
:1010E0009D0708F0C2CF70E060E081EA9BE015C088
:1010F000813BA9F481E090E045DA85D9809119011E
:101100008111B3CF80910C01811103C0689708F45D
:10111000ACCF61E070E083E499E033DFA6CF813E9D
:10112000C1F3813831F480910A0190E02BDA6BD958
:101130009CCF813C21F46091AE0170E0ECCF823B0A
:1011400081F41092A70180910D01909117019111E6
:1011500080911801811103C086E990E0E7CF86E90C
:10116000E6CF823E11F480E0E2CF66E970E0823C97
:1011700091F28339C1F3833C29F470E060E08EE49E
:101180009BE0CBCF843C11F428DBADCF8D3B41F409
:10119000F89488ED8FBD88E880BF7894A895FFCF3C
:1011A0008F3C29F470E060E085E094E0B6CF8A3BA4
:1011B00091F4CD2B09F048C0C0911701CC2329F040
:1011C0000CDB1092170163DB50CF70E060E08FE51D
:1011D00097E03DDD4BCF833B29F470E060E082EC8B
:1011E0009DE09BCF873C99F490912801892F8295AF
:1011F0008F708F5F83708295807F9F70892B809323
:10120000280170E060E043DA42DBE7DA2ECF873B6B
:10121000B1F481E08093A201CE018F739927892BCD
:1012200009F033CF20912801822F8F708F5F207FAC
:101230006BE00E94DB12922B9093280126CF873E11
:1012400019F41092A201BFCFC0911701C11119C0AA
:101250008A3C31F4C2DA81E08093170118DB06CFB3
:10126000853C39F4BADA70E060E08FE49FE089DE13
:10127000FDCE863C31F4B1DA70E060E089E99FE0B0
:10128000F6CFC1E0F3CEBF92CF92DF92EF92FF9202
:101290000F931F93CF93DF93C82F8B01D090090139
:1012A000D091080180910C01B090A501811102C07C
:1012B000BB24B394E0900D01809117018111E0905F
:1012C0001801EE2009F43FC041E0E41621F08091BE
:1012D0000A018D17C0F1F6E9FF2EC090A101B801F7
:1012E0008C2FE0DC8091A101882309F4CEC1C110CC
:1012F00004C09091AE019093A4019C2F9D7F9830E3
:1013000021F510929D01CA3019F400910A0110E0F4
:10131000D016110630F4D017110619F010F0009312
:101320000A01C8012FD999D981E080930501D0E045
:101330008D2FDF91CF911F910F91FF90EF90DF9054
:10134000CF90BF900895FD2EC8CFC13C09F4A0C135
:10135000C23C49F48091AE018F1508F03CC08F2D3E
:101360007CD986D9E4CFC43C39F480E04CD870E015
:1013700060E081EA9BE090C19FE49C0F923008F00E
:1013800056C080910C01882349F1C80168E170E0E2
:101390000E94E712892B59F62091AE010115110523
:1013A00041F5C23B01F58FEF80930501C091AE017D
:1013B000809105016B2D70E0082E000C990B0E94A6
:1013C000CA128C0F911DDED880930A01C81719F03C
:1013D0008D1301C010DA80910A01C2CF609114010F
:1013E00070E0C801D5CF2D17F0F6D216F8F281E0E3
:1013F000DBCFE0911401F0E0CF0166E371E00E94E1
:10140000CA128017910710F42D1768F6CF016CE609
:1014100072E00E94CA128017910740F6D21630F28D
:10142000DCD970E060E081EA9BE0ABDDBFCF9FE1FB
:101430009C0F923020F480910501819576CFC130C8
:1014400009F085C00932110511F4C0930501882304
:1014500081F1C091A401D0E090E0BE010E94CA12C7
:101460009C01E091A001F0E0BF010E94FB12462F19
:10147000C9018C1B9D0BBF010E94FB12242F261B50
:1014800080919E0190919F016EE370E00E94E712AF
:10149000822F90E00E94CA126CE370E00E94E71273
:1014A000842F861B461301C081E08093AC0180939A
:1014B000A601C091AC012091AE014C2F421B550BEF
:1014C000CA0160918501709186016F5F7F4F7093B3
:1014D000860160938501009709F429CF40E052E02E
:1014E00097FF06C040E450E0273910F440E051E097
:1014F0005695479597FD0196959587950097C1F765
:101500004617570708F013CFC217E8F4CFEFC20F02
:10151000E0911C01F0E0EE0FFF1FE85AFE4F019032
:10152000F081E02D8FEF8C0F0995882339F0D09151
:10153000AC018C2F0E940302D093AC011092860163
:1015400010928501F4CE2C1718F7C1E0E0CFC5301A
:10155000A9F48091AE01873408F4E9CE90E0801BB5
:10156000910B8739910514F086E990E08634910556
:1015700014F486E490E08093AC01D9CEC63079F4BF
:101580009091AE018091A601981708F0D0CE090F76
:10159000111D90E08017910774F3C801E7CFC730A1
:1015A00069F49091AC018091AE01891710F48F5FBE
:1015B000E2CF981708F0BBCE8150DDCFC33C99F045
:1015C000C63C41F581E090910C01911180E080933F
:1015D0000C015DD910D98091AE0190E00E94C20249
:1015E00080930A01BDCE60911D0170E090E080E023
:1015F00020E0AB01082E02C0559547950A94E2F70A
:101600004170240F01968830910599F72230D0F26D
:10161000D1E08ECED0911701D111FACFC33B51F456
:10162000012B09F084CEEE2011F086E9F82E8F2DE3
:1016300014D87ECEC33E19F480910A01F9CFC53C7F
:1016400049F480E00E94030270E060E08FE49FE0D4
:1016500098DC6ECE70E060E08BE597E0C73B99F0D8
:10166000CA3C59F48091AE0180931A0180911C010B
:1016700080931E010CD9B1D85BCECA3B49F670E00D
:1016800060E083E697E0E3DA53CECC2009F435CE70
:1016900070E060E083E298E074DC49CECF93C091C3
:1016A0001701C11125C0813C41F470E060E083E284
:1016B00098E067DC8C2FCF910895823C29F470E08C
:1016C00060E081ED97E0F5CF833C51F480911F01FC
:1016D00090E001968770992780931F01D8D8EACFB0
:1016E000873B31F470E060E087E697E0B0DAE2CF64
:1016F000C1E0E0CF282FCB01213C39F470E060E05D
:1017000083E298E03EDC80E00895223C29F470E01A
:1017100060E08BEE97E0F6CF213B39F46EE370E0AA
:1017200056D7892B81F759D8EECF213E41F46EE38D
:1017300070E04DD76F5F60932401A9D8E4CF81E0BA
:1017400008950F931F93CF93DF93C82F8B01873B8F
:1017500091F480E00E94030281E08093A201C8011D
:101760008F739927892B09F4A1C0B80180912901B1
:101770000E94470322C08079803909F590910E01BB
:1017800020910F018C2F8F70813029F4822F9217B6
:1017900048F4892F07C080911A01811103C0822F5C
:1017A0002917B8F30E940302C33C09F044C015D8BE
:1017B00070E060E083E298E0E4DBD0E01BC08038BA
:1017C00011F480E0EFCFC83009F086C01092A70175
:1017D00070E060E0809129010E944703D0911701D9
:1017E000D11178C0CA3B09F075C070E060E08FE6A7
:1017F00097E02DDA8D2FDF91CF911F910F910895F2
:10180000C33091F68091A7018F3F19F08F5F8093CD
:10181000A70180911A01882309F4A7CF80911B01A9
:1018200090E062EC71E0B6D60817190708F49DCF76
:101830000E9430039ACF60910A0170E0C43C41F0ED
:10184000C43B49F40E94FB0310920C0261E070E07B
:1018500083E499E0B1CFC53C19F466E970E0F8CFB4
:10186000C33B61F4C8016EE370E0B1D6892B09F087
:10187000B5CFDF91CF911F910F919DC9C73C11F555
:1018800090912901892F82958F708F5F8370829547
:10189000807F9F70892B8093290170E060E00E9417
:1018A00047030E9447040E94ED0387CF209129013E
:1018B000822F8F708F5F207F6BE07DD6922B90936D
:1018C000290153CFC73E09F089CF1092A2010E948F
:1018D000470473CFD1E08ECFC13009F091CF0931E9
:1018E000110508F46ACFC093AF013FCF8DE084B9F2
:1018F0001092D6011092D7010E948601139A87EEAA
:1019000083B908950F931F93CF931092B2018091E2
:101910000A0290910B029C012F5F3F4F882790781D
:10192000822B932B90930B0280930A02C091B001FB
:101930000E948A01C817B9F01092AF018093B001DC
:1019400090910C028823C9F1892F80699F709F3084
:1019500091F580930C0290E080E00E946401109267
:101960000B0210920A0200910A0210910B02809160
:10197000AF01882381F1B80183E00E944901DCD9DD
:1019800007701127012B99F41092870181E0809351
:10199000D901ACDFC0918701C11105C00E94860149
:1019A00081E08093CD01CF5FCF71C0938701CF914C
:1019B0001F910F9108958F5FCCCF892F8F7E95FD5A
:1019C00008C0806880930C0280910A0290910B02FB
:1019D000C4CF806CF7CFC0910C028C2F807F803BEE
:1019E00049F470E060E081E00E944901C8010E9472
:1019F0006401D0CFB80181E00E944901C4FF0FC04B
:101A0000C5FDF4CF0831110528F210920B02109297
:101A10000A02C062C0930C0290E080E0E8CFCC23C1
:101A200009F4B8CFC5FF03C00E946801B3CF0231EB
:101A3000110508F4AFCFC064C0930C0290E080E0C1
:101A40000E946401F1CF8091D80181110E946B0442
:101A50008091B201811156CF0895EF92FF920F93BA
:101A60001F93CF93DF93EC0108E017E082ECE82EA0
:101A7000FF24F394209739F4DF91CF911F910F91B8
:101A8000FF90EF9008958091A8018111F5CF80918A
:101A9000AE01883068F482E00E944301C7010197DB
:101AA000F1F780E00E944301CEDF46D92197E2CFD3
:101AB00080E00E944301C801F2CF0F931F93CF93A0
:101AC000DF93C82F06EA811102C00AE0C1E0D0917D
:101AD0001C0110E080911F010E94320289E10E94E6
:101AE0000302D0931C01C801B8DF80911F010E943E
:101AF000320280E00E940302D0931C018AEF90E042
:101B0000ACDFC15039F78D2F0E9432028AE992E092
:101B1000DF91CF911F910F91A0CFCF93DF93282F0B
:101B200064E649D5382FC92F892F6AE044D5D92FCB
:101B3000243650F0832FC1DF8C2F6AE03CD5BDDF07
:101B40008D2FDF91CF91B9CFCA30B0F7F9CFCF93B6
:101B5000DF93D82FC3E080910A010E94030288EC32
:101B600090E07BDFDD2319F080E991E076DF80E013
:101B70000E94030288EC90E070DFC15061F7DF91B2
:101B8000CF910895FF920F931F93CF93DF93D82F98
:101B90008B01C091200181E080939D01C43079F4D4
:101BA000F090A1018D2F7ED8FF20A1F08091A1019E
:101BB000811110C070E060E083E298E0E2D9D83093
:101BC00071F0D13C09F00BC170E060E083E298E075
:101BD000D8D908C0D83041F481E08093030181E076
:101BE0008093040180E04FC1D23C69F41092A101BE
:101BF0008C2F90E0019666E070E0FDD48093200188
:101C00000E944704EFCFD13BC1F480910201012B28
:101C100041F49FEF8B3418F4823018F491E09093E4
:101C2000030190910301890F21F481E08093020167
:101C3000D9CF8C34D8F38BE4F9CFD13E59F48091CD
:101C40000301819580930301809104018195809324
:101C50000401D6CFD23BE1F481E08093030180916F
:101C60000201823018F081508093020181E080935C
:101C70000401C23008F0FAC000FDB4CFEC2FF0E050
:101C8000E45FFE4F85898F3F09F4ACCF8F5FC4C0FE
:101C9000D13009F0FEC00932110511F4D0930301CF
:101CA00090917F01892F880F97FD809590E062E1E8
:101CB00070E070D4292F80917E01682F660F87FD18
:101CC00060958091010170E090E064D4290F8091CB
:101CD0007D01682F660F87FD60958091000170E09F
:101CE00090E058D4622F690F80910201680F772726
:101CF000771F8091A101813091F480919E01909194
:101D00009F0125E0969587952A95E1F724E730E035
:101D1000A901481B590BCA013DD4B90158D4862FDB
:101D20000E94030200FD09C00E949301982F917048
:101D300080917F01890F80937F0180917E01909136
:101D40007C01890F80937E010E94930165E233D468
:101D500080917D01890F80937D010E9493018F7393
:101D600031F40E9493016DE026D490937C01C091E0
:101D70000101CC2339F00E9493018F7319F4C150F3
:101D8000C09301010E949301811108C00E94930138
:101D90006BE111D49093010110927E01C09100017A
:101DA000C33038F00E9493018F7119F4C150C09371
:101DB00000010E9493018F7731F40E9493016FE03C
:101DC000FAD3909300010932110519F481E0809350
:101DD00004018091AB01080F0093AB0103CFD23C0B
:101DE00009F406CFD43C21F48C2F90E0059603CF64
:101DF000D13B51F5C23090F400FDF4CEEC2FF0E071
:101E0000E45FFE4F858990910401891B8F3F08F0A4
:101E10008EEF883008F488E0858BE4CEC53009F079
:101E2000E1CE8091230190910401890F823040F42A
:101E300082E080932301809123010E940302D2CE8D
:101E40008937B8F388E7F5CFD13E09F4FDCED23B10
:101E500009F40CCFD23E09F4D3CED53C81F470E026
:101E600060E08FE49FE08DD880E0E7CFC53009F0D7
:101E7000B9CE809123018330F0F28150DACF81E036
:101E8000D13009F4A0CFDF91CF911F910F91FF9036
:101E90000895D13C09F498CED43CE1F6A5CF0F9338
:101EA0001F93CF93DF93D82F8B01883031F480912B
:101EB0009D01882311F088E065DE8D2F80798039BF
:101EC00099F481E080939C01C0919D01CC2311F095
:101ED000C0E004C080910A010E9403028C2FDF91B0
:101EE000CF911F910F910895803831F410929C0189
:101EF00080E00E940302ECCFC1E0D13079F7C091BD
:101F00009C01CC2359F080919D01882309F3B801ED
:101F100081E0DF91CF911F910F9134CE07331140B3
:101F2000B8F2D093AF0170E060E080E00E94470318
:101F3000D5CFFF920F931F93CF93DF93C82F8B01C1
:101F4000F0900A0180798039C9F5DC2FDC70C1F08E
:101F500010929C01D0E080919C01882319F0B80177
:101F60008C2F9DDFF0920A01C83089F5B80188E016
:101F7000E8DB8D2FDF91CF911F910F91FF90089596
:101F800091E090939C01EC2FEF70F0E0E45FFE4F46
:101F9000878D2FEF280F263928F480930A0110929D
:101FA0009D01D9CF90939D018739A0F28759990B54
:101FB00066E070E020D380932001CDCF803829F4F3
:101FC00010929C0180E00E940302D1E0C4CFC13096
:101FD00061F480919C01811117C0B80181E0DF910B
:101FE000CF911F910F91FF90ACCBC33019F4B80182
:101FF00083E0F5CFC63C51F40E94ED0370E060E051
:1020000083E298E00E94C107D0E0B3CFC73B09F05C
:10201000B0CF70E060E083E797E00E942706F4CF3E
:102020002F932FB72F933F938F939F93AF93BF938C
:10203000EF93FF938091D7018823E9F0E091D601D7
:1020400020B131B1F0E0EE0FFF1FDF01AE52BE4F05
:102050002D933C93E253FE4F808191818217930729
:1020600008F401962817390708F4019791838083B3
:1020700081E08093D80181E08093D701FF91EF91B7
:10208000BF91AF919F918F913F912F912FBF2F9132
:1020900018958F9381E08093B2018F9118958F935B
:1020A00081E08093B1018F911895F89485B7877F6F
:1020B00085BF90E088ED0FB6F894A8958FBD90B7D6
:1020C000977F90BF0FBE88E08CB98AE780BB82EA19
:1020D0008093720081E1809371008FEF90E0909384
:1020E00069008093680084E082BB87BD8CB78860FC
:1020F0008CBFA89580E480BFF9DB789481E00E94D2
:10210000720170E060E08DEF97E00E942706109268
:10211000A8010E94ED030E948A0181119EC08CE0FB
:1021200091E09093AA018093A901F89480E890E04F
:1021300075D2853A79F40091A9011091AA01C1E8FC
:10214000D0E0CE016BD2F80181938F012196C43A81
:10215000D105B9F7789480911A0181110E9430035A
:1021600070E060E08DE396E00E94270661E070E099
:1021700083E298E00E94270633243394CC24C3944E
:10218000D12C212C5CEF452E53E0552E63E2862E98
:1021900068E0962E7FE7672E70E0772E0E949C06FF
:1021A0008091B5019091B601009751F06091B30113
:1021B0007091B4010E94C1071092B6011092B5014E
:1021C0008091AF01882321F180E00E940302A8954D
:1021D000F3E4F0BF1F980E948A018111FCCF0E9496
:1021E00068018CB788608CBF1092D8011092B20140
:1021F0001092B1018091AF0181115EC022E0209365
:102200000B018CB7877F8CBF71DBA89580E480BF02
:102210001ADC1092A8018091C8019091C901E4E0F4
:1022200085309E0709F082C0C0E7D0E0FE018491AE
:1022300080538A3008F069C040DC8CE291E00DDC0C
:1022400021966C167D0691F79092B6018092B501A9
:102250001092B4011092B301A1CFC0E08C2F0E9464
:10226000030283E190E0F9DB8C2F86950E94030244
:1022700083E190E0F2DB0E948A018823D1F0CF5FF6
:10228000C03461F765E181E00E9410040E944704B8
:10229000C6E98C2F0E94030284E090E0DEDBC1508F
:1022A000C1F73DCF8C2F0E9403028DE090E0D5DB7B
:1022B000C150C111F7CF33CF8091D901882309F1E3
:1022C00086B78F79806286BF86B7806186BF889522
:1022D00086B78F7E86BF8091B10181111092AF01C8
:1022E0008091D801882331F030920B013092CD01DA
:1022F0000E946B048091B201882309F47BCF02DB3A
:1023000079CF86B78F798064DECF10E0812F8295F8
:10231000880F80720E94030280E190E09EDB1F5FC5
:102320001931A1F78AE992E098DB87CFFDE0823C82
:102330009F0799F02FE08F34920729F0EFE0893959
:102340009E0709F0DFC020919D01213009F0DAC01D
:1023500020919C01222309F4D5C0C0912001C330F3
:1023600009F462C0C8F4C23009F43EC0EC2FF0E0BA
:10237000E45FFE4FD58986E90E940302C11130C097
:10238000DA3250F5C2010197F1F780E00E940302B2
:102390008D2F90E062DB02CFC53009F0FFCEC091F7
:1023A0002301CC0FC73908F0C6E9D4E08C2F0E9476
:1023B000030285E090E051DB809123010E9403023B
:1023C00081E490E04ADBD15089F780ED92E045DB73
:1023D00080E00E940302E2CE81E090E03EDBD5CFB8
:1023E0008D2F869590E0FACF10910A01D0911C01B3
:1023F000C0E081E0CC2319F0C53019F485E00E94DB
:102400003202812F0E94030281E290E026DB80E00D
:102410000E94030282E490E020DBCF5FCA3049F7DC
:102420008D2F0E943202BACE0E9493018F73082F23
:1024300010E00E94930167E0BED0760102C0EE0C6E
:10244000FF1C9A95E2F70E94930165E0B4D0E60183
:1024500002C0CC0FDD1F9A95E2F7CE0DDF1D0E9462
:10246000930190E0BE01C7D0C80FD91FC739D1056D
:1024700024F0F6E9CF2F20E0D22F8C2F0E94030208
:10248000C801EBDA7E0133E0F594E7943A95E1F781
:10249000E11002C0EE24E394F12CC801DEDA5E0103
:1024A000AE18BF08E501B7FE03C080E0C82FD22DEB
:1024B0008C2F0E9403020E949301837039F4C8019B
:1024C000CCDACE01959587950E940302F2E0AF1613
:1024D000B1041CF70E9493016DE06DD0860102C02B
:1024E000000F111F9A95E2F70E949301E8012197CE
:1024F00090E0C823D923C00FD11F80E00E940302BF
:10250000CE0148CF2BE08E34920751F48091CC015C
:1025100004DB80911701811197CE88EE93E03ACFCA
:10252000E7E0813D9E0721F48091CA01F6DAF5CFFC
:10253000FBE08A379F07B9F48091B00181112ECE5C
:1025400080910A010E94030284E690E086DA80E02E
:102550000E9403028091240190E068EE73E01AD09B
:102560008456910917CF8B5E974049F480E0EFDAEB
:1025700081E0EDDA80E0EBDA80ED97E00BCF86B713
:102580008F7986BF86B7806186BF889586B78F7E34
:1025900086BF04CE0024552704C0080E591F880F9B
:1025A000991F009729F076956795B8F37105B9F7EB
:1025B000802D952F0895991B79E004C0991F9617D7
:1025C00008F0961B881F7A95C9F780950895AA1B75
:1025D000BB1B51E107C0AA1FBB1FA617B70710F00E
:1025E000A61BB70B881F991F5A95A9F78095909540
:1025F000BC01CD01089597FB072E16F4009406D078
:1026000077FD08D0E4DF07FC05D03EF49095819576
:102610009F4F0895709561957F4F0895E199FECF82
:102620001FBA8EBBE09A99278DB30895262FE199A2
:10263000FECF1FBA8EBBE09A81500DB2021639F060
:102640001CBA2DBB0FB6F894E29AE19A0FBE08951A
:04265000F894FFCF2C
:102654000F1B180101010004960150020001010A38
:102664000A9696960105050100000000000100008D
:102674000429439602072D0018390400781E980E89
:10268400011101140102010000000000000001001A
:1026940000000000000000010000210123022503C6
:1026A400270429052C06FF0656025402540254023C
:1026B4005402540254025402B2053F02420245023B
:0C26C40048024B024E02510205040300C4
:00000001FF
