:1000000090C00000ABC00000A9C000000C94D70F46
:10001000A5C00000A3C00000A1C000000C94CF0F39
:100020009DC000009BC0000099C0000097C0000068
:1000300095C0000093C0000091C000008FC0000078
:100040008DC000008BC0000089C0000087C0000088
:100050000C94510F83C0000081C000007FC00000DD
:100060007DC000007BC0000079C0000077C00000A8
:1000700075C0000073C0000071C00000303632321D
:100080002E323032332D31302D3136000101020253
:1000900003030404050506060707080809090A0BF7
:1000A0000B0C0D0D0E0F0F10111212131415151647
:1000B0001718191A1B1C1D1E1F2021222324252658
:1000C0002728292B2C2D2E30313233353638393A2A
:1000D0003C3D3F4042434546484A4B4D4F505254A9
:1000E0005557595B5D5F61626466686A6C6F7173D6
:1000F0007577797C7E80828587898C8E919396989E
:100100009B9DA0A3A5A8ABADB0B3B6B9BCBEC1C4FE
:10011000C7CACDD1D4D7DADDE0E4E7EAEEF1F5F8ED
:10012000FBFF11241FBECFEFCDBFDFE3DEBF18E31F
:10013000A0E0B8E3E0E8F6E202C005900D92A23438
:10014000B107D9F728E3A2E4B8E301C01D92A03CAF
:10015000B207E1F70E94DE0F0C94241351CFF894FC
:1001600098ED94BF809361008091630080FDFCCF87
:1001700078940895EDE8F8E330E020E09081911163
:100180000BC0F901EE0FFF1FE20FF31FE357F74C0F
:1001900080836183728306C02F5F3F4F3396203187
:1001A000310561F70895BC018091BF38E3CF10920B
:1001B000BF381092BD381092BE3881E080935E380F
:1001C00008950F931F93CF93C82F02E919E0C150F0
:1001D00020F4CF911F910F91089585E0C0DFC801F1
:1001E0000197F1F781E0BBDFF2CFE0E0F6E0828536
:1001F000816082878085816080870895E0EAF0E0F1
:10020000808180618083E0E0F6E083E88083838101
:10021000806283838DE1868385E5828310928938AD
:1002200010928A38E2CF82B185FB882780F991E06D
:100230008927809365380895E0910738F091083850
:100240003196FB70F460E0930738F09308388091A2
:1002500061388B5A80936138E491809161388E0FB8
:100260000895882341F0813061F080E28093210479
:1002700080932504089580E28093210480932604CE
:10028000089580E28093220488E0809335040895E5
:10029000811182E0E6CF81E00895CF93C82F80914D
:1002A000643881110AC091E0C11101C090E081E081
:1002B000C23408F480E0890FD4DFC11115C0109258
:1002C0002A0A10922B0A1092280A1092290AC09327
:1002D0006338C093623885E0C53020F083E0CE30CB
:1002E00008F081E0CF913BCFE0910C3885E0E89FAA
:1002F000F0011124EE59F9450190F081E02D8FEFC6
:100300008C0F0995E4CFAC019B0180912A0A909152
:100310002B0A8417950750F580912A0A90912B0A91
:10032000019680932A0A90932B0A8091280A909133
:10033000290A8217930738F58091280A9091290A93
:1003400001968093280A9093290A80912A0A909115
:100350002B0A8417950741F44091280A5091290AE5
:1003600081E04217530709F080E0089580912A0A3E
:1003700090912B0A48175907C0F680912A0A90914C
:100380002B0A0197CECF8091280A9091290A28172D
:100390003907D8F68091280A9091290A0197D1CF80
:1003A000E82FF0E0E457FF4F849170E060E090E0C8
:1003B000AACFE82FF0E0E457FF4F649170E090E09F
:1003C00080E0A1CFE82FF0E0E457FF4F849190E068
:1003D000BC0199CFCF93DF93CDB7DEB72697CDBFC2
:1003E000DEBF20910E3840917D3850917E384A52C0
:1003F000564009F422E0843041F460931A3826967E
:10040000CDBFDEBFDF91CF9108956623C1F3823067
:1004100019F497E9961B692F96E0ECE4F6EADE0101
:10042000119601900D929A95E1F78150990B880FE2
:10043000991FA1E0B0E0AC0FBD1F8A0F9B1FDC012C
:10044000ED91FC91E20FF11D6083D9CF813011F461
:1004500060932F380895CF92DF92EF92FF920F931F
:100460001F93CF93DF939C0150910E3890911938D0
:10047000E2E0911101C0E52FF0E0E25FF74C42812C
:1004800040930A38858180930938E92FF0E0E25FD4
:10049000F74CC185642F70E0552381F0C13071F4B1
:1004A000860F972F911D95958795DF91CF911F917D
:1004B0000F91FF90EF90DF90CF90089526173707A8
:1004C0009CF1821713068CF3511102C0822FEDCFDD
:1004D000841B6C2F6150770B8B01E82EF12CC70128
:1004E0000E94DD1260935C386695E62FF0E0842F61
:1004F000D12CC12CD0E0DC17C1F2C601B8010E949A
:10050000C912842F860FA82FB0E0B9016A1B7B0B9C
:1005100077FF03C0BD01621B730BCE0CDF1CE61717
:10052000F7071CF6DF5FE7CF842FBFCFEEE0F8E3DD
:10053000868580930B388389808B80930C3886E086
:10054000E9E2F8E3A3E2B8E301900D928A95E1F7BE
:10055000089580915A38882351F090916338909390
:100560005B38809359381092573810925838089554
:10057000CF93C091633889E18C0F873908F080E010
:100580008CDE82E01EDE8C2FCF9187CECF93C09180
:10059000633880E082DE83E014DE8C2FCF917DCE45
:1005A00081E00895611160933B38089560933D3870
:1005B0000895E82FF0E0E25FF74C67A708954091B7
:1005C0001F38509120382FEF280F81E090E002C0B3
:1005D000880F991F2A95E2F7662339F0842B952B13
:1005E00080931F3890932038089580958423952315
:1005F000F7CF90916338282F291B981710F0292FD7
:10060000281B30915138311106C0309130383323D6
:1006100069F0223058F08093523884E0809350384B
:1006200081E08093513890935338089536CECF931C
:10063000DF938EE098E380935F3890936038F8946E
:10064000D0E0C0E0E0915F38F0916038EC0FFD1F22
:100650006081CE018F5B9F4F0E9407132196C333A9
:10066000D10581F765EA80E490E00E940713789451
:10067000DF91CF91089510928B3890911006809160
:100680006138890F8093613880918038882309F41C
:100690005AC01092803880916438882349F0809144
:1006A00000068E7F8093000610928C381092893855
:1006B00080910D38609185387091863881111CC009
:1006C0008091643860918138709182388823C1F0BC
:1006D000809185389091863823E0969587952A9564
:1006E000E1F7860F971F33E0769567953A95E1F726
:1006F0009C01261B370BB9016093813870938238B7
:10070000605F7F4F86E0769567958A95E1F780E098
:1007100098E50E94C91280913B38680F711D76954B
:10072000679560937F3880914E38882369F08150B7
:1007300080934E3880910D38882329F080910D38B0
:10074000815080930D3808956D31A0F770E060E01E
:1007500084E010DD8AE0ECCFCF93DF93C82F809147
:100760000C388C1751F0D091633880E096DDC0933F
:100770000C388D2FDF91CF9190CDDF91CF910895DF
:10078000813019F410921C380895823019F4609366
:100790001D380895833019F460931B380895843010
:1007A00019F460930F380895853011F46093303850
:1007B0000895E62F90917F389D3130F480E2809348
:1007C0002104809326040895913228F4E695E1707F
:1007D000E3508E2346CD982F9F709330D8F3EF705F
:1007E000F0E0EE5AF9458081F5CF9C01CB01A901DB
:1007F000462B592B452B49F410922A0A10922B0AAA
:100800001092280A1092290A089520932A0A3093F8
:100810002B0A6093280A7093290A0895E82FF0E0C4
:10082000E457FF4F849190E0BC01DFCFE82FF0E068
:10083000E457FF4F649170E090E080E0D6CFE82F5E
:10084000F0E0E457FF4F849170E060E090E0CDCF9E
:10085000FF920F931F93CF93DF938C01D62FC72F57
:10086000F42E80917D3890917E38892B31F0E09183
:100870007D38F0917E3889E0099500937D3810939A
:100880007E38012B41F0E0917D38F0917E386D2F5C
:100890007C2F8F2D099581E080935E38DF91CF9179
:1008A0001F910F91FF90089520916C38283080F4AB
:1008B000E22FF0E0EE0FFF1FE359F74C80839183A6
:1008C0002F5F20936C3848E0C3DF80916C38089527
:1008D0008FEF0895EF92FF920F931F93CF93DF93C3
:1008E000DB01E0910C38833C11F500911F38109129
:1008F00020388E2F26E0C6E0D0E090E00196BE01C1
:100900000E94DD12A801082E02C0569547950A9450
:10091000E2F740FD02C0215081F7E81769F11CDFC2
:1009200080910C3880931E3882DEC0E0A1C0F0E0D8
:10093000E25FF74CC589833B09F07BC01097C1F497
:1009400081E080934838109247382091053812167C
:10095000ACF4CF3FB9F4809146388C135CC08091E1
:100960004738811101C012DE81E08093473853C0BF
:10097000809148388111E9CFC1E07AC0222359F330
:10098000CC2349F340912F38442309F450C0CD01C2
:1009900068E170E00E94C912892B39F6413009F4F0
:1009A00046C08EEF90E0E42FE150FF0BBF010E94A4
:1009B000DD122603900111242C0F311DCFE74130A9
:1009C00051F1C0E037FD27C0CFEF2F3F310509F0CF
:1009D00014F5C22F4423F9F0842F8150990B7C0128
:1009E0008FEF90E0B7010E94DD126695E62FF0E0F0
:1009F00010E000E0C801B7010E94C912C62FC9016A
:100A0000861B9109E817F90734F401501F4F802F16
:100A10008195841778F3C0934638E0910C38F0E064
:100A2000E25FF74CC58B8091633837DC7ECF61E0A5
:100A3000C0CF833E89F41092483881E0CC2329F05E
:100A4000CF3F39F080910538819580930538EFDDEF
:100A5000EACFC0930538FBCFC0911938C1118CCFB4
:100A6000893B09F089CF70E060E082E496E01CDF0A
:100A70008C2FDF91CF911F910F91FF90EF900895F0
:100A8000282FCB01283039F410925A381092573859
:100A9000109258380895213B59F480915A3881506A
:100AA0008330B8F583E080935A3880935938EECF7D
:100AB000253BA1F46EE370E00E94C912892B49F531
:100AC00080915A388A3F28F58B5F80935A388093FB
:100AD000593810925738109258384ACD2130C9F4FD
:100AE0008091573890915838019688382EE09207B7
:100AF00028F48093573890935838089510925738B7
:100B00001092583880915A38882319F08150809378
:100B10005A380895EF92FF921F93CF93DF9310916D
:100B20008D38111106C0DF91CF911F91FF90EF908A
:100B30000895E0908E38F0908F38C0916C38C15095
:100B40000C2E000CDD0BC7FD0EC0FE01EE0FFF1FCB
:100B5000E359F74C0190F081E02DB701812F099501
:100B600021978111F0CFEDE8F8E3838180838481C0
:100B7000958181839283339688E3EA3BF807A9F74E
:100B80001092BA381092BB381092BC38C8CF8091FE
:100B90006C38882319F0815080936C38E0916C3860
:100BA00090E080E0EE2341F0E150FF0BEE0FFF1FDD
:100BB000E359F74C808191814AE070E060E048CED3
:100BC000582FCB01F901583099F410924A3880E03F
:100BD00064DB8091653881111FC080914A388F5F36
:100BE00080934A3870E060E086E496E05DDE14C0F1
:100BF000252F207F203BB9F420914A38421788F0F6
:100C00006DE570E00E94C912069741F42F5F2093B2
:100C10004A3888E3421718F480E0089582E13DDB0A
:100C2000FBCF80E0FCCF203E41F480914A388823FE
:100C300011F04817B8F6ABDFEFCF5A3069F7609183
:100C40004F3880914A380995F2DCF5CF2AEE31E031
:100C500043E0B6CF2AEE31E044E0B2CF20EC33E0FF
:100C600045E0AECF26E232E041E0AACF22ED32E00D
:100C700041E0A6CF26ED32E041E0A2CF29ED32E0FF
:100C800043E09ECF2FED32E046E09ACF883039F432
:100C900010924F381092493880E0FFDA0CC0813052
:100CA00001F590914938911108C06032710518F032
:100CB000809349387CDA80E00895913081F46B3B71
:100CC000710520F082E080934938E6CF6115710507
:100CD00091F3862F880F880F88708E5EDECF57DFE6
:100CE000EACF813811F0813E31F791E09093493895
:100CF000813E41F480914F38865F80934F3857DAB8
:100D00008BE4CBCF80914F388F5FF7CF0F931F933A
:100D1000CF93DF93D82FC92F8B0139DFB8018D2FE7
:100D20009C2FDF91CF911F910F91BECD813C39F463
:100D300070E060E08BED99E0E9DF80E00895823CAF
:100D400029F470E060E08EEC98E0F6CF81E0089541
:100D5000843011F580917D3890917E382CE08F3071
:100D6000920731F469E170E08EEC96E0CFDF0DC0C0
:100D70008E5C964061F490916338923040F0892FF8
:100D8000869596959695890F34DC80E0089570E0FD
:100D900060E08BED99E0EACF81E00895BF92CF92B9
:100DA000DF92EF92FF920F931F93CF93DF93C82FA1
:100DB0008B0180911E3880930C38D0900A38D091E6
:100DC000093880910E38B0905C38811102C0BB2484
:100DD000B394E0900F38809119388111E0901A385F
:100DE000EE2009F43FC031E0E31621F080910B388A
:100DF0008D17C0F1F6E9FF2EC0905A38B8018C2F3C
:100E00003FDE20915A38222309F4BFC1C11004C02B
:100E10008091633880935B388C2F8D7F883021F5EB
:100E200010925638CA3019F400910B3810E0D016E1
:100E3000110630F4D017110619F010F000930B389A
:100E4000C80109DBD6DB81E080930638D0E08D2F26
:100E5000DF91CF911F910F91FF90EF90DF90CF9096
:100E6000BF900895FD2EC8CFC13C09F491C1C23C8A
:100E700041F4809163388F15C8F58F2DBADB69DB9B
:100E8000E5CFC43C39F480E008DA70E060E085E248
:100E900099E082C18FE48C0F823008F05BC08091B2
:100EA0000E38882331F1C80168E170E00E94C91250
:100EB000892B61F6909163380115110529F5C23B24
:100EC000E9F48FEF80930638C0916338209106389B
:100ED0004B2D2403C00111248C0F911DBCDA80938B
:100EE0000B38C81719F08D1301C050DB80910B38F7
:100EF000C5CF6091163870E0C801D8CF9D1708F7AC
:100F0000D91610F381E0DECF80911638682F70E09B
:100F100046E351E0849F9001859F300D11242017F6
:100F2000310710F49D1768F64CE652E0649F90017B
:100F3000659F300D749F300D11242017310720F666
:100F4000D91608F4C1CF14DB70E060E085E299E0C7
:100F5000DDDEBACF8FE18C0F823020F4809106382D
:100F6000819572CFC13009F082C00932110511F4A8
:100F7000C0930638222369F1C0915B38C29F90016B
:100F80001124E0915938F0E0C901BF010E94DD123F
:100F9000462FC9018C1B9109BF010E94DD12242F2D
:100FA000261B80915738909158386EE370E00E946C
:100FB000C912269FC001279F900D11246CE370E099
:100FC0000E94C912842F861B461301C081E08093C2
:100FD0006238C0916238209163384C2F421B550B08
:100FE000CA0160914B3870914C386F5F7F4F6093AE
:100FF0004B3870934C38009709F428CF40E052E00A
:1010000097FF06C040E450E0293710F440E051E07B
:101010005695479597FD0196959587950097C1F749
:101020004617570708F012CFC217E8F4CFEFC20FE8
:10103000E0910C3855E0E59FF0011124EE59F94597
:101040000280F381E02D8FEF8C0F0995882331F01A
:10105000D09162388C2F21D9D093623810924B38BE
:1010600010924C38F3CE2C1718F7C1E0E0CFC33CF8
:1010700091F0C63C41F581E090910E38911180E0ED
:1010800080930E38D4DA82DA8091633890E0E3D925
:1010900080930B38F3CE60911F387091203890E028
:1010A00080E020E0AB01082E02C0569547950A94D7
:1010B000E2F74170240F01968630910599F72230AE
:1010C000D0F2D1E0C4CED0911938D111FACF8DE44D
:1010D0008C0F8230B8F4C33B59F4E0910C3885E0B2
:1010E000E89FF0011124EE59F94584818111E9CF7F
:1010F000012B09F0ABCEEE2011F086E9F82E8F2DF2
:1011000078DAA5CE8DE18C0F823080F4C33E59F49D
:10111000E0910C3835E0E39FF0011124EE59F945D8
:1011200084818111CECF80910B38EACFC53C41F448
:1011300080E0B3D870E060E086EB9DE0E7DD87CE2D
:1011400070E060E086E296E0C73BE9F0CA3CA1F4BB
:101150008091633880931C3880910C3880932138BB
:1011600086E0E3E2F8E3A9E2B8E301900D928A9504
:10117000E1F75DDAFDD96BCECA3B09F0A2CF70E092
:1011800060E08EE296E090DB62CECC2009F444CEA3
:1011900070E060E08BED99E0B9DD58CECF93C0915F
:1011A0001938C11127C0813C41F470E060E08BED3B
:1011B00099E0ACDD8C2FCF910895823C29F470E04A
:1011C00060E08CEF98E0F5CF833C61F480912238A9
:1011D00090E0019666E070E00E94DD128093223874
:1011E00026DAE8CF873B31F470E060E086E396E0F2
:1011F0005BDBE0CFC1E0DECF282FCB01213C39F40F
:1012000070E060E08BED99E081DD80E00895223CA4
:1012100029F470E060E086E996E0F6CF213B41F4E6
:101220006EE370E00E94C912892B79F7A1D9EDCF46
:10123000213E49F46EE370E00E94C9126F5F609333
:101240003A38F5D9E2CF81E008950F931F93CF93F9
:10125000DF93C82F8B0180798039F9F42091103801
:10126000909111388C2F8F70813029F4822F921732
:1012700048F4892F07C080911C38811103C0822F48
:101280002917B8F30AD8C33C09F04BC071D970E0F4
:1012900060E08BED99E03ADD21C0803811F480E008
:1012A000F1CFC830A1F410925D38D0911938D11126
:1012B0006DC0CA3B09F06AC070E060E08AE396E066
:1012C000F3DA8D2FDF91CF911F910F910895C130E7
:1012D00039F46931710510F0C0936438D0E0F1CF72
:1012E000C33089F680915D388F3F19F08F5F80930E
:1012F0005D3880911C38882369F040911D3822ECBC
:1013000031E0429FC001439F900D11240817190737
:1013100008F00CD980913C38602F8695869549DA83
:10132000DDCF60910B3870E0C43C39F0C43B41F430
:101330002DD91092BF3861E070E08EEC96E0ABCF13
:10134000C53C19F466E970E0F8CFC33B81F4C801ED
:101350006EE370E00E94C912892B09F0A6CF70E0FD
:1013600060E083ECDF91CF911F910F91B3CAC73C2E
:1013700009F09BCF90913C38892F8C7F8C5F8C70CB
:101380009370892B80933C3852D9A8CFD1E099CF64
:1013900090913038992369F08093523888E0809397
:1013A000503881E08093513880916338809353386E
:1013B00008950C944D010F931F93CF938B018830A8
:1013C000C9F480E0E5DF80915138082B10925D3838
:1013D00080911E3880930C3810925A38012B31F0CE
:1013E000C0E08C2FCF911F910F91089581E08093E1
:1013F0006438F6CF813051F46931710588F3C091BA
:101400005138C111EDCF80936438EBCF833089F52B
:1014100080915D388F3F19F08F5F80935D388091A8
:101420001C38882369F040911D3822EC31E0429F3E
:10143000C001439F900D11240817190708F076D8B2
:1014400080913C38602F8370B4D980913D388823D7
:1014500039F242EC51E0849F9001859F300D1124B8
:101460002017310708F0BCCF70E060E085E299E01A
:1014700017C0813BB9F481E090E00E942B0288DF25
:1014800080911B388111ACCF80910E38811104C03E
:101490000831110508F4A4CF61E070E08EEC96E00D
:1014A00035DC9ECF813EC1F3813839F480910B3811
:1014B00090E00E942B026CDF93CF60910B3870E0BC
:1014C000813C61F3823B81F410925D3880910F384A
:1014D00090911938911180911A38811103C086E9D1
:1014E00090E0E7CF86E9E7CF823E11F480E0E3CFDA
:1014F00066E970E0823C91F2833919F41092513818
:10150000F5CF833C29F470E060E08EEC98E0C8CF22
:10151000843C11F42DD8A8CF8F3C29F470E060E012
:1015200080ED92E0BDCF8A3B91F40115110511F5D4
:10153000C0911938CC2329F01BD81092193877D8CC
:101540004FCF70E060E08AE296E0AED94ACF833BAD
:1015500029F470E060E08FE09CE0A2CF873C51F47A
:1015600090913C3881E0890F83709C7F892B809318
:101570003C38E5CFC0911938C11125C08A3C39F4F7
:101580000E94B80281E08093193851D82ACF853C57
:1015900041F40E94B80270E060E086EB9DE0B6DBAB
:1015A00020CF863C39F40E94B80270E060E080E011
:1015B0009EE0F5CF893B39F4012B29F470E060E01F
:1015C00082E396E0C2CFC1E00CCF0F931F93CF937D
:1015D000109267388091BD389091BE389C012F5F82
:1015E0003F4F88279078822B932B8093BD38909320
:1015F000BE38C09165380E941301C817B9F0109227
:101600006438809365389091BF388823E9F1892F39
:1016100080699F709F30B1F58093BF3890E080E083
:101620000E94D3001092BD381092BE380091BD3890
:101630001091BE38809164388823A1F1B80183E00D
:101640000E94BA0067DA0134110520F00F701127EB
:10165000012BA1F410924D3881E080938C380E94C8
:10166000FE00C0914D38C11105C00E94F50081E017
:1016700080938038CF5FCF71C0934D38CF911F9149
:101680000F9108958F5FC8CF892F8F7E95FD08C079
:1016900080688093BF388091BD389091BE38C0CFAC
:1016A000806CF7CFC091BF388C2F807F803B49F48E
:1016B00070E060E081E00E94BA00C8010E94D3009F
:1016C000D0CFB80181E00E94BA00C4FF0FC0C5FDB1
:1016D000F4CF0831110528F21092BD381092BE38AF
:1016E000C062C093BF3890E080E0E8CFCC2309F41B
:1016F000B8CFC5FF03C00E94D700B3CF0231110598
:1017000008F4AFCFC064C093BF3890E080E00E947F
:10171000D300F1CF80918B3881110E943B038091DF
:101720006738811152CF0895EF92FF920F931F9364
:10173000CF93DF93EC010AEC18E082E3E82E82E01D
:10174000F82E209739F4DF91CF911F910F91FF90E0
:10175000EF90089580915E388111F5CF80916338C4
:10176000853068F485E00E94AF00C7010197F1F76A
:1017700081E00E94AF00CEDFCDD92197E2CF81E09A
:101780000E94AF00C801F2CF0F931F93CF93DF9356
:10179000C82F06EA811102C00AE0C1E0D0910C38DE
:1017A00010E0809122380E94AC0389E10E944D0133
:1017B000D0930C38C801B8DF809122380E94AC0366
:1017C00080E00E944D01D0930C388AEF90E0ACDFAE
:1017D000C15039F78D2F0E94AC038AE992E0DF9166
:1017E000CF911F910F91A0CFCF93DF93D82FC3E05C
:1017F00080910B380E944D0188EC90E095DFDD234D
:1018000019F080E991E090DF80E00E944D0188ECC2
:1018100090E08ADFC15061F7DF91CF910895FF9288
:101820000F931F93CF93DF93D82F8B01C091543820
:1018300081E080935638C33079F4F0905A388D2F78
:101840001FD9FF20A1F080915A38811110C070E09B
:1018500060E08BED99E05ADAD83071F0D13C09F0B4
:1018600013C170E060E08BED99E050DA0CC0D83025
:1018700061F481E08093033880913138809354384B
:1018800081E08093043880E067C1D23C69F4109213
:101890005A388C2F90E0019665E070E08ED68093E8
:1018A00031388093543805C1D13BC1F4809102385E
:1018B000012B41F49FEF8F3518F4823018F491E03A
:1018C0009093033890910338890F21F481E080933D
:1018D0000238D9CF8036D8F38FE5F9CFD13E59F40D
:1018E00080910338819580930338809104388195E5
:1018F00080930438DEC0D23BE1F481E0809303386A
:1019000080910238823018F081508093023881E053
:1019100080930438C23008F012C100FDB4CFEC2F20
:10192000F0E0E25FF74C81A58F3F09F4ACCF8F5F09
:10193000DDC0D13009F016C10932110511F4D09380
:10194000033890914538892F880F97FD80952CE0BA
:10195000829FC001112430914438232F220F37FD7C
:10196000209580910138289F90011124232F290F61
:1019700090914338892F880F97FD8095909100387A
:10198000899FC0011124290F80910238280F332725
:10199000331F80915A388130B9F480915738909133
:1019A000583845E0969587954A95E1F764E770E0E9
:1019B000AB01481B590B429FC001439F900D529FA2
:1019C000900D1124E6D59B01822F0E944D0100FD50
:1019D00009C00E941C01982F917080914538890F91
:1019E000809345388091443890914238890F809394
:1019F00044380E941C0165E2C0D580914338890FAC
:101A0000809343380E941C018F7331F40E941C01A3
:101A10006DE0B3D590934238C0910138CC2339F0B2
:101A20000E941C018F7319F4C150C09301380E94A9
:101A30001C01811108C00E941C0162E19ED5909397
:101A4000013810924438C0910038C33038F00E94F9
:101A50001C018F7119F4C150C09300380E941C0101
:101A60008F7731F40E941C016AE087D5909300388B
:101A70000932110519F481E08093043880916138AE
:101A8000080F00936138FFCED23C09F402CFD33C5B
:101A900099F480910C3890E0019666E070E08DD565
:101AA0000E94AC03EC2FF0E0E25FF74C80910C3821
:101AB00084A30E941703E7CED43C21F48C2F90E03E
:101AC0000496EACED13B51F5C23090F400FDDBCE56
:101AD000EC2FF0E0E25FF74C81A590910438891B70
:101AE0008F3F08F08EEF883008F488E081A7CBCED6
:101AF000C43009F0C8CE8091393890910438890FEC
:101B0000823040F482E080933938809139380E94E5
:101B10004D01B9CE8937B8F388E7F5CFD13E09F446
:101B2000E4CED23B09F4F3CED23E19F2D53C81F497
:101B300070E060E086EB9DE0E9D880E0E8CFC4305B
:101B400009F0A1CE809139388330F8F28150DBCF93
:101B500081E0D13009F48CCFDF91CF911F910F91AB
:101B6000FF900895D13C09F092CF7BCE0F931F9345
:101B7000CF93DF93D82F8B01883031F48091563882
:101B8000882311F088E04BDE8D2F8079803999F41D
:101B900081E080935538C0915638CC2311F0C0E0D5
:101BA00004C080910B380E944D018C2FDF91CF91A2
:101BB0001F910F910895803831F41092553880E0CC
:101BC0000E944D01ECCFC1E0D13079F7C09155387A
:101BD000CC2359F080915638882309F3B80181E06D
:101BE000DF91CF911F910F911ACE07331140B8F2B8
:101BF000D093643880E28093210480932604D5CF6B
:101C0000FF920F931F93CF93DF93C82F8B01F09018
:101C10000B388079803909F03DC0DC2FDC70C1F0D1
:101C200010925538D0E080915538882319F0B801CA
:101C30008C2F9CDFF0920B38C830C1F5B80188E0DA
:101C400004DB8D2FDF91CF911F910F91FF900895AD
:101C500091E090935538EC2FEF70F0E0E25FF74C95
:101C600087A52FEF280F263948F480930B38109260
:101C7000563880911E3880930C38D5CF90935638C3
:101C8000873980F28759990B65E070E096D480938C
:101C90005438C9CF803841F41092553880E00E9402
:101CA0004D0181E080935E38D1E0BDCFC13051F469
:101CB000D0915538D11119C00931110510F2C093D6
:101CC0006438BFCFC33041F4B80183E0DF91CF91D6
:101CD0001F910F91FF90B9CAC63C49F40E94B80207
:101CE00070E060E08BED99E011D8D0E0AACFC73B5F
:101CF00009F0A7CF70E060E08EE396E00E94540404
:101D0000F4CF0F931F93CF93DF938C01EB01E42F5C
:101D1000F0E08091633881508F30C0F08AE0489FB6
:101D2000A001112486E0569547958A95E1F7922FF8
:101D3000990F27FD9095949FB001959F700D1124E8
:101D4000CB016FEF70E025D4E60FF71F2E9FC00187
:101D50002F9F900D112481589F4F6FEF70E019D481
:101D6000E61BD801EC936883DF91CF911F910F910F
:101D70000895CF93DF9300D0CDB7DEB7E82FF0E022
:101D8000E457FF4F44912FEF829FC001112466E971
:101D900070E0FFD3262FE0910C38F0E0E25FF74CC3
:101DA000858986FD2095BE016F5F7F4FCE0102962B
:101DB000A8DF698170E08A8190E00E9483010F9022
:101DC0000F90DF91CF910895CF93DF9300D0CDB7DF
:101DD000DEB7E82FF0E0E457FF4F4491E0910C3874
:101DE000F0E0E25FF74C2589BE016F5F7F4FCE01C7
:101DF000029687DF698170E08A8190E00E9483010A
:101E00000F900F90DF91CF910895CF93DF9300D083
:101E1000CDB7DEB7E82FF0E0E457FF4F44912FEF46
:101E2000829FC001112466E970E0B3D3262FE091B0
:101E30000C38F0E0E25FF74C858986FD2095BE0105
:101E40006F5F7F4FCE0102965CDF698170E08A810F
:101E500090E00E94F5030F900F90DF91CF910895CD
:101E6000CF93DF9300D0CDB7DEB7E82FF0E0E45793
:101E7000FF4F4491E0910C38F0E0E25FF74C258988
:101E8000BE016F5F7F4FCE0102963BDF698170E03C
:101E90008A8190E00E94F5030F900F90DF91CF911F
:101EA00008950F920FB60F921F9211242F933F9314
:101EB0004F935F936F937F938F939F93AF93BF9352
:101EC000EF93FF93CF93DF9300D000D0CDB7DEB771
:101ED00081E080930B0680918A38882309F441C001
:101EE000E0918938E13009F055C080912111A0912D
:101EF00020112091100630911106281B310987FD11
:101F00003395B0E06DD369837A838B839C83DC0146
:101F1000CB0180589F4FAF4FBF4F892F9A2FAB2FC8
:101F2000BB2726E0880F991F2A95E1F7F0E0EE0F16
:101F3000FF1FDF01AB57B74C8D939C93EF57F74CC6
:101F4000208131812817390710F42F5F3F4F821706
:101F5000930710F4215031092083318381E080936D
:101F60008B3881E080938A382496CDBFDEBFDF9125
:101F7000CF91FF91EF91BF91AF919F918F917F9101
:101F80006F915F914F913F912F911F900F900FBED6
:101F90000F9018958091100690911106C2CF8F93E3
:101FA00081E080935301809367388F9118958F93C8
:101FB0001D9A81E0809366388F911895F8948091EE
:101FC0004000877F8093400088EDA89584BF909162
:101FD0000001907F9093000123E030E084BF2093C4
:101FE000610083E284B988E0809310048093110437
:101FF00080931204809313048093140499E09093C7
:102000001504809316048093170480933204809300
:10201000330480933404809350048093510480935C
:1020200052048093530483E38093010A8FEF90E07E
:102030008093260A9093270A91E09093000A80915A
:102040001204816080931204909352018091510197
:102050008111FCCF81E4809350010E94FE007894AE
:1020600081E00E94E10070E060E088EA96E00E9472
:10207000540410925E380E94B8020E94130181112C
:10208000B4C08EE098E380935F3890936038F89402
:1020900080E490E0B4D2853A79F400915F381091F1
:1020A0006038C1E4D0E0CE01AAD2F80181938F015B
:1020B0002196C437D105B9F7789480911C388111E5
:1020C0000E94960270E060E08AE694E00E94540468
:1020D00061E070E08BED99E00E9454043324339466
:1020E000CC24C394D12C212C5CEF452E53E0552EEB
:1020F00068EE662E63E0762E7BED872E79E0972ED4
:102100000E948A0580916A3890916B38009751F04F
:1021100060916838709169380E94860610926A381A
:1021200010926B38809164388823C9F180E00E9456
:102130004D0130925201809151018111FCCFF9E59E
:10214000F0935001809100068E7F809300060E94DC
:1021500013018111FCCF0E94D7008091120481608D
:102160008093120410928B38109267381092663860
:1021700080916438811164C082E080930D38809131
:102180001204887F809312040E94FE003092520154
:10219000809151018111FCCFE1E4E0935001BADA62
:1021A00010925E3880917D3890917E38F2E0803DCB
:1021B0009F0709F085C0CCE7D0E0FE0184918053F1
:1021C0008A3008F06CC0E0DA8CE291E0ADDA21965A
:1021D000F0E0CB38DF0789F780926A3890926B384D
:1021E00010926838109269388BCFC0E08C2F0E9413
:1021F0004D0183E190E098DA8C2F86950E944D0185
:1022000083E190E091DA0E9413018823B1F0CF5F5F
:10221000C03461F70E941703C6E98C2F0E944D015C
:1022200084E090E081DAC150C1F72BCF8C2F0E945F
:102230004D018DE090E078DAC150C111F7CF21CF88
:1022400080918C38882331F180915000897F8260A1
:102250008093500080915000816080935000889559
:10226000809150008E7F809350008091663881115C
:102270001092643880918B38882329F021E02093D4
:1022800080380E943B0380916738882309F470CF1F
:102290009CD96ECF80915000897F8460D9CF00E0B7
:1022A00010E0802F80720E944D0180E190E03CDAC6
:1022B0001F5F005E1931A9F78AE992E035DA84CF11
:1022C0002CE08F30920799F0EDE0863B9E0729F0D5
:1022D000FEE080309F0709F0BEC0209156382130C3
:1022E00009F0B9C020915538222309F4B4C0C09137
:1022F0005438EC2FF0E0E25FF74C84A180930C3867
:10230000C23009F43AC0F8F0C43009F0F9CED091E7
:102310003938DD0FD73908F0D6E98D2F0E944D01ED
:1023200085E090E001DA809139380E944D0181E426
:1023300090E0FAD9C15089F780ED92E0F5D980E0BC
:102340000E944D01DDCED1A586E90E944D01C1114B
:1023500010C0DA3250F4C2010197F1F780E00E9418
:102360004D018D2F90E0E0D9CBCE81E090E0DCD91B
:10237000F5CF8D2F869590E0FACF0E941C018F73C8
:10238000082F10E00E941C0167E0F7D0760102C020
:10239000EE0CFF1C9A95E2F70E941C0165E0EDD05F
:1023A000E60102C0CC0FDD1F9A95E2F7CE0DDF1DCE
:1023B0000E941C0190E0BE0100D1C80FD91FC7398F
:1023C000D10524F026E9C22F80E0D82F8C2F0E945F
:1023D0004D01C801A9D97E0133E0F594E7943A95FF
:1023E000E1F7E11002C0EE24E394F12CC8019CD97E
:1023F0005E01AE18BF08E501B7FE03C0E0E0CE2FD6
:10240000D22D8C2F0E944D010E941C01837039F443
:10241000C8018AD9CE01959587950E944D0122E089
:10242000A216B1041CF70E941C016DE0A6D0860123
:1024300002C0000F111F9A95E2F70E941C01E801EB
:10244000219790E0C823D923C00FD11F80E00E94BC
:102450004D01CE0188CFE8E08E3C9E07E9F4209143
:102460007F38822F64E689D0382FC92F892F6AE000
:1024700084D0D92F243608F47CC0832F85D98C2FA3
:102480006AE07BD081D98D2F7FD980911938811155
:10249000A3CE88EE93E067CFF8E08C3F9F07C1F4AE
:1024A0008091653881112CCE80910B380E944D01AE
:1024B00084E690E039D980E00E944D0120913A38BD
:1024C000269DC001279D900D1124845691094BCF64
:1024D0008659964049F480E087D981E085D980E02B
:1024E00083D980ED97E03FCF80913038882381F108
:1024F00080915138882361F120916338909152384E
:10250000291306C0822F0E944D0110925138F8CD38
:1025100060915038291768F4892F821B861738F08C
:102520002CD0820F0E944D018AE090E01CCF81E008
:10253000F8CF8AE1689FA001112460915338691B8C
:1025400070E0CA013AD0EB0121968FEF820F7FCF66
:1025500080915000897F809350008091500081606D
:10256000809350008895809150008E7F809350001A
:10257000C7CDCA3008F083CF86CF991B79E004C05D
:10258000991F961708F0961B881F7A95C9F78095B2
:102590000895AA1BBB1B51E107C0AA1FBB1FA617AA
:1025A000B70710F0A61BB70B881F991F5A95A9F7FC
:1025B00080959095BC01CD01089597FB072E16F4E8
:1025C000009406D077FD08D0E4DF07FC05D03EF488
:1025D000909581959F4F0895709561957F4F0895CF
:1025E000A29FB001B39FC001A39F700D811D112454
:1025F000911DB29F700D811D1124911D089503D06E
:10260000808199270895FC01E050FC4E0895262F03
:10261000FADF0080021611F004D0019701970895A7
:10262000262FAF93BF93E0E0F0E1328131FDFDCF83
:10263000DC01A050BC4E2C932DE924BF23E0208365
:0C2640000196BF91AF910895F894FFCF70
:10264C001038133816380001020100000000000099
:10265C000100000000001F04D001001604D9010085
:10266C000E04E20100300FE40E01050FB90E014813
:04267C00014B01000D
:102680000A1218010101010004960141030201022E
:10269000010A0A9696960105050100000000031F35
:1026A0000003030000008000000000008000000024
:1026B0000103000000000029434102070E00781EBC
:0226C000980080
:00000001FF
