:1000000003C200001EC200001CC200000C940B11B1
:1000100018C200000C94051114C2000012C20000A6
:1000200010C200000EC200000CC200000AC2000094
:1000300008C2000006C200000C94CC1002C20000EE
:1000400000C20000FEC10000FCC10000FAC10000B7
:10005000F8C10000F6C10000F4C10000F2C10000C8
:10006000F0C10000EEC10000ECC10000EAC10000D8
:10007000323032333036313730313234000105041A
:1000800014101115FF3FFF3FE62D6239DF23973033
:100090002F3583363536F8342533F130EB33E13004
:1000A000D431E131752EE32D352FCD2D412C342C5B
:1000B000632AD92916292A2820270126D424522444
:1000C0000B235A220B2141206B1F231E491D6B1C41
:1000D0008C1B611A8A1974186A17A6167D15971455
:1000E0008E139612AD11AC10BE0FBF0EB40DBF0C27
:1000F000C20BC00AD509D008CE07E306E805E10423
:10010000E203ED02F101FF00FF00FF00FF00FF002E
:10011000FF00FF00FF00FF00FF00FF00FF00FF00E7
:10012000FF00FF00FF00FF00FF00FF00FF00FF00D7
:10013000FF00FF00FF00FF00FF00FF00FF00FF00C7
:10014000FF00FF00FF00FF00FF00FF00FF00FF00B7
:10015000FF00FF00FF00FF00FF00FF00FF00FF00A7
:10016000FF00FF00FF00FF00FF00FF00FF00FF0097
:10017000FF00FF00FF00FF00FF00FF00FF00FF0087
:10018000FF00FF00FF00FF00FF00FF00FF00FF0077
:10019000FF00FF00FF00FF00FF00FF00FF00FF0067
:1001A000FF00FF00FF00FF00FF00FF00FF00FF0057
:1001B000000000000000000000000000000000003F
:1001C000000000000000000000000000000000002F
:1001D000000000000000000000000000000000001F
:1001E000000000000000000000000000000000000F
:1001F00000000000000000000000000000000000FF
:1002000000000000000000000000000000000000EE
:1002100000000000000000000000000000000000DE
:1002200000000000000000000000000000000000CE
:1002300000000000000000000000000000000000BE
:1002400000000000000000000000000000000000AE
:10025000000000000000000000000000000000009E
:10026000000000000000000000000000000000008E
:10027000000000000000000000000000000000007E
:10028000000000000000000000000000000000006E
:10029000000000000000000000000000000000005E
:1002A000000000000000000000000000000000004E
:1002B00000000000090014001E00290034003F0067
:1002C0004B005700630070007D008A009700A50076
:1002D000B300C200D000E000EF00FF00000001000A
:1002E00001000200020003000400050006000700F0
:1002F000080009000B000C000E0010001100130094
:10030000160018001A001D001F00220025002800FA
:100310002B002E003100350038003C003F00430028
:1003200047004A004E005200560059005D00600030
:100330006300670069006C006E007000720073005B
:10034000740074007300720070006D006A00650034
:100350005F005900510047003C00300022001300AC
:10036000140015001600170018001A001B001C00CE
:100370001E001F0020002200240025002700290065
:100380002B002D002F0031003300350038003A00DB
:100390003D003F004200450048004B004E00510028
:1003A000540058005B005F00630067006B006F0043
:1003B000730077007C00810085008A008F00950023
:1003C0009A009F00A500AB00B100B700BD00C400BB
:1003D000CB00D200D900E000E700EF00F700FF00FB
:1003E000FF00FF00FF00FF00FF00FF00FF00FF0015
:1003F000FF00FF00FF00FF00FF00FF00FF00FF0005
:10040000FF00FF00FF00000011241FBECFEFD4E06B
:10041000DEBFCDBF11E0A0E0B1E0E0E4F8E202C051
:1004200005900D92A235B107D9F722E0A2E5B1E01F
:1004300001C01D92A330B207E1F70E9411110C9484
:100440001E14DECDF89498ED9FBD83BF7894089577
:10045000482F362F272FE0EDF1E090E080E050812B
:1004600051110BC063E070E00E94C013FC01E05327
:10047000FE4F40833183228305C00196339680313D
:10048000910569F70895BC0180910202E1CF1092B5
:100490000202109201021092000281E08093820118
:1004A00008950F931F93CF93C82F08EA17E0C15008
:1004B00020F4CF911F910F91089582E0C3DFC8010E
:1004C0000197F1F780E0BEDFF2CF83B1886483B992
:1004D00008958BB182FB882780F991E0892780936A
:1004E000A6010895E0910601F09107013196FB7095
:1004F000F460F0930701E09306018091A2018B5A0A
:100500008093A201E4918091A2018E0F0895882327
:1005100021F0813031F0829A05C0829892988A98B1
:1005200008958298929A8A9A0895CF93C82F8091BD
:10053000A401811109C0CC2339F080912001C81792
:1005400018F4F3DF82E0ADDFC093A401C093A301F0
:100550008091A50181110AC091E0C11101C090E014
:1005600081E0C33308F480E0890FD1DFC11117C0E7
:1005700010926D0010926C0010926B0010926A0045
:1005800010926F0010926E006898C0935D01809188
:10059000A401843008F03BC082E0CF9153CF689A29
:1005A0002FEF2C0F30E0220F331FF901E452FD4FE3
:1005B0008591949190936D0080936C00F901E055C2
:1005C000FE4F8591949190936B0080936A00F9019E
:1005D000EC57FF4F8591949160915D019C012052F1
:1005E0003109662339F040916E0050916F00241755
:1005F0003507B8F3909369008093680080915D019E
:100600008111C3CF10926F0010926E00BECF8C305C
:1006100010F481E0C2CF80E0C0CFCF93DF9300D051
:100620000F92CDB7DEB720914D0130914E01409130
:100630004F0129833A834B83FE01319650E040E01D
:10064000682F70E0A1E0B0E09B01042E02C0359558
:1006500027950A94E2F7922F937081919D0101C032
:10066000220F8A95EAF7992329F09130C1F080B3DF
:10067000822B19C080B32095822380BB82B3822352
:1006800082BB81B3282321BB4E5F5F4F46305105AB
:10069000D9F60F900F900F90DF91CF91089590B3FE
:1006A000822F8095892380BB82B3822B82BB81B34A
:1006B000282BE9CFCF93DF9300D000D000D0CDB767
:1006C000DEB720917D014091BE015091BF0146519E
:1006D000584009F422E0843059F460937E01269654
:1006E0000FB6F894DEBF0FBECDBFDF91CF91089556
:1006F0006623A9F3823019F497E9961B692F96E0D7
:10070000E4E2F1E0DE01119601900D929A95E1F795
:100710008150990B880F991FA1E0B0E0AC0FBD1F6D
:100720008A0F9B1FDC01ED91FC91E20FF11D6083AC
:10073000D6CF813011F4609320010895CF92DF92DB
:10074000EF92FF920F931F93CF93DF939C015091F1
:100750007D01E0911E0182E0E11101C0852F90E052
:10076000DC01A85EBE4F4C9140931C018B5E9E4FF6
:10077000DC018C9180931B01F0E0EE5EFE4FC181A5
:10078000642F70E0552381F0C13071F4860F972FEC
:10079000911D95958795DF91CF911F910F91FF90B6
:1007A000EF90DF90CF900895261737079CF18217BE
:1007B00013068CF3511102C0822FEDCF841B6C2FD6
:1007C0006150770B8B01E82EF12CC7010E94F113C9
:1007D00060937B016695E62FF0E0842FD12CC12C2D
:1007E000D0E0DC17C1F2C601B8010E94DD13842FEE
:1007F000860FA82FB0E0B9016A1B7B0B77FF03C0FF
:10080000BD01621B730BCE0CDF1CE617F7071CF64D
:10081000DF5FE7CF842FBFCF8093810186CE909199
:10082000C30180E09D3180F0E82FF0E0E35CFE4FF3
:100830002081921738F43197E081F0E0E358FF4FC0
:10084000849108958E5FF0CF08950F931F93CF93F7
:10085000DF93D82F862F9091C30191509C3140F4A3
:1008600080E0DBDE80E0DF91CF911F910F914FCED2
:10087000CD2FC295CF70DF709091A501911103C06B
:10088000C33008F0C2E0D730B0F40091570110E057
:100890000F5F1F4F27DE65E00E94D1139801290FDB
:1008A000311DC90166E070E00E94F1138093570189
:1008B000ED2FF0E016C0D730C1F40091570110E0E1
:1008C0000F5F1F4F0FDE65E00E94D113D801A90F03
:1008D000B11DCD0166E070E00E94F11380935701D5
:1008E000FC01E358FF4FE4911BC09091A501D83063
:1008F00099F46FE0911101C063E0862351F4809177
:10090000570190E0019666E070E00E94F113809339
:100910005701E0915701CDCF9923E1F080DFE82F17
:10092000C33071F48091560190E0019663E170E06C
:100930000E94DD1380935601865D9E4FDC01CC91B1
:10094000CC2389F0C13011F0EE0FC2E08E2F65DEAE
:100950008C2F89CF869563E00E94D113E92FF0E0B8
:10096000EE0FFF1FBECFE0E0F1CFCF93C091A40107
:1009700082E38C0F873908F080E0D7DD83E091DDDA
:100980008C2FCF91D2CDCF93C091A40180E0CDDD4B
:1009900083E087DD8C2FCF91C8CD81E00895611170
:1009A000609322010895662369F0813099F4809163
:1009B000C0019091C101891B680F6093C00182E062
:1009C0008093230180912101873418F086E480937D
:1009D00021010895635E60932101F4CF6093750156
:1009E0000895E82FF0E0E55FFE4F608308950F93D0
:1009F0001F93CF93DF9380917D018093830180913A
:100A00001801809384018091150180938501809164
:100A10001201809386018091190180938701809152
:100A20001601809388018091130180938901809140
:100A30001A0180938A018091170180938B01809124
:100A4000140180938C0180911E0180938D0180910F
:100A50007E0180938E0180917C0180938F01809133
:100A60001D0180939001809180018093910180917C
:100A70007F01809392018091200180939301809166
:100A80000B018093940180910901809395018091DD
:100A90000A018093960180910801809397018091CB
:100AA0000F01809398018091210180939901809199
:100AB000C00180939A018091220180939B018091D3
:100AC000110180939C018091100180939D01809180
:100AD000750180939E0180910C0180939F0180910C
:100AE0000D018093A00180910E018093A10182E00D
:100AF000D8DCF89403E811E0C1E8D0E0F801619196
:100B00008F01CE010E940C142196C03AD105B1F795
:100B100065EA80E890E00E940C147894DF91CF9110
:100B20001F910F9108951092CF0130B181B12091A2
:100B3000A201329536953695337090E0880F991F53
:100B4000880F991F830F911D820F8093A2018091BE
:100B5000C401882309F445C01092C4018091CD01DD
:100B60009091A501992319F01F981092CD01811140
:100B700046C0809123018823A9F18091C9019091F9
:100B8000CA019093C6018093C5014096807E61ECB6
:100B900072E00E94DD13809122018750990B680F4B
:100BA000791F769567956093C301809171018823C1
:100BB000F1F08150809371018091A501811108C0ED
:100BC0008EE884B981E08093CD011092CE017DDC66
:100BD00080912301882329F0809123018150809303
:100BE000230108958091C5019091C601CECF6D314A
:100BF00018F770E060E084E02BDC85E0DBCF81302B
:100C000039F78091230181115EC08091C7019091D5
:100C1000C8014096DC0145E0B695A7954A95E1F7F5
:100C20004091C00156E0969587955A95E1F7042EBC
:100C3000000C550B9A012E503140820F931F909358
:100C4000C2018093C10180916001E82FF0E0EE0FB6
:100C5000FF1FEF59FE4F20813181BD01621B730BD5
:100C60009B01B183A0838F5F877080936001660FC3
:100C7000771F660F771F6A0F7B1F8091210190E01D
:100C8000841B950B825F9E4F880F991F681B790B01
:100C900083E0161617060CF045C0615071098150AB
:100CA000C1F7161617060CF057C037FD74C08091B7
:100CB0005F011816F4F5861B80935F0186E884B9FE
:100CC0001092CD0182CF8091CB019091CC01909375
:100CD000C8018093C701409635E0969587953A956F
:100CE000E1F7909362018093610190936401809396
:100CF00063019093660180936501909368018093EE
:100D0000670190936A018093690190936C018093CD
:100D10006B0190936E0180936D01909370018093AD
:100D20006F0173CF6115710509F4B9CF6F5F7F4F04
:100D3000B6CF660F771F653071055CF0635071099F
:100D40007595679588E1861B80935F0185E080DB60
:100D5000B5CF61E070E0F6CF6C3F8FEF7807DCF441
:100D600037FF19C080915F0187FF02C08450A3CF75
:100D700084EE861B80935F018091C3018F3108F45C
:100D80009DCF8CEF9FEF9C01261B370BB90175950A
:100D9000679586E0DCCF8091C3018E3108F48ECF59
:100DA00070E060E087E0D3CF813019F410928001C9
:100DB0000895823019F460937F010895833019F407
:100DC00060937C010895843011F460931D010895AF
:100DD000FF920F931F93CF93DF938C01D62FC72FD2
:100DE000F42E8091BE019091BF01892B31F0E091EA
:100DF000BE01F091BF0189E009951093BF010093F6
:100E0000BE01012B41F0E091BE01F091BF016D2FB9
:100E10007C2F8F2D099581E080938201DF91CF9106
:100E20001F910F91FF9008952091AD01283080F41B
:100E3000E22FF0E0EE0FFF1FE255FE4F808391831B
:100E40002F5F2093AD0148E0C3DF8091AD0108958D
:100E50008FEF0895282FCB0130911E01311147C02B
:100E6000283039F4109279011092770110927601AE
:100E70000895213B59F48091790181508330B8F570
:100E800083E080937901809378010895253BA1F454
:100E90006EE370E00E94DD13892B49F580917901A2
:100EA0008A3F28F58B5F80937901809378011092B7
:100EB00077011092760159CD2130C9F480917601E5
:100EC00090917701019688382EE0920728F490934C
:100ED0007701809376010895109277011092760140
:100EE00080917901882319F08150809379010895C8
:100EF000EF92FF921F93CF93DF931091D0011111C6
:100F000006C0DF91CF911F91FF90EF900895E09080
:100F1000D101F090D201C091AD01C1500C2E000C56
:100F2000DD0BC7FD0EC0FE01EE0FFF1FE255FE4FA9
:100F30000190F081E02DB701812F09952197811152
:100F4000F0CFE0EDF1E0838180838481958192830D
:100F50008183339681E0ED3FF807A9F71092FD01F8
:100F60001092FF011092FE01C8CF8091AD0188233D
:100F700019F081508093AD01E091AD0190E080E0E7
:100F8000EE2341F0E150FF0BEE0FFF1FE255FE4F45
:100F9000808191814AE070E060E01ACF582FCB0148
:100FA000F901583089F41092590180E0BEDA80913D
:100FB000A60181111DC081E08093590170E060E0BD
:100FC00082E398E031DF14C0252F207F203BB9F465
:100FD00020915901421788F06DE570E00E94DD1301
:100FE000029741F42F5F2093590188E3421718F4C8
:100FF00080E0089582E199DAFBCF80E0FCCF203ECB
:1010000041F480915901882311F04817B8F6ADDFFB
:10101000EFCF5A3069F760917201809159010995BB
:10102000E6DCF5CF2AE533E043E0B8CF2AE533E04C
:1010300044E0B4CF24ED36E044E0B0CF29E933E01A
:1010400041E0ACCF2FEC34E041E0A8CF23ED34E019
:1010500042E0A4CF2EEE34E041E0A0CF21EF34E017
:1010600043E09CCF883039F41092720110925801FD
:1010700080E05BDA0CC08130F9F490915801911155
:1010800008C06032710518F08093580100DA80E0E2
:101090000895913079F46B3B710520F082E08093E4
:1010A0005801E6CF6115710591F3862F880F847082
:1010B0008E5EDFCF5ADFEBCF813811F0813E39F7FA
:1010C00091E090935801813E41F480917201865FD6
:1010D00080937201DCD98BE4CCCF809172018F5F59
:1010E000F7CF0F931F93CF93DF93D82FC92F8B0187
:1010F0003CDFB8018D2F9C2FDF91CF911F910F9175
:1011000093CECF93C0911E01C11119C0813C41F40F
:1011100070E060E083EF98E0E4DF8C2FCF910895DA
:10112000823C29F470E060E081EA98E0F5CF873BEB
:1011300031F470E060E082E298E076DEEECFC1E06C
:10114000ECCF813C39F470E060E083EF98E0C9DFD8
:1011500080E00895823C29F470E060E08FE59CE037
:10116000F6CF873B31F470E060E086E298E05CDE29
:10117000EFCF81E00895813C39F470E060E083EFC7
:1011800098E0AFDF80E00895823C29F470E060E0F1
:1011900081E898E0F6CF81E00895843011F58091E0
:1011A000BE019091BF012EE08C37920731F469E1C6
:1011B00070E081E19AE095DF0DC081519A4061F4C1
:1011C0009091A401923040F0892F8695969596953E
:1011D000890F22DB80E0089570E060E083EF98E003
:1011E000EACF81E008950F931F93CF938B0188304E
:1011F000A1F480E09AD960E08091110126DB109281
:101200007901012B31F0C0E08C2FCF911F910F910C
:10121000089581E08093A501F6CF813049F46931CA
:10122000710588F38093A501809111010EDBEBCF4E
:10123000833029F520918001222361F080917F0184
:1012400090E062EC71E00E94C0130817190710F0DB
:1012500020931F01602F80911101F7DA80917501B1
:10126000882389F290E062EC71E00E94C01380173D
:10127000910748F670E060E086E89CE016C0813B8C
:10128000B1F481E090E05ADA50D980917C0181116B
:10129000BACF80917D01811104C00831110508F495
:1012A000B2CF61E070E081E19AE01BDFACCF813E1C
:1012B000C1F3813831F480911F0190E03FDA35D9D4
:1012C000A2CF6091A40170E0813C69F3823B71F48C
:1012D00080911D0190911E01911180917E018111DB
:1012E00003C086E990E0EACF86E9E9CF823E11F4B7
:1012F00080E0E5CF66E970E0823CA9F28339C1F372
:10130000833C29F470E060E081E898E0CECF843C33
:1013100011F42BDBAFCF8D3B41F4F89488ED8FBDFA
:1013200088E880BF7894A895FFCF8F3C29F470E0BF
:1013300060E08DEC94E0B9CFC0911E018A3B81F44E
:10134000012B09F06CC0CC2329F00FDB10921E0199
:101350004EDB59CF70E060E086E198E065DD54CF68
:10136000C1115DC08A3C31F400DB81E080931E0135
:101370003EDB4ACF833B31F470E060E08CE79EE0D7
:10138000B0DE42CF853C31F4F0DA70E060E084E01A
:1013900090E1F6CF863C31F4E8DA70E060E08DE46D
:1013A00090E1EECF873C91F490911101892F8295C5
:1013B0008F708F5F83708295807F9F70892B809361
:1013C000110160E042DA13DBD0DA1ECF873BC9F4AB
:1013D00081E080937A01C8018F739927892B61F48A
:1013E00020911101822F8F708F5F207F6BE00E9410
:1013F000D113922B90931101602F8091110125DA66
:1014000003CF873E19F410927A01B2CF893B39F4A9
:10141000012B29F470E060E08EE198E09FCFC1E0FD
:10142000F3CE9F92AF92BF92CF92DF92EF92FF9254
:101430000F931F93CF93DF93C82F8B01A0901C01B4
:10144000E0901B01B0907D01D0907B01B11002C0F3
:10145000DD24D394C0901D01D0911E01D111C09004
:101460007E01CC2009F441C041E0C41621F08091F6
:101470001F018E15D0F1A6E9FA2E90907901B801DE
:101480008C2FE8DC60917901662309F40FC291107A
:1014900004C08091A40180935C018C2F8D7F8830E3
:1014A00031F510927401CA3019F400911F0110E057
:1014B000A016110630F4E016110619F010F0009392
:1014C0001F01C8013BD9A8D981E080930501D0E074
:1014D0008D2FDF91CF911F910F91FF90EF90DF90B3
:1014E000CF90BF90AF909F900895FE2CC6CFC13C87
:1014F00009F4DFC1C23C71F48091A4018F1538F466
:101500008F2D8AD98091A40180935C01E0CF8091D6
:101510001F01F7CFC43C39F480E007D870E060E0E9
:1015200086E89CE0CAC18FE48C0F823008F054C07A
:101530006091120170E0C801BB2011F068E170E019
:101540000E94DD13892B19F62091A40101151105C4
:1015500029F5C23BE9F48FEF80930501D091A401F6
:10156000809105016D2D70E0082E000C990B0E94F2
:10157000C0138D0F911DE2D8C82F80931F01D8177B
:1015800029F0823811F08E1101C0FDD98C2FB9CF0E
:101590002E1508F7A21610F381E0DECFE0911201BC
:1015A000F0E0CF0166E371E00E94C013801791075D
:1015B00010F42E1580F6CF016CE672E00E94C01385
:1015C0008017910758F6A21648F2CFD970E060E074
:1015D00086E89CE086DDC2CF8FE18C0F823020F45C
:1015E00080910501819571CFC13009F0D2C00932D7
:1015F000110511F4C0930501662399F080915C01F7
:101600006150770B90E00E94C0136091780170E008
:101610000E94F113611101C061E06093A301609326
:1016200081018091A3019091A401482F491B550B82
:101630009A0160915A0170915B016F5F7F4F7093C7
:101640005B0160935A01452B09F441CF40E052E021
:1016500037FF06C040E450E0983810F440E051E015
:101660005695479537FF02C02F5F3F4F3595279519
:1016700021153105A9F74617570708F028CF891714
:1016800008F056C08FEF890FAFEFA80F2A2F30E078
:10169000220F331FA90144525D4FFA0165917491E5
:1016A000A91708F04AC0E0916C00F0916D00EF2B93
:1016B00009F043C06F3F710509F03FC070936D00A2
:1016C00060936C0020553E4FF90165917491E09153
:1016D0006A00F0916B00E617F70708F04BC06091C5
:1016E0006A0070916B006F5F7F4F70936B00609327
:1016F0006A0060916C0070916D00FA0145915491FF
:101700006417750781F440916A0050916B00F901EC
:10171000259134914217530731F4C091A3010E94DF
:101720009502C093A30110925B0110925A01CFCE93
:10173000981708F0A9CF81E0A6CFE0916C00F09156
:101740006D00E617F70738F460916C0070916D003A
:101750006F5F7F4FB3CFE0916C00F0916D006E171B
:101760007F0708F0AFCF60916C0070916D00615001
:101770007109A4CFE0916A00F0916B006E177F07AA
:1017800008F0B7CF60916A0070916B0061507109E9
:10179000ACCFC530A9F48091A401833408F497CE6E
:1017A00090E0801B910B282F823491053CF0873903
:1017B000910508F026E92093A30189CE22E4FBCF0E
:1017C000C630B1F49091A40180918101981708F07E
:1017D0007ECE090F111D90E08017910734F0C801EB
:1017E0000234110514F482E490E08093A3016FCEDB
:1017F000C73069F49091A3018091A401891710F476
:101800008F5FF3CF981708F062CE8150EECFD111E1
:101810004BC0C33CA9F481E0B11080E080937D010E
:10182000E6D8B1D88091A40190E00E949E038093F5
:101830001F010E940C048091A40180935C0148CE9A
:10184000C33B59F4012B09F042CECC2011F086E9BC
:10185000F82E8F2D0E940C043BCEC33E19F48091CC
:101860001F01F8CFC53C49F480E00E94950270E06A
:1018700060E084E090E135DC2BCE70E060E082E156
:1018800098E0C73B79F0CA3C39F48091A401809379
:101890008001ADD86AD81CCECA3B31F470E060E05C
:1018A0008AE198E0C1DA14CED1E012CE992009F491
:1018B000F4CD70E060E083EF98E013DC08CE282FD1
:1018C000CB01213C39F470E060E083EF98E009DC63
:1018D00080E00895223C29F470E060E08BEB98E012
:1018E000F6CF213B39F46EE370E067D7892B81F79F
:1018F0003CD8EECF213E41F46EE370E05ED76F5FDF
:1019000060930F0174D8E4CF81E008950F931F9383
:10191000CF93DF93C82F8B01873B81F480E00E9437
:101920009502D0911E01D111A3C0CA3B09F067C036
:1019300070E060E08AE298E077DA4AC08079803926
:1019400001F520911801909119018C2F8F70823030
:1019500049F480918001811108C0822F291728F451
:10196000892F03C0822F9217D8F30E949502C33C9F
:1019700009F50E94B50470E060E083EF98E0B1DB08
:1019800017C0803811F480E0F0CFC83009F072C081
:1019900060E0809110010E942504C3CF0931110538
:1019A00038F0C093A501602F809110010E9425049A
:1019B000D0E00EC0C43C91F4D09180016D2F70E056
:1019C000D11114C060911F0170E081E19AE089DBC0
:1019D0008D2FDF91CF911F910F910895C43B49F452
:1019E0000E94C3041092020261E070E081E19AE07B
:1019F000C6CFC53C09F095CF66E970E0F7CFC73C8C
:101A0000A9F490911001892F82958F708F5F837058
:101A10008295807F9F70892B8093100160E00E94E7
:101A200025040E94F7040E94B504D2CFC73BC9F435
:101A300081E080937A01C8018F739927892B59F42B
:101A400020911001822F8F708F5F207F6BE0A9D6CD
:101A5000922B90931001602F809110010E94250419
:101A6000B7CFC73E29F410927A010E94F704B0CF95
:101A7000D1E0AECFC13009F491CFC33009F493CF98
:101A800076CF86E884B91092CD011092CE010E94E3
:101A90006502E1E6F0E0808182608083139A87EE40
:101AA00083B908950F931F93CF931092A80180914B
:101AB0000002909101029C012F5F3F4F8827907890
:101AC000822B932B9093010280930002C091A60178
:101AD0000E946902C817B9F01092A5018093A6016F
:101AE000909102028823B1F1892F80699F709F3005
:101AF00079F58093020290E080E00E944302109208
:101B000001021092000200910002109101028091E6
:101B1000A501882369F1B80183E00E942802E8D971
:101B20000F731127012B81F410925E01AADFC0917F
:101B30005E01C11105C00E94650281E08093C4016D
:101B4000CF5FCF71C0935E01CF911F910F91089528
:101B50008F5FCFCF892F8F7E95FD08C080688093DF
:101B600002028091000290910102C7CF806CF7CFF2
:101B7000C09102028C2F807F803B49F470E060E0CE
:101B800081E00E942802C8010E944302D0CFB80120
:101B900081E00E942802C4FF0FC0C5FDF4CF0831C8
:101BA000110528F21092010210920002C062C09347
:101BB000020290E080E0E8CFCC2309F4B8CFC5FF63
:101BC00003C00E944702B3CF0231110508F4AFCF22
:101BD000C064C093020290E080E00E944302F1CF13
:101BE0008091CF0181110E9493058091A8018111FC
:101BF00059CF0895EF92FF920F931F93CF93DF93E6
:101C0000EC0108E017E082ECE82EFF24F394209723
:101C100039F4DF91CF911F910F91FF90EF900895CC
:101C2000809182018111F5CF8091A401843068F404
:101C300082E00E942202C7010197F1F780E00E9432
:101C40002202CEDF55D92197E2CF80E00E94220206
:101C5000C801F2CF0F931F93CF93C82F06EA8111CB
:101C600002C008E0C1E010E082E30E949502C801D2
:101C7000C1DF80E00E9495028AEF90E0BBDFC15097
:101C800099F78AE992E0CF911F910F91B3CFCF934B
:101C9000DF93282F64E685D5382FC92F892F6AE076
:101CA00080D5D92F243650F0832FD4DF8C2F6AE0D3
:101CB00078D5D0DF8D2FDF91CF91CCCFCA30B0F760
:101CC000F9CFCF93DF93D82FC3E080911F010E94FB
:101CD000950288EC90E08EDFDD2319F080E991E039
:101CE00089DF80E00E94950288EC90E083DFC1509C
:101CF00061F7DF91CF910895DF92EF92FF920F93FA
:101D00001F93CF93DF93D82F8B01C0910B0181E0FC
:101D100080937401C33079F4F09079018D2F9AD8B3
:101D2000FF20A1F080917901811110C070E060E086
:101D300083EF98E0D6D9D83071F0D13C09F002C1D8
:101D400070E060E083EF98E0CCD908C0D83041F46F
:101D500081E08093030181E08093040180E046C12B
:101D6000D23C69F4109279018C2F90E0019665E0E5
:101D700070E037D580930B010E94F704EFCFD13B81
:101D8000C1F480910201012B41F49FEF8E3618F4CB
:101D9000823018F491E09093030190910301890F30
:101DA00021F481E080930201D9CF8F36D8F38EE6FB
:101DB000F9CFD13E59F480910301819580930301BD
:101DC00080910401819580930401D6CFD23BE1F448
:101DD00081E08093030180910201823018F08150EC
:101DE0008093020181E080930401C23008F0F1C0C9
:101DF00000FDB4CFEC2FF0E0E75FFE4F80818F3F16
:101E000009F4ACCF8F5FBBC0D13009F0F7C0093205
:101E1000110511F4D0930301D09055018D2D880F39
:101E2000D7FC809590E067E070E0AAD4292FE0907D
:101E300054018E2D880FE7FC8095D09101016D2F04
:101E400070E090E09DD4290FF09053018F2D880F02
:101E5000F7FC8095C09100016C2F70E090E090D469
:101E6000622F690F80910201680F7727771F809199
:101E70007901813091F4809176019091770125E08C
:101E8000969587952A95E1F724E730E0A901481B4C
:101E9000590BCA0175D4B90190D4862F0E949502BE
:101EA00000FD06C00E94720281708D0D8093550165
:101EB000809152018E0D809354010E94720265E25E
:101EC00070D49F0D909353010E9472028F7331F46E
:101ED0000E9472026DE065D490935201DD2339F0C7
:101EE0000E9472028F7319F4D150D09301010E94A5
:101EF0007202811108C00E9472026BE052D490936A
:101F0000010110925401C33038F00E9472028F71A7
:101F100019F4C150C09300010E9472028F7731F40E
:101F20000E94720266E03DD49093000109321105CF
:101F300019F481E0809304018091A201080F0093BD
:101F4000A2010CCFD23C09F40FCFD43C21F48C2F4A
:101F500090E004960CCFD13B51F5C23090F400FDD7
:101F6000FDCEEC2FF0E0E75FFE4F80819091040101
:101F7000891B8F3F08F08EEF883008F488E080835B
:101F8000EDCEC43009F0EACE8091080190910401B1
:101F9000890F823040F482E080930801809108012B
:101FA0000E949502DBCE8937B8F388E7F5CFD13EA2
:101FB00009F406CFD23B09F415CFD23E09F4DCCEAA
:101FC000D53C81F470E060E084E090E18AD880E064
:101FD000E7CFC43009F0C2CE809108018330F0F21F
:101FE0008150DACF81E0D13009F4A0CFDF91CF91D9
:101FF0001F910F91FF90EF90DF900895D13C09F46D
:102000009FCED43CD1F6A3CF0F931F93CF93DF93F2
:10201000D82F8B01883031F480917401882311F01E
:1020200088E06ADE8D2F8079803999F481E0809391
:102030007301C0917401CC2311F0C0E004C0809101
:102040001F010E9495028C2FDF91CF911F910F915C
:102050000895803831F41092730180E00E94950257
:10206000ECCFC1E0D13079F7C0917301CC2359F0A6
:1020700080917401882309F3B80181E0DF91CF9149
:102080001F910F9139CE07331140B8F2D093A501BB
:1020900060E080E00E942504D6CFFF920F931F934B
:1020A000CF93DF93C82F162F072FF0901F01807951
:1020B000803909F03BC0DC2FDC70D1F01092730145
:1020C000D0E080917301882321F0612F702F8C2F35
:1020D0009BDFF0921F01C83091F5612F702F88E0CF
:1020E00015DC8D2FDF91CF911F910F91FF900895F7
:1020F00091E090937301EC2FEF70F0E0E55FFE4FFD
:1021000080812FEF280F263928F480931F01109229
:102110007401D7CF90937401873990F28759990B46
:1021200065E070E04AD380930B01CBCF803829F46F
:102130001092730180E00E949502D1E0C2CFC130BD
:1021400069F480917301811110C0612F702F81E0BB
:10215000DF91CF911F910F91FF90D8CBC33039F40D
:10216000612F809110010E942504D0E0BACFC63CB7
:1021700049F40E94B50470E060E083EF98E00E94AB
:102180007108F3CFC73B09F0ACCF70E060E08EE29E
:1021900098E00E941407E9CF2F932FB72F933F9316
:1021A0008F939F93AF93BF93EF93FF938091CE0153
:1021B0008823E9F0E091CD0120B131B1F0E0EE0FDC
:1021C000FF1FDF01A753BE4F2D933C93EB53FE4FF0
:1021D000808191818217930708F4019628173907A7
:1021E00008F401979183808381E08093CF0181E09F
:1021F0008093CE01FF91EF91BF91AF919F918F910D
:102200003F912F912FBF2F9118958F9381E080934D
:10221000A8018F9118958F9381E08093A7018F91EA
:102220001895F89485B7877F85BF90E088ED0FB645
:10223000F894A8958FBD90B7977F90BF0FBE89E0A7
:102240008CB98CE780BB82EA8093720081E1809335
:1022500071008FEF90E0909369008093680084E0B4
:102260008EB988BD8CB780618CBFA89580E480BF93
:1022700008DC789481E00E94510270E060E08DEC0F
:1022800098E00E941407109282010E94B5040E94F7
:102290006902811195C082E00E945102F89480E8A1
:1022A00090E0B2D2853A09F0BAC003E811E0C1E883
:1022B000D0E0CE01A9D2F80181938F012196C03AD6
:1022C000D105B9F778948091830180937D01809145
:1022D000840180931801809185018093150180917C
:1022E000860180931201809187018093190180916A
:1022F0008801809316018091890180931301809158
:102300008A0180931A0180918B018093170180913B
:102310008C018093140180918D0180931E01809126
:102320008E0180937E0180918F0180937C0180914A
:10233000900180931D018091910180938001809193
:10234000920180937F01809193018093200180917D
:10235000940180930B0180919501809309018091F4
:10236000960180930A0180919701809308018091E2
:10237000980180930F0180919901809321018091B0
:102380009A018093C00180919B01809322018091EA
:102390009C018093110180919D0180931001809197
:1023A0009E018093750180919F0180930C01809123
:1023B000A00180930D018091A10180930E0130C096
:1023C000C0E08C2F0E94950283E190E013DC8C2FFB
:1023D00086950E94950283E190E00CDC0E946902E0
:1023E0008823D1F0CF5FC03461F765E181E00E94BE
:1023F000D3040E94F704C6E98C2F0E94950284E062
:1024000090E0F8DBC150C1F746CF8C2F0E949502B7
:102410008DE090E0EFDBC150C111F7CF3CCF789455
:1024200080918001811180931F0161E070E083EF52
:1024300098E00E94140740E4242E55245394CC24A1
:10244000C394D12C312C412C6CEF662E63E0762E98
:1024500073EF872E78E0972E0E9478078091AB016A
:102460009091AC01009751F06091A9017091AA017F
:102470000E9471081092AC011092AB018091A501ED
:10248000882319F180E00E949502A895F3E4F0BF3B
:102490001F980E9469028111FCCF0E9447028CB7ED
:1024A00080618CBF1092CF011092A8011092A701F9
:1024B0008091A501811134C082E0809323018CB703
:1024C0008F7E8CBFDEDAA89520BE8ADB1092820157
:1024D000C091BE01D091BF0180917A01811104C0E9
:1024E0000E940F040E940D03E4E0CD3CDE0709F0DA
:1024F00038C0C0E7D0E0FE0184918053ABDB8CE2B2
:1025000091E078DB2196F0E0CC37DF07A1F79092DD
:10251000AC018092AB011092AA011092A9019CCF4C
:1025200086B78F79806486BF86B7806186BF8895BD
:1025300086B78F7E86BF8091A70181111092A50179
:102540008091CF01882331F0509223015092C40131
:102550000E9493058091A801882309F4A9CFA2DAEB
:10256000A7CF8EE0CC37D80799F0E0E1C430DE0782
:1025700029F0F0E1CD34DF0709F0BAC08091740191
:10258000813009F0B5C080917301882309F4B0C08F
:10259000C0910B01C23009F43EC0F8F0C43009F01C
:1025A0005BCFD0910801DD0FD73908F0D6E98D2F28
:1025B0000E94950285E090E01DDB809108010E9459
:1025C000950281E490E016DBC15089F780ED92E03E
:1025D00011DB80E00E9495023FCFEC2FF0E0E75F37
:1025E000FE4FD08186E90E949502C11110C0DA32F7
:1025F00050F4C3010197F1F780E00E9495028D2FFE
:1026000090E0F8DA29CF81E090E0F4DAF5CF8D2F71
:10261000869590E0FACF0E9472028F73082F10E027
:102620000E94720267E0BDD0760102C0EE0CFF1C72
:102630009A95E2F70E94720265E0B3D0E60102C00B
:10264000CC0FDD1F9A95E2F7CE0DDF1D0E947202BE
:1026500090E0BE01C6D0C80FD91FC739D10524F0FC
:1026600086E9C82FE0E0DE2F8C2F0E949502C8017A
:10267000C1DA7E0133E0F594E7943A95E1F7E11091
:1026800002C0EE24E394F12CC801B4DA5E01AE1866
:10269000BF08E501B7FE02C0C32DD42D8C2F0E94C8
:1026A00095020E947202837039F4C801A3DACE0148
:1026B000959587950E949502E2E0AE16B10424F745
:1026C0000E9472026DE06DD0860102C0000F111FE2
:1026D0009A95E2F70E947202E801219790E0C823E0
:1026E000D923C00FD11F80E00E949502CE0189CF6F
:1026F000F8E0C138DF0751F48091C301C8DA809156
:102700001E01811104CF88EE93E07BCF88E0C13AAF
:10271000D80721F48091C101BADAF5CFECE0CF35CA
:10272000DE07B9F48091A601811196CE80911F0138
:102730000E94950284E690E05DDA80E00E949502B6
:1027400080910F0190E068EE73E01AD084569109F1
:1027500058CFCB5BD84049F480E0B3DA81E0B1DAFE
:1027600080E0AFDA80ED97E04CCF86B78F7986BFF7
:1027700086B7806186BF889586B78F7E86BF6CCE10
:102780000024552704C0080E591F880F991F009771
:1027900029F076956795B8F37105B9F7802D952FD7
:1027A0000895991B79E004C0991F961708F0961BAD
:1027B000881F7A95C9F780950895AA1BBB1B51E124
:1027C00007C0AA1FBB1FA617B70710F0A61BB70BA1
:1027D000881F991F5A95A9F780959095BC01CD0146
:1027E000089597FB072E16F4009406D077FD08D0C5
:1027F000E4DF07FC05D03EF4909581959F4F089546
:10280000709561957F4F0895E199FECF1FBA8EBBF9
:10281000E09A99278DB30895262FE199FECF1FBA2C
:102820008EBBE09A81500DB2021639F01CBA2DBB56
:102830000FB6F894E29AE19A0FBE0895F894FFCF8C
:10284000060B18010101000482294303781E980237
:1028500037180107058282820B0B0B820B010132B4
:10286000152D0702180115011201020100000000D8
:102870000000000100000000000000000100002135
:102880000123022503270429052C06FF060504035E
:02289000000046
:00000001FF
