:100000006FC100008AC100000C94DB1386C10000A0
:1000100084C100000C94D51380C100007EC1000093
:100020007CC100007AC1000078C1000076C10000E8
:1000300074C1000072C100000C949C136EC10000DA
:100040006CC100006AC1000068C1000066C1000008
:1000500064C1000062C1000060C100005EC1000018
:100060005CC100005AC1000058C1000056C1000028
:10007000303133352E323032332D30372D3032009F
:1000800001050414101115FF3F5235DB291C3C7E7D
:100090002E0320E3316A26E22F6F34B82BAB2EFCFF
:1000A0002F4B30EF2F202FFF2DA42C1F2BCD2CDD1D
:1000B0002A7C2B632969294627F3266926B725A2BE
:1000C00023DB220022192128200420FC1EF41DF02D
:1000D0001CF01BF51A001A11192A1849170F16449B
:1000E000152B1423132D1246116E10650F710E8EF1
:1000F0000D8A0C9B0B930AA209C508B007B506D15F
:1001000005E304ED03F402FF01FF01FF01FF01FF1E
:1001100001FF01FF01FF01FF01FF01FF01FF01FFDF
:1001200001FF01FF01FF01FF01FF01FF01FF01FFCF
:1001300001FF01FF01FF01FF01FF01FF01FF01FFBF
:1001400001FF01FF01FF01FF01FF01FF01FF01FFAF
:1001500001FF01FF01FF01FF01FF01FF01FF01FF9F
:1001600001FF01FF01FF01FF01FF01FF01FF01FF8F
:1001700001FF01FF01FF01FF01FF01FF01FF01FF7F
:1001800001FF01FF01FF01FF01FF01FF01FF01FF6F
:1001900001FF01FF01FF01FF01FF01FF01FF01FF5F
:1001A00001FF01FF01FF01FF01FF01FF01FF01FF4F
:1001B00001FF010100010001000200020002000332
:1001C0000003000400050005000600070008000900
:1001D000000A000B000C000D000F001000120013AD
:1001E000001500160018001A001C001D001F002139
:1001F000002300250028002A002C002E00300032A9
:10020000003400360038003A003B003D003E003F1D
:1002100000400041004200420042004200410040D4
:10022000003E003C003A00360032002E0029002338
:10023000001C00140015001600180019001A001BFD
:10024000001D001E0020002100230025002600289C
:10025000002A002C002E0030003200350037003913
:10026000003C003F004100440047004A004D005060
:1002700000530057005A005E00620066006A006E7C
:1002800000720076007B008000840089008E00945C
:100290000099009F00A400AA00B000B700BD00C4F0
:1002A00000CA00D100D800E000E700EF00F700FF2F
:1002B0000007011001190122012B0135013E0148FF
:1002C0000153015D01680173017E018A019601A25B
:1002D00001AE01BB01C801D501E301F101FF01003D
:1002E00011241FBECFEFD4E0DEBFCDBF11E0A0E0F0
:1002F000B1E0E0EFFDE202C005900D92AE3AB10729
:10030000D9F722E0AEEAB1E001C01D92A234B207F3
:10031000E1F70E94E1130C94F61672CEF89498ED72
:100320009FBD83BF78940895482F362F272FEFE085
:10033000F2E090E080E0508151110BC063E070E08A
:100340000E945D16FC01E15FFD4F408331832283F3
:1003500005C0019633968031910569F70895BC0177
:1003600080914102E1CF109241021092400210921E
:100370003F0281E08093DD0108950F931F93CF9397
:10038000C82F08EA17E0C15020F4CF911F910F91B8
:10039000089582E0C3DFC8010197F1F780E0BEDF76
:1003A000F2CF83B1886483B90895AF92BF92CF92A0
:1003B000DF92EF92FF920F93CF93DF9300D000D0A4
:1003C00000D0CDB7DEB75C016B017A012D833E838F
:1003D000202F30E050E040E029833A834B835C8358
:1003E000970150E040E069817A818B819C810E9475
:1003F0006E1661587F4F8F4F9F4F2FEF30E040E0D8
:1004000050E00E94BA16C9016D817E8162177307A0
:10041000D0F49701261B370BCB01D5012D933C93CC
:10042000F6019183808326960FB6F894DEBF0FBE47
:10043000CDBFDF91CF910F91FF90EF90DF90CF90E4
:10044000BF90AF900895D701A21BB30B9D01ED8122
:10045000FE81EA17FB0708F7C7018E1B9F0B9F0160
:10046000DCCFE0910701F09108013196FB70F46058
:10047000F0930801E09307018091E0018B5A80938B
:10048000E001E4918091E0018E0F0895882321F02E
:10049000813031F0829A05C0829892988A980895A6
:1004A0008298929A8A9A0895CF93DF9300D00F9200
:1004B000CDB7DEB72091AA013091AB014091AC01DC
:1004C00029833A834B83FE01319650E040E0682F48
:1004D00070E0A1E0B0E09B01042E02C035952795A5
:1004E0000A94E2F7922F937081919D0101C0220F2F
:1004F0008A95EAF7992329F09130C1F080B3822BD5
:1005000019C080B32095822380BB82B3822382BB33
:1005100081B3282321BB4E5F5F4F46305105D9F68A
:100520000F900F900F90DF91CF91089590B3822F8D
:100530008095892380BB82B3822B82BB81B3282B19
:10054000E9CFCF93C82F8091E301811109C0CC235B
:1005500039F080914C01C81718F4F3DF82E00DDF09
:100560008091E40181110BC09FDF91E0C11101C0B6
:1005700090E081E0C73408F480E0890F87DFE091E4
:100580001D01F0E0EE0FFF1FE057FE4F0190F081DC
:10059000E02D8C2F09958091E3018C138093E2016B
:1005A000C093E301C093E10182E0C23020F081E01A
:1005B000CA3008F080E0CF91B1CECF93DF93C82F3F
:1005C000D091E30180E0BDDFC0931D018D2FDF914D
:1005D000CF91B7CF811182E067CF81118AE064CFDC
:1005E000811188E061CF811188E25ECF811180E2C4
:1005F0005BCF811182E258CF81118AE255CF81E031
:1006000008959C01CB01BA0140916C0050916D009E
:10061000E0916A00F0916B00D901A82BB92BAB2BAC
:10062000A9F410926D0010926C0010926B00109261
:100630006A008FEF91E090936900809368001092B8
:100640006F0010926E0088988998089521153105E1
:1006500029F1889A009721F1899A4E2B5F2B3093CC
:100660006D0020936C0090936B0080936A0041159D
:10067000510549F0CB01809720916E0030916F00B9
:1006800082179307C8F37093690060936800452B45
:1006900021F410926F0010926E0008958898DACFBE
:1006A0008998DBCFCF92DF92EF92FF920F93CF9397
:1006B000DF9300D000D0CDB7DEB7811112C04FEF6D
:1006C00051E070E060E090E080E00F900F900F90BC
:1006D0000F90DF91CF910F91FF90EF90DF90CF902F
:1006E00090CF815090E09C01220F331FF901ED540F
:1006F000FE4FE590F490F901E957FF4FC590D49073
:100700006FEF70E00E945D1666E970E00E9493163C
:10071000062FE0911D01F0E0E35FFE4F858986FD25
:1007200000959601A701BE016F5F7F4FCE01039632
:100730003CDE69817A81A6018B819C8162DF0F900A
:100740000F900F900F90DF91CF910F91FF90EF904E
:10075000DF90CF900895AC019B0180916C00909147
:100760006D008417950750F580916C0090916D0095
:10077000019690936D0080936C0080916A00909137
:100780006B008217930738F580916A0090916B0097
:10079000019690936B0080936A0080916C00909119
:1007A0006D008417950741F440916A0050916B00E9
:1007B00081E04217530709F080E0089580916C00B2
:1007C00090916D0048175907C0F680916C00909188
:1007D0006D000197CECF80916A0090916B00281731
:1007E0003907D8F680916A0090916B000197D1CFBC
:1007F000E82FF0E0EE0FFF1FED54FE4F859194912E
:1008000070E060E0A8CFE82FF0E0EE0FFF1FED549E
:10081000FE4F6591749190E080E09DCFE82FF0E06D
:10082000EE0FFF1FED54FE4F85919491BC0193CFC5
:100830000F93CF93DF9300D000D0CDB7DEB790E019
:10084000880F991FFC01ED54FE4F45915491FC0116
:10085000E957FF4F25913491E0911D01F0E0E35FEE
:10086000FE4F0589BE016F5F7F4FCE0103969DDD70
:1008700069817A818B819C816EDF0F900F900F9040
:100880000F90DF91CF910F910895EF92FF920F9308
:10089000CF93DF9300D000D0CDB7DEB790E09C01BE
:1008A000220F331FF901ED54FE4FE590F490F9014A
:1008B000E957FF4F259134916FEF70E00E945D166C
:1008C00066E970E00E949316062FE0911D01F0E0AA
:1008D000E35FFE4F858986FD0095A701BE016F5F2E
:1008E0007F4FCE01039661DD69817A818B819C8186
:1008F00032DF0F900F900F900F90DF91CF910F91FB
:10090000FF90EF900895CF93DF9300D000D000D0F8
:10091000CDB7DEB720910D014091FD015091FE0150
:1009200043595A4009F422E0843059F46093190184
:1009300026960FB6F894DEBF0FBECDBFDF91CF91E4
:1009400008956623A9F3823019F497E9961B692F5D
:1009500096E0EDE4F1E0DE01119601900D929A959A
:10096000E1F78150990B880F991FA1E0B0E0AC0F1F
:10097000BD1F8A0F9B1FDC01ED91FC91E20FF11D61
:100980006083D6CF813019F460933C0108958230A2
:1009900011F460934C010895CF92DF92EF92FF9291
:1009A0000F931F93CF93DF939C0150910D01909172
:1009B0001801E2E0911101C0E52FF0E0E35FFE4F86
:1009C000428140930A01858180930901E92FF0E07B
:1009D000E35FFE4FC185642F70E0552381F0C13085
:1009E00071F4860F972F911D95958795DF91CF9183
:1009F0001F910F91FF90EF90DF90CF9008952617F1
:100A000037079CF1821713068CF3511102C0822F15
:100A1000EDCF841B6C2F6150770B8B01E82EF12CEE
:100A2000C7010E94A7166093DA016695E62FF0E0F1
:100A3000842FD12CC12CD0E0DC17C1F2C601B80143
:100A40000E949316842F860FA82FB0E0B9016A1B6D
:100A50007B0B77FF03C0BD01621B730BCE0CDF1C49
:100A6000E617F7071CF6DF5FE7CF842FBFCF809331
:100A7000DB0167CDEDE0F1E0868580930B01838992
:100A8000808B8DE0EFE2F1E0A2E2B1E001900D9207
:100A90008A95E1F708958091D601882351F09091CD
:100AA000E3019093D9018093D5011092D401109263
:100AB000D30108950F931F93CF93E82FCB0140915B
:100AC00001022FEF240F2C3138F480E0EDDC80E0C0
:100AD000CF911F910F91DACCCE2FC295CF70EF70CE
:100AE0002091D701211123C02091470130E053E02C
:100AF000220F331F5A95E1F762177307C8F450911C
:100B0000DC0152171306A4F4552391F02091E20161
:100B1000C2E02F3008F4C1E02091E401222309F45F
:100B200065C080E04D3108F057C0E0E01EC0C2E073
:100B3000E73010F4F0E016C0E73089F50091B60117
:100B400010E00F5F1F4F8DDC65E00E948716980153
:100B5000290F311DC90166E070E00E94A71680933D
:100B6000B601FC01E058FF4FE491C33071F480916D
:100B7000B50190E0019663E170E00E9493168093C6
:100B8000B5018D5A9E4FDC01CC91CC23C9F1C13007
:100B900011F0EE0FC2E08E2F87DC8C2F99CFE8305A
:100BA00009F0BACF2091E401222399F02FE030E040
:100BB00082239323892B51F48091B60190E0019612
:100BC00066E070E00E94A7168093B601E091B6013E
:100BD000B1CF23E0ECCF8E5FE82FF0E0EA59FE4F73
:100BE00090814917C0F73197E081A4CF96958795FA
:100BF00063E070E00E949316FC01EE0FFF1FB2CF7E
:100C0000E0E0C9CFCF93C091E30186E48C0F873930
:100C100008F080E096DC83E0B0DB8C2FCF9191CCA4
:100C2000CF93C091E30180E08CDC83E0A6DB8C2FC6
:100C3000CF9187CC81E00895823019F46093470109
:100C400008956111609342010895662369F081302F
:100C500099F4809144019091FF01891B680F609382
:100C6000440182E080930C0180914301873418F0A5
:100C700086E4809343010895635E60934301F4CF5B
:100C8000609348010895E82FF0E0E35FFE4F63AF03
:100C9000089540911E0150911F012FEF280F81E010
:100CA00090E002C0880F991F2A95E2F7662339F079
:100CB000842B952B90931F0180931E01089580959E
:100CC00084239523F7CFCF93DF938DE091E090932A
:100CD000DF018093DE01F894D0E0C0E0E091DE0116
:100CE000F091DF01EC0FFD1F6081CE018F579F4F08
:100CF0000E94E4162196C034D10581F765EA80E8A8
:100D000090E00E94E4167894DF91CF9108951092BC
:100D10000D0230B181B12091E001329536953695C2
:100D2000337090E0880F991F880F991F830F911DD2
:100D3000820F8093E00180910202882309F447C06A
:100D40001092020280910B029091E401992329F004
:100D50001F9810920E0210920B02811146C08091D2
:100D60000C018823A9F180910702909108029093C9
:100D70000402809303024096807E61EC72E00E9440
:100D80009316809142018750990B680F791F7695D1
:100D90006795609301028091CF018823F1F0815023
:100DA0008093CF018091E401811108C08EE884B95D
:100DB00081E080930B0210920C02F3DA80910C0117
:100DC000882329F080910C01815080930C010895B3
:100DD0008091030290910402CECF6D3118F770E03C
:100DE00060E084E0A1DA85E0DBCF813039F78091E3
:100DF0000C0181115EC0809105029091060240961F
:100E0000DC0145E0B695A7954A95E1F7409144018C
:100E100056E0969587955A95E1F7042E000C550BF0
:100E20009A012E503140820F931F909300028093BD
:100E3000FF018091BE01E82FF0E0EE0FFF1FE154AB
:100E4000FE4F20813181BD01621B730B9B01B18379
:100E5000A0838F5F87708093BE01660F771F660F38
:100E6000771F6A0F7B1F8091430190E0841B950BD5
:100E7000825F9E4F880F991F681B790B83E01616BF
:100E800017060CF045C0615071098150C1F7161664
:100E900017060CF057C037FD74C08091BD011816BD
:100EA000F4F5861B8093BD0186E884B910920B028D
:100EB00082CF8091090290910A029093060280935A
:100EC0000502409635E0969587953A95E1F790931F
:100ED000C0018093BF019093C2018093C1019093A0
:100EE000C4018093C3019093C6018093C501909380
:100EF000C8018093C7019093CA018093C901909360
:100F0000CC018093CB019093CE018093CD0173CF20
:100F10006115710509F4B9CF6F5F7F4FB6CF660FCA
:100F2000771F653071055CF06350710975956795A1
:100F300088E1861B8093BD0185E0F6D9B5CF61E0DD
:100F400070E0F6CF6C3F8FEF7807DCF437FF19C005
:100F50008091BD0187FF02C08450A3CF84EE861B21
:100F60008093BD01809101028F3108F49DCF8CEFF9
:100F70009FEF9C01261B370BB9017595679586E09D
:100F8000DCCF809101028E3108F48ECF70E060E0FA
:100F900087E0D3CF4FEF51E070E060E090E080E079
:100FA00030CB282F811101C0F5CF215030E0220F26
:100FB000331FF901ED54FE4F85919491F901E957E2
:100FC000FF4F4591549170E060E01BCB811101C04F
:100FD000E1CF815090E0880F991FFC01ED54FE4F46
:100FE00065917491FC01E957FF4F4591549190E050
:100FF00080E007CB282F811101C0CCCF215030E0F9
:10100000220F331FF901ED54FE4F85919491F901A0
:10101000E957FF4F45915491BC01F3CAEF92FF92FB
:101020000F93CF93DF9300D000D0CDB7DEB78111FF
:1010300010C04FEF51E070E060E090E080E00F9072
:101040000F900F900F90DF91CF910F91FF90EF9045
:10105000D8CA815090E0880F991FFC01ED54FE4FD3
:1010600045915491FC01E957FF4FE590F490E091D0
:101070001D01F0E0E35FFE4F05899701BE016F5F40
:101080007F4FCE01039691D969817A81A7018B8127
:101090009C81B7DA0F900F900F900F90DF91CF9156
:1010A0000F91FF90EF900895813019F410921B0179
:1010B0000895823019F460931C010895833019F467
:1010C00060931A010895843011F460930E0108951D
:1010D000FF920F931F93CF93DF938C01D62FC72FCF
:1010E000F42E8091FD019091FE01892B31F0E09169
:1010F000FD01F091FE0189E009951093FE01009336
:10110000FD01012B41F0E091FD01F091FE016D2FF9
:101110007C2F8F2D099581E08093DD01DF91CF91A8
:101120001F910F91FF9008952091EC01283080F4D9
:10113000E22FF0E0EE0FFF1FE351FE4F808391831B
:101140002F5F2093EC0148E0C3DF8091EC0108950C
:101150008FEF0895CF92DF92EF92FF920F931F933C
:10116000CF93DF93AB01E0911D01833CF1F400913B
:101170001E0110911F018E2F2DE0CDE0D0E090E0F8
:101180000196BE010E94A716A801082E02C056951E
:1011900047950A94E2F740FD02C0215081F7E81715
:1011A00049F10BDA90DDC0E0A7C0F0E0E35FFE4F4D
:1011B000C589833B09F081C0672BC1F481E080932E
:1011C000B4011092B301309105011316ACF4CF3F76
:1011D000B9F48091B2018C1362C08091B301811186
:1011E00001C01EDD81E08093B30159C08091B4013C
:1011F0008111E9CFC1E080C0332359F3CC2349F3F7
:1012000020913C01222309F456C0CA0168E170E034
:101210000E949316892B39F6213009F44CC08EEFC9
:1012200090E0422F4150550BBA010E94A716862F1D
:10123000632F330F770B90E00E945D16FC01EC0FDB
:10124000F11DCFE7213059F1C0E0F7FD28C0CFEF05
:10125000EF3FF10509F01CF5CE2F222301F1822F7B
:101260008150990B6C018FEF90E0B6010E94A71698
:101270006695062F10E0F12CE12CC701B6010E9403
:101280009316C62FCF01861B9109081719073CF446
:101290009FEFE90EF11C8E2D8195821770F3C0939C
:1012A000B201E0911D01F0E0E35FFE4FC58B80913C
:1012B000E30147D978CF81E0BBCF833E89F4109218
:1012C000B40181E0CC2329F0CF3F39F080910501B2
:1012D000819580930501F7DCEACFC0930501FBCF30
:1012E000C0911801C11186CF893B09F083CF70E00E
:1012F00060E08FEA9AE018DF8C2FDF91CF911F9189
:101300000F91FF90EF90DF90CF900895282FCB01A1
:10131000283039F41092D6011092D4011092D301E2
:101320000895213B59F48091D60181508330B8F55E
:1013300083E08093D6018093D501EECF253BA1F4C5
:101340006EE370E00E949316892B49F58091D601D7
:101350008A3F28F58B5F8093D6018093D501109248
:10136000D4011092D3014ECC2130C9F48091D30125
:101370009091D401019688382EE0920728F490933A
:10138000D4018093D30108951092D4011092D30117
:101390008091D601882319F081508093D601089559
:1013A000EF92FF921F93CF93DF9310910F021111D1
:1013B00006C0DF91CF911F91FF90EF900895E090CC
:1013C0001002F0901102C091EC01C1500C2E000CE3
:1013D000DD0BC7FD0EC0FE01EE0FFF1FE351FE4FF8
:1013E0000190F081E02DB701812F0995219781119E
:1013F000F0CFEFE0F2E08381808384819581928356
:101400008183339682E0EC33F807A9F710923C020F
:1014100010923E0210923D02C8CF8091EC018823C9
:1014200019F081508093EC01E091EC0190E080E0B4
:10143000EE2341F0E150FF0BEE0FFF1FE351FE4F93
:10144000808191814AE070E060E042CE1F93CF93AB
:10145000DF93162FD72FC42FF9018830B9F480916C
:101460001D018093B9011092B80180E06AD8809183
:10147000E50181112FC08091B8018F5F8093B80181
:1014800070E060E089EB9AE04FDE24C0982F907FF7
:10149000903B49F58091B801481718F181508D3083
:1014A00040F49091D801992321F090911D01891366
:1014B00084D8812F9D2F6DE570E00E9493160697CA
:1014C00071F48091B8018F5F8093B801C81710F054
:1014D00088E337D880E0DF91CF911F91089582E1B2
:1014E000F8CF80E0F6CF903E51F48091B801882388
:1014F00071F0481760F08091B9015FD8C1CF8A3090
:1015000041F46091D0018091B8010995DCDB85DF61
:10151000E1CF8930F9F68091B9014FD8DBCF23E8CC
:1015200034E043E093CF23E834E044E08FCF24E578
:1015300038E044E08BCF22EC34E042E087CF2CE16E
:1015400036E042E083CF25E236E042E07FCF20E480
:1015500036E041E07BCF23E436E043E077CF91E013
:101560009093D80129E436E04DE070DF1092D80165
:101570000895883041F41092D0011092B70180E0B4
:101580000E94A1020DC0813009F59091B70191111F
:1015900009C06032710520F08093B7010E94B30149
:1015A00080E00895913081F46B3B710520F082E07A
:1015B0008093B701E4CF6115710591F3862F880FF1
:1015C000880F88708E5EDCCF28DFEACF813811F07B
:1015D000813E31F791E09093B701813E49F48091CB
:1015E000D001865F8093D0010E94B3018BE4C8CF05
:1015F0008091D0018F5FF6CF0F931F93CF93DF932E
:10160000D82FC92F8B0109DFB8018D2F9C2FDF91B7
:10161000CF911F910F9188CD813C39F470E060E04B
:101620008EE59BE0E9DF80E00895823C29F470E0DC
:1016300060E087EF9EE0F6CF873B31F470E060E03A
:1016400083EA9AE071DDEFCF81E00895813C39F4BF
:1016500070E060E08EE59BE0CFDF80E00895823CA3
:1016600029F470E060E089EC9EE0F6CF81E0089517
:10167000843011F58091FD019091FE0121E18F34BC
:10168000920731F469E170E08EE89CE0B5DF0DC0AF
:101690008E589C4061F49091E301923040F0892F84
:1016A000869596959695890FE2D980E0089570E029
:1016B00060E08EE59BE0EACF81E008950F931F93F1
:1016C000CF938B018830C1F480E00E94A102109278
:1016D000DC0170E060E080914501ECD91092D60108
:1016E000012B31F0C0E08C2FCF911F910F91089505
:1016F00081E08093E401F6CF813051F469317105C6
:1017000088F38093E401B80180914501D3D9EACFF1
:10171000833061F58091DC018F3F19F08F5F8093FA
:10172000DC0180911B01882359F080911C0190E01D
:1017300062EC71E00E945D160817190708F09AD94B
:10174000B80180914501B6D980914801882351F2B2
:1017500090E062EC71E00E945D168017910708F03E
:10176000C1CF70E060E080E29FE017C0813BB9F438
:1017700081E090E011D90E94A10280911A018111AB
:10178000B1CF80910D01811104C00831110508F419
:10179000A9CF61E070E08EE89CE02EDFA3CF813E10
:1017A000C1F3813839F480910B0190E0F5D80E94A3
:1017B000A10298CF813C21F46091E30170E0EBCF6E
:1017C000823B81F41092DC0180910E01909118010E
:1017D000911180911901811103C086E990E0E6CF53
:1017E00086E9E5CF823E11F480E0E1CF66E970E062
:1017F000823C89F28339C1F3833C29F470E060E0D4
:1018000089EC9EE0CACF843C11F4FCD9AACF8D3B71
:1018100041F4F89488ED8FBD88E880BF7894A8954E
:10182000FFCF8F3C29F470E060E08AE196E0B5CF0D
:101830008A3B99F40115110509F048C0C0911801BF
:10184000CC2329F0DFD9109218013DDA4BCF70E09C
:1018500060E083E99AE068DC46CF833B29F470E0DE
:1018600060E08FE491E199CF873C99F49091450134
:10187000892F82958F708F5F83708295807F9F7094
:10188000892B8093450170E060E014D91CDABAD945
:1018900029CF873BB1F481E08093D701C8018F73D2
:1018A0009927892B09F02FCF20914501822F8F7026
:1018B0008F5F207F6BE00E948716922B90934501EB
:1018C00022CF873E19F41092D701BFCFC0911801E3
:1018D000C11122C08A3C31F495D981E0809318016E
:1018E000F2D901CF853C39F48DD970E060E08BED01
:1018F00092E182DEF8CE863C31F484D970E060E07B
:1019000085E293E1F6CF893B39F4012B29F470E0AD
:1019100060E08BE99AE09FCFC1E0E5CEBF92CF9225
:10192000DF92EF92FF920F931F93CF93DF93C82F15
:101930008B01D0900A01D091090180910D01B090E6
:10194000DA01811102C0BB24B394E0900E018091B2
:1019500018018111E0901901EE2009F440C041E026
:10196000E41621F080910B018D17C8F1F6E9FF2EE6
:10197000C090D601B8018C2FC9DC8091D601882394
:1019800009F4FEC1C11004C09091E3019093D90104
:101990009C2F9D7F983029F51092D201CA3019F4FE
:1019A00000910B0110E0D016110630F4D01711068B
:1019B00019F010F000930B01C8010E94CC0457D815
:1019C00081E080930601D0E08D2FDF91CF911F91B0
:1019D0000F91FF90EF90DF90CF90BF900895FD2E74
:1019E000C7CFC13C09F4CFC1C23C49F48091E301A7
:1019F0008F1508F03EC08F2D3AD84DD8E4CFC43CA7
:101A000041F480E00E94A10270E060E080E29FE08B
:101A1000BEC19FE49C0F923008F057C080910D0129
:101A2000882351F1C80168E170E00E949316892B68
:101A300051F62091E3010115110549F5C23B09F565
:101A40008FEF80930601C091E301809106016B2D19
:101A500070E0082E000C990B0E945D168C0F911DF2
:101A60000E94CC0480930B01C81719F08D1301C09C
:101A7000D7D880910B01C0CF6091150170E0C801EB
:101A8000D4CF2D17E8F6D216F0F281E0DACFE0914C
:101A90001501F0E0CF0166E371E00E945D1680174A
:101AA000910710F42D1760F6CF016CE672E00E94EA
:101AB0005D168017910738F6D21628F2A3D870E089
:101AC00060E080E29FE098DDBECF9FE19C0F923006
:101AD00020F480910601819574CFC13009F085C052
:101AE0000932110511F4C0930601882381F1C091D8
:101AF000D901D0E090E0BE010E945D169C01E0910A
:101B0000D501F0E0BF010E94A716462FC9018C1B2A
:101B10009D0BBF010E94A716242F261B8091D30185
:101B20009091D4016EE370E00E949316822F90E0B2
:101B30000E945D166CE370E00E949316842F861B52
:101B4000461301C081E08093E1018093DB01C091E5
:101B5000E1012091E3014C2F421B550BCA0160911A
:101B6000BA017091BB016F5F7F4F7093BB016093AF
:101B7000BA01009709F427CF40E052E097FF06C072
:101B800040E450E0233810F440E051E0569547958A
:101B900097FD0196959587950097C1F746175707CA
:101BA00008F011CFC217E8F4CFEFC20FE0911D018A
:101BB000F0E0EE0FFF1FEA58FE4F0190F081E02D9C
:101BC0008FEF8C0F0995882339F0D091E1018C2F8C
:101BD0000E94A102D093E1011092BB011092BA01C0
:101BE000F2CE2C1718F7C1E0E0CFC530A9F48091F0
:101BF000E301823408F4E7CE90E0801B910B873933
:101C0000910514F086E990E08134910514F481E4A3
:101C100090E08093E101D7CEC63079F49091E30152
:101C20008091DB01981708F0CECE090F111D90E0CE
:101C30008017910774F3C801E7CFC73069F490911A
:101C4000E1018091E301891710F48F5FE2CF9817CB
:101C500008F0B9CE8150DDCFC33CA1F0C63C51F5B0
:101C600081E090910D01911180E080930D012BD8BE
:101C70000E9410068091E30190E00E94CC048093C2
:101C80000B01BACE60911E0170911F0190E080E0BF
:101C900020E0AB01082E02C0569547950A94E2F762
:101CA0004170240F01968D30910599F72230C0F2D2
:101CB000D1E08ACED0911801D111FACF8DE48C0FEA
:101CC0008230C0F4C33B59F420911D0188E190E1BA
:101CD00002C0959587952A95E2F780FDE9CF012B03
:101CE00009F071CEEE2011F086E9F82E8F2D0E94BA
:101CF00037056ACE8DE18C0F823080F4C33E59F4F3
:101D000020911D0188E190E102C0959587952A9563
:101D1000E2F780FDCDCF80910B01E9CFC53C49F4BE
:101D200080E00E94A10270E060E08BED92E164DC53
:101D30004BCE70E060E08FE89AE0C73BF9F0CA3C18
:101D4000B1F48091E30180931B0180911D01809388
:101D500020018DE0E2E2F1E0AFE2B1E001900D920E
:101D60008A95E1F70E9463060E9402062DCECA3BC7
:101D700009F09ECF70E060E087E99AE0D5D924CEE3
:101D8000CC2009F405CE70E060E08EE59BE034DC09
:101D90001ACECF93C0911801C11127C0813C41F4E4
:101DA00070E060E08EE59BE027DC8C2FCF910895FA
:101DB000823C29F470E060E08CE09BE0F5CF833C4E
:101DC00061F48091210190E001966DE070E0BFD751
:101DD000809321010E946306E8CF873B31F470E0D5
:101DE00060E08FE99AE0A0D9E0CFC1E0DECF282FF4
:101DF000CB01213C39F470E060E08EE59BE0FCDB38
:101E000080E00895223C29F470E060E086E29BE0E7
:101E1000F6CF213B41F46EE370E085D7892B81F743
:101E20000E940206EDCF213E49F46EE370E07BD7BD
:101E30006F5F609341010E946306E2CF81E00895E5
:101E40000F931F93CF93DF93C82F8B01873B91F4A0
:101E500080E00E94A10281E08093D701C8018F73C6
:101E60009927892B09F4A5C0B801809146010E94E9
:101E70005A0523C08079803911F590910F01209186
:101E800010018C2F8F70813029F4822F921748F423
:101E9000892F07C080911B01811103C0822F291750
:101EA000B8F30E94A102C33C09F045C00E9402069B
:101EB00070E060E08EE59BE09FDBD0E01BC08038E7
:101EC00011F480E0EECFC83009F089C01092DC0137
:101ED00070E060E0809146010E945A05D09118019F
:101EE000D1117BC0CA3B09F078C070E060E087EA9E
:101EF0009AE01AD98D2FDF91CF911F910F910895FC
:101F0000C33089F68091DC018F3F19F08F5F809399
:101F1000DC0180911B01882309F4A6CF80911C016C
:101F200090E062EC71E0C9D60817190708F49CCF5D
:101F30000E943A0599CF60910B0170E0C43C41F0DA
:101F4000C43B49F40E9410061092410261E070E027
:101F50008EE89CE0B1CFC53C19F466E970E0F8CF9B
:101F6000C33B79F4C8016EE370E0DDD6892B09F03C
:101F7000B5CF70E060E083ECDF91CF911F910F91BE
:101F8000E9C8C73C11F590914601892F82958F7061
:101F90008F5F83708295807F9F70892B809346012D
:101FA00070E060E00E945A050E9463060E940206EB
:101FB00084CF20914601822F8F708F5F207F6BE04E
:101FC000A6D6922B909346014FCFC73E09F086CFFD
:101FD0001092D7010E94630670CFD1E08BCFC13041
:101FE00009F08ECF0931110508F467CFC093E401E1
:101FF0003BCF86E884B910920B0210920C020E942B
:10200000D101E1E6F0E0808182608083139A87EE5F
:1020100083B908950F931F93CF931092E701809196
:102020003F02909140029C012F5F3F4F882790789C
:10203000822B932B9093400280933F029091E50175
:102040002FB1822F8095881F8827881F8093E501F4
:102050009817B9F01092E4018093E5019091410244
:10206000892F27FD38C080699F709F3091F580933C
:10207000410290E080E00E94AF0110924002109275
:102080003F0200913F02109140028091E4018823B9
:1020900079F1B80183E00E94940182D90770112779
:1020A000012B99F41092BC0181E080930E02A1DF14
:1020B000C091BC01C11105C00E94D10181E0809393
:1020C0000202CF5FCF71C093BC01CF911F910F91DE
:1020D00008958F5FCCCF8F7E95FD08C08068809378
:1020E000410280913F0290914002C5CF806CF7CFB2
:1020F000C09141028C2F807F803B49F470E060E00A
:1021000081E00E949401C8010E94AF01D1CFB801C3
:1021100081E00E949401C4FF0FC0C5FDF4CF0831D7
:10212000110530F21092400210923F02C062C0933B
:10213000410290E080E0E8CFCC2309F4B9CFC5FF9D
:1021400003C00E94B301B4CF0231110508F4B0CF2F
:10215000C064C093410290E080E00E94AF01F1CFE3
:1021600080910D0281110E9487068091E701811103
:1021700051CF0895EF92FF920F931F93CF93DF9368
:10218000EC0108E017E082ECE82EFF24F39420979E
:1021900039F4DF91CF911F910F91FF90EF90089547
:1021A0008091DD018111F5CF8091E301823068F4E7
:1021B00082E00E948E01C7010197F1F780E00E9442
:1021C0008E01CEDFEDD82197E2CF80E00E948E0114
:1021D000C801F2CF0F931F93CF93DF93C82F06EA66
:1021E000811102C00CE0C1E0D0911D0110E080918E
:1021F00021010E94DD0286E40E94A102D0931D010C
:10220000C801B8DF809121010E94DD0280E00E94B8
:10221000A102D0931D018AEF90E0ACDFC15039F7E5
:102220008D2F0E94DD028AE992E0DF91CF911F910C
:102230000F91A0CFCF93DF93282F64E668D5382F76
:10224000C92F892F6AE063D5D92F243650F0832F08
:10225000C1DF8C2F6AE05BD5BDDF8D2FDF91CF9181
:10226000B9CFCA30B0F7F9CFCF93DF93D82FC3E0FF
:1022700080910B010E94A10288EC90E07BDFDD23BE
:1022800019F080E991E076DF80E00E94A10288ECFD
:1022900090E070DFC15061F7DF91CF910895FF9218
:1022A0000F931F93CF93DF93D82F8B01C0913D01E4
:1022B00081E08093D201C43079F4F090D6018D2F63
:1022C00025D8FF20A1F08091D601811110C070E0C7
:1022D00060E08EE59BE090D9D83071F0D13C09F0F8
:1022E0000AC170E060E08EE59BE086D908C0D83076
:1022F00041F481E08093030181E08093040180E058
:102300004EC1D23C69F41092D6018C2F90E0019618
:1023100066E070E01CD580933D010E946306EFCF1C
:10232000D13BC1F480910201012B41F49FEF86362D
:1023300018F4823018F491E0909303019091030116
:10234000890F21F481E080930201D9CF8736D8F339
:1023500086E6F9CFD13E59F48091030181958093AF
:10236000030180910401819580930401D6CFD23B73
:10237000E1F481E08093030180910201823018F042
:1023800081508093020181E080930401C23008F003
:10239000F9C000FDB4CFEC2FF0E0E35FFE4F81A960
:1023A0008F3F09F4ACCF8F5FC3C0D13009F0FDC0BF
:1023B0000932110511F4D09303019091B101892FD5
:1023C000880F97FD809590E069E070E076D4292F22
:1023D0008091B001682F660F87FD609580910101A3
:1023E00070E090E06AD4290F8091AF01682F660FEA
:1023F00087FD60958091000170E090E05ED4622FCF
:10240000690F80910201680F7727771F8091D601AD
:10241000813091F48091D3019091D40125E096957B
:1024200087952A95E1F724E730E0A901481B590B6D
:10243000CA0143D4B90177D4862F0E94A10200FDBE
:1024400009C00E943102982F91708091B101890FCB
:102450008093B1018091B0019091AE01890F80937A
:10246000B0010E94310265E252D48091AF01890F20
:102470008093AF010E9431028F7331F40E943102C8
:102480006DE045D49093AE01C0910101CC2339F0A9
:102490000E9431028F7319F4C150C09301010E9450
:1024A0003102811108C00E9431026EE030D4909355
:1024B00001011092B001C0910001C33038F00E94B8
:1024C00031028F7119F4C150C09300010E94310292
:1024D0008F7729F40E9431028770809300010932BE
:1024E000110519F481E0809304018091E001080F47
:1024F0000093E00104CFD23C09F407CFD43C21F48F
:102500008C2F90E0059604CFD13B51F5C23090F46A
:1025100000FDF5CEEC2FF0E0E35FFE4F81A9909136
:102520000401891B8F3F08F08EEF883008F488E0A3
:1025300081ABE5CEC53009F0E2CE809140019091AB
:102540000401890F823040F482E080934001809141
:1025500040010E94A102D3CE8937B8F388E7F5CFB6
:10256000D13E09F4FECED23B09F40DCFD23E09F4A0
:10257000D4CED53C81F470E060E08BED92E13CD8A4
:1025800080E0E7CFC53009F0BACE809140018330BA
:10259000F0F28150DACF81E0D13009F4A0CFDF91A1
:1025A000CF911F910F91FF900895D13C09F499CEDE
:1025B000D43CE1F6A5CF0F931F93CF93DF93D82F91
:1025C0008B01883031F48091D201882311F088E0AA
:1025D00066DE8D2F8079803999F481E08093D10176
:1025E000C091D201CC2311F0C0E004C080910B0156
:1025F0000E94A1028C2FDF91CF911F910F9108951E
:10260000803831F41092D10180E00E94A102ECCF19
:10261000C1E0D13079F7C091D101CC2359F080913C
:10262000D201882309F3B80181E0DF91CF911F9196
:102630000F9135CE07331140B8F2D093E40170E02A
:1026400060E080E00E945A05D5CFFF920F931F9360
:10265000CF93DF93C82F8B01F0900B0180798039E5
:10266000C9F5DC2FDC70C1F01092D101D0E080916F
:10267000D101882319F0B8018C2F9DDFF0920B0156
:10268000C83089F5B80188E0DBDB8D2FDF91CF9171
:102690001F910F91FF90089591E09093D101EC2F3D
:1026A000EF70F0E0E35FFE4F83AD2FEF280F263988
:1026B00028F480930B011092D201D9CF9093D201CC
:1026C0008739A0F28759990B66E070E040D3809378
:1026D0003D01CDCF803829F41092D10180E00E94D5
:1026E000A102D1E0C4CFC13061F48091D101811148
:1026F00017C0B80181E0DF91CF911F910F91FF903A
:102700009FCBC33019F4B80183E0F5CFC63C51F438
:102710000E94020670E060E08EE59BE00E94FC0AE9
:10272000D0E0B3CFC73B09F0B0CF70E060E08BEAF8
:102730009AE00E949408F4CF2F932FB72F933F93E2
:102740008F939F93AF93BF93EF93FF9380910C026E
:102750008823E9F0E0910B0220B131B1F0E0EE0FF7
:10276000FF1FDF01A95FBD4F2D933C93ED5FFD4F30
:10277000808191818217930708F401962817390701
:1027800008F401979183808381E080930D0281E0BA
:1027900080930C02FF91EF91BF91AF919F918F9128
:1027A0003F912F912FBF2F9118958F9381E08093A8
:1027B000E7018F9118958F9381E08093E6018F91C7
:1027C0001895F89485B7877F85BF90E088ED0FB6A0
:1027D000F894A8958FBD90B7977F90BF0FBE88E003
:1027E0008CB98FE780BB82EA8093720081E180938D
:1027F00071008FEF91E0909369008093680080E80A
:1028000082BB87BD8CB788608CBFA89580E480BFF1
:10281000F0DB789481E00E94BD0170E060E088E325
:102820009BE00E9494081092DD010E9402069FB175
:10283000892F8095881F8827881F8093E50197FF3F
:10284000A2C08DE091E09093DF018093DE01F894C7
:1028500080E890E0B1D2853A79F40091DE011091E0
:10286000DF01C1E8D0E0CE01A7D2F80181938F014A
:102870002196C13CD105B9F7789480911B01811153
:102880000E943A0570E060E08AEA98E00E949408AD
:1028900061E070E08EE59BE00E94940840E4242E05
:1028A00055245394CC24C394D12C312C412C6EE567
:1028B000862E6BE0962E7FE7672E70E0772E0E94C3
:1028C000D0098091EA019091EB01009751F060915D
:1028D000E8017091E9010E94FC0A1092EB0110924C
:1028E000EA018091E401882349F180E00E94A1027D
:1028F000A895F3E4F0BF1F989FB1892F8095881F9A
:102900008827881F8093E50197FFF6CF0E94B301C7
:102910008CB788608CBF10920D021092E701109264
:10292000E6018091E401811163C022E020930C0153
:102930008CB7877F8CBF5DDBA89520BE11DC109221
:10294000DD018091FD019091FE01E6E08A319E0754
:1029500009F088C0C0E7D0E0FE01849180538A303E
:1029600008F06FC037DC8CE291E004DC21966C1635
:102970007D0691F79092EB018092EA011092E901B5
:102980001092E8019CCFC0E08C2F0E94A10283E14D
:1029900090E0F0DB8C2F86950E94A10283E190E00D
:1029A000E9DB9FB1892F8095881F8827881F809336
:1029B000E50197FD1AC0CF5FC03431F765E181E0D2
:1029C0000E9425060E946306C6E98C2F0E94A10280
:1029D00084E090E0CFDBC150C1F733CF8C2F0E9451
:1029E000A1028DE090E0C6DBC150C111F7CF29CF25
:1029F00080910E02882309F186B78F79806286BFA5
:102A000086B7806186BF889586B78F7E86BF8091A6
:102A1000E60181111092E40180910D02882331F0CA
:102A200050920C01509202020E9487068091E701A9
:102A3000882309F476CFEEDA74CF86B78F79806475
:102A4000DECF10E0812F8295880F80720E94A10254
:102A500080E190E08FDB1F5F1931A1F78AE992E0F6
:102A600089DB81CFF1E18F349F0799F022E18B3D23
:102A7000920729F0E3E185329E0709F0D6C0209144
:102A8000D201213009F0D1C02091D101222309F4D3
:102A9000CCC0C0913D01C33009F45AC0C8F4C23063
:102AA000B9F1EC2FF0E0E35FFE4FD1A986E90E9477
:102AB000A10282E090E0CC2319F08D2F869590E062
:102AC00059DB80E00E94A1028D2F90E053DBF7CE0E
:102AD000C53009F0F4CEC0914001CC0FC73908F0E1
:102AE000C6E9D4E08C2F0E94A10285E090E042DB91
:102AF000809140010E94A10281E490E03BDBD15033
:102B000089F780ED92E036DB80E00E94A102D7CE0B
:102B100010910B01D0911D01C0E085E0CC2319F08C
:102B2000C53019F489E00E94DD02812F0E94A102C4
:102B300081E290E01FDB80E00E94A10282E490E04D
:102B400019DBCF5FCA3049F78D2F0E94DD02B7CE67
:102B50000E9431028F73082F10E00E94310267E05B
:102B6000D6D0760102C0EE0CFF1C9A95E2F70E94C7
:102B7000310265E0CCD0E60102C0CC0FDD1F9A9592
:102B8000E2F7CE0DDF1D0E94310290E0BE01DFD0E2
:102B9000C80FD91FC739D10524F0F6E9CF2F20E09F
:102BA000D22F8C2F0E94A102C801E4DA7E0133E00B
:102BB000F594E7943A95E1F7E11002C0EE24E3942E
:102BC000F12CC801D7DA5E01AE18BF08E501B7FEE7
:102BD00002C0C32DD42D8C2F0E94A1020E9431026D
:102BE000837039F4C801C6DACE01959587950E94A5
:102BF000A102F2E0AF16B10424F70E9431026DE0A9
:102C000086D0860102C0000F111F9A95E2F70E943C
:102C10003102E801219790E0C823D923C00FD11FCA
:102C200080E00E94A102CE0151CF2EE0893C9207A4
:102C300051F480910102FEDA8091180181119ACE3F
:102C400088EE93E043CFEBE08C309E0721F4809137
:102C5000FF01F0DAF5CFFEE0873F9F07B9F48091DE
:102C6000E50181112CCE80910B010E94A10284E626
:102C700090E080DA80E00E94A1028091410190E022
:102C800068EE73E01AD08456910920CF86529B409B
:102C900049F480E0E9DA81E0E7DA80E0E5DA80ED26
:102CA00097E014CF86B78F7986BF86B7806186BFDD
:102CB000889586B78F7E86BF02CE0024552704C034
:102CC000080E591F880F991F009729F07695679570
:102CD000B8F37105B9F7802D952F0895EE27FF27DA
:102CE000AA27BB2708C0A20FB31FE41FF51F220F9E
:102CF000331F441F551F969587957795679598F3D1
:102D00007040A9F7009799F7BD01CF010895991B6D
:102D100079E004C0991F961708F0961B881F7A95D2
:102D2000C9F780950895AA1BBB1B51E107C0AA1FD4
:102D3000BB1FA617B70710F0A61BB70B881F991F5C
:102D40005A95A9F780959095BC01CD01089597FB00
:102D5000072E16F4009406D077FD08D0E4DF07FCB8
:102D600005D03EF4909581959F4F0895709561959B
:102D70007F4F0895A1E21A2EAA1BBB1BFD010DC0B7
:102D8000AA1FBB1FEE1FFF1FA217B307E407F5071B
:102D900020F0A21BB30BE40BF50B661F771F881FF7
:102DA000991F1A9469F760957095809590959B018D
:102DB000AC01BD01CF010895E199FECF1FBA8EBBD2
:102DC000E09A99278DB30895262FE199FECF1FBA77
:102DD0008EBBE09A81500DB2021639F01CBA2DBBA1
:102DE0000FB6F894E29AE19A0FBE0895F894FFCFD7
:102DF000080E18010101010004820A460200010ABE
:102E00000A0A828282010705010000000003FF1FF9
:102E1000030B000000800000000000000000000024
:102E200000008000000000000000000000042943B2
:102E30009602072D0018390400781E99150F01120B
:102E40000115010201000000000000000100000067
:102E500000000000000100002101230225032704D7
:102E600029052C06FF06F80303040E041804450484
:102E7000FF02FF02FF02FF02FF02FF02FF0200004B
:102E8000D107E607FA070E085203EA02ED02F00244
:0E2E9000F302F602F902FC0200000504030042
:00000001FF
