:1000000003C200001EC200000C94F6111AC20000C8
:1000100018C200000C94F01114C2000012C20000BB
:1000200010C200000EC200000CC200000AC2000094
:1000300008C2000006C200000C94B71102C2000002
:1000400000C20000FEC10000FCC10000FAC10000B7
:10005000F8C10000F6C10000F4C10000F2C10000C8
:10006000F0C10000EEC10000ECC10000EAC10000D8
:100070003230323330363235303133360001050418
:1000800014101115FF3FB1333426013678257A3428
:10009000F326F42E633288335D336232DB30F62E82
:1000A0007931CD2E942F9D2C802CEE2B092BEA2913
:1000B000492AC1287C28C62626265C25732473235A
:1000C0006522F421CA209F1FF71EC91D0E1DE61BC5
:1000D000231B081AF8183A183917431658154214F2
:1000E0003D13761262116210740F960E860D8C0C01
:1000F000A60B9D0AAB09B608C107CD06DC05DC04DA
:10010000E403F302FF01FF01FF01FF01FF01FF0113
:10011000FF01FF01FF01FF01FF01FF01FF01FF01DF
:10012000FF01FF01FF01FF01FF01FF01FF01FF01CF
:10013000FF01FF01FF01FF01FF01FF01FF01FF01BF
:10014000FF01FF01FF01FF01FF01FF01FF01FF01AF
:10015000FF01FF01FF01FF01FF01FF01FF01FF019F
:10016000FF01FF01FF01FF01FF01FF01FF01FF018F
:10017000FF01FF01FF01FF01FF01FF01FF01FF017F
:10018000FF01FF01FF01FF01FF01FF01FF01FF016F
:10019000FF01FF01FF01FF01FF01FF01FF01FF015F
:1001A000FF01FF01FF01FF01FF01FF01FF01FF014F
:1001B000000000000000000000000000000000003F
:1001C000000000000000000000000000000000002F
:1001D000000000000000000000000000000000001F
:1001E000000000000000000000000000000000000F
:1001F00000000000000000000000000000000000FF
:1002000000000000000000000000000000000000EE
:1002100000000000000000000000000000000000DE
:1002200000000000000000000000000000000000CE
:1002300000000000000000000000000000000000BE
:1002400000000000000000000000000000000000AE
:10025000000000000000000000000000000000009E
:10026000000000000000000000000000000000008E
:10027000000000000000000000000000000000007E
:10028000000000000000000000000000000000006E
:10029000000000000000000000000000000000005E
:1002A000000000000000000000000000000000004E
:1002B0000000000005000D0015001D0027003100A2
:1002C0003C00470053005F006C007A0089009800F2
:1002D000A700B800C900DA00EC00FF00010001002F
:1002E00001000200020003000300040005000600F4
:1002F0000700080009000A000C000D000F001000A4
:1003000012001400160018001B001D00200022001F
:10031000250028002B002E003100350038003B005E
:100320003F004200460049004D0050005300570076
:100330005A005D00600062006400670068006900A8
:100340006A006B006A0069006800650062005E0078
:10035000590053004C00430039002E0021002300B7
:100360002500270029002B002E0030003300350027
:1003700038003B003E004100440048004B004F0065
:10038000530056005B005F00630068006C00710062
:1003900076007B00810087008C00920099009F000E
:1003A000A600AC00B300BB00C200CA00D200DA0055
:1003B000E300EC00F500FE00080112011C0127011A
:1003C00032013D014801540160016D017A0187014C
:1003D0009501A301B101C001CF01DF01EF01FF01D0
:1003E000F501E501D501C501B1019D01870171014B
:1003F0005901410127010B01ED00CF00B1008F0031
:100400006C004A002600000011241FBECFEFD4E08C
:10041000DEBFCDBF11E0A0E0B1E0EEECFAE202C039
:1004200005900D92A435B107D9F722E0A4E5B1E01B
:1004300001C01D92AE30B207E1F70E94FC110C948E
:100440006515DECDF89498ED9FBD83BF789408952F
:10045000482F362F272FE9EDF1E090E080E0508122
:1004600051110BC063E070E00E94CC14FC01E75214
:10047000FE4F40833183228305C00196339680313D
:10048000910569F70895BC0180910B02E1CF1092AC
:100490000B0210920A021092090281E080938801F7
:1004A00008950F931F93CF93C82F08EA17E0C15008
:1004B00020F4CF911F910F91089582E0C3DFC8010E
:1004C0000197F1F780E0BEDFF2CF83B1886483B992
:1004D0000895E0910701F09108013196FB70F460F6
:1004E000F0930801E09307018091AB018B5A809350
:1004F000AB01E4918091AB018E0F0895882321F028
:10050000813031F0829A05C0829892988A98089535
:100510008298929A8A9A0895CF93DF9300D00F928F
:10052000CDB7DEB720914F0130915001409151017C
:1005300029833A834B83FE01319650E040E0682FD7
:1005400070E0A1E0B0E09B01042E02C03595279534
:100550000A94E2F7922F937081919D0101C0220FBE
:100560008A95EAF7992329F09130C1F080B3822B64
:1005700019C080B32095822380BB82B3822382BBC3
:1005800081B3282321BB4E5F5F4F46305105D9F61A
:100590000F900F900F90DF91CF91089590B3822F1D
:1005A0008095892380BB82B3822B82BB81B3282BA9
:1005B000E9CFEF92FF920F931F93CF93DF9300D079
:1005C00000D00F92CDB7DEB78D838091AD01811140
:1005D0000AC02D81222339F080912101281718F4B7
:1005E000E8DF82E05EDF6D816093AD016093AC0176
:1005F0008091AE0181110DC08FDF91E07D8171117D
:1006000001C090E081E0AD81A73408F480E0890F5B
:1006100075DFBD81B11176C010920D0210920C02EF
:1006200018BA10926D0010926C0010926B0010922C
:100630006A0010926F0010926E0088988998E0907E
:100640000C02F0900D0200916800109169008091F9
:10065000AD01815090912201911188C090E06FEF1F
:1006600070E00E94CC1466E970E00E940215C70198
:10067000B0E0A0E0262F30E050E040E089839A838C
:10068000AB83BC83B701CD010E94DD1461587F4F5D
:100690008F4F9F4F69837A838B839C832FEF30E04A
:1006A00040E050E00E942915C9010217130708F025
:1006B00076C09701201B310BC80130936D00209349
:1006C0006C0090936B0080936A00232B09F474C034
:1006D000889A892B09F472C0899A7D81709362018E
:1006E0008091AD01823008F06BC082E00F900F90D6
:1006F0000F900F900F90DF91CF911F910F91FF906E
:10070000EF90A0CE2D81215030E0220F331FF90150
:10071000E452FD4F8591949190930D0280930C02C9
:10072000F901E055FE4F8591949188BBF901EC5792
:10073000FF4F85919491609162019C012052310993
:10074000662339F040916E0050916F0024173507F1
:10075000B8F39093690080936800809162018111E1
:100760006ECF10926F0010926E0069CF9F3F59F4C8
:1007700090E06FEF70E00E94CC1466E970E00E9498
:100780000215609574CF892F90E064E670E00E94B6
:10079000CC1463E670E00E941615615068CFB70173
:1007A000621B730B9B010617170708F086CFC70162
:1007B000801B910B980181CF88988BCF89988DCF22
:1007C0008A3010F481E092CF80E090CFCF93DF9316
:1007D00000D000D000D0CDB7DEB72091830140918A
:1007E000C7015091C8014652594009F422E08430B3
:1007F00059F46093840126960FB6F894DEBF0FBEBD
:10080000CDBFDF91CF9108956623A9F3823019F40B
:1008100097E9961B692F96E0E6E2F1E0DE0111967A
:1008200001900D929A95E1F78150990B880F991FCD
:10083000A1E0B0E0AC0FBD1F8A0F9B1FDC01ED9162
:10084000FC91E20FF11D6083D6CFCF92DF92EF9241
:10085000FF920F931F93CF93DF939C0150918301DD
:10086000E0911F0182E0E11101C0852F90E0DC01E1
:10087000A75EBE4F4C9140931D018A5E9E4FDC01E6
:100880008C9180931C01F0E0ED5EFE4FC181642FDE
:1008900070E0552381F0C13071F4860F972F911DC0
:1008A00095958795DF91CF911F910F91FF90EF90D4
:1008B000DF90CF900895261737079CF18217130613
:1008C0008CF3511102C0822FEDCF841B6C2F61502D
:1008D000770B8B01E82EF12CC7010E94161560934F
:1008E00081016695E62FF0E0842FD12CC12CD0E059
:1008F000DC17C1F2C601B8010E940215842F860FD1
:10090000A82FB0E0B9016A1B7B0B77FF03C0BD01C4
:10091000621B730BCE0CDF1CE617F7071CF6DF5FBC
:10092000E7CF842FBFCF0F931F93CF93DF93D82FA1
:10093000862F9091CC012FEF290F2C3140F480E0CD
:10094000EBDD80E0DF91CF911F910F91D7CDCD2FBF
:10095000C295CF70DF702091AE01211103C0C3306A
:1009600008F0C2E0D730B0F400915C0110E00F5FF6
:100970001F4FAFDD65E00E94F6149801290F311D6D
:10098000C90166E070E00E94161580935C01ED2FAE
:10099000F0E016C0D73089F500915C0110E00F5FE0
:1009A0001F4F97DD65E00E94F614D801A90FB11D15
:1009B000CD0166E070E00E94161580935C01FC0199
:1009C000E358FF4FE491C33071F480915B0190E0F4
:1009D000019663E170E00E94021580935B01845DE3
:1009E0009E4FDC01CC91CC23E1F1C13011F0EE0F30
:1009F000C2E08E2F91DD8C2FA5CFD830A9F4909135
:100A0000AE016FE0911101C063E0862351F4809143
:100A10005C0190E0019666E070E00E9416158093FC
:100A20005C01E0915C01B4CF2091AE01222381F002
:100A300080E09D3118F4E0E0C6CF8E5FE82FF0E053
:100A4000E15CFE4F20819217C0F73197E081A0CF83
:100A5000869563E00E94F614E92FF0E0EE0FFF1F89
:100A6000AFCFE0E0C6CFCF93C091AD0186E48C0F4D
:100A7000873908F080E09DDD83E013DD8C2FCF9176
:100A800098CDCF93C091AD0180E093DD83E009DD87
:100A90008C2FCF918ECD81E0089561116093240158
:100AA0000895662369F0813099F48091C90190918D
:100AB000CA01891B680F6093C90182E080932501F8
:100AC00080912301873418F086E4809323010895F0
:100AD000635E60932301F4CF60937C010895E82F57
:100AE000F0E0E45FFE4F608308950F931F93CF9370
:100AF000DF93809183018093890180911901809314
:100B00008A018091160180938B018091130180935B
:100B10008C0180911A0180938D018091170180933F
:100B20008E018091140180938F0180911B0180932D
:100B3000900180911801809391018091150180931B
:100B4000920180911F018093930180918401809391
:100B50009401809182018093950180911E01809380
:100B60009601809186018093970180918501809301
:100B7000980180917801809399018091220180935E
:100B80009A018091790180939B018091210180934A
:100B90009C0180910C0180939D0180910A018093BA
:100BA0009E0180910B0180939F01809109018093A8
:100BB000A001809110018093A10180912301809375
:100BC000A2018091C9018093A301809124018093A7
:100BD000A401809112018093A5018091110180935D
:100BE000A60180917C018093A70180910D018093E3
:100BF000A80180910E018093A90180910F0180933B
:100C0000AA0182E04EDCF89409E811E0C1E8D0E0E6
:100C1000F80161918F01CE010E9453152196C33ACC
:100C2000D105B1F765EA80E890E00E945315789409
:100C3000DF91CF911F910F9108951092D80130B19B
:100C400081B12091AB01329536953695337090E0A5
:100C5000880F991F880F991F830F911D820F809312
:100C6000AB018091CD01882309F445C01092CD01DC
:100C70008091D6019091AE01992319F01F9810929E
:100C8000D601811146C0809125018823A9F1809168
:100C9000D2019091D3019093CF018093CE014096E1
:100CA000807E61EC72E00E940215809124018750E1
:100CB000990B680F791F769567956093CC018091A9
:100CC00076018823F1F08150809376018091AE0106
:100CD000811108C08EE884B981E08093D60110921A
:100CE000D701F3DB80912501882329F0809125012C
:100CF00081508093250108958091CE019091CF017C
:100D0000CECF6D3118F770E060E084E0A1DB85E0C4
:100D1000DBCF813039F78091250181115EC0809150
:100D2000D0019091D1014096DC0145E0B695A795A0
:100D30004A95E1F74091C90156E0969587955A95F5
:100D4000E1F7042E000C550B9A012E503140820F12
:100D5000931F9093CB018093CA0180916501E82F86
:100D6000F0E0EE0FFF1FEA59FE4F20813181BD01F7
:100D7000621B730B9B01B183A0838F5F877080938D
:100D80006501660F771F660F771F6A0F7B1F8091C3
:100D9000230190E0841B950B825F9E4F880F991F63
:100DA000681B790B83E0161617060CF045C06150DE
:100DB00071098150C1F7161617060CF057C037FDA0
:100DC00074C0809164011816F4F5861B8093640149
:100DD00086E884B91092D60182CF8091D401909197
:100DE000D5019093D1018093D001409635E096953E
:100DF00087953A95E1F79093670180936601909308
:100E000069018093680190936B0180936A019093CC
:100E10006D0180936C0190936F0180936E019093AC
:100E2000710180937001909373018093720190938C
:100E300075018093740173CF6115710509F4B9CF01
:100E40006F5F7F4FB6CF660F771F653071055CF01F
:100E5000635071097595679588E1861B80936401DD
:100E600085E0F6DAB5CF61E070E0F6CF6C3F8FEF4A
:100E70007807DCF437FF19C08091640187FF02C056
:100E80008450A3CF84EE861B809364018091CC01B3
:100E90008F3108F49DCF8CEF9FEF9C01261B370B01
:100EA000B9017595679586E0DCCF8091CC018E31D4
:100EB00008F48ECF70E060E087E0D3CF813019F482
:100EC000109286010895823019F460938501089587
:100ED000833019F4609382010895843011F4609393
:100EE0001E010895813061F491E0611101C090E02C
:100EF00090937901611101C08FE7809322010895D9
:100F0000823011F4609321010895CF93833B09F05F
:100F100057C0809179018823A1F0672B09F066C042
:100F2000809122018E3F19F081E08093220180910F
:100F300022018095809322018091AD013ADB80E00F
:100F400029C0672B19F581E080935A01109259014D
:100F500090910501809122011916F4F48E3F18F446
:100F60008F5F80932201C091590180912201C0348A
:100F7000C9F491E49093590191E08927809322016B
:100F800080DD8091220180935801D6CF80915A0153
:100F90008111DECFCF910895992329F3823018F380
:100FA0008150DFCF909158019813EBCFC11105C04C
:100FB00068DDCF5FC0935901E4CFCF3F11F3F9CF84
:100FC000833EA1F410925A0180910501819580938E
:100FD000050180912201823028F481E0809305018F
:100FE00084DDAACF8E3FE0F38FEFF8CF81E0D2CF40
:100FF000FF920F931F93CF93DF938C01D62FC72FB0
:10100000F42E8091C7019091C801892B31F0E091B5
:10101000C701F091C80189E009951093C8010093B8
:10102000C701012B41F0E091C701F091C8016D2F7C
:101030007C2F8F2D099581E080938801DF91CF91DE
:101040001F910F91FF9008952091B601283080F4F0
:10105000E22FF0E0EE0FFF1FE954FE4F80839183F3
:101060002F5F2093B60148E0C3DF8091B601089559
:101070008FEF0895282FCB0130911F01311147C008
:10108000283039F41092800110927E0110927D0177
:101090000895213B59F48091800181508330B8F547
:1010A00083E08093800180937F010895253BA1F424
:1010B0006EE370E00E940215892B49F58091800152
:1010C0008A3F28F58B5F8093800180937F01109287
:1010D0007E0110927D01C7CC2130C9F480917D0141
:1010E00090917E01019688382EE0920728F4909323
:1010F0007E0180937D01089510927E0110927D0102
:1011000080918001882319F0815080938001089597
:10111000EF92FF921F93CF93DF931091D90111119A
:1011200006C0DF91CF911F91FF90EF900895E0905E
:10113000DA01F090DB01C091B601C1500C2E000C19
:10114000DD0BC7FD0EC0FE01EE0FFF1FE954FE4F81
:101150000190F081E02DB701812F09952197811130
:10116000F0CFE9EDF1E083818083848195819283E2
:101170008183339682E0E630F807A9F710920602E1
:101180001092080210920702C8CF8091B6018823FE
:1011900019F081508093B601E091B60190E080E0B3
:1011A000EE2341F0E150FF0BEE0FFF1FE954FE4F1D
:1011B000808191814AE070E060E01ACF582FCB0126
:1011C000F901583089F410925E0180E0F2D98091E3
:1011D000AF0181111DC081E080935E0170E060E08D
:1011E00082E499E031DF14C0252F207F203BB9F441
:1011F00020915E01421788F06DE570E00E940215B3
:10120000029741F42F5F20935E0188E3421718F4A0
:1012100080E0089582E1CDD9FBCF80E0FCCF203E75
:1012200041F480915E01882311F04817B8F6ADDFD4
:10123000EFCF5A3069F76091770180915E0109958F
:1012400054DCF5CF26EE33E043E0B8CF26EE33E0B2
:1012500044E0B4CF2EE537E044E0B0CF22E737E0FA
:1012600042E0ACCF2DE435E041E0A8CF21E535E008
:1012700042E0A4CF2CE635E041E0A0CF2FE635E0F8
:1012800043E09CCF883039F41092770110925D01D1
:1012900080E08FD90CC08130F9F490915D019111FB
:1012A00008C06032710518F080935D01F0D880E0CD
:1012B0000895913079F46B3B710520F082E08093C2
:1012C0005D01E6CF6115710591F3862F880F84705B
:1012D0008E5EDFCF5ADFEBCF813811F0813E39F7D8
:1012E00091E090935D01813E41F480917701865FAA
:1012F00080937701CCD88BE4CCCF809177018F5F3E
:10130000F7CF0F931F93CF93DF93D82FC92F8B0164
:101310003CDFB8018D2F9C2FDF91CF911F910F9152
:1013200093CECF93C0911F01C11119C0813C41F4EC
:1013300070E060E085E09AE0E4DF8C2FCF910895C3
:10134000823C29F470E060E081EB99E0F5CF873BC7
:1013500031F470E060E082E399E076DEEECFC1E048
:10136000ECCF813C39F470E060E085E09AE0C9DFC1
:1013700080E00895823C29F470E060E082E29BE026
:10138000F6CF873B31F470E060E086E399E05CDE05
:10139000EFCF81E00895813C39F470E060E085E0B2
:1013A0009AE0AFDF80E00895823C29F470E060E0CD
:1013B00081E999E0F6CF81E00895843021F58091AC
:1013C000C7019091C8012FE08836920731F469E196
:1013D00070E088E39DE095DF0FC088539D4071F475
:1013E0009091AD01923050F0892F86959695969503
:1013F000890F80938701DDD880E0089570E060E078
:1014000085E09AE0E8CF81E008950F931F93CF9392
:101410008B018830A1F480E0CCD860E0809112018B
:1014200082DA10928001012B31F0C0E08C2FCF9135
:101430001F910F91089581E08093AE01F6CF813026
:1014400049F46931710588F38093AE0180911201EE
:101450006ADAEBCF833049F520918601222381F0AF
:101460008091850190E062EC71E00E94CC14081735
:10147000190730F020932001809178018093220198
:10148000602F809112014FDA80917C01882369F2EC
:1014900090E062EC71E00E94CC148017910728F66E
:1014A00070E060E08BE49BE016C0813BB1F481E02A
:1014B00090E0CBD97ED8809182018111B6CF809106
:1014C0008301811104C00831110508F4AECF61E039
:1014D00070E088E39DE015DFA8CF813EC1F381383D
:1014E00031F48091200190E0B0D963D89ECF609113
:1014F000AD0170E0813C69F3823B71F480911E0183
:1015000090911F01911180918401811103C086E99E
:1015100090E0EACF86E9E9CF823E11F480E0E5CFA2
:1015200066E970E0823CA9F28339C1F3833C29F477
:1015300070E060E081E999E0CECF843C11F493DA69
:10154000AFCF8D3B41F4F89488ED8FBD88E880BF24
:101550007894A895FFCF8F3C29F470E060E08BE48D
:1015600095E0B9CFC0911F018A3B81F4012B09F0AE
:1015700067C0CC2329F077DA10921F01B6DA55CF75
:1015800070E060E086E299E05FDD50CFC11158C0A5
:101590008A3C31F468DA81E080931F01A6DA46CFF5
:1015A000833B31F470E060E088E69FE0AADE3ECF46
:1015B000853C31F458DA70E060E08FEE90E1F6CFD0
:1015C000863C31F450DA70E060E088E391E1EECFE0
:1015D000873C91F490911201892F82958F708F5FD3
:1015E00083708295807F9F70892B8093120160E0C9
:1015F0009AD97BDA38DA1ACF873BB1F4C8018F73F6
:101600009927892B61F420911201822F8F708F5FAF
:10161000207F6BE00E94F614922B90931201602FB2
:101620008091120180D902CF873E09F4B7CF893B60
:1016300039F4012B29F470E060E08EE299E0A4CF48
:10164000C1E0F4CE282FCB01213C39F470E060E0FA
:1016500085E09AE056DE80E00895223C29F470E0AF
:1016600060E08BEC99E0F6CF213B41F46EE370E053
:101670000E940215892B79F7F6D9EDCF213E49F466
:101680006EE370E00E9402156F5F609310012DDA27
:10169000E2CF81E008950F931F93CF93DF93C82F7C
:1016A0008B01873B81F480E00E94D902D0911F0119
:1016B000D11196C0CA3B09F063C070E060E08AE3D4
:1016C00099E0C2DC47C080798039F9F42091190192
:1016D00090911A018C2F8F70823049F4809186018D
:1016E000811108C0822F291728F4892F03C0822F67
:1016F0009217D8F30E94D902C33CF1F4B4D970E038
:1017000060E085E09AE0FDDD15C0803811F480E0EE
:10171000F1CFC83009F066C060E08091110103D9B3
:10172000C5CF0931110530F0C093AE01602F809113
:101730001101F9D8D0E00EC0C43C91F4D0918601DB
:101740006D2F70E0D11113C06091200170E088E32B
:101750009DE0D7DD8D2FDF91CF911F910F910895DF
:10176000C43B41F48ED910920B0261E070E088E333
:101770009DE0C9CFC53C09F099CF66E970E0F7CF8D
:10178000C73C91F490911101892F82958F708F5FE2
:1017900083708295807F9F70892B8093110160E018
:1017A000C2D8A3D960D9D6CFC73BB1F4C8018F73D3
:1017B0009927892B61F420911101822F8F708F5FFF
:1017C000207F6BE00E94F614922B90931101602F02
:1017D00080911101A8D8BECFC73E11F486D9BACFE7
:1017E000D1E0B8CFC13009F49CCFC33009F49ECF0B
:1017F00083CF86E884B91092D6011092D7010E9457
:101800006502E1E6F0E0808182608083139A87EED2
:1018100083B908950F931F93CF931092B1018091D4
:10182000090290910A029C012F5F3F4F8827907810
:10183000822B932B90930A02809309029091AF011F
:101840002FB1822F8095881F8827881F8093AF0132
:101850009817B9F01092AE018093AF0190910B02EE
:10186000892F27FD35C080699F709F3079F580935F
:101870000B0290E080E00E94430210920A02109254
:1018800009020091090210910A028091AE01882399
:1018900061F1B80183E00E9428023ADC0F7311273E
:1018A000012B81F410926301A4DFC0916301C11187
:1018B00005C00E94650281E08093CD01CF5FCF71AA
:1018C000C0936301CF911F910F9108958F5FCFCF88
:1018D0008F7E95FD08C0806880930B02809109027D
:1018E00090910A02C8CF806CF7CFC0910B028C2F69
:1018F000807F803B49F470E060E081E00E94280234
:10190000C8010E944302D1CFB80181E00E942802A1
:10191000C4FF0FC0C5FDF4CF0831110530F210929D
:101920000A0210920902C062C0930B0290E080E0AC
:10193000E8CFCC2309F4B9CFC5FF03C00E9447020A
:10194000B4CF0231110508F4B0CFC064C0930B02CC
:1019500090E080E00E944302F1CF8091D801811194
:101960006CD98091B101811155CF0895EF92FF920A
:101970000F931F93CF93DF93EC0108E017E082EC05
:10198000E82EFF24F394209739F4DF91CF911F9133
:101990000F91FF90EF900895809188018111F5CF0C
:1019A0008091AD01823068F482E00E942202C7017A
:1019B0000197F1F780E00E942202CFDFA9DB219797
:1019C000E2CF80E00E942202C801F2CF0F931F9362
:1019D000CF93C82F06EA811102C008E0C1E010E0F1
:1019E00086E40E94D902C801C1DF80E00E94D902CA
:1019F0008AEF90E0BBDFC15099F78AE992E0CF917E
:101A00001F910F91B3CFCF93DF93282F64E6EED7CA
:101A1000382FC92F892F6AE0E9D7D92F243650F003
:101A2000832FD4DF8C2F6AE0E1D7D0DF8D2FDF91B9
:101A3000CF91CCCFCA30B0F7F9CFCF93DF93D82F67
:101A4000C3E0809120010E94D90288EC90E08EDFF3
:101A5000DD2319F080E991E089DF80E00E94D9025E
:101A600088EC90E083DFC15061F7DF91CF9108955A
:101A7000AF92BF92CF92DF92EF92FF920F931F939C
:101A8000CF93DF93C82F8B01B0901D01F0901C0104
:101A9000C0908301D0908101C11002C0DD24D39495
:101AA00080911E01D0911F01D11180918401882362
:101AB00009F443C0813021F0809120018F15E8F1B5
:101AC000A6E9EA2EA0908001B8018C2FD3DA6091AC
:101AD0008001662309F4EFC1A11004C08091AD011B
:101AE000809361018C2F8D7F883049F510927B01A6
:101AF000CA3019F40091200110E0B016110630F43C
:101B0000F016110619F010F000932001C8010E9490
:101B10002504809387010E94D90281E08093060109
:101B2000D0E08D2FDF91CF911F910F91FF90EF901B
:101B3000DF90CF90BF90AF900895EF2CC3CFC13C02
:101B400009F4BCC1C23C99F48091AD018E1550F4EA
:101B5000E09287018E2D0E94D9028091AD01809381
:101B60006101DECF8091200180938701F4CFC43CD6
:101B700041F480E00E94D90270E060E08BE49BE0D9
:101B8000A1C18FE48C0F823008F054C06091130122
:101B900070E0C801CC2011F068E170E033D7892BE8
:101BA00009F0BECF2091AD010115110531F5C23B01
:101BB000F1F48FEF80930601D091AD018091060181
:101BC0006D2D70E0082E000C990BE6D68D0F911D3F
:101BD0000E942504C82F80932001D81721F08F116F
:101BE00002C00E944105C09387018C2FB4CF2F15EE
:101BF00000F7B21608F381E0DDCFE0911301F0E0C9
:101C0000CF0166E371E0C8D68017910710F42F1555
:101C100080F6CF016CE672E0BFD68017910760F6C0
:101C2000B21650F20E94330570E060E08BE49BE056
:101C300068DBC2CF8FE18C0F823020F480910601E7
:101C400081956CCFC13009F0B1C00932110511F492
:101C5000C0930601662389F0809161016150770B82
:101C600090E09AD660917F0170E0E0D6611101C0EA
:101C700061E06093AC01609387018091AC01909129
:101C8000AD01482F491B550B9A0160915F0170917E
:101C900060016F5F7F4F7093600160935F01452B20
:101CA00009F43ECF40E052E037FF06C040E450E088
:101CB000933810F440E051E05695479537FF02C045
:101CC0002F5F3F4F3595279521153105A9F7461709
:101CD000570708F025CF891708F04AC08FEF890F02
:101CE000CFEFC80F2C2F30E0220F331FD901A452A1
:101CF000BD4FFD016591749140910C0250910D0210
:101D0000C91708F03AC04115510509F036C06F3FB8
:101D100093E0790709F0D8C070930D0260930C022C
:101D200020553E4FF9014591549198B394171506EB
:101D3000A8F598B39F5F98BBFD01659174914091A0
:101D40000C0250910D026417750769F498B3F901FC
:101D5000259134919217130631F4C091AC010E9481
:101D6000D902C093AC011092600110925F01D8CEED
:101D7000981708F0B5CF81E0B2CF4617570738F46F
:101D80004F5F5F4F50930D0240930C02C9CF641711
:101D9000750708F0C5CF41505109F4CF98B3941797
:101DA000150651F248F298B39150C5CFC530A9F449
:101DB0008091AD01823408F4B3CE90E0801B910B8A
:101DC000282F813491053CF08739910508F026E9E8
:101DD0002093AC01A5CE21E4FBCFC630B1F49091A5
:101DE000AD0180918701981708F09ACE090F111D57
:101DF00090E08017910734F0C8010134110514F404
:101E000081E490E08093AC018BCEC73069F490916F
:101E1000AC018091AD01891710F48F5FF3CF981753
:101E200008F07ECE8150EECFD11143C0C33CC9F43F
:101E300081E0C11080E0809383010E9475050E94BB
:101E400041058091AD0190E00E942504809320011E
:101E5000809387010E94D9028091AD018093610136
:101E600060CEC53C49F480E00E94D90270E060E099
:101E70008FEE90E146DA55CE70E060E082E299E0C4
:101E8000C73BA9F0CA3C69F48091AD0180938601FB
:101E900080912201809378010E9475050E9433058C
:101EA00040CECA3B31F470E060E08AE299E0CCD8E1
:101EB00038CED1E036CEAA2009F414CE70E060E02E
:101EC00085E09AE01EDA2CCE672B09F059CF28CF97
:101ED000DF92EF92FF920F931F93CF93DF93D82F50
:101EE0008B01C0910C0181E080937B01C33079F4B8
:101EF000F09080018D2FBED8FF20A1F0809180014D
:101F0000811110C070E060E085E09AE0FAD9D83025
:101F100071F0D13C09F001C170E060E085E09AE029
:101F2000F0D908C0D83041F481E08093030181E00A
:101F30008093040180E045C1D23C69F41092800195
:101F40008C2F90E0019665E070E070D580930C01D5
:101F50000E947505EFCFD13BC1F480910201012BA6
:101F600041F49FEF863618F4823018F491E0909394
:101F7000030190910301890F21F481E08093020114
:101F8000D9CF8736D8F386E6F9CFD13E59F4809180
:101F900003018195809303018091040181958093D1
:101FA0000401D6CFD23BE1F481E08093030180911C
:101FB0000201823018F081508093020181E0809309
:101FC0000401C23008F0F0C000FDB4CFEC2FF0E007
:101FD000E65FFE4F80818F3F09F4ACCF8F5FBAC0C0
:101FE000D13009F0F6C00932110511F4D093030184
:101FF000D09057018D2D880FD7FC809590E069E037
:1020000070E0CAD4292FE09056018E2D880FE7FC8E
:102010008095D09101016D2F70E090E0BDD4290F23
:10202000F09055018F2D880FF7FC8095C09100012D
:102030006C2F70E090E0B0D4622F690F80910201A4
:10204000680F7727771F80918001813091F480910C
:102050007D0190917E0125E0969587952A95E1F77F
:1020600024E730E0A901481B590BCA0195D4B901F6
:10207000C9D4862F0E94D90200FD06C00E946902C1
:1020800081708D0D80935701809154018E0D809346
:1020900056010E94690265E2A9D49F0D90935501F3
:1020A0000E9469028F7331F40E9469026DE09ED430
:1020B00090935401DD2339F00E9469028F7319F463
:1020C000D150D09301010E946902811108C00E9481
:1020D00069026EE08BD49093010110925601C330D7
:1020E00038F00E9469028F7119F4C150C093000149
:1020F0000E9469028F7729F40E9469028770809399
:1021000000010932110519F481E0809304018091E6
:10211000AB01080F0093AB010DCFD23C09F410CFF7
:10212000D43C21F48C2F90E004960DCFD13B51F597
:10213000C23090F400FDFECEEC2FF0E0E65FFE4FE3
:10214000808190910401891B8F3F08F08EEF8830C9
:1021500008F488E08083EECEC43009F0EBCE8091A5
:10216000090190910401890F823040F482E080934C
:102170000901809109010E94D902DCCE8937B8F3A8
:1021800088E7F5CFD13E09F407CFD23B09F416CF4B
:10219000D23E09F4DDCED53C81F470E060E08FEEF4
:1021A00090E1AFD880E0E7CFC43009F0C3CE809192
:1021B00009018330F0F28150DACF81E0D13009F4A7
:1021C000A0CFDF91CF911F910F91FF90EF90DF9003
:1021D0000895D13C09F4A0CED43CD1F6A3CF0F93FF
:1021E0001F93CF93DF93D82F8B01883031F48091E8
:1021F0007B01882311F088E06BDE8D2F8079803998
:1022000099F481E080937A01C0917B01CC2311F095
:10221000C0E004C0809120010E94D9028C2FDF9180
:10222000CF911F910F910895803831F410927A0167
:1022300080E00E94D902ECCFC1E0D13079F7C091A3
:102240007A01CC2359F080917B01882309F3B801EE
:1022500081E0DF91CF911F910F913ACE073311406A
:10226000B8F2D093AE0160E080E00E949304D6CF34
:10227000FF920F931F93CF93DF93C82F162F072F33
:10228000F09020018079803909F03BC0DC2FDC70B0
:10229000D1F010927A01D0E080917A01882321F068
:1022A000612F702F8C2F9BDFF0922001C83091F5A9
:1022B000612F702F88E0EFD98D2FDF91CF911F9183
:1022C0000F91FF90089591E090937A01EC2FEF70B9
:1022D000F0E0E45FFE4F80812FEF280F263928F4CD
:1022E0008093200110927B01D7CF90937B01873997
:1022F00090F28759990B65E070E084D380930C01CC
:10230000CBCF803829F410927A0180E00E94D90264
:10231000D1E0C2CFC13069F480917A01811110C03F
:10232000612F702F81E0DF91CF911F910F91FF906E
:10233000B2C9C33039F4612F809111010E94930416
:10234000D0E0BACFC63C49F40E94330570E060E0AB
:1023500085E09AE00E948109F3CFC73B09F0ACCF3A
:1023600070E060E08EE399E00E942408E9CF2F93AB
:102370002FB72F933F938F939F93AF93BF93EF9379
:10238000FF938091D7018823E9F0E091D60120B135
:1023900031B1F0E0EE0FFF1FDF01AE52BE4F2D93C3
:1023A0003C93E253FE4F808191818217930708F49A
:1023B00001962817390708F401979183808381E0FB
:1023C0008093D80181E08093D701FF91EF91BF9175
:1023D000AF919F918F913F912F912FBF2F91189582
:1023E0008F9381E08093B1018F9118958F9381E055
:1023F0008093B0018F911895F89485B7877F85BF3A
:1024000090E088ED0FB6F894A8958FBD90B7977FB0
:1024100090BF0FBE81E088B998E09CB99FE790BB60
:1024200092EA9093720091E19093710091E89BBBC6
:102430008ABB8FEF91E0909369008093680080E8F9
:1024400082BB87BD8CB788608CBFA89580E480BFB5
:10245000D0D9789481E00E94510270E060E08DED67
:1024600099E00E942408109288010E9433059FB1D0
:10247000892F8095881F8827881F8093AF0197FF39
:10248000A1C082E00E945102F89480E890E003D35A
:10249000853A09F0CCC009E811E0C1E8D0E0CE01EE
:1024A000FAD2F80181938F012196C33AD105B9F789
:1024B0007894809189018093830180918A0180932F
:1024C000190180918B018093160180918C0180937A
:1024D000130180918D0180931A0180918E01809368
:1024E000170180918F018093140180919001809356
:1024F0001B0180919101809318018091920180933A
:1025000015018091930180931F0180919401809324
:10251000840180919501809382018091960180933E
:102520001E0180919701809386018091980180938C
:102530008501809199018093780180919A0180931F
:10254000220180919B018093790180919C0180936D
:10255000210180919D0180930C0180919E018093C7
:102560000A0180919F0180930B018091A0018093CB
:1025700009018091A101809310018091A2018093B3
:1025800023018091A3018093C9018091A4018093CC
:1025900024018091A501809312018091A60180936E
:1025A00011018091A70180937C018091A801809303
:1025B0000D018091A90180930E018091AA01809361
:1025C0000F0136C0C0E08C2F0E94D90283E190E059
:1025D000CDD98C2F86950E94D90283E190E0C6D98F
:1025E0009FB1892F8095881F8827881F8093AF010E
:1025F00097FD1AC0CF5FC03431F765E181E00E94DA
:1026000051050E947505C6E98C2F0E94D90284E00D
:1026100090E0ACD9C150C1F734CF8C2F0E94D902C1
:102620008DE090E0A3D9C150C111F7CF2ACF7894A3
:102630008091860181118093200170E060E085E83F
:1026400097E00E94240861E070E085E09AE00E9433
:10265000240840E4242E55245394CC24C394D12C34
:10266000312C412C6CEF662E63E0762E75E0872EC0
:102670007AE0972E0E9488088091B4019091B5016C
:10268000009751F06091B2017091B3010E948109ED
:102690001092B5011092B4018091AE01882349F1E6
:1026A00080E00E94D902A895F3E4F0BF1F989FB183
:1026B000892F8095881F8827881F8093AF0197FFF7
:1026C000F6CF0E9447028CB788608CBF1092D80169
:1026D0001092B1011092B0018091AE0181112CC015
:1026E00022E0209325018CB7877F8CBF82D8A895E4
:1026F00020BE33D9109288018091C7019091C80102
:10270000E5E08B349E0709F038C0C0E7D0E0FE0159
:10271000849180535BD98CE291E028D92196F0E036
:10272000CC37DF07A1F79092B5018092B4011092E7
:10273000B3011092B2019ECF86B78F79806486BFB5
:1027400086B7806186BF889586B78F7E86BF809169
:10275000B00181111092AE018091D801882331F02F
:10276000509225015092CD010E941D068091B10129
:10277000882309F4B1CF4ED8AFCF2FE08836920727
:1027800099F0E0E18F3E9E0729F0F1E188339F0741
:1027900009F0BAC020917B01213009F0B5C0209129
:1027A0007A01222309F4B0C0C0910C01C23009F4AF
:1027B0003EC0F8F0C43009F05DCFD0910901DD0FC3
:1027C000D73908F0D6E98D2F0E94D90285E090E034
:1027D000CDD8809109010E94D90281E490E0C6D849
:1027E000C15089F780ED92E0C1D880E00E94D90203
:1027F00041CFEC2FF0E0E65FFE4FD08186E90E94EA
:10280000D902C11110C0DA3250F4C3010197F1F7B7
:1028100080E00E94D9028D2F90E0A8D82BCF81E0D4
:1028200090E0A4D8F5CF8D2F869590E0FACF0E9446
:1028300069028F73082F10E00E94690267E0D6D00A
:10284000760102C0EE0CFF1C9A95E2F70E94690225
:1028500065E0CCD0E60102C0CC0FDD1F9A95E2F70F
:10286000CE0DDF1D0E94690290E0BE01DFD0C80FCF
:10287000D91FC739D10524F026E9C22F80E0D82F0F
:102880008C2F0E94D902C80171D87E0133E0F594E3
:10289000E7943A95E1F7E11002C0EE24E394F12CBD
:1028A000C80164D85E01AE18BF08E501B7FE02C0DA
:1028B000C32DD42D8C2F0E94D9020E9469028370EF
:1028C00039F4C80153D8CE01959587950E94D90255
:1028D00022E0A216B10424F70E9469026DE086D0BE
:1028E000860102C0000F111F9A95E2F70E9469024B
:1028F000E801219790E0C823D923C00FD11F80E0C1
:102900000E94D902CE0189CFE9E081399E0751F4B6
:102910008091CC0178D880911F01811104CF88EE7D
:1029200093E07BCFF9E0813B9F0721F48091CA01BE
:102930006AD8F5CF2BE082329207B9F48091AF01CB
:10294000811198CE809120010E94D90284E690E006
:102950000DD880E00E94D9028091100190E068EECD
:1029600073E01AD08456910958CF8B5C994049F492
:1029700080E063D881E061D880E05FD880ED97E0A7
:102980004CCF86B78F7986BF86B7806186BF889522
:1029900086B78F7E86BF6ECE0024552704C0080EF2
:1029A000591F880F991F009729F076956795B8F3FE
:1029B0007105B9F7802D952F0895EE27FF27AA27D7
:1029C000BB2708C0A20FB31FE41FF51F220F331F40
:1029D000441F551F969587957795679598F3704096
:1029E000A9F7009799F7BD01CF010895991B79E0E8
:1029F00004C0991F961708F0961B881F7A95C9F78F
:102A000080950895AA1BBB1B51E107C0AA1FBB1FDD
:102A1000A617B70710F0A61BB70B881F991F5A956A
:102A2000A9F780959095BC01CD01089597FB072EDD
:102A300016F4009406D077FD08D0E4DF07FC05D03B
:102A40003EF4909581959F4F0895709561957F4FC5
:102A50000895A1E21A2EAA1BBB1BFD010DC0AA1FDF
:102A6000BB1FEE1FFF1FA217B307E407F50720F0F7
:102A7000A21BB30BE40BF50B661F771F881F991F72
:102A80001A9469F760957095809590959B01AC01BB
:102A9000BD01CF010895E199FECF1FBA8EBBE09A28
:102AA00099278DB30895262FE199FECF1FBA8EBBCB
:102AB000E09A81500DB2021639F01CBA2DBB0FB648
:0E2AC000F894E29AE19A0FBE0895F894FFCFC1
:102ACE00080E1801010101000482294303781E98A3
:102ADE000237180107058282820A0A0A820A010158
:102AEE004615802D0702190116011301020100007F
:102AFE0000000000000100000000000000000100C6
:102B0E0000210123022503270429052C06FF0605B3
:042B1E0004030000AC
:00000001FF
