:100000006FC100008AC100000C94081586C1000071
:1000100084C100000C94021580C100007EC1000064
:100020007CC100007AC1000078C1000076C10000E8
:1000300074C1000072C100000C94C9146EC10000AC
:100040006CC100006AC1000068C1000066C1000008
:1000500064C1000062C1000060C100005EC1000018
:100060005CC100005AC1000058C1000056C1000028
:10007000303133352E323032332D30392D3131009D
:1000800001050414101115FF3F5235DB291C3C7E7D
:100090002E0320E3316A26E22F6F34B82BAB2EFCFF
:1000A0002F4B30EF2F202FFF2DA42C1F2BCD2CDD1D
:1000B0002A7C2B632969294627F3266926B725A2BE
:1000C00023DB220022192128200420FC1EF41DF02D
:1000D0001CF01BF51A001A11192A1849170F16449B
:1000E000152B1423132D1246116E10650F710E8EF1
:1000F0000D8A0C9B0B930AA209C508B007B506D15F
:1001000005E304ED03F402FF01FF01FF01FF01FF1E
:1001100001FF01FF01FF01FF01FF01FF01FF01FFDF
:1001200001FF01FF01FF01FF01FF01FF01FF01FFCF
:1001300001FF01FF01FF01FF01FF01FF01FF01FFBF
:1001400001FF01FF01FF01FF01FF01FF01FF01FFAF
:1001500001FF01FF01FF01FF01FF01FF01FF01FF9F
:1001600001FF01FF01FF01FF01FF01FF01FF01FF8F
:1001700001FF01FF01FF01FF01FF01FF01FF01FF7F
:1001800001FF01FF01FF01FF01FF01FF01FF01FF6F
:1001900001FF01FF01FF01FF01FF01FF01FF01FF5F
:1001A00001FF01FF01FF01FF01FF01FF01FF01FF4F
:1001B00001FF010100010001000200020002000332
:1001C0000003000400050005000600070008000900
:1001D000000A000B000C000D000F001000120013AD
:1001E000001500160018001A001C001D001F002139
:1001F000002300250028002A002C002E00300032A9
:10020000003400360038003A003B003D003E003F1D
:1002100000400041004200420042004200410040D4
:10022000003E003C003A00360032002E0029002338
:10023000001C00140015001600180019001A001BFD
:10024000001D001E0020002100230025002600289C
:10025000002A002C002E0030003200350037003913
:10026000003C003F004100440047004A004D005060
:1002700000530057005A005E00620066006A006E7C
:1002800000720076007B008000840089008E00945C
:100290000099009F00A400AA00B000B700BD00C4F0
:1002A00000CA00D100D800E000E700EF00F700FF2F
:1002B0000007011001190122012B0135013E0148FF
:1002C0000153015D01680173017E018A019601A25B
:1002D00001AE01BB01C801D501E301F101FF01003D
:1002E00011241FBECFEFD4E0DEBFCDBF11E0A0E0F0
:1002F000B1E0E8ECF0E302C005900D92A03CB1073C
:10030000D9F722E0A0ECB1E001C01D92A935B207F7
:10031000E1F70E940E150C94621872CEF89498EDD5
:100320009FBD83BF78940895482F362F272FE6E28C
:10033000F2E090E080E0508151110BC063E070E08A
:100340000E94C917FC01EA5DFD4F4083318322837F
:1003500005C0019633968031910569F70895BC0177
:1003600080915802E1CF10925802109257021092D9
:10037000560281E08093F40108950F931F93CF9369
:10038000C82F08EA17E0C15020F4CF911F910F91B8
:10039000089582E0C3DFC8010197F1F780E0BEDF76
:1003A000F2CF83B1886483B90895AF92BF92CF92A0
:1003B000DF92EF92FF920F93CF93DF9300D000D0A4
:1003C00000D0CDB7DEB75C016B017A012D833E838F
:1003D000202F30E050E040E029833A834B835C8358
:1003E000970150E040E069817A818B819C810E9475
:1003F000DA1761587F4F8F4F9F4F2FEF30E040E06B
:1004000050E00E942618C9016D817E816217730732
:10041000D0F49701261B370BCB01D5012D933C93CC
:10042000F6019183808326960FB6F894DEBF0FBE47
:10043000CDBFDF91CF910F91FF90EF90DF90CF90E4
:10044000BF90AF900895D701A21BB30B9D01ED8122
:10045000FE81EA17FB0708F7C7018E1B9F0B9F0160
:10046000DCCFE0910701F09108013196FB70F46058
:10047000F0930801E09307018091F7018B5A809374
:10048000F701E4918091F7018E0F0895882321F000
:10049000813031F0829A05C0829892988A980895A6
:1004A0008298929A8A9A0895CF93DF9300D00F9200
:1004B000CDB7DEB72091BB013091BC014091BD01A9
:1004C00029833A834B83FE01319650E040E0682F48
:1004D00070E0A1E0B0E09B01042E02C035952795A5
:1004E0000A94E2F7922F937081919D0101C0220F2F
:1004F0008A95EAF7992329F09130C1F080B3822BD5
:1005000019C080B32095822380BB82B3822382BB33
:1005100081B3282321BB4E5F5F4F46305105D9F68A
:100520000F900F900F90DF91CF91089590B3822F8D
:100530008095892380BB82B3822B82BB81B3282B19
:10054000E9CF811182E0B0CF81118AE0ADCF811176
:1005500088E0AACF811188E2A7CF811180E2A4CFE1
:10056000811182E2A1CF81118AE29ECF81E00895BC
:100570009C01CB01BA0140916C0050916D00E0915B
:100580006A00F0916B00D901A82BB92BAB2BA9F411
:1005900010926D0010926C0010926B0010926A0025
:1005A0008FEF91E0909369008093680010926F0044
:1005B00010926E008898899808952115310529F1C7
:1005C000889A009721F1899A4E2B5F2B30936D000A
:1005D00020936C0090936B0080936A004115510545
:1005E00049F0CB01809720916E0030916F00821707
:1005F0009307C8F37093690060936800452B21F45A
:1006000010926F0010926E0008958898DACF899842
:10061000DBCFCF92DF92EF92FF920F93CF93DF93D6
:1006200000D000D0CDB7DEB7811112C04FEF51E03E
:1006300070E060E090E080E00F900F900F900F90DE
:10064000DF91CF910F91FF90EF90DF90CF9090CFFF
:10065000815090E09C01220F331FF901ED54FE4FB1
:10066000E590F490F901E957FF4FC590D4906FEFF2
:1006700070E00E94C91766E970E00E94FF17062F1C
:10068000E0910C01F0E0E25FFE4F858986FD009568
:100690009601A701BE016F5F7F4FCE01039685DEF5
:1006A00069817A81A6018B819C8162DF0F900F9016
:1006B0000F900F90DF91CF910F91FF90EF90DF900F
:1006C000CF900895AC019B0180916C0090916D00DA
:1006D0008417950750F580916C0090916D000196FC
:1006E00090936D0080936C0080916A0090916B00F4
:1006F0008217930738F580916A0090916B000196FC
:1007000090936B0080936A0080916C0090916D00D3
:100710008417950741F440916A0050916B0081E085
:100720004217530709F080E0089580916C00909182
:100730006D0048175907C0F680916C0090916D00CC
:100740000197CECF80916A0090916B0028173907EE
:10075000D8F680916A0090916B000197D1CFE82F75
:10076000F0E0EE0FFF1FED54FE4F8591949170E085
:1007700060E0A8CFE82FF0E0EE0FFF1FED54FE4F32
:100780006591749190E080E09DCFE82FF0E0EE0F4E
:10079000FF1FED54FE4F85919491BC0193CF0F93B1
:1007A000CF93DF9300D000D0CDB7DEB790E0880FB5
:1007B000991FFC01ED54FE4F45915491FC01E957FE
:1007C000FF4F25913491E0910C01F0E0E25FFE4F84
:1007D0000589BE016F5F7F4FCE010396E6DD69811B
:1007E0007A818B819C816EDF0F900F900F900F901C
:1007F000DF91CF910F910895EF92FF920F93CF93D6
:10080000DF9300D000D0CDB7DEB790E09C01220F7F
:10081000331FF901ED54FE4FE590F490F901E957CB
:10082000FF4F259134916FEF70E00E94C91766E980
:1008300070E00E94FF17062FE0910C01F0E0E25FEC
:10084000FE4F858986FD0095A701BE016F5F7F4F32
:10085000CE010396AADD69817A818B819C8132DF8A
:100860000F900F900F900F90DF91CF910F91FF900D
:10087000EF900895CF93DF9300D000D000D0CDB794
:10088000DEB720910E01409114025091150240559F
:100890005B4009F422E0843059F460931A012696F3
:1008A0000FB6F894DEBF0FBECDBFDF91CF91089594
:1008B0006623A9F3823019F497E9961B692F96E015
:1008C000E6E5F1E0DE01119601900D929A95E1F7CF
:1008D0008150990B880F991FA1E0B0E0AC0FBD1FAC
:1008E0008A0F9B1FDC01ED91FC91E20FF11D6083EB
:1008F000D6CFCF92DF92EF92FF920F931F93CF93B9
:10090000DF939C0150910E0190911901E2E0911149
:1009100001C0E52FF0E0E25FFE4F428140930A0103
:10092000858180930901E92FF0E0E25FFE4FC185E8
:10093000642F70E0552381F0C13071F4860F972F3A
:10094000911D95958795DF91CF911F910F91FF9004
:10095000EF90DF90CF900895261737079CF182170C
:1009600013068CF3511102C0822FEDCF841B6C2F24
:100970006150770B8B01E82EF12CC7010E941318F0
:100980006093F0016695E62FF0E0842FD12CC12C06
:10099000D0E0DC17C1F2C601B8010E94FF17842F16
:1009A000860FA82FB0E0B9016A1B7B0B77FF03C04D
:1009B000BD01621B730BCE0CDF1CE617F7071CF69C
:1009C000DF5FE7CF842FBFCFEEE0F1E08685809335
:1009D0000B018389808B80930C018CE0EFE2F1E0C6
:1009E000A3E2B1E001900D928A95E1F7089580911C
:1009F000ED01882351F09091FA019093EF018093DB
:100A0000EC011092EB011092EA0108959091180206
:100A100080E09D3180F0E82FF0E0E159FE4F208129
:100A2000921738F43197E081F0E0E058FF4F84915D
:100A300008958E5FF0CF08950F931F93CF93C82F23
:100A4000CB012091180221502C3138F480E02CDDAC
:100A500080E0CF911F910F9119CDEC2FEF70209175
:100A6000F301211143C0C295CF7020914D0130E0B8
:100A700043E0220F331F4A95E1F762177307B8F579
:100A80004091F2014217130694F5442381F121E0CD
:100A90003091F9013F3008F420E031E0C23009F034
:100AA00030E0232BC1E0C20F2091FB01222309F487
:100AB00058C0ACDFE82FC33071F48091C70190E0DB
:100AC000019663E170E00E94FF178093C701845A8A
:100AD0009E4FDC01CC91CC2309F44DC0C13011F004
:100AE000EE0FC2E08E2FE0DC8C2FB3CFC2E0E730F8
:100AF00010F4F0E016C0E730C1F40091C80110E036
:100B00000F5F1F4FAEDC65E00E94F3179801290FBD
:100B1000311DC90166E070E00E9413188093C8017E
:100B2000FC01E058FF4FE491C6CFE83009F0BCCF9C
:100B30002091FB01222399F02FE030E082239323C0
:100B4000892B51F48091C80190E0019666E070E035
:100B50000E9413188093C801E091C801CACF23E016
:100B6000ECCF9695879563E070E00E94FF17FC013B
:100B7000EE0FFF1FD6CFE0E0B5CFCF93C82F46DFF3
:100B8000CC2319F0C33019F480E0CF918DCCC23062
:100B900011F0880FFACFCF91089581E00895823047
:100BA00019F460934D01089561116093480108950F
:100BB000662369F0813099F480914A019091160280
:100BC000891B680F60934A0182E080930D01809138
:100BD0004901873418F086E4809349010895635EE3
:100BE00060934901F4CF813011F460934E01089570
:100BF000E82FF0E0E25BFE4F6083089540911F0113
:100C0000509120012FEF280F81E090E002C0880F63
:100C1000991F2A95E2F7662339F0842B952B909340
:100C2000200180931F010895809584239523F7CF99
:100C3000CF93DF938EE091E09093F6018093F501DE
:100C4000F894D0E0C0E0E091F501F091F601EC0FEE
:100C5000FD1F6081CE018F579F4F0E945018219633
:100C6000C834D10581F765EA80E890E00E94501809
:100C70007894DF91CF9108951092240230B181B120
:100C80002091F701329536953695337090E0880FB4
:100C9000991F880F991F830F911D820F8093F70171
:100CA00080911902882309F447C01092190280919B
:100CB00022029091FB01992329F01F98109225029E
:100CC0001092220281115EC080910D018823A9F14A
:100CD00080911E0290911F0290931B0280931A0232
:100CE0004096807E61EC72E00E94FF17809148017F
:100CF0008750990B680F791F769567956093180256
:100D00008091E1018823B1F181508093E1018091CC
:100D1000FB01811108C08EE884B981E08093220232
:100D2000109223023EDB80910D01882329F08091EF
:100D30000D01815080930D0108952091FB01809158
:100D40001A0290911B02222359F220911E02309127
:100D50001F02B3E036952795BA95E1F7280F391FA2
:100D600043E0969587954A95E1F7A901481B590BF1
:100D7000CA01B2CF6D3158F670E060E084E0D4DA99
:100D800085E0C3CF813079F680910D0181115EC07D
:100D900080911C0290911D024096DC0145E0B695C1
:100DA000A7954A95E1F740914A0156E096958795B7
:100DB0005A95E1F7042E000C550B9A012E50314044
:100DC000820F931F90931702809316028091D00197
:100DD000E82FF0E0EE0FFF1FEF52FE4F2081318130
:100DE000BD01621B730B9B01B183A0838F5F877072
:100DF0008093D001660F771F660F771F6A0F7B1FE6
:100E00008091490190E0841B950B825F9E4F880F73
:100E1000991F681B790B83E0161617060CF045C066
:100E2000615071098150C1F7161617060CF057C0B2
:100E300037FD74C08091CF011816F4F5861B80939E
:100E4000CF0186E884B9109222026ACF80912002F5
:100E50009091210290931D0280931C02409635E0F0
:100E6000969587953A95E1F79093D2018093D101B9
:100E70009093D4018093D3019093D6018093D501B0
:100E80009093D8018093D7019093DA018093D90190
:100E90009093DC018093DB019093DE018093DD0170
:100EA0009093E0018093DF0173CF6115710509F420
:100EB000B9CF6F5F7F4FB6CF660F771F6530710573
:100EC0005CF0635071097595679588E1861B809386
:100ED000CF0185E029DAB5CF61E070E0F6CF6C3F55
:100EE0008FEF7807DCF437FF19C08091CF0187FFBF
:100EF00002C08450A3CF84EE861B8093CF018091E3
:100F000018028F3108F49DCF8CEF9FEF9C01261BB8
:100F1000370BB9017595679586E0DCCF8091180293
:100F20008E3108F48ECF70E060E087E0D3CF4FEFD2
:100F300051E070E060E090E080E01ACB282F811152
:100F400001C0F5CF215030E0220F331FF901ED54DD
:100F5000FE4F85919491F901E957FF4F45915491C6
:100F600070E060E005CB811101C0E1CF815090E0DD
:100F7000880F991FFC01ED54FE4F65917491FC019F
:100F8000E957FF4F4591549190E080E0F1CA282F36
:100F9000811101C0CCCF215030E0220F331FF90165
:100FA000ED54FE4F85919491F901E957FF4F45911A
:100FB0005491BC01DDCAEF92FF920F93CF93DF9360
:100FC00000D000D0CDB7DEB7811110C04FEF51E097
:100FD00070E060E090E080E00F900F900F900F9035
:100FE000DF91CF910F91FF90EF90C2CA815090E0B6
:100FF000880F991FFC01ED54FE4F45915491FC015F
:10100000E957FF4FE590F490E0910C01F0E0E25FCA
:10101000FE4F05899701BE016F5F7F4FCE0103969A
:10102000C4D969817A81A7018B819C81A1DA0F9053
:101030000F900F900F90DF91CF910F91FF90EF9055
:101040000895813019F410921C010895823019F42A
:1010500060931D010895833019F460931B01089576
:10106000843019F460930F010895853011F4609372
:101070003C010895813019F460933B01089582305A
:1010800019F4609352010895662389F0843021F4A5
:101090006150609353010895853021F4615060934D
:1010A00054010895863019F46150609355010895F4
:1010B000809153018823C1F020910C0180EE9FE0C4
:1010C00002C0959587952A95E2F780FD0DC0909115
:1010D000FA0180915401981748F081E02091550160
:1010E000921728F480E0089582E0089583E008953F
:1010F000CF93C82F8091FA01811109C0CC2339F018
:1011000080915201C81718F4F3DF82E036D980913C
:10111000FB0181110BC0C8D991E0C11101C090E061
:1011200081E0C73408F480E0890FB0D98091FB01D9
:1011300081110EC0CC23A1F1BBDF1FDD91E0C111F5
:1011400001C090E081E0C73408F480E0890F9ED9A7
:10115000C11129C08898899810926D0010926C0076
:1011600010926B0010926A0010926F0010926E0045
:101170008FEF91E090936900809368008091FA016D
:101180008C138093F901C093FA01C093F80182E0B7
:10119000C23020F081E0CA3008F080E0CF91BEC8B4
:1011A00080E082D9CBCF80910C0190E065E070E0C7
:1011B0000E94C917FC01E158FE4F0190F081E02D1B
:1011C0008FEF8C0F0995DACFCF93DF93C82FD09193
:1011D000FA0180E08DDFC0930C018D2FDF91CF915C
:1011E00087CF8093F10190913C01992389F09091F0
:1011F0000E01992369F08093E50184E08093E30177
:1012000081E08093E4018091FA018093E6010895E2
:101210006FCFCF93C091FA0188E28C0F873908F025
:1012200080E066DF83E0A9D88C2FCF9161CFCF9388
:10123000C091FA0180E05CDF83E09FD88C2FCF91D2
:1012400057CFFF920F931F93CF93DF938C01D62F2D
:10125000C72FF42E8091140290911502892B31F042
:10126000E0911402F091150289E00995109315029E
:1012700000931402012B41F0E0911402F091150249
:101280006D2F7C2F8F2D099581E08093F401DF91E4
:10129000CF911F910F91FF90089520910302283064
:1012A00080F4E22FF0E0EE0FFF1FEC5FFD4F808334
:1012B00091832F5F2093030248E0C3DF80910302F4
:1012C00008958FEF0895CF92DF92EF92FF920F93E0
:1012D0001F93CF93DF93AB01E0910C01833C11F599
:1012E00000911F01109120018E2F2CE0CCE0D0E066
:1012F00090E00196BE010E941318A801082E02C0BA
:10130000569547950A94E2F740FD02C0215081F7B7
:10131000E81769F159DF80910C0180931E0188DC88
:10132000C0E0A7C0F0E0E25FFE4FC589833B09F053
:1013300081C0672BC1F481E08093C6011092C50182
:10134000309105011316ACF4CF3FB9F48091C4017C
:101350008C1362C08091C501811101C068DF81E0FA
:101360008093C50159C08091C6018111E9CFC1E0C8
:1013700080C0332359F3CC2349F320913B0122232E
:1013800009F456C0CA0168E170E00E94FF17892B7A
:1013900039F6213009F44CC08EEF90E0422F4150D5
:1013A000550BBA010E941318862F632F330F770B4A
:1013B00090E00E94C917FC01EC0FF11DCFE721302E
:1013C00059F1C0E0F7FD28C0CFEFEF3FF10509F07C
:1013D0001CF5CE2F222301F1822F8150990B6C0135
:1013E0008FEF90E0B6010E9413186695062F10E06B
:1013F000F12CE12CC701B6010E94FF17C62FCF01C7
:10140000861B9109081719073CF49FEFE90EF11CA0
:101410008E2D8195821770F3C093C401E0910C0169
:10142000F0E0E25FFE4FC58B8091FA0161DE78CF7C
:1014300081E0BBCF833E89F41092C60181E0CC23CA
:1014400029F0CF3F39F08091050181958093050106
:10145000EFDBEACFC0930501FBCFC0911901C111A9
:1014600086CF893B09F083CF70E060E08CE69BE09B
:1014700014DF8C2FDF91CF911F910F91FF90EF9090
:10148000DF90CF900895282FCB01283039F41092A7
:10149000ED011092EB011092EA010895213B59F4FD
:1014A0008091ED0181508330B8F583E08093ED01A8
:1014B0008093EC01EECF253BA1F46EE370E00E9437
:1014C000FF17892B49F58091ED018A3F28F58B5F45
:1014D0008093ED018093EC011092EB011092EA01F0
:1014E00098CE2130C9F48091EA019091EB010196E8
:1014F00088382EE0920728F49093EB018093EA015C
:1015000008951092EB011092EA018091ED01882379
:1015100019F081508093ED010895EF92FF921F938F
:10152000CF93DF9310912602111106C0DF91CF9166
:101530001F91FF90EF900895E0902702F09028020D
:10154000C0910302C1500C2E000CDD0BC7FD0EC074
:10155000FE01EE0FFF1FEC5FFD4F0190F081E02DCB
:10156000B701812F099521978111F0CFE6E2F2E0D2
:10157000838180838481958192838183339682E005
:10158000E335F807A9F71092530210925502109212
:101590005402C8CF80910302882319F081508093B0
:1015A0000302E091030290E080E0EE2341F0E1507D
:1015B000FF0BEE0FFF1FEC5FFD4F808191814AE032
:1015C00070E060E03ECE1F93CF93DF93162FD72FAE
:1015D000C42FF9018830B9F480910C018093CB01BC
:1015E0001092CA0180E084DD8091FC0181112FC03E
:1015F0008091CA018F5F8093CA0170E060E086E746
:101600009BE04BDE24C0982F907F903B49F5809162
:10161000CA01481718F181508C3040F49091EE01C6
:10162000992321F090910C018913CEDD812F9D2FFC
:101630006DE570E00E94FF17069771F48091CA0172
:101640008F5F8093CA01C81710F088E351DD80E0F6
:10165000DF91CF911F91089582E1F8CF80E0F6CF1E
:10166000903E51F48091CA01882371F0481760F0D0
:101670008091CB01A9DDC1CF8A3041F46091E201B4
:101680008091CA010995D4DA85DFE1CF8930F9F676
:101690008091CB0199DDDBCF2AE334E043E093CFA7
:1016A0002AE334E044E08FCF21E238E045E08BCFFD
:1016B0002AE338E045E087CF2FEC35E042E083CFE6
:1016C00028ED35E042E07FCF23EF35E041E07BCFEE
:1016D00028EF35E043E077CF91E09093EE012EEFD5
:1016E00035E04CE070DF1092EE010895883039F457
:1016F0001092E2011092C90180E0FADC0DC0813045
:1017000009F59091C901911109C06032710520F06D
:101710008093C9010E94B30180E00895913081F463
:101720006B3B710520F082E08093C901E5CF611524
:10173000710591F3862F880F880F88708E5EDDCF3C
:1017400029DFEACF813811F0813E31F791E09093A3
:10175000C901813E49F48091E201865F8093E201F4
:101760000E94B3018BE4C9CF8091E2018F5FF6CF75
:101770000F931F93CF93DF93D82FC92F8B010ADFCD
:10178000B8018D2F9C2FDF91CF911F910F9185CDA7
:10179000813C39F470E060E08FEE90E1E9DF80E0B9
:1017A0000895823C29F470E060E089E99EE0F6CF7C
:1017B000873B31F470E060E080E69BE06EDDEFCFC8
:1017C00081E00895813C39F470E060E08FEE90E1B3
:1017D000CFDF80E00895823C29F470E060E08AE683
:1017E0009EE0F6CF81E00895843011F580911402D7
:1017F0009091150222E18C35920731F469E170E095
:101800008AE19CE0B5DF0DC08A519C4061F4909163
:10181000FA01923040F0892F869596959695890F1A
:10182000E0DC80E0089570E060E08FEE90E1EACFC8
:1018300081E00895BF92CF92DF92EF92FF920F93D3
:101840001F93CF93DF93C82F8B0180911E0180934C
:101850000C01E0900A01D091090180910E01B09035
:10186000F001811102C0BB24B394C0900F0180919C
:1018700019018111C0901A01CC2009F43FC041E048
:10188000C41621F080910B018D17C0F1F6E9FF2EEF
:10189000D090ED01B8018C2FF6DD8091ED01882309
:1018A00009F40FC2D11004C09091FA019093EF0196
:1018B0009C2F9D7F983021F51092E901CA3019F4D0
:1018C00000910B0110E0E016110630F4D01711065C
:1018D00019F010F000930B01C8010BD882DC81E0F5
:1018E00080930601D0E08D2FDF91CF911F910F9152
:1018F000FF90EF90DF90CF90BF900895FD2EC8CF5E
:10190000C13C09F4E1C1C23C49F48091FA018F1550
:1019100008F03DC08F2D65DC6AD8E4CFC43C39F4B3
:1019200080E0E6DB70E060E083EC9EE0D1C19FE404
:101930009C0F923008F057C080910E01882351F11E
:10194000C80168E170E00E94FF17892B59F62091C9
:10195000FA010115110549F5C23B09F58FEF809396
:101960000601C091FA01809106016B2D70E0082EEE
:10197000000C990B0E94C9178C0F911D0E947904CD
:1019800080930B01C81719F08D1301C050DC8091B2
:101990000B01C1CF6091160170E0C801D4CF2D17A3
:1019A000E8F6E216F0F281E0DACFE0911601F0E01D
:1019B000CF0166E371E00E94C9178017910710F408
:1019C0002D1760F6CF016CE672E00E94C9178017F0
:1019D000910738F6E21628F21CDC70E060E083EC38
:1019E0009EE0C6DEBECF9FE19C0F923020F4809136
:1019F0000601819575CFC13009F087C00932110504
:101A000011F4C0930601882381F1C091EF01D0E069
:101A100090E0BE010E94C9179C01E091EC01F0E04A
:101A2000BF010E941318462FC9018C1B9D0BBF01DB
:101A30000E941318242F261B8091EA019091EB013C
:101A40006EE370E00E94FF17822F90E00E94C9179A
:101A50006CE370E00E94FF17842F861B461301C0C1
:101A600081E08093F8018093F101C091F801209109
:101A7000FA014C2F421B550BCA016091CC017091A9
:101A8000CD016F5F7F4F7093CD016093CC010097C4
:101A900009F428CF40E052E097FF06C040E450E050
:101AA000233810F440E051E05695479597FD019694
:101AB000959587950097C1F74617570708F012CFFD
:101AC000C217F8F4CFEFC20F80910C0190E065E0EF
:101AD00070E00E94C917FC01E158FE4F0280F381BB
:101AE000E02D8FEF8C0F0995882331F0D091F8010C
:101AF0008C2FFEDAD093F8011092CD011092CC0118
:101B0000F1CE2C1708F7C1E0DECFC530A9F48091E3
:101B1000FA01823408F4E6CE90E0801B910B8739FD
:101B2000910514F086E990E08134910514F481E484
:101B300090E08093F801D6CEC63079F49091FA0106
:101B40008091F101981708F0CDCE090F111D90E09A
:101B50008017910774F3C801E7CFC73069F49091FB
:101B6000F8018091FA01891710F48F5FE2CF98177E
:101B700008F0B8CE8150DDCFC33C99F0C63C49F5A2
:101B800081E090910E01911180E080930E0150D878
:101B90004EDB8091FA0190E00E94790480930B0162
:101BA000BACE60911F017091200190E080E020E0AA
:101BB000AB01082E02C0569547950A94E2F7417092
:101BC000240F01968C30910599F72230C8F2D1E0AC
:101BD0008ACED0911901D111FACF8DE48C0F8230C9
:101BE000C8F4C33B69F480910C0190E065E070E0BB
:101BF0000E94C917FC01E158FE4F84818111E7CF93
:101C0000012B09F06FCECC2011F086E9F82E8F2D34
:101C1000E8DA69CE8DE18C0F823090F4C33E69F42E
:101C200080910C0190E065E070E00E94C917FC0112
:101C3000E158FE4F84818111CACF80910B01E8CF1A
:101C4000C53C41F480E054DA70E060E080E094E16B
:101C50008FDD49CE70E060E08CE49BE0C73BE9F0AB
:101C6000CA3CA9F48091FA0180931C0180910C0177
:101C7000809321018CE0E3E2F1E0AFE2B1E001907A
:101C80000D928A95E1F70E941806C3DA2CCECA3B62
:101C900031F470E060E084E59BE0FFDA24CEC83CDC
:101CA00009F095CF80915301882339F010925301A8
:101CB0008091FA011DDABBDA16CE81E080935301E0
:101CC000F7CFDD2009F4F4CD70E060E08FEE90E115
:101CD0004FDD08CECF93C0911901C11128C0813CBE
:101CE00041F470E060E08FEE90E142DD8C2FCF9107
:101CF0000895823C29F470E060E088EC9BE0F5CF29
:101D0000833C69F48091220190E001966CE070E0E0
:101D10000E941318809322010E941806E7CF873B88
:101D200031F470E060E08CE59BE0B7DADFCFC1E032
:101D3000DDCF282FCB01213C39F470E060E08FEE3D
:101D400090E116DD80E00895223C29F470E060E027
:101D500082EE9BE0F6CF213B41F46EE370E00E94FF
:101D6000FF17892B79F755DAEDCF213E51F46EE359
:101D700070E00E94FF176F5F609347010E94180692
:101D8000E1CF81E008950F931F93CF93DF93C82F86
:101D90008B01873B89F480E0ABD981E08093F3012C
:101DA000C8018F739927892B09F4A2C0B8018091CB
:101DB0004C010E941C05BBC080798039F9F49091D8
:101DC0001001209111018C2F8F70813029F4822F06
:101DD000921748F4892F07C080911C01811103C01C
:101DE000822F2917B8F384D9C33C09F044C011DA13
:101DF00070E060E08FEE90E1BBDC99C0803811F4B8
:101E000080E0F1CFC83009F08AC01092F20170E092
:101E100060E080914C010E941C05D0911901D11104
:101E20007CC0CA3B09F079C070E060E084E69BE0CA
:101E300034DA8D2FDF91CF911F910F910895C33028
:101E400099F68091F2018F3F19F08F5F8093F20134
:101E500080911C01882309F4A9CF80911D0190E095
:101E600062EC71E00E94C9170817190708F49ECFA9
:101E70000E94E4049BCF60910B0170E0C43C39F0F8
:101E8000C43B41F4D4D91092580261E070E08AE179
:101E90009CE0B2CFC53C19F466E970E0F8CFC33BD3
:101EA00081F4C8016EE370E00E94FF17892B09F0EE
:101EB000B4CF70E060E083ECDF91CF911F910F9180
:101EC00002CAC73C11F590914C01892F82958F7001
:101ED0008F5F83708295807F9F70892B80934C01E8
:101EE00070E060E00E941C050E94180692D91FC095
:101EF00020914C01822F8F708F5F207F6BE00E94BA
:101F0000F317922B90934C0151CFC73E09F085CF28
:101F10001092F3010E9418060AC0D1E08ACFC130A6
:101F200009F08DCF0931110510F0C093FB01D0E00D
:101F300080CF86E884B910922202109223020E9478
:101F4000D101E1E6F0E0808182608083139A87EE20
:101F500083B908950F931F93CF931092FE01809140
:101F60005602909157029C012F5F3F4F882790782F
:101F7000822B932B90935702809356029091FC01F1
:101F80002FB1822F8095881F8827881F8093FC019E
:101F90009817B9F01092FB018093FC0190915802C0
:101FA000892F27FD3BC080699F709F30A9F58093E2
:101FB000580290E080E00E94AF0110925702109208
:101FC000560200915602109157028091FB0188231E
:101FD00091F1B80183E00E9494019FDA0134110568
:101FE00020F00F701127012B99F41092CE0181E09F
:101FF000809325029EDFC091CE01C11105C00E94D1
:10200000D10181E080931902CF5FCF71C093CE01DF
:10201000CF911F910F9108958F5FC9CF8F7E95FD4E
:1020200008C08068809358028091560290915702B0
:10203000C2CF806CF7CFC09158028C2F807F803B3D
:1020400049F470E060E081E00E949401C8010E94C0
:10205000AF01D1CFB80181E00E949401C4FF0FC04D
:10206000C5FDF4CF0831110530F2109257021092DD
:102070005602C062C093580290E080E0E8CFCC23C3
:1020800009F4B9CFC5FF03C00E94B301B4CF023138
:10209000110508F4B0CFC064C093580290E080E00E
:1020A0000E94AF01F1CF8091240281110E943C0671
:1020B0008091FE0181114ECF0895EF92FF920F9310
:1020C0001F93CF93DF93EC0108E017E082ECE82E3A
:1020D000FF24F394209739F4DF91CF911F910F9152
:1020E000FF90EF9008958091F4018111F5CF8091D8
:1020F000FA01823068F482E00E948E01C7010197E4
:10210000F1F780E00E948E01CEDF07DA2197E2CF5F
:1021100080E00E948E01C801F2CF0F931F93CF93EE
:10212000DF93C82F06EA811102C00CE0C1E0D09114
:102130000C0110E08091220147D888E20E947808C3
:10214000D0930C01C801B9DF809122013DD880E015
:102150000E947808D0930C018AEF90E0AEDFC15066
:1021600049F78D2F31D88AE992E0DF91CF911F9105
:102170000F91A3CFCF93DF93282F64E634D7382F66
:10218000C92F892F6AE02FD7D92F243650F0832FFB
:10219000C4DF8C2F6AE027D7C0DF8D2FDF91CF916E
:1021A000BCCFCA30B0F7F9CFCF93DF93D82FC3E0BD
:1021B00080910B010E94780888EC90E07EDFDD239F
:1021C00019F080E991E079DF80E00E94780888ECDE
:1021D00090E073DFC15061F7DF91CF9108950F93C5
:1021E0001F93CF938B01883059F590913C0199232F
:1021F000F9F09091FA019923D9F01092E5018093BA
:10220000E30181E08093E4019093E60101E010E0B6
:102210001092F20180911E0180930C011092ED0149
:10222000012B51F0C0E08C2FCF911F910F91089599
:1022300080E00E947808ECCF81E08093FB01F2CF30
:10224000813051F46931710568F3C091E401C11125
:10225000E9CF8093FB01E7CF833061F58091F201F4
:102260008F3F19F08F5F8093F20180911C018823CA
:1022700059F080911D0190E062EC71E08AD6081758
:10228000190710F00E94E404B80180914B010E94EC
:102290001C0580914E01882329F290E062EC71E0E8
:1022A00078D68017910708F0BDCF70E060E083EC2E
:1022B0009EE018C0813BC1F481E090E00E94790467
:1022C0000E94780880911B018111ACCF80910E0192
:1022D000811104C00831110508F4A4CF61E070E059
:1022E0008AE19CE045DA9ECF813EC1F38138D9F482
:1022F000C0913C0180910B0190E0CC2379F00E94C9
:1023000079048093E50188E08093E30181E0809384
:10231000E4018091FA018093E60184CF0E94790460
:102320000E94780880CF60910B0170E0813CC1F27F
:10233000823BA1F41092F20180910F01909119015A
:10234000911180911A01811107C086E990E00E94E5
:1023500079040E94780866CF86E9FBCF823E11F4AB
:1023600080E0F7CF66E970E0823C09F4B9CF8339A9
:1023700019F41092E401F4CF833C29F470E060E09A
:102380008AE69EE0AFCF843C19F40E9409098DCF04
:102390008D3B41F4F89488ED8FBD88E880BF789438
:1023A000A895FFCF8F3C29F470E060E08DEC95E0BC
:1023B00099CF8A3BB1F40115110509F051C0C091C4
:1023C0001901CC2339F00E940909109219010E94C9
:1023D000180628CF70E060E080E59BE00E944D0980
:1023E00022CF833B29F470E060E08CE592E17ACF64
:1023F000873CB1F490914B01892F82958F708F5F4C
:1024000083708295807F9F70892B80934B0170E051
:1024100060E00E941C050E9418060E94090902CF74
:10242000873BC9F481E08093F301C8018F7399273A
:10243000892B59F420914B01822F8F708F5F207F61
:102440006BE0D1D5922B90934B01B80180914B0159
:102450000E941C05E7CE873E19F41092F301B7CF16
:10246000C0911901C11126C08A3C41F40E9409099A
:1024700081E0809319010E941806D5CE853C41F475
:102480000E94090970E060E080E094E171D9CBCE50
:10249000863C39F40E94090970E060E08AE494E126
:1024A000F5CF893B39F4012B29F470E060E088E531
:1024B0009BE094CFC1E0B7CEFF920F931F93CF93D1
:1024C000DF93D82F8B01C091E70181E08093E90170
:1024D000C43081F4F090ED018D2F0E94430AFF205B
:1024E000A1F08091ED01811110C070E060E08FEEED
:1024F00090E13ED9D83071F0D13C09F00EC170E0C6
:1025000060E08FEE90E134D90CC0D83061F481E006
:102510008093030180913D018093E70181E08093E6
:10252000040180E063C1D23C69F41092ED018C2F6C
:1025300090E0019666E070E076D580933D0180934F
:10254000E70100C1D13BC1F480910201012B41F4AC
:102550009FEF863618F4823018F491E090930301CF
:1025600090910301890F21F481E080930201D9CF7A
:102570008736D8F386E6F9CFD13E59F4809103012E
:1025800081958093030180910401819580930401DA
:10259000D9C0D23BE1F481E0809303018091020134
:1025A000823018F081508093020181E08093040111
:1025B000C23008F00EC100FDB4CFEC2FF0E0E25FB6
:1025C000FE4F86A98F3F09F4ACCF8F5FD8C0D130C2
:1025D00009F012C10932110511F4D0930301909151
:1025E000C301892F880F97FD809590E069E070E026
:1025F000D0D4292F8091C201682F660F87FD609586
:102600008091010170E090E0C4D4290F8091C10154
:10261000682F660F87FD60958091000170E090E063
:10262000B8D4622F690F80910201680F7727771F56
:102630008091ED01813091F48091EA019091EB015C
:1026400025E0969587952A95E1F724E730E0A901E2
:10265000481B590BCA019DD4B901D1D4862F0E94C1
:10266000780800FD09C00E943102982F9170809176
:10267000C301890F8093C3018091C2019091C00171
:10268000890F8093C2010E94310265E2ACD480912F
:10269000C101890F8093C1010E9431028F7331F40F
:1026A0000E9431026DE09FD49093C001C09101015E
:1026B000CC2339F00E9431028F7319F4C150C093BA
:1026C00001010E943102811108C00E9431026EE0B6
:1026D0008AD4909301011092C201C0910001C330CD
:1026E00038F00E9431028F7119F4C150C09300017B
:1026F0000E9431028F7729F40E9431028770809303
:1027000000010932110519F481E0809304018091E0
:10271000F701080F0093F70104CFD23C09F407CF6B
:10272000D33C99F480910C0190E001966CE070E04C
:102730007AD40E94E408EC2FF0E0E25FFE4F809133
:102740000C0180AB0E941806ECCED43C21F48C2FF7
:1027500090E00596EFCED13B51F5C23090F400FDEC
:10276000E0CEEC2FF0E0E25FFE4F86A990910401ED
:10277000891B8F3F08F08EEF883008F488E086AB25
:10278000D0CEC53009F0CDCE8091460190910401A4
:10279000890F823040F482E08093460180914601A7
:1027A0000E947808BECE8937B8F388E7F5CFD13ECE
:1027B00009F4E9CED23B09F4F8CED23E19F2D53C69
:1027C00089F470E060E080E094E10E94B80B80E062
:1027D000E7CFC53009F0A5CE809146018330F0F2F5
:1027E0008150DACF81E0D13009F48BCFDF91CF91E6
:1027F0001F910F91FF900895D13C09F091CF7FCEAA
:102800000F931F93CF93DF93D82F8B01883031F430
:102810008091E901882311F088E04EDE8D2F8079C8
:10282000803999F481E08093E801C091E901CC23DB
:1028300011F0C0E004C080910B010E9478088C2F39
:10284000DF91CF911F910F910895803831F410924C
:10285000E80180E00E947808ECCFC1E0D13079F740
:10286000C091E801CC2359F08091E901882309F354
:10287000B80181E0DF91CF911F910F911DCE0733F9
:102880001140B8F2D093FB0170E060E080E00E945C
:102890001C05D5CFFF920F931F93CF93DF93C82FC3
:1028A0008B01F0900B018079803909F03DC0DC2F5D
:1028B000DC70C1F01092E801D0E08091E80188233B
:1028C00019F0B8018C2F9CDFF0920B01C830C1F5D4
:1028D000B80188E058DA8D2FDF91CF911F910F91C9
:1028E000FF90089591E09093E801EC2FEF70F0E0F5
:1028F000E25BFE4F80812FEF280F263948F480934A
:102900000B011092E90180911E0180930C01D5CF3B
:102910009093E901873980F28759990B66E070E05E
:1029200082D38093E701C9CF803841F41092E80147
:1029300080E00E94780881E08093F401D1E0BDCF6F
:10294000C13061F48091E801811117C0B80181E0C4
:10295000DF91CF911F910F91FF9015CAC33019F4E9
:10296000B80183E0F5CFC63C51F40E94090970E03C
:1029700060E08FEE90E10E94B80BD0E0ACCFC73B97
:1029800009F0A9CF70E060E088E69BE00E944D0965
:10299000F4CF2F932FB72F933F938F939F93AF93A2
:1029A000BF93EF93FF93809123028823E9F0E09196
:1029B000220220B131B1F0E0EE0FFF1FDF01A25E75
:1029C000BD4F2D933C93E65EFD4F80819181821730
:1029D000930708F401962817390708F401979183A3
:1029E000808381E08093240281E080932302FF9121
:1029F000EF91BF91AF919F918F913F912F912FBFF9
:102A00002F9118958F9381E08093FE018F911895F7
:102A10008F9381E08093FD018F911895F89485B78D
:102A2000877F85BF90E088ED0FB6F894A8958FBD9D
:102A300090B7977F90BF0FBE88E08CB98FE780BBBF
:102A400082EA8093720081E1809371008FEF91E0C0
:102A5000909369008093680080E882BB87BD8CB743
:102A600088608CBFA89580E480BF63DA789481E0A9
:102A70000E94BD0170E060E084EF9BE00E944D0980
:102A80001092F4010E9409099FB1892F8095881F37
:102A90008827881F8093FC0197FFA4C08EE091E0F7
:102AA0009093F6018093F501F89480E890E0F0D2DD
:102AB000853A79F40091F5011091F601C1E8D0E072
:102AC000CE01E6D2F80181938F012196C93CD10550
:102AD000B9F7789480911C0181110E94E40470E0A0
:102AE00060E083E699E00E944D0961E070E08FEEBE
:102AF00090E10E944D0940E4242E33243394CC24E9
:102B0000C394D12C512C412C6FEE862E60E1962E71
:102B10007FE7672E70E0772E0E948D0A8091010278
:102B200090910202009751F06091FF0170910002B4
:102B30000E94B80B10920202109201028091FB01D8
:102B4000882349F180E00E947808A895F3E4F0BF5B
:102B50001F989FB1892F8095881F8827881F809391
:102B6000FC0197FFF6CF0E94B3018CB788608CBF41
:102B7000109224021092FE011092FD018091FB013F
:102B8000811165C022E020930D018CB7877F8CBF37
:102B9000D0D9A89520BE87DA1092F4018091140252
:102BA00090911502ECE08A319E0709F077C00E94EF
:102BB00058080E94BD0580913C01882309F4DEC1BC
:102BC0008091E401882309F4D9C13091FA01209160
:102BD000E5013213B3C11092E4018091E6018093C4
:102BE000F9019ACFC0E08C2F0E94780883E190E031
:102BF00064DA8C2F86950E94780883E190E05DDA94
:102C00009FB1892F8095881F8827881F8093FC019A
:102C100097FD1AC0CF5FC03431F765E181E00E94B3
:102C2000D8050E941806C6E98C2F0E94780884E017
:102C300090E043DAC150C1F731CF8C2F0E94780861
:102C40008DE090E03ADAC150C111F7CF27CF8091E3
:102C500025028823F9F086B78F79806286BF86B710
:102C6000806186BF889586B78F7E86BF8091FD0183
:102C700081111092FB0180912402882321F030926F
:102C800019020E943C068091FE01882309F476CF48
:102C900061D974CF86B78F798064E0CFF5E08D3C41
:102CA0009F0749F5C0E7D0E0FE01849180538A3048
:102CB00088F433DA8CE291E000DA21966C167D0616
:102CC00099F79092020280920102109200021092F3
:102CD000FF0122CF10E0812F8295880F80720E9421
:102CE000780880E190E0E9D91F5F1931A1F78AE9FE
:102CF00092E0E3D9DFCFF2E18C359F0799F024E130
:102D00008030920729F0E4E18A349E0709F0D8C0A8
:102D10002091E901213009F0D3C02091E80122235C
:102D200009F4CEC0C091E701EC2FF0E0E25FFE4F66
:102D300080A980930C01C33009F455C0A8F4C230B7
:102D400099F1D6A986E90E94780882E090E0CC2328
:102D500019F08D2F869590E0B0D980E00E94780818
:102D60008D2F90E0AAD9D8CEC53009F0D5CEC0912C
:102D70004601CC0FC73908F0C6E9D4E08C2F0E9479
:102D8000780885E090E099D9809146010E94780802
:102D900081E490E092D9D15089F780ED92E08DD90D
:102DA00080E00E947808B8CED0910B01C0E080E0AE
:102DB000CC2319F0C53019F481E00E94E4088D2F6E
:102DC0000E94780881E290E078D980E00E9478083B
:102DD00082E490E072D9CF5FCA3049F780911E013A
:102DE00080930C0199CE0E9431028F73082F10E05E
:102DF0000E94310267E0F7D0760102C0EE0CFF1CA2
:102E00009A95E2F70E94310265E0EDD0E60102C03A
:102E1000CC0FDD1F9A95E2F7CE0DDF1D0E94310227
:102E200090E0BE0100D1C80FD91FC739D10524F0E9
:102E3000F6E9CF2F20E0D22F8C2F0E947808C8010E
:102E40003CD97E0133E0F594E7943A95E1F7E1103F
:102E500002C0EE24E394F12CC8012FD95E01AE1814
:102E6000BF08E501B7FE02C0C52DD42D8C2F0E94EE
:102E700078080E943102837039F4C8011ED9CE014E
:102E8000959587950E947808F2E0AF16B10424F773
:102E90000E9431026DE0A7D0860102C0000F111F11
:102EA0009A95E2F70E943102E801219790E0C82349
:102EB000D923C00FD11F80E00E947808CE0152CFE5
:102EC0002EE08A36920751F48091180253D98091EE
:102ED00019018111F6CE88EE93E044CFEBE0883CF7
:102EE0009E0721F48091160245D9F5CFFEE089397D
:102EF0009F07B9F48091FC0181110ECE80910B01E6
:102F00000E94780884E690E0D8D880E00E94780893
:102F10008091470190E068EE73E03BD084569109C0
:102F200021CF825E9B4009F046CE80E03DD981E012
:102F30003BD980E039D980ED97E014CF6091E3016F
:102F4000321768F4822F831B861738F04CD0830F1A
:102F50000E9478088AE090E005CF81E0F8CF862FC4
:102F600090E06AE170E015D06091E601621B70E0CC
:102F70005AD0EB0121968FEF830F9ECF86B78F79C2
:102F800086BF86B7806186BF889586B78F7E86BFED
:102F9000C3CD0024552704C0080E591F880F991F60
:102FA000009729F076956795B8F37105B9F7802DEC
:102FB000952F0895EE27FF27AA27BB2708C0A20F49
:102FC000B31FE41FF51F220F331F441F551F969593
:102FD00087957795679598F37040A9F7009799F7CB
:102FE000BD01CF010895991B79E004C0991F961780
:102FF00008F0961B881F7A95C9F780950895AA1B3B
:10300000BB1B51E107C0AA1FBB1FA617B70710F0D3
:10301000A61BB70B881F991F5A95A9F78095909505
:10302000BC01CD01089597FB072E16F4009406D03D
:1030300077FD08D0E4DF07FC05D03EF4909581953C
:103040009F4F0895709561957F4F0895A1E21A2EC4
:10305000AA1BBB1BFD010DC0AA1FBB1FEE1FFF1F3C
:10306000A217B307E407F50720F0A21BB30BE40B8C
:10307000F50B661F771F881F991F1A9469F76095D3
:103080007095809590959B01AC01BD01CF0108958D
:10309000E199FECF1FBA8EBBE09A99278DB30895B0
:1030A000262FE199FECF1FBA8EBBE09A81500DB258
:1030B000021639F01CBA2DBB0FB6F894E29AE19AC9
:0830C0000FBE0895F894FFCF44
:1030C800080E18010101010004820A4603020001EA
:1030D8000A0A0A8282820107050100000000031F14
:1030E8000003030000008000000000000000000052
:1030F8000000800000000000000000000104000043
:103108000000000029439602072D001839040082A8
:103118001E9915010F461001130116010201000046
:103128000000000000010000000000000000010095
:1031380000210123022503270429052C06FF069EEA
:1031480007AF0300B307BA0300C707C50300DB07CF
:10315800CF03010903FC0301A102B60200A402B6D1
:103168000200A702B60200AA02B60200AD02B60229
:1031780000B002B60200B302B60200050403000064
:00000001FF
